:100000000C943E000C945B000C945B000C945B0021
:100010000C945B000C945B000C945B000C945B00F4
:100020000C945B000C945B000C945B000C945B00E4
:100030000C945B000C945B000C945B000C945B00D4
:100040000C945B000C945B000C945B000C945B00C4
:100050000C94F7000C945B000C945B000C945B0018
:100060000C945B000C945B000C945B000C945B00A4
:100070000C945B000C945B000C945B0011241FBE7D
:10008000CFEFD0E1DEBFCDBF12E0A0E0B1E0E0E015
:10009000FFE002C005900D92A039B107D9F712E038
:1000A000A0E9B2E001C01D92A63AB107E1F70E94B3
:1000B000EE040C947E070C9400009093C50080938E
:1000C000C4001092C00088E98093C1008EE0809344
:1000D000C200089540E050E068EC70E00AC028EEED
:1000E00033E0FB013197F1F721503040D1F74F5FFA
:1000F0005F4F481759079CF3089540E006C06AE037
:1001000070E00E941A07CB014F5F18161906BCF366
:10011000842F0895CF92DF92EF92FF920F931F9357
:10012000CF93DF93EC018B01009731F480E3DB0187
:100130008C9311961C9224C00E947D00E82EFF240F
:10014000F70131976801CE0EDF1E12C0CE016AE0C2
:1001500070E00E941A07805DD6018C93CE016AE0A0
:1001600070E00E941A07EB0131970894C108D1088A
:10017000BFEFEF3FFB0751F7E00EF11EF7011082D2
:10018000C801DF91CF911F910F91FF90EF90DF9009
:10019000CF900895FC0107C08091C00085FFFCCF7F
:1001A0009093C600319690819923B1F708951092EB
:1001B0007C0080EC80937A00089580937C0080918D
:1001C0007A008F7E80937A0080917A008064809399
:1001D0007A0080917A0084FFFCCF90917800809122
:1001E0007900382F20E0290F311DC90108951F9291
:1001F0000F920FB60F9211242F933F938F939F93DB
:10020000EF93FF938091C600E82FF0E083FD05C0D7
:10021000F0939502E09394021EC0209194023091D5
:100220009502CF018227932787709070892B99F4CC
:10023000207F3070CF01929582958F7089279F70B3
:100240008927822B932BE770F070EE0FFF1FEA5681
:10025000FD4F91838083FF91EF919F918F913F910B
:100260002F910F900FBE0F901F901895AC01079B18
:1002700005C017BC18BC289A299A0895809190024D
:10028000909191020197B9F020E030E060ED77E0C5
:1002900009C017BC48BD289A2998CB010197F1F7EE
:1002A0002F5F3F4F24173507A4F381E090E0909330
:1002B00091028093900217BC48BD289A299808950E
:1002C000AC01379B04C017BC18BC289A20C0809191
:1002D0009002909191020297B9F020E030E060ED39
:1002E00077E009C047BD18BC2898299ACB0101972F
:1002F000F1F72F5F3F4F24173507A4F382E090E01A
:10030000909391028093900247BD18BC2898299A37
:1003100008958091900290919102039799F084EF53
:1003200091E028EC30E0F9013197F1F70197D9F726
:1003300017BC18BC2898299883E090E0909391020C
:100340008093900217BC18BC289A299A0895059B9F
:1003500006C01092B3001092B400409A05C080937A
:10036000B3001092B4004098419A0895069B07C0CC
:100370001092B3001092B400409A419A08951092DE
:10038000B3008093B400409A419808951092B3004E
:100390001092B400409A419A089529E130E040E07B
:1003A00050E00E94FB0623E030E040E050E00E9475
:1003B0002D0728513C4F30938B0020938A000895DD
:1003C00029E130E040E050E00E94FB0623E030E00D
:1003D00040E050E00E942D0728513C4F30938900A7
:1003E0002093880008950F931F93CF93DF93059B6D
:1003F00009C06DC184E690E00E94A70180E091E011
:100400000E94CA0004990BC0059BF4CF08C084E683
:1004100090E00E94A7018FE091E00E94CA0003993A
:100420000BC0059BF4CF08C084E690E00E94A701B2
:100430008EE191E00E94CA0002990BC0059BF4CFA7
:1004400008C084E690E00E94A7018DE291E00E943E
:10045000CA0001990BC0059BF4CF08C084E690E068
:100460000E94A7018CE391E00E94CA00009902C09B
:10047000059BF4CF80E29EE40197F1F708C086E97E
:1004800090E00E94A7018BE491E00E94CA00009BCB
:100490000AC0019B08C0029B06C0039B04C0049BCA
:1004A00002C0059BECCF1092B3001092B400409AAA
:1004B000419A80E29EE40197F1F704C084E690E05F
:1004C0000E94A701049909C0039B07C0059BF6CFB2
:1004D00004C084E690E00E94A70104990BC0039930
:1004E00009C0029B07C0059BF4CF04C084E690E0DE
:1004F0000E94A70104990DC003990BC0029909C07D
:10050000019B07C0059BF2CF04C084E690E00E94E7
:10051000A701049BD6C00399D4C00299D2C0019B05
:10052000D0C0059BF2CFCDC01092B3001092B400A2
:10053000409A419A88EE93E0F8013197F1F70197DC
:10054000D9F7049B11C003990FC002990DC00199FE
:100550000BC0009B09C01092B3001092B400409AE7
:10056000419A8AE591E0AAC0049912C0039910C08B
:1005700002990EC0019B0CC0009B0AC084E690E06B
:100580000E94A701CE010197F1F789E691E08BC0A7
:10059000049912C0039B10C0029B0EC0019B0CC0AB
:1005A000009B0AC084E690E00E94A701CE0101975B
:1005B000F1F780E091E077C0049B12C0039910C06E
:1005C00002990EC0019B0CC0009B0AC084E690E01B
:1005D0000E94A701CE010197F1F788E791E063C07F
:1005E000049912C0039910C0029B0EC0019B0CC05D
:1005F000009B0AC084E690E00E94A701CE0101970B
:10060000F1F787E891E04FC0049B12C0039B10C034
:1006100002990EC001990CC000990AC084E690E0CE
:100620000E94B601CE010197F1F786E991E03BC047
:10063000049B12C0039B10C002990EC001990CC00C
:10064000009B0AC084E690E00E94B601CE010197AB
:10065000F1F785EA91E027C0049B12C0039B10C00C
:10066000029B0EC0019B0CC000990AC084E690E07A
:100670000E94B601CE010197F1F78CE391E013C01F
:10068000049B14C0039B12C0029B10C001990EC0B2
:1006900000990CC084E690E00E94B601CE0101975B
:1006A000F1F784EB91E00E94CA000FC01092B300F2
:1006B0001092B400409A419A83EC91E00E94CA00E3
:1006C00006C008EC10E0C0E2DEE4059B2DCFDF9110
:1006D000CF911F910F9108950F931F93CF93DF93A5
:1006E000069B09C06DC184E690E00E94B60181EDD1
:1006F00091E00E94CA0000990BC0069BF4CF08C08D
:1007000084E690E00E94B60180EE91E00E94CA006B
:1007100001990BC0069BF4CF08C084E690E00E94CC
:10072000B6018FEE91E00E94CA0002990BC0069BB1
:10073000F4CF08C084E690E00E94B6018EEF91E00D
:100740000E94CA0003990BC0069BF4CF08C084E640
:1007500090E00E94B6018DE092E00E94CA000499E8
:1007600002C0069BF4CF80E29EE40197F1F708C037
:1007700086E990E00E94B6018CE192E00E94CA00F6
:10078000009B0AC0019B08C0029B06C0039B04C0DB
:10079000049B02C0069BECCF1092B3001092B400F1
:1007A000409A419A80E29EE40197F1F704C084E602
:1007B00090E00E94B601009909C0019B07C0069B0A
:1007C000F6CF04C084E690E00E94B60100990BC009
:1007D000019909C0029B07C0069BF4CF04C084E6C0
:1007E00090E00E94B60100990DC001990BC00299DA
:1007F00009C0039B07C0069BF2CF04C084E690E0CB
:100800000E94B601009BD6C00199D4C00299D2C003
:10081000039BD0C0069BF2CFCDC01092B3001092C4
:10082000B400409A419A88EE93E0F8013197F1F7CD
:100830000197D9F7049B11C003990FC002990DC00D
:1008400001990BC0009B09C01092B3001092B40034
:10085000409A419A8AE591E0AAC0049912C003998E
:1008600010C002990EC0019B0CC0009B0AC084E618
:1008700090E00E94A701CE010197F1F789E691E08F
:100880008BC0049912C0039B10C0029B0EC0019B39
:100890000CC0009B0AC084E690E00E94A701CE0134
:1008A0000197F1F780E091E077C0049B12C00399B3
:1008B00010C002990EC0019B0CC0009B0AC084E6C8
:1008C00090E00E94A701CE010197F1F788E791E03F
:1008D00063C0049912C0039910C0029B0EC0019B13
:1008E0000CC0009B0AC084E690E00E94A701CE01E4
:1008F0000197F1F787E891E04FC0049B12C0039B7A
:1009000010C002990EC001990CC000990AC084E67B
:1009100090E00E94B601CE010197F1F786E991E0DF
:100920003BC0049B12C0039B10C002990EC00199EA
:100930000CC0009B0AC084E690E00E94B601CE0184
:100940000197F1F785EA91E027C0049B12C0039B51
:1009500010C0029B0EC0019B0CC000990AC084E627
:1009600090E00E94B601CE010197F1F78CE391E08F
:1009700013C0049B14C0039B12C0029B10C00199BA
:100980000EC000990CC084E690E00E94B601CE0132
:100990000197F1F784EB91E00E94CA000FC010921A
:1009A000B3001092B400409A419A83EC91E00E9407
:1009B000CA0006C008EC10E0C0E2DEE4069B2DCFC2
:1009C000DF91CF911F910F91089581708295880FCB
:1009D000807E98B19F7D982B98B908954F925F9231
:1009E0006F927F928F929F92AF92BF92CF92DF923F
:1009F000EF92FF920F931F93DF93CF9300D000D01D
:100A000000D0CDB7DEB711B88FEF84B98AB98FE7C0
:100A100087B91092C5008CE08093C4001092C0008A
:100A200088E98093C1008EE08093C20093EA94BD70
:100A300081E085BD9093B0008093B10082EA8093FD
:100A400080008AE18093810080E29EE49093870099
:100A500080938600789460E070E080E090E00E94EF
:100A6000CD0160EA70E080E090E00E94E00117BCF8
:100A700018BC289829981092B3001092B40040989E
:100A8000419804C08BE292E00E94CA0080919A02D1
:100A900090919B02892BB1F380919C0290919D02D1
:100AA000892B81F304C089E392E00E94CA008091FF
:100AB00096029091970283FFF6CFA4E8CA2ED12C1C
:100AC00004E810E0AA24BB24EE24FF24FFEF4F2EFD
:100AD000512C3E010894611C711C809196029091EA
:100AE0009702099749F486E492E00E94CA00E4E87C
:100AF000CE2ED12C04E810E08091960290919702BE
:100B000080FF14C08AE592E00E94CA0080919A0298
:100B100090919B02C0909C02D0909D0280919E0279
:100B200090919F020091A0021091A1022091A00239
:100B30003091A102C801CC978217930710F18091E0
:100B4000A0029091A102880F991F9201281B390BD6
:100B5000809198029091990282FD06C0809198023E
:100B60009091990280FF07C0C90162E070E00E9485
:100B70001A07CB0101C0C9010E94A70186E692E0D5
:100B800032C02091A0023091A102C801CC96281752
:100B9000390708F12091A0023091A102220F331FE2
:100BA0002F5F3040809198029091990282FD06C09B
:100BB000809198029091990280FF07C0C90162E07C
:100BC00070E00E941A07CB0101C0C9010E94B60162
:100BD0008AE692E008C01092B3001092B400409AE6
:100BE000419A80E792E00E94CA0020919C023091D5
:100BF0009D02C601CC978217930710F180919C0249
:100C000090919D02880F991F4201881A990A80913C
:100C100098029091990283FD06C08091980290916C
:100C2000990281FF07C0C40163E070E00E941A07C7
:100C3000CB0101C0C4010E94360186E692E02EC0BD
:100C400020919C0230919D02C601CC96281739074D
:100C500008F120919C0230919D02220F331F2F5FDB
:100C60003040809198029091990283FD06C0809156
:100C700098029091990281FF07C0C90163E070E07A
:100C80000E941A07CB0101C0C9010E9460018AE6D7
:100C900092E004C00E94890180E792E00E94CA00AD
:100CA000809198029091990285FF0BC060E070E0FE
:100CB00080E090E00E94E00160EA70E080E090E077
:100CC0000AC060EA70E080E090E00E94E00160E02D
:100CD00070E080E090E00E94CD01809198029091B8
:100CE000990287FF03C081E090E002C080E090E0BD
:100CF0000E94E504809196029091970284FD03C0C2
:100D0000AA24BB2407C0AB2811F40E94F30191E090
:100D1000A92EB12C809196029091970286FD03C076
:100D2000EE24FF2407C0EF2811F40E946C0381E039
:100D3000E82EF12C86E792E00E94CA0089E792E053
:100D40000E94CA0080919E0290919F02B3010E946E
:100D50008A000E94CA0086E792E00E94CA008EE7DD
:100D600092E00E94CA008091A0029091A102B3017A
:100D70000E948A000E94CA0086E792E00E94CA0090
:100D800083E892E00E94CA0080919A0290919B02AF
:100D9000B3010E948A000E94CA0086E792E00E9486
:100DA000CA0088E892E00E94CA0080919C0290915B
:100DB0009D02B3010E948A000E94CA0086E792E069
:100DC0000E94CA00C401B3010E948A000E94CA00A6
:100DD00086E792E00E94CA00809198029091990261
:100DE000B3010E948A000E94CA008DE892E00E942E
:100DF000CA0073CE0895629FD001739FF001829F55
:100E0000E00DF11D649FE00DF11D929FF00D839F99
:100E1000F00D749FF00D659FF00D9927729FB00D36
:100E2000E11DF91F639FB00DE11DF91FBD01CF0149
:100E30001124089597FB092E07260AD077FD04D0C8
:100E400027D006D000201AF4709561957F4F089541
:100E5000F6F7909581959F4F089597FB092E0526EB
:100E60000ED057FD04D028D00AD0001C38F450957D
:100E70004095309521953F4F4F4F5F4F0895F6F7BE
:100E800090958095709561957F4F8F4F9F4F0895F6
:100E9000AA1BBB1B51E107C0AA1FBB1FA617B707A0
:100EA00010F0A61BB70B881F991F5A95A9F78095BC
:100EB0009095BC01CD010895A1E21A2EAA1BBB1B7F
:100EC000FD010DC0AA1FBB1FEE1FFF1FA217B30716
:100ED000E407F50720F0A21BB30BE40BF50B661F2C
:100EE000771F881F991F1A9469F7609570958095F0
:100EF00090959B01AC01BD01CF010895F894FFCFFF
:100F00007A656E73696E3A31303030300D0A007A8E
:100F1000656E73696E3A30313030300D0A007A6593
:100F20006E73696E3A30303130300D0A007A656E7A
:100F300073696E3A30303031300D0A007A656E7365
:100F4000696E3A30303030310D0A007A656E73695F
:100F50006E3A30303030300D0A007A656E73696E4B
:100F60003A30313131300D0A007A656E73696E3A6C
:100F700031313130300D0A007A656E73696E3A3066
:100F8000313130300D0A007A656E73696E3A313155
:100F90003030300D0A007A656E73696E3A30303148
:100FA00031310D0A007A656E73696E3A3030313135
:100FB000300D0A007A656E73696E3A303030313127
:100FC0000D0A007A656E73696E3A656C73650D0A79
:100FD000006B6F7573696E3A31303030300D0A0036
:100FE0006B6F7573696E3A30313030300D0A006BBB
:100FF0006F7573696E3A30303130300D0A006B6FA7
:101000007573696E3A30303031300D0A006B6F7590
:1010100073696E3A30303030310D0A006B6F757382
:10102000696E3A30303030300D0A00505553482048
:10103000414E414C4F470D0A0050555348205354E0
:101040004152540D0A00496E697469616C697A6590
:101050002063656E7465720D0A0050555348205325
:10106000454C4543540055502000444F574E2000F6
:1010700053544F5020002020004C5F583A004C5FE2
:10108000593A00525F583A00525F593A000D0A002F
:00000001FF
