:100000000C943E000C9450000C9450000C94500042
:100010000C9450000C9450000C9450000C94500020
:100020000C9450000C9450000C9450000C94500010
:100030000C9450000C9450000C9450000C94500000
:100040000C9450000C9450000C9450000C945000F0
:100050000C94EC000C9450000C9450000C94500044
:100060000C9450000C9450000C9450000C945000D0
:100070000C9450000C9450000C94500011241FBE9E
:10008000CFEFD0E1DEBFCDBF11E0A0E0B1E001C015
:100090001D92A231B107E1F70E942B010C9474016B
:1000A0000C9400009093C5008093C4001092C0008F
:1000B00088E98093C1008EE08093C200089540E0FB
:1000C00050E068EC70E00AC028EE33E0FB013197A5
:1000D000F1F721503040D1F74F5F5F4F4817590774
:1000E0009CF3089540E006C06AE070E00E944D0174
:1000F000CB014F5F18161906BCF3842F0895CF92D9
:10010000DF92EF92FF920F931F93CF93DF93EC0157
:100110008B01009731F480E3DB018C9311961C92E4
:1001200024C00E947200E82EFF24F7013197680175
:10013000CE0EDF1E12C0CE016AE070E00E944D01BB
:10014000805DD6018C93CE016AE070E00E944D0183
:10015000EB0131970894C108D108BFEFEF3FFB07CF
:1001600051F7E00EF11EF7011082C801DF91CF9127
:100170001F910F91FF90EF90DF90CF900895FC01B9
:1001800007C08091C00085FFFCCF9093C6003196D8
:1001900090819923B1F7089510927C0080EC8093B0
:1001A0007A00089580937C0080917A008F7E8093FE
:1001B0007A0080917A00806480937A0080917A003E
:1001C00084FFFCCF9091780080917900382F20E057
:1001D000290F311DC90108951F920F920FB60F927A
:1001E00011242F933F938F939F93EF93FF938091CD
:1001F000C600E82FF0E083FD05C0F0930101E09315
:1002000000011EC02091000130910101CF01822721
:10021000932787709070892B99F4207F3070CF01DD
:10022000929582958F7089279F708927822B932BB7
:10023000E770F070EE0FFF1FEE5FFE4F918380833B
:10024000FF91EF919F918F913F912F910F900FBE52
:100250000F901F9018958FEF81B984B98AB917B89C
:100260001092C5008CE08093C4001092C00088E911
:100270008093C1008EE08093C20093EA94BD81E038
:1002800085BD9093B0008093B10078948FEF85B9CD
:10029000FECF089508950895089597FB092E072627
:1002A0000AD077FD04D00CD006D000201AF4709547
:1002B00061957F4F0895F6F7909581959F4F08952A
:1002C000AA1BBB1B51E107C0AA1FBB1FA617B7077C
:1002D00010F0A61BB70B881F991F5A95A9F7809598
:0C02E0009095BC01CD010895F894FFCF6B
:00000001FF
