:100000000C943E000C945B000C945B000C945B0021
:100010000C945B000C945B000C945B000C945B00F4
:100020000C945B000C945B000C945B000C945B00E4
:100030000C945B000C945B000C945B000C945B00D4
:100040000C945B000C945B000C945B000C945B00C4
:100050000C94F7000C945B000C945B000C945B0018
:100060000C945B000C945B000C945B000C945B00A4
:100070000C945B000C945B000C945B0011241FBE7D
:10008000CFEFD0E1DEBFCDBF11E0A0E0B1E0E6EC04
:10009000F5E002C005900D92A237B107D9F711E043
:1000A000A2E7B1E001C01D92A438B107E1F70E94B8
:1000B00052010C94E1020C9400009093C5008093CF
:1000C000C4001092C00088E98093C1008EE0809344
:1000D000C200089540E050E068EC70E00AC028EEED
:1000E00033E0FB013197F1F721503040D1F74F5FFA
:1000F0005F4F481759079CF3089540E006C06AE037
:1001000070E00E94BA02CB014F5F18161906BCF3CB
:10011000842F0895CF92DF92EF92FF920F931F9357
:10012000CF93DF93EC018B01009731F480E3DB0187
:100130008C9311961C9224C00E947D00E82EFF240F
:10014000F70131976801CE0EDF1E12C0CE016AE0C2
:1001500070E00E94BA02805DD6018C93CE016AE005
:1001600070E00E94BA02EB0131970894C108D108EF
:10017000BFEFEF3FFB0751F7E00EF11EF7011082D2
:10018000C801DF91CF911F910F91FF90EF90DF9009
:10019000CF900895FC0107C08091C00085FFFCCF7F
:1001A0009093C600319690819923B1F708951092EB
:1001B0007C0080EC80937A00089580937C0080918D
:1001C0007A008F7E80937A0080917A008064809399
:1001D0007A0080917A0084FFFCCF90917800809122
:1001E0007900382F20E0290F311DC90108951F9291
:1001F0000F920FB60F9211242F933F938F939F93DB
:10020000EF93FF938091C600E82FF0E083FD05C0D7
:10021000F0937301E09372011EC02091720130913E
:100220007301CF018227932787709070892B99F4EF
:10023000207F3070CF01929582958F7089279F70B3
:100240008927822B932BE770F070EE0FFF1FEC587D
:10025000FE4F91838083FF91EF919F918F913F910A
:100260002F910F900FBE0F901F90189587BD18BC4F
:100270001092B3008093B400089517BC88BD80939A
:10028000B3001092B400089587BD18BC8093B300EA
:100290001092B400089517BC88BD1092B3008093EB
:1002A000B40008958F929F92BF92CF92DF92EF9207
:1002B000FF920F931F93DF93CF9300D000D000D015
:1002C000CDB7DEB78FEF81B984B98AB917B810926C
:1002D000C5008CE08093C4001092C00088E9809330
:1002E000C1008EE08093C20093EA94BD81E085BD99
:1002F0009093B0008093B100789404C080E091E0C6
:100300000E94CA008091780190917901892BB1F304
:1003100080917A0190917B01892B81F30BC08EE053
:1003200091E00E94CA0017BD18BD1093B30010934E
:10033000B40001C01FEF809174019091750108977E
:1003400071F712B880E197E228EC30E0F9013197BB
:10035000F1F70197D9F712B8E6E7EE2EF12C04E891
:1003600010E0BB24BA947FEF872E912C6E01089485
:10037000C11CD11C8091740190917501099749F4B9
:100380008BE191E00E94CA0066E7E62EF12C04E8BA
:1003900010E08091740190917501019761F48FE2F2
:1003A00091E00E94CA00E0907801F09079010091FC
:1003B0007A0110917B0120917A0130917B01C80173
:1003C000805590408217930778F080917A01909140
:1003D0007B01880F991F9401281B390BC9010E94CA
:1003E00036018BE391E059C020917A0130917B0175
:1003F000C801805B9F4F2817390768F080917A0108
:1004000090917B01880F991F8F5F90400E943D0162
:100410008FE391E042C02091780130917901C701CA
:10042000CC9782179307A8F080917A0190917B0175
:10043000892B79F08091780190917901880F991F2B
:100440009401281B390BC9010E94440185E491E005
:1004500024C02091780130917901C701CC962817EA
:10046000390798F080917A0190917B01892B69F08E
:100470008091780190917901880F991F8F5F90404A
:100480000E944B018BE491E008C0B7BCB8BCB092AD
:10049000B300B092B40082E591E00E94CA0088E502
:1004A00091E00E94CA008BE591E00E94CA00809111
:1004B0007C0190917D01B6010E948A000E94CA00D1
:1004C00088E591E00E94CA0080E691E00E94CA009F
:1004D00080917E0190917F01B6010E948A000E9466
:1004E000CA0088E591E00E94CA0085E691E00E947A
:1004F000CA008091780190917901B6010E948A002A
:100500000E94CA0088E591E00E94CA008AE691E054
:100510000E94CA0080917A0190917B01B6010E94ED
:100520008A000E94CA0088E591E00E94CA0080917A
:10053000740190917501B6010E948A000E94CA0060
:1005400088E591E00E94CA00809176019091770140
:10055000B6010E948A000E94CA008FE691E00E94C4
:10056000CA0008CF8FEF87BD88BD8093B30080930A
:10057000B400089597FB092E07260AD077FD04D012
:100580000CD006D000201AF4709561957F4F089525
:10059000F6F7909581959F4F0895AA1BBB1B51E1DB
:1005A00007C0AA1FBB1FA617B70710F0A61BB70BE3
:1005B000881F991F5A95A9F780959095BC01CD0188
:0605C0000895F894FFCF3E
:1005C6005055534820414E414C4F470D0A00505557
:1005D60053482053544152540D0A00496E697469B8
:1005E600616C697A652063656E7465720D0A0050E8
:1005F6005553482053454C4543540055502000441C
:100606004F574E20004C4546542000524947485407
:10061600200053544F5020002020004C5F583A00D1
:100626004C5F593A00525F583A00525F593A000DF2
:020636000A00B8
:00000001FF
