S01100006C63645F74657374312E7372656390
S113000012C02AC029C028C027C026C025C024C0C9
S113001023C022C021C020C01FC01EC01DC01CC0E0
S11300201BC01AC019C011241FBECFEDCDBF10E0F4
S1130030A0E6B0E0EEE2F3E002C005900D92A8372E
S1130040B107D9F710E0A8E7B0E001C01D92A837C6
S1130050B107E1F7E5D069C1D3CF9598949A969A00
S113006088BB00000000000000000000969887E8AC
S113007093E10197F1F700C0000080E0089592B386
S11300809F7C92BB969A88BB000000000000000091
S1130090000096988FE097E20197F1F700C0000006
S11300A080E0089588B318BA87B317BA959A9498DC
S11300B0969A0000000000000000000086B387FD4F
S11300C0FDCFC69895989FEF97BB000000000000F5
S11300D0000000008F77089592B39F7C92BB969A9C
S11300E088BB000000000000000000009698DADFE2
S11300F008959598949A969A88BB00000000000091
S1130100000000009698CEDF08951F93CF93DF93ED
S1130110EC0180E4E1DF10E48991EBDF1F5F10382C
S1130120D9F7DF91CF911F9108951F93CF93DF9358
S1130130EB01880F880F880F88738064CDDF18E087
S11301408991D7DF1150E1F7DF91CF911F91089585
S1130150CF93DF93EC0180E002C0892FCADF99912D
S11301609923D9F7DF91CF9108951F93CF93DF930C
S113017000D0CDB7DEB7182F87B38FEF87BB81B31D
S1130180806781BB82B38F7882BB8FEF99EFA0E049
S113019081509040A040E1F700C0000080E34A8312
S11301A069836DDFA7EAB1E61197F1F700C000009B
S11301B080E365DFE3ECF9E03197F1F700C000007C
S11301C080E35DDF83EF91E00197F1F700C0000069
S11301D0812F806281DF6981862F88607DDF4A817B
S11301E0842F846079DF81E077DFCE5FCDBFDF913C
S11301F0CF911F9108959C0140E050E060ED72E1C1
S113020083E190E055D02150304032B929B988E1DA
S11302108AB986E083B908955F9BFECF8CB10895B7
S1130220CF93DF93CDB7DEB7C151CDBF7E01089424
S1130230E11CF11C81E1D7011D928A95E9F78FE752
S113024094E8AEE181509040A040E1F700C0000086
S113025088E167E042E089DF80E83EDF80E690E005
S113026077DF80E895E2C7DF80EC36DF8CE690E04C
S11302706FDF670180EC30DF8601BB24CDDF8A307D
S113028051F402C01082B394F601EB0DF11D80818C
S11302908823C1F708C0D8018D938D012ADFB39458
S11302A0B0E1BB1659F781E017DFC70151DFE2CF98
S11302B097FB092E05260ED057FD04D014D00AD082
S11302C0001C38F450954095309521953F4F4F4F81
S11302D05F4F0895F6F790958095709561957F4FDF
S11302E08F4F9F4F0895A1E21A2EAA1BBB1BFD013D
S11302F00DC0AA1FBB1FEE1FFF1FA217B307E40701
S1130300F50720F0A21BB30BE40BF50B661F771F58
S1130310881F991F1A9469F7609570958095909538
S11103209B01AC01BD01CF010895F894FFCFFD
S113032E4C434420696E6974204F4B00757361729F
S10B033E74207265616479000A
S9030000FC
