:4000000080673030303030307e3030307e3030307e3030307e3030307e3030307e3030307e3030307d03c47e7e3030307e3030307e3030307e3030307e3030307e30303041
:400040007e3030307e3030307e3030307e3030307e3030307e3030307e3030307e3030307d05757e7e303030711062fa0062e38770ef50202850402850602862e33843fe9f
:400080000450804e62e3385dd00862d00055fa014f5b010353f955f83a500600711051fc294060ea70ef1860d055f80055f900711062e09a70ef62e33843e04062e2004927
:4000c000da40affc4107ef627105627505627905627d0562d10750004e62d30762d00062d50062d40071c07c035962d000500257520828531918750900284b51198004759b
:40010000090062e300082860d574a04b1875090008285319187509000828a01c53181875090008283f194719ffb0065dd57460d5187a18bfeb8fc918750900082853185053
:40014000003f194719ffb0085dd57460d550007a18bfef188faa18711043e32070ef62e000711062e08343e78070ef62e2007c06ad8fff50107f30303030303030303030c5
:40018000303030303030303030303030303030303030303030303030303030303030303078202020792020207a20202074696d65004932435f53746172740050536f435f26
:4001c000537461727400230021ff22002704253f26006028660063056500e600e700d600b000b100b200b333b433b500b600b855b900ba10bb33bc33bd00be00c000c100c5
:40020000c220c333c433c500c600c855c900ca30cb33cc33cd00ce006c006d006e006f00ff20002107224024202537264061006900600062006733683363006600d100d359
:4002400000d000d200e1e9e206dfffde02dd00e700ff07f470ef620000711062007f62018070ef620380620200711062020062030070ef6201006204a071106204a0620500
:40028000ff70ef6207ec620600711062060062070070ef62050062080071106208006209ff70ef620bff620a007110620a00620b0070ef620900620c007110620c00620d25
:4002c0000070ef620f00620e007110620e00620f0070ef620d00621000711062100062110070ef621300621200711062120062130070ef621100621400711062140062154e
:400300000070ef621700621600711062160062170070ef621500621800711062180062190070ef621b00621a007110621a00621b0070ef621900621c007110621c00621d8d
:400340000070ef621f00621e007110621e00621f0070ef621d0070ef7f55000055017f5502807c03697c02547f1070ef500067500157c67c0384500167500257217c038489
:4003800070ef207f380210084f56fc00d00456fc01182070ef62e30010082839ffa01f4f48fc01a003711054fd18207509001008284f59fd610018207509008fd738fc704d
:4003c0003f71c07f7d07087e43e1027f4323017f081028b00420187f9032201875dff2748fef303132333435363738394142434445460867676767210fffe7900f18210f59
:40040000ffe090087f4b9fea5b9fe77f90650867676767210f903b18210f40404090337f90510867676767210f900918210f40404090017f0862d0002600805100600018a5
:40044000210f29102a006000530040218f530060007f0862d0002600802e00205100600018210f29302a00600053004021af530060007f0862d000260080510060002601bd
:40048000f051017110600070ef2e004051006000401057ff2e00505100600040405d00082600c0510060004040402e00505100600040402600c051006000182108a00479e6
:4004c000bfd3202e017f51017110600070ef187f62d0002601802e017f2602805101711060005102600170ef50fa906750fa906350039f405052905b50039f3890639061b3
:40050000905f50039f2e505a904950029f26505a904150089f0a505a903950019f02505a903150069efa500e9ef6502c9ef250089eee500c9eea50039ee6505a90157f80ed
:40054000c094d4210310fff74f03ff209ed2703f71c07f900c78bffc7f08193a7c010101010871105de070ef21073905d006ffe978bffe187f0810703f71805dd3085dd08e
:400580000862d000510660d32e038049d708a0092603f02e0300800849d720a00380a85103210ee0018011806780798047809880968094809280995dd821fe3910a006626a
:4005c000d700808c49d801b00f550a022603f02e030262d7108079550a012603f02e03065f0504510702055c520060d8760562d714805d5108783a05c00f510702055c525a
:400600000060d876052e032060d862d70480415dd83a08d02da02b530553042603f02e0304801a5109a01b783a05c016510702055c5dd854002e03107605800162d71080be
:400640000f62d700800a2603f02e0300550a001860d01860d320187e62d000711041045f4305a070ef4307a0550300550a009019901e40404040405000530471104304a0d1
:400680004305a070ef4307a07f62ddfe43de017f43d6317f62d0004f52fd530852fc530952fb530752fa5306703f71c07f104f3804560100560000560300560200710110e8
:4006c0007c04d0500057007c054350010850bb5c187c03d0500008501a085003085005087c069438fc7c06587c0689570050017c054350010850b15c187c03d07c03cc7c17
:4007000003c82038fc208fff71c0085dd0085dd3085dd4085dd50862d000511908511808511708511608511508511408511308511208511108511008510f08510e08510d2d
:4007400008510c08510b081050017c0420500057007c054350010850a05c187c03d0570050017c054362d000511a7c03f2570450017c054362d000511b7c03f25708500187
:400780007c054362d000511c7c03f2570c50017c05432062d000511e08511d53191853180101531e51190900531d105119085118207c04052062d00018530b18530c185337
:4007c0000d18530e18530f1853101853111853121853131853141853151853161853171853181853191860d51860d41860d31860d0187e30001a0005ff00303030303030ce
:4008000030303030303030303030303030303030303030303030303030303030303030303030303030303030303030303030303030303030303030303030303030303030b8
:400840003030303030303030303030303030303030303030303030303030303030303030303030303030303030303030303030303030303030303030303030303030303078
:400880003030303030303030303030303030303030303030303030303030303030303030303030303030303030303030303030303030303030303030303030303030303038
:4008c00030303030303030303030303030303030303030303030303030303030303030303030303030303030303030303030303030303030303030303030303030303030f8
:020000040010ea
:020000040020da
:02000000eee22e
:00000001ff
