:400000000208A5008F828E83E0540100000070F82278FFE4F6D8FD020903BB010689828A83E0225002E722BBFE02E32289828A83E49322BB010689828A83F0225002F722FD
:40004000BBFE01F322BC000BBE0029EF8DF084FFADF022E4CCF875F008EF2FFFEE33FEEC33FCEE9DEC984005FCEE9DFE0FD5F0E9E4CEFD22EDF8F5F0EE8420D21CFEADF09D
:4000800075F008EF2FFFED33FD4007985006D5F0F222C398FD0FD5F0EA22C5F0F8A3E028F0C5F0F8E582158270021583E038F022EF2BFFEE3AFEED39FDEC38FC22E88FF021
:4000C000A4CC8BF0A42CFCE98EF0A42CFC8AF0EDA42CFCEA8EF0A4CDA8F08BF0A42DCC3825F0FDE98FF0A42CCD35F0FCEB8EF0A4FEA9F0EB8FF0A4CFC5F02ECD39FEE43C62
:40010000FCEAA42DCE35F0FDE43CFC2275F008758200EF2FFFEE33FECD33CDCC33CCC58233C5829BED9AEC99E58298400CF582EE9BFEED9AFDEC99FC0FD5F0D6E4CEFBE4B1
:40014000CDFAE4CCF9A88222B800C1B90059BA002DEC8BF084CFCECDFCE5F0CBF97818EF2FFFEE33FEED33FDEC33FCEB33FB10D703994004EB99FB0FD8E5E4F9FA227818AF
:40018000EF2FFFEE33FEED33FDEC33FCC933C910D7059BE99A4007EC9BFCE99AF90FD8E0E4C9FAE4CCFB2275F010EF2FFFEE33FEED33FDCC33CCC833C810D7079BEC9AE828
:4001C00099400AED9BFDEC9AFCE899F80FD5F0DAE4CDFBE4CCFAE4C8F922EF4BFFEE4AFEED49FDEC48FC22E8600FECC313FCED13FDEE13FEEF13FFD8F122E8600FEFC333A4
:40020000FFEE33FEED33FDEC33FCD8F122E0FCA3E0FDA3E0FEA3E0FF22E0F8A3E0F9A3E0FAA3E0FB22ECF0A3EDF0A3EEF0A3EFF022E0FBA3E0FAA3E0F922EBF0A3EAF0A319
:40024000E9F022E493FB740193FA740293F922D083D082F8E4937012740193700DA3A393F8740193F5828883E4737402936860EFA3A3A380DFE50C2582F582E50B3583F56A
:4002800083B50B0485820C2210AF0685820CF50B2285820CF50BD2AF22EC8EF0A4CCC5F0CCCDF8EFA4CEC5F02DFDE43CFCE8A42EC8C5F03DFDE43CFCEFA4FFE5F028FEE498
:4002C0003DFDE43CFC22E709F608DFFA8046E709F208DFFA803E88828C83E709F0A3DFFA8032E309F608DFFA806EE309F208DFFA806688828C83E309F0A3DFFA805A8982A5
:400300008A83E0A3F608DFFA804E89828A83E0A3F208DFFA804280D280FA80C680D4805580F28029801080A680EA809A80A880DA80E280CA802988848C8589828A83E49345
:40034000A30586F0A30586DFF5DEF3800B89828A83E493A3F608DFF9ECFAA9F0EDFB2288848C8589828A83E0A30586F0A30586DFF6DEF480E389828A83E493A3F208DFF901
:4003800080D688F0EF60010E4E60CD88F0ED2402B4040050C3F582EB2402B4040050B9232345822390031673C0E0C0F0C083C082C085C084C086758600C093759300C0D021
:4003C00075D000C000C001C002C003C004C005C006C0079049D7E0900051F0900079E05440700302061F900051E0FF540170030205EF900079E024BA70030204EB24FD60FA
:400400000D147003020595240560030205EFEF54DF900051F0540AFD7C0064087075900079E06445705F900060E0D39400402290006512023112001A9049D8F09049D774CA
:4004400004F09000697401F09000797446F00205EF90006AE054026016900061E0440AF09000797460F09044C97480F00205EF9049D6E04410F09049D97410F09049D7746B
:4004800004F00205EF9049D7E4F0900079744AF00205EFED640A4C60030205EF900061E044A0F090006AE05402602A900061E0FF900079E0540860047E0180027E02EE4496
:4004C000084F900061F09000797460F09044C97480F00205EF9049D6E04410F09049D97410F09049D77404F00205EF900051E054027069900060E0FF900069E0C39F50250A
:40050000900065120231900069E029F9E43AFA12001A9049D8F09049D77404F0900069E004F00205EF90006AE054026016900061E0440AF09000797460F09044C97480F0C3
:400540000205EF12103B9049D6E04410F09049D97410F09049D77404F00205EF90006AE054026015900061E0449AF09000797460F09044C97480F080769049D6E04410F0C6
:400580009049D97410F09049D77404F0900061E04490F0805A9049D8E0FF900062120231900068E029F9E43AFAEF120033900068E004F090006BE0FF900068E0C39F500849
:4005C0009049D77410F0802790006AE054026015900061E04409F09000797460F09044C97480F0800A9049D6E04410F0A3E4F0900051E054206036900061E0FF900079E0D7
:40060000540860047E0180027E02EF4E900061F09049D6E054EFF09000797410F0800E900079E0541070069000797410F0D007D006D005D004D003D002D001D000D0D0D042
:4006400093D086D084D085D082D083D0F0D0E0327B007A4679E81212B5EF4405FD7B007A4679E81212C1E4F50AE50AC3940A502CE50A75F005A424DFF582E43412AF82F500
:40068000088F09F5831202438F82850883740393FC740493FD1211CC050A80CD7B087A0079001210697B017A5079031212B5EF4402FD7B017A5079031212C17B017A50791D
:4006C000131212B5EF4402FD7B017A5079131212C19043A0E04440F09043C2E04410F07B087A0079E0C003C002C0017B007A5179C090004712023AD001D002D0037F0A7EE8
:4007000000120FCC7B087A0079ECC003C002C0017B007A51792290004712023AD001D002D0037F087E00120FCC7B087A0079F4C003C002C0017B007A5179609000471202FC
:400740003AD001D002D0037F0A7E00120FCC9044F47401F0904322E04408F09046ECE0C394055006904689743AF090480074F1F012098F1211467B007A4379A0C00179B0CB
:4007800090004712023AD0017F0E7E00120FCC9043B0E054FDF02278427C007D017BFF7A0D79E27E007F0312038278457C007D017BFF7A0D79E57E007F0212038212123DD1
:4007C0001212501211B37F01121102D2AF9044F474FDF0E4FDFF120E277BFF7A0D79A7120F1BE4FD7F01120E277BFF7A0D79B2120F1BE47FE87E03FDFC120C8F7F011211B7
:40080000021212CD900042E004F0E4FDFF120E277BFF7A0D79BF120F1B7B017A00794290004D7401F0E4FD7F08120C24900047EFF07B017A00794590004D7402F07D037F3A
:4008400008120B20900047EFF07F01121102E4FDFF120E277BFF7A0D79CC120F1B900042E0FF1211257BFF7A0D79D1120F1B900045E0FEA3E07C002400FFEC3EFE12117F10
:40088000E4FD7F01120E277BFF7A0D79D8120F1B900047E0FF121125E47FFAFEFDFC120C8F0208042275930078007583467582E8E04401F0009046ECE0F99046FAE0FAB923
:4008C00003225420B40012B8001AEA901FFFF07401901FFEF09046F6F0901FFEE06005901FFFE0FA90480074C0F075810C90000078007920E4F0A3D8FCD9FAEA90005BF075
:40090000020011750B1F750CFD12065002094A020797E493A3F8E493A34003F68001F208DFF48029E493A3F85407240CC8C333C4540F4420C8834004F456800146F6DFE48F
:40094000800B0102040810204080900EA3E47E019360BCA3FF543F30E509541FFEE493A360010ECF54C025E060A840B8E493A3FAE493A3F8E493A3C8C582C8CAC583CAF082
:40098000A3C8C582C8CAC583CADFE9DEE780BE7B007A4079807D1D7C001212729040827419F09043007402F09040007408F09042007403F07B0C7A0179081212B59046A1EC
:4009C000EFF07B007A4279227D107C001212727B007A4279207D517C10121272E4900046F07F19FEFDFC90004212022590004212020DD3EF9400EE9400403B900046E0FFA8
:400A000064036032904225E05401FEEF25E04E5403900046F0E47FE07E01FDFC12100090004212020D74FFFBFAF9F81200B090004212022580B67B007A4079047D007C015C
:400A40001212729040047407F0904006E4F09040087448F0904004E4F09040017402F09043A2E04401F022905120E05401F0905122E054E1900050F0E0441E905122F0A302
:400A8000E054E1900050F0E0905123F0A3E054E1900050F0E0905124F0905120E054BFF0E04480F0E4FFFE12103C905120E04420F07F017E0012103C905121E0900050F026
:400AC000905120E054DFF0E4FFFE12103C900050E05410F0905120E04420F07F017E0012103C905120E054DFF0900050E070B5905120E0547FF0E05401F0905122E054E144
:400B0000F0A3E054E1900050F0E0441E905123F0A3E054E1900050F0E0441E905124F022900049EDF0A312023AE4FD120CF490004EEFF07018900049E0FF120DE790004EAB
:400B4000EFF060091210BB90004EE0FF221210BB7D017F08120CF490004EEFF0704FA3F090004DE0FF90004FE0FEC39F503FEEC39F501A7F01120F9290004A120231900068
:400B80004FE029F9E43AFAEF1200338018E4FF120F9290004A12023190004FE029F9E43AFAEF12003390004FE004F080B31210BB90004EE0FF22E47F28FEFDFC120C8F7FCE
:400BC00003121096E47F05FEFDFC120C8F7F03121096E47F0FFEFDFC120C8F7F03121096E47F01FEFDFC120C8F7F02121096E47F05FEFDFC120C8F7F061211027F0E1211FD
:400C0000027F2C1211027F081211027F011211027F0C1211027F03121102E47F05FEFDFC120C8F22900049EDF0A312023AE4FD120CF490004EEFF0704D900049E0FF120D21
:400C4000E790004EEFF060091210BB90004EE0FF22E490004FF090004DE0FF90004FE0FEC39F502290004A120231E92EF9E43AFA12001AFF120DE790004EEFF0700890006E
:400C80004FE004F080D01210BB90004EE0FF2290FFFC120275120225850B83850C8212020DD3EF9400EE9480402E90005C12020D121000850B83850C82C083C08212020DB0
:400CC000E42FFFEE3480FEED34FFFDEC34FFFCD082D08312022580C090005212020D850B83850C821202191200BD121000900004120275227E02900079E0641070529049EE
:400D0000D9E0540870489044C97480F0EF25E0FFED600CEF4401FF9000797449F080069000797445F09049D8EFF0A37401F09049D7E0540160F89049D7E0540A640A700A4D
:400D40009000797410F07E038006E4FE80027E01AF0622900049ECF0A3EDF0900048EFF0541F25E0FFE433FEE42FFFEE3444FAA9077B0112126590004BEEF0A3EFF09000CB
:400D800048E075F002A42400FFE5F03444FAA9077B01A3E0FEA3E0FFFDAC0612127490004BE0FEA3E0FF2250536F4333207465737400446562756720537461727421006EB7
:400DC0006F772077726974696E67210078203D2000202074203D2000737461747573203D200005050600007E029049D9E0540460339049D8EFF09049D77404F0900079744F
:400E000046F09049D7E0540160F89049D7E05402700A9000797460F0E4FE80089000797460F07E03AF0622900048EDF0EF14601514601D1460252403702B900048E024800E
:400E4000FF12110222900048E024C0FF12110222900048E02494FF12110222900048E024D4FF1211022290004FEFF0120A67905120E04440F0E0547FF0E054E1F0C083C05D
:400E800082E0FF90004FE0FE25E04420FEEF4ED082D083F07F017E0012103C905120E054DFF02244005702DC6C004400520000BB804100563044005C5DC0000041007A0064
:400EC00041007700410076004100780045006C0081021E0043007100000041007B0000904F00E05401F0904F02E054FCF0904F01E04401F0904F0BE054CFF0E04430F0E00D
:400F000054F0F0E0440FF07F4F7EC31212817F4F7EC3121163E4FF1212D52290004812023A90004B7401F012001A90004CF090004CE0FF60211210DF9000481202319000CB
:400F40004BE029F9E43AFA12001A90004CF090004BE004F080D8229049D67402F09049C87481F09049DB741EF0A3E4F09044C97480F07D077F0F12119A7C037DA87F0F120F
:400F80000D539000797410F012128F12129C1212CD22E4FE9049D9E05404602D900079E0B44908744AF09049D7E4F09049D7E0540160F89049D8E0FEEF60089049D77410FE
:400FC000F080069000797460F0AF0622758600EF4E6027EF60010E759300900047E0F595A3E0F585A3E0F5848B938A838982E0A30586F0A31586DFF6DEF4E4F593F5952247
:40100000EC4D4E700D78FCEF24E950032840FD2200007BF178DA0000EF28FF78FFEE38FEED38FDEC38FC50E7EF2BFFEE38FEED38FDEC38FC40F2220502030422EEFA9000FF
:4010400056E0F88FF0A4FFAEF0E88AF0A42EFEE5F03400FDEF24C9FF78FFEE38FEED38FDE438FC500302100022ACEAADA08B938A838982E0F96017A3E0F5EAA3E0F5A0A38D
:40108000E060F4FAA3E0F8A3E0F2DAF8D9E98DA08CEAE4F59322905120E0543FF0E054E1F0E0FEEF25E04420FFEE4FF07F017E0012103C905120E054DFF0227F029049D9CD
:4010C000E0540460197410F09049D77404F09000797410F09049D7E0542160F8E4FF2290004DEFF0120A6790004DE0FFC4540FFFA3F0120E6690004DE0540FFFA3F0120EC8
:401100006622900049EFF0120A67900049E0FFC4540FFFA3F0121096900049E0540FFFA3F01210962290004AEFF0E0FFC4540F90131193FF1212DB90004AE0540F90131166
:4011400093FF1212DB227B0C7A0179CF1212B5EF540790586EF0EFC4540FA3F09058767444F0229043A3E04401F07B027A4F7906AD07AC061212749043A3E054FEF02290A0
:401180000048EEF0A3EFF0900048E0FF121125900048E0A3E0FF12112522AC07ED540775F020A4FFEC541F2480F582E43444F583EFF022900078E07009120F57900078741D
:4011C00001F01212139044C17480F022EC4D6011ED60010C8B938A838982E4F0A3DDFCDCFA75930022EF54016004D2AF8002C2AFEF5402FF9044F4E054FD4FF0229043A372
:40120000E04401F09043B3E04401F0904F00E04401F0221212289043A5E04404F09043B5E04404F01211E5229044F4E0F84402F0E85402FF10AF012274014FFF2290007A5E
:40124000E07009120EDF90007A7401F01211FD22900076E07009120BB69000767401F01212A9228B938A838982E0FFA3E0FE759300228B938A838982EDF0A3ECF07593007F
:40128000227B027A4F7904AD07AC0612127422E4900068F0900061E054FEF022E4900069F0900061E054FDF0227F0C1211029000777401F0228B938A838982E0759300FFCC
:4012C000228B938A838982EDF075930022900061E0FFE4F022904F03EFF0221210DF220049C80015004F00000C005100002000513000300051F000100100001000011400A9
:4013000008000140000A00014C00020001500000203031323334353637383941424344454600000000000000000000000000000000000000000000000000000000000000F8
:40134000000000000000000000000000000000000000000000000000000000000000000000000000000000000000000000000000000000000000000000000000000000006D
:40138000000000000000000000000000000000000000000000000000000000000000000000000000000000000000000000000000000000000000000000000000000000002D
:4013C00000000000000000000000000000000000000000000000000000000000000000000000000000000000000000000000000000000000000000000000000000000000ED
:4014000000000000000000000000000000000000000000000000000000000000000000000000000000000000000000000000000000000000000000000000000000000000AC
:0200000480007A
:4000000013004F010A1B00520230016002011408A601B601BA80D608D804DB04DD90DF0101150F17041C015D105E80864089108C019B04B704C420D630E080E401EA05ECBE
:4000400010011701E610011901E610011B03E080E411EA0501420413013E10C410CE20014302930196100144025420D402014501A420014601A420014701A4200148038F72
:40008000809301961001491012201420738077108220862088209B90AA10AB10B701C430DC80DE20E4C0EAA0014C09132117087B107F208F01A420C40EDE03E608014D086A
:4000C00083108B208C20A420A730AB28E001E408015004100111011A011B0101510103C003000000030003000000000000FEFE00000000000100000101000100000000000D
:4001000000000000000000000000000000000000000000000000000000000000000000000000000000000000000000000000000000000000000000000000000000000000BF
:40014000000000000000000000000000000000000000000000000000000000000000000000000000000000000000000000000000000000000000000000000000000000007F
:40018000000000000000000000000000000000000000000000000000000000000000000000000000000000000000000000000000000000000000000000000000000000003F
:4001C00000000000000000000000000000000000000000000000000000000000000000000000000000000000000000000000000000000000000000000000000000000000FF
:0200000490006A
:0400000000004005B7
:0200000490105A
:04000000BC90ACAF55
:0200000490303A
:0200000046694F
:0200000490501A
:0C00000000011E02806903011E0BC6D225
:0200000490402A
:4000000000000000000000000000000000000000000000000000000000000000000000000000000000000000000000000000000000000000000000000000000000000000C0
:00000001FF
