:10000000021A03008F828E83E0540100000070F812
:100010002278FFE4F6D8FD021A61900030E0FFEF8D
:100020005408FF7E00EF4E70057F01121AED122278
:10003000E5EF30E331900030E0FFEF4480FF9000C7
:1000400030EFF01222D0900102EFF0900039E0FF83
:10005000EF4401FF900039EFF0900102E0FF12221F
:100060004D7F10121AED90004AE0FFEF12110C00C4
:100070007F01037F0204A7030531040000077A1201
:10008000230B900007EFF0900009E4F0900007E0E8
:10009000FFEF543FFFEF90237B93FF900007E0FEBC
:1000A000EF6E6032900032E0FFEF4401FF900032CB
:1000B000EFF01222D0900102EFF0900039E0FFEF54
:1000C0004401FF900039EFF0900102E0FF12224D51
:1000D0007F10121AED22900007E0FFEF643C600DE4
:1000E000900007E0FFEF647D600302025890000774
:1000F000E0FFEFB43C26900037E0FFEF4408FF90AC
:100100000037EFF09000087408F07B017A0079174F
:100110009000141210F790004A7403F0900007E06A
:10012000FFEF647D600302077F900037E0FFEF443C
:1001300004FF900037EFF0900099E0FFEF30E74EBA
:10014000900099E0FFEF547FFF900099EFF090004E
:10015000087408F07B017A00791F9000141210F7E0
:100160009000141210EE120EACFF90000AEFF09007
:100170000015E475F001120F2C90000AE0FF122226
:10018000359000097401F090004A7402F02290004A
:1001900050E0FFEF7003020252900101E4F0900181
:1001A00001E0FFEFC394085037900053E0FEA3E056
:1001B000FF74752FF58274003EF583E0FF90010116
:1001C000E0FE741F2EF582E43400F583EFF090001A
:1001D00053E475F001120F2C900101E004F080BE91
:1001E000900053E0FEA3E0FFEF64204E7008900003
:1001F00053E4F0A3E4F0900050E014F0900050E0DD
:10020000FFEF700890002F7407F0800690002F74A5
:1002100008F09000087408F07B017A00791F9000C4
:10022000141210F79000141210EE120EACFF900092
:100230000AEFF0900015E475F001120F2C90000AFF
:10024000E0FF1222359000097401F090004A740218
:10025000F0227F01121AED22900007E0FF121FD258
:1002600090000BEFF090000BE0FFEF64FF700302D3
:10027000034D900007E0FF7E00900005EEF0A3EF35
:10028000F090000BE0FFEF25E025E024BBF582E4D1
:100290003423F583E493FFEF540FFF900008EFF051
:1002A00090000BE0FFEF25E025E024BBF582E4346D
:1002B00023F583E493FFEF5410FF7E00EF4E607A46
:1002C00090000BE0FFEF25E025E024BBF582E4344D
:1002D00023F583E493FFEF5420FF7E00EF4E601080
:1002E00090000BE0FF122265EF70057F01121AEDFE
:1002F00090000BE0FFEF25E025E024BCF582E4341C
:1003000023F5831211009000141210F790001412BC
:1003100010EE120EACFF90000AEFF0900015E4759D
:10032000F001120F2C90000AE0FF12223590000914
:100330007401F090004A7402F0227B017A00790C7B
:100340009000141210F790004A7403F022900032CB
:10035000E0FFEF4401FF900032EFF01222D0900155
:1003600002EFF0900039E0FFEF4401FF900039EF19
:10037000F0900102E0FF12224D7F01121AED22904F
:100380000099E0FFEF4410FF900099EFF012230B6B
:1003900090000AE0FEEF6E700302042C90000BE068
:1003A000FFEF25E025E024BBF582E43423F583E468
:1003B00093FFEF5420FF7E00EF4E700E900032E06E
:1003C000FFEF4401FF900032EFF01222D0900102C3
:1003D000EFF0900039E0FFEF4401FF900039EFF0BB
:1003E000900102E0FF12224D900030E0FFEF5480B8
:1003F000FF7E00EF4E702F900031E0FFEF5400FFC2
:10040000900031EFF0900031E0FCA3E0FD90000798
:10041000E0FF7E00EF7F00FEEC4EFEED4FFF900010
:1004200031EEF0A3EFF07F10121AED2290000AE0F7
:10043000FF7E00900005EE8FF0120F2C900005E07B
:10044000FEA3E0FFC3EE9401400B90000574FF751E
:10045000F001120F2C900009E0FF900008E0FEEE82
:10046000D39F40289000141210EE120EACFF9000A3
:100470000AEFF0900015E475F001120F2C90000ABD
:10048000E0FF122235900009E004F022900005E020
:10049000FEA3E0FFEF64FFFF122235900009E4F0B5
:1004A00090004A7404F02212230B90000AEFF0909F
:1004B000000AE0FF9000141210EEEF120EC590003B
:1004C00015E475F001120F2C900009E004F0900083
:1004D00099E0FFEF4410FF900099EFF0900030E0BA
:1004E000FFEF4404FF900030EFF090000AE0FF7E41
:1004F00000900005EE8FF0120F2C900005E0FEA397
:10050000E0FFC3EE9401400B90000574FF75F0010D
:10051000120F2C900009E0FF900008E0FEEED39F40
:10052000400302077F900009E4F090004A7404F051
:100530002212230B7E00900005E0FCA3E0FD7C006E
:10054000ED64FFFDED6F7002EC6E6072900032E0C2
:10055000FFEF4401FF900032EFF01222D090010231
:10056000EFF0900039E0FFEF4401FF900039EFF029
:10057000900102E0FF12224D900030E0FFEF548026
:10058000FF7E00EF4E702F900031E0FFEF5400FF30
:10059000900031EFF0900031E0FCA3E0FD90000707
:1005A000E0FF7E00EF7F00FEEC4EFEED4FFF90007F
:1005B00031EEF0A3EFF07F10121AED0207719000F8
:1005C00030E0FFEF547BFF900030EFF0900032E01E
:1005D000FFEF4402FF900032EFF0900031E0FFEFB8
:1005E0005400FF900031EFF0900031E0FCA3E0FDFB
:1005F000900007E0FF7E00EF7F00FEEC4EFEED4F27
:10060000FF900031EEF0A3EFF0900030E0FFEF54E8
:1006100040FF7E00EF4E600E900032E0FFEF44049A
:10062000FF900032EFF0900030E0FFEF4440FF9089
:100630000030EFF090000BE0FFEF701E1222D09020
:100640000102EFF0900039E0FFEF54FEFF90003917
:10065000EFF0900102E0FF12224D900007E0FFEF63
:10066000643C603F900007E0FFEF647D60359000E0
:100670000BE0FFEF25E025E024BBF582E43423F511
:1006800083E493FFEF5420FF7E00EF4E600D900057
:100690000BE0FF1223397F01121AED90000BE0FFEF
:1006A000122021900007E0FFEFB43C1F7B017A008D
:1006B0007917120780900037E0FFEF54F7FF9000A2
:1006C00037EFF07F01121AED020771900007E0FF8B
:1006D000EFB47D16900037E0FFEF54FBFF9000373A
:1006E000EFF07F01121AED02077190000BE0FFEFAF
:1006F00025E025E024BBF582E43423F583E493FF71
:10070000EF5410FF7E00EF4E70621222D090010273
:10071000EFF0900101E4F0900008E0FF900101E0AB
:10072000FEEEC39F503E900101E0FF740C2FF58256
:10073000E43400F583E0FF90000BE0FEEE25E025B9
:10074000E024BCF582E43423F5831211009001010A
:10075000E0FEE92EF9E43AFAEF120EC5900101E04D
:1007600004F080B3900102E0FF12224D7F01121AC3
:10077000ED900005E4F0A3E4F0227F01121AED22CF
:100780009001031210F7900107E4F090010312109A
:10079000EE120EACFFEF700F900032E0FFEF440856
:1007A000FF900032EFF0229001031210EE120EAC17
:1007B000FF90002DE0FEEE6F60219001031210EE1D
:1007C000120EACFFEF647F60129001031210EE1264
:1007D0000EACFFEF647E6003020EAB9001031210BB
:1007E000EEE92401F9EA3400FA120EACFFEF54F0FE
:1007F000FF7E00EF4E6003020D5D9001031210EECC
:10080000E92402F9EA3400FA120EACFFEF12110CDF
:10081000081AB20AF5B700000C819001031210EE1D
:10082000E92404F9EA3400FA1217F9900107EFF00D
:100830009001031210EEE92403F9EA3400FA120ED3
:10084000ACFFEF60030208D3900107E0FFEF640103
:100850006003020C9D90002DE0FF90001FEFF090D0
:1008600000207406F090002174F2F0902372E4935B
:10087000FE740193FFEF54FFFF900022EFF09023EE
:1008800072E493FE740193FFEEFF7E00900023EF6D
:10089000F0902374E493FE740193FFEF54FFFF90F4
:1008A0000024EFF0902374E493FE740193FFEEFFB5
:1008B0007E00900025EFF0902376E493FF900026D1
:1008C000EFF0900099E0FFEF4480FF900099EFF087
:1008D000020C9D9001031210EEE92403F9EA3400A2
:1008E000FA120EACFFEF6401600302097090010779
:1008F000E0FFEF64016003020C9D90002DE0FF908B
:10090000001FEFF09000207405F090002174F2F0C9
:100910009001067403F0900106E0FFEFC3940750C6
:1009200038900106E0FF7E00EF24FDFFEE34FFFE6D
:1009300090004C1210EEE92FF9EA3EFA120EACFFCD
:10094000900106E0FE741F2EF582E43400F583EF7B
:10095000F0900106E004F080BD90002674FFF09056
:100960000099E0FFEF4480FF900099EFF0020C9DAA
:100970009001031210EEE92403F9EA3400FA120E92
:10098000ACFFEFC394205003020AB9900103121088
:10099000EEE92403F9EA3400FA120EACFFEFD39427
:1009A0003F4003020AB9900107E0FFEF64016003D2
:1009B000020C9D9001031210EEE92403F9EA3400C1
:1009C000FA120EACFD9001031210EEE92403F9EACD
:1009D0003400FA7F001220A6900107EFF090010783
:1009E000E0FFEF705E90002DE0FF90001FEFF090B1
:1009F00000207403F0900021747FF090002274B204
:100A0000F09000237412F09001067405F090010636
:100A1000E0FFEFC39408501A900106E0FF741F2F07
:100A2000F582E43400F58374FFF0900106E004F0F1
:100A300080DB900099E0FFEF4480FF900099EFF099
:100A4000020C9D900107E0FFEF64026003020C9D21
:100A500090002DE0FF90001FEFF09000207406F052
:100A600090002174F2F09001067403F0900106E00A
:100A7000FFEFC39408502E9001031210EE90010670
:100A8000E0FFE92FF9E43AFA120EACFF900106E01C
:100A9000FE741F2EF582E43400F583EFF09001061A
:100AA000E004F080C7900099E0FFEF4480FF9000E1
:100AB00099EFF0020C9D020C9D9001031210EEE9DB
:100AC0002403F9EA3400FA120EACFFEFC39410507D
:100AD00003020C9D9001031210EEE92403F9EA349D
:100AE00000FA120EACFFEFD3941F4003020C9D02DC
:100AF0000C9D020C9D900107E4F0900106E4F0903B
:100B00000106E0FFEFC394044003020C28900103A8
:100B10001210EEE92403F9EA3400FA120EACFF9049
:100B20000106E0FEEE2FFFEFC394034003020BF536
:100B3000900106E0FF7E00EF2404FFEE3400FE90FB
:100B400001031210EEE92FF9EA3EFA120EACFFEFA4
:100B500064FF6075900106E0FF7E00EF2404FFEE65
:100B60003400FE9001031210EEE92FF9EA3EFA126A
:100B70000EACFFEF543FFF7E00C3EF943CEE9400B9
:100B80005047900106E0FF7E00EF2404FFEE3400A2
:100B9000FE9001031210EEE92FF9EA3EFA120EACB4
:100BA000FF9001031210EEE92403F9EA3400FA126F
:100BB0000EACFE900106E0FDED2EFE74332EF582A4
:100BC000E43400F583EFF08056900106E0FF7E00EC
:100BD000EF2404FFEE3400FE9001031210EEE92F23
:100BE000F9EA3EFA120EACFFEF64FF6032900107A3
:100BF000E004F0802A900106E0FF7E00EF2404FF6D
:100C0000EE3400FE9001031210EEE92FF9EA3EFAED
:100C1000120EACFFEF64FF6006900107E004F09055
:100C20000106E004F0020AFF900107E0FFEF706D9B
:100C300090002DE0FF90001FEFF09000207401F075
:100C400090002174F7F09001067403F0900106E023
:100C5000FFEFC39408501A900106E0FF741F2FF5B0
:100C600082E43400F58374FFF0900106E004F08024
:100C7000DB900099E0FFEF4480FF900099EFF08057
:100C80001C900037E0FFEF4401FF900037EFF09039
:100C90000037E0FFEF4402FF900037EFF09000379D
:100CA000E0FFEF5401FF7E00EF4E7012900037E03E
:100CB000FFEF5402FF7E00EF4E7003020EAB900177
:100CC000031210EEE92401F9EA3400FA120EACFF27
:100CD000EFD39406507890004FE0FFEFC394045098
:100CE0006D900106E4F0900106E0FFEFC394085018
:100CF0003B9001031210EE900106E0FFE92FF9E4AA
:100D00003AFA120EACFF900029E0FCA3E0FD745506
:100D10002DF58274003CF583EFF0900029E475F026
:100D200001120F2C900106E004F080BA900029E037
:100D3000FEA3E0FFEF64204E7008900029E4F0A3CA
:100D4000E4F090004FE004F090002E740CF090005E
:100D500037E0FFEF54FCFF900037EFF022900103E3
:100D60001210EEE92401F9EA3400FA120EACFFEF9A
:100D700054F0FF7E00EF64104E6003020E159001E8
:100D8000031210EEE92402F9EA3400FA120EACFF65
:100D9000EFD394075003020EAB90004FE0FFEFC378
:100DA00094044003020EAB900106E4F0900106E0CB
:100DB000FFEFC39408503B9001031210EE90010620
:100DC000E0FFE92FF9E43AFA120EACFF900029E0B7
:100DD000FCA3E0FD74552DF58274003CF583EFF023
:100DE000900029E475F001120F2C900106E004F048
:100DF00080BA900029E0FEA3E0FFEF64204E700867
:100E0000900029E4F0A3E4F090004FE004F090009B
:100E10002E740CF0229001031210EEE92401F9EA7D
:100E20003400FA120EACFFEF54F0FF7E00EF6420A6
:100E30004E707890004FE0FFEFC39404506D900126
:100E400006E4F0900106E0FFEFC39408503B9001E8
:100E5000031210EE900106E0FFE92FF9E43AFA12CE
:100E60000EACFF900029E0FCA3E0FD74552DF58247
:100E700074003CF583EFF0900029E475F001120F47
:100E80002C900106E004F080BA900029E0FEA3E077
:100E9000FFEF64204E7008900029E4F0A3E4F09086
:100EA000004FE004F090002E740CF022BB01068984
:100EB000828A83E0225002E722BBFE02E32289827B
:100EC0008A83E49322BB010689828A83F02250023E
:100ED000F722BBFE01F322BC000BBE0029EF8DF010
:100EE00084FFADF022E4CCF875F008EF2FFFEE336D
:100EF000FEEC33FCEE9DEC984005FCEE9DFE0FD51C
:100F0000F0E9E4CEFD22EDF8F5F0EE8420D21CFEEF
:100F1000ADF075F008EF2FFFED33FD400798500658
:100F2000D5F0F222C398FD0FD5F0EA22C5F0F8A360
:100F3000E028F0C5F0F8E582158270021583E038EC
:100F4000F022BB010A89828A83E0F5F0A3E02250F7
:100F50000687F009E71922BBFE07E3F5F009E3195C
:100F60002289828A83E493F5F074019322EF2BFFA8
:100F7000EE3AFEED39FDEC38FC22E88FF0A4CC8B84
:100F8000F0A42CFCE98EF0A42CFC8AF0EDA42CFC3F
:100F9000EA8EF0A4CDA8F08BF0A42DCC3825F0FD7E
:100FA000E98FF0A42CCD35F0FCEB8EF0A4FEA9F077
:100FB000EB8FF0A4CFC5F02ECD39FEE43CFCEAA4C3
:100FC0002DCE35F0FDE43CFC2275F008758200EF73
:100FD0002FFFEE33FECD33CDCC33CCC58233C5826B
:100FE0009BED9AEC99E58298400CF582EE9BFEED24
:100FF0009AFDEC99FC0FD5F0D6E4CEFBE4CDFAE4F3
:10100000CCF9A88222B800C1B90059BA002DEC8BE6
:10101000F084CFCECDFCE5F0CBF97818EF2FFFEEC2
:1010200033FEED33FDEC33FCEB33FB10D70399407B
:1010300004EB99FB0FD8E5E4F9FA227818EF2FFFBB
:10104000EE33FEED33FDEC33FCC933C910D7059BFD
:10105000E99A4007EC9BFCE99AF90FD8E0E4C9FA59
:10106000E4CCFB2275F010EF2FFFEE33FEED33FDE5
:10107000CC33CCC833C810D7079BEC9AE899400A08
:10108000ED9BFDEC9AFCE899F80FD5F0DAE4CDFB86
:10109000E4CCFAE4C8F922EF4BFFEE4AFEED49FD3D
:1010A000EC48FC22E8600FECC313FCED13FDEE13DB
:1010B000FEEF13FFD8F122E8600FEFC333FFEE33EA
:1010C000FEED33FDEC33FCD8F122E0FCA3E0FDA300
:1010D000E0FEA3E0FF22E0F8A3E0F9A3E0FAA3E03A
:1010E000FB22ECF0A3EDF0A3EEF0A3EFF022E0FB87
:1010F000A3E0FAA3E0F922EBF0A3EAF0A3E9F022DF
:10110000E493FB740193FA740293F922D083D082A2
:10111000F8E4937012740193700DA3A393F8740113
:1011200093F5828883E4737402936860EFA3A3A3AA
:1011300080DFE50C2582F582E50B3583F583B50B61
:101140000485820C2210AF0685820CF50B22858265
:101150000CF50BD2AF22EC8EF0A4CCC5F0CCCDF8C0
:10116000EFA4CEC5F02DFDE43CFCE8A42EC8C5F0EC
:101170003DFDE43CFCEFA4FFE5F028FEE43DFDE48A
:101180003CFC22E709F608DFFA8046E709F208DFAF
:10119000FA803E88828C83E709F0A3DFFA8032E38D
:1011A00009F608DFFA806EE309F208DFFA80668844
:1011B000828C83E309F0A3DFFA805A89828A83E074
:1011C000A3F608DFFA804E89828A83E0A3F208DF63
:1011D000FA804280D280FA80C680D4805580F28026
:1011E00029801080A680EA809A80A880DA80E28038
:1011F000CA802988848C8589828A83E493A30586A2
:10120000F0A30586DFF5DEF3800B89828A83E49301
:10121000A3F608DFF9ECFAA9F0EDFB2288848C85AF
:1012200089828A83E0A30586F0A30586DFF6DEF4D3
:1012300080E389828A83E493A3F208DFF980D68869
:10124000F0EF60010E4E60CD88F0ED2402B4040092
:1012500050C3F582EB2402B4040050B92323458225
:10126000239011D3739000FAEEF0A3EFF09000FCFE
:10127000EDF01223689000FEEFF012235E9000FF65
:10128000EEF0A3EFF09000FFE0FEA3E0FF9000FA85
:10129000E0FCA3E0FDED6F7002EC6E70030213F949
:1012A0009043A2E0FFEF5401FF9000FDEFF09000AB
:1012B000FEE0FFEF705E9000FFE0FEA3E0FFEF4E68
:1012C000600C9000FAE0FEA3E0FFEF4E7046900045
:1012D000FFE0FEA3E0FFEF4E701D7B027A407980B5
:1012E0009000FAE0FCA3E0FD12232C904082E0FF86
:1012F000EF54BFFFEFF022904082E0FFEF4440FF49
:10130000EFF07B027A4079809000FAE0FCA3E0FDE8
:1013100012232C229000FDE0FFEF606C904001E46E
:10132000F09040107401F0904014E4F0904008E018
:10133000FFEF547FFFEFF0904082E0FFEF5408FF93
:101340007E00EF4E600C9000FAE0FEA3E0FFEF4E4F
:1013500070367B027A4079029000FFE0FCA3E0FD4A
:1013600012232C9040017407F0904001E0FFEF54ED
:1013700001FF7E00EF4E70F19043A2E0FFEF54FEBC
:10138000FFEFF0904001E4F09043A2E0FFEF540142
:10139000FF7E00EF4E603A7B027A4079029000FABD
:1013A000E0FCA3E0FD12232C9000FCE0FFEF6004C2
:1013B0007F0280027F00EF4401FF904001EFF09038
:1013C0004001E0FFEF5401FF7E00EF4E602B80EF05
:1013D000227B027A4079809000FAE0FCA3E0FD12C3
:1013E000232C9043A2C083C082E0FF9000FDE0FE6A
:1013F000EF4EFFD082D083EFF022900038E0FF90D4
:101400006569E0FEEF4EFF900038EFF0900038E0A5
:10141000FFEF5402FF7E00EF4E6013900032E0FFBA
:10142000EF4410FF900032EFF090004BE4F090009A
:1014300038E0FFEF5404FF7E00EF4E601F90004B3A
:10144000E0FFEFB44610900096E0FFEF4401FF90FC
:101450000096EFF0800690004BE004F0900038E03A
:10146000FFEF5401FF7E00EF4E606F900030E0FF11
:10147000EF5484FF7E00EF4E603A900032E0FFEFC1
:101480004401FF900032EFF0900030E0FFEF547F16
:10149000FF900030EFF01222D09000F9EFF09000B2
:1014A00039E0FFEF4401FF900039EFF09000F9E0E0
:1014B000FF12224D900030E0FFEF4401FF9000301A
:1014C000EFF0906579E0FFEF54FBFFEFF09000271D
:1014D000E0FEA3E0FF7D00121265900038E0FFEF10
:1014E0005408FF7E00EF4E700302157690644AE0C8
:1014F000FF900036EFF090644AE0FF900036EFF086
:1015000090644AE0FF900036EFF090645AE0FF905C
:10151000644AE0FEEE2FFF900036EFF0900036E0D8
:10152000FFEF64806022900027E0FEA3E0FF9000C0
:1015300036E0FD7C001211567B807A00790078003D
:101540001210057D00121265900030E0FFEF54FB91
:10155000FF900030EFF090004A7401F0900030E00E
:10156000FFEF4408FF900030EFF09044D87402F091
:101570009044C07402F0900038E4F0227B007A4678
:1015800079E8122346EF4405FD7B007A4679E8129C
:101590002352750A00E50AC39408503AAF0AEF7562
:1015A000F005A424C7F582E43423F583AF82AE832B
:1015B0008E088F09AE08AF098F828E83121100AE9C
:1015C00008AF098F828E83740393FC740493FD1219
:1015D00020E1050A80BF7B087A0079001221A57BF3
:1015E000017A507903122346EF4402FD7B017A50C1
:1015F00079031223527B017A507913122346EF4468
:1016000002FD7B017A5079131223529043A0E0FF30
:10161000EF4440FF9043A0EFF09043C2E0FFEF445F
:1016200010FF9043C2EFF07B087A057950C003C0E9
:1016300002C0017B007A5179C09000E21210F7D00D
:1016400001D002D0037F0A7E001221717B087A0547
:10165000795CC003C002C0017B007A5179529000CE
:10166000E21210F7D001D002D0037F087E001221D1
:10167000719044F47401F0904322E0FFEF4408FFBE
:10168000904322EFF09046ECE0FFEFC39405500644
:10169000904689743AF090480074F1F01218FF12E5
:1016A000213B7B007A4379A0C003C002C0017B00CC
:1016B0007A4379B09000E21210F7D001D002D00343
:1016C0007F0E7E001221719043B0E0FFEF54FDFFCA
:1016D000EFF0227BFF7A2379EFC003C002C0017BC9
:1016E000017A0079DDA801AC02AD03D001D002D0AF
:1016F000037E007F0812123F7BFF7A2379F7C00335
:10170000C002C0017B017A0079E5A801AC02AD03FB
:10171000D001D002D0037E007F0812123F9000EF6C
:10172000E4F0D2AF9044F474FDF01220FAEF6005BB
:101730007F001222A67F001221D2EF60057F0012E7
:1017400022A67F00121E159000EDE4F09000EDE05F
:10175000FFEFC39408501E9000EDE0FF9000EDE015
:10176000FE74DD2EF582E43400F583EFF09000ED99
:10177000E004F080D77B017A0079DD7D087F0012DC
:101780001D2D1221FDEF640170547B017A0079DD7B
:101790007D087F00121DA39000EDE4F09000EDE0C5
:1017A000FFEFC39408502A9000EDE0FF74DD2FF5A1
:1017B00082E43400F583E0FF9000EDE0FE74E52E56
:1017C000F582E43400F583EFF09000EDE004F08062
:1017D000CB7B017A0079E57D087F00121D2D7F000B
:1017E000122291EF640D60097F0012227CEFB40A8F
:1017F000917F00121E15808A229001081210F79026
:10180000010B7401F09001081210EE120EACFF9063
:101810002372E493FC740193FDAE05EE54FFFEEEDB
:101820006F60149001081210EE120EACFFEF64FF0F
:10183000600590010BE4F09001081210EEE924011C
:10184000F9EA3400FA120EACFD902372E493FE74B0
:101850000193FFEEFF7E00EF6D601C9001081210F7
:10186000EEE92401F9EA3400FA120EACFFEF647FCE
:10187000600590010BE4F09001081210EEE92402DB
:10188000F9EA3400FA120EACFF902374E493FC746E
:101890000193FDAE05EE54FFFEEE6F601C90010853
:1018A0001210EEE92402F9EA3400FA120EACFFEF4E
:1018B00064FF600590010BE4F09001081210EEE95E
:1018C0002403F9EA3400FA120EACFD902374E49379
:1018D000FE740193FFEEFF7E00EF6D601C90010827
:1018E0001210EEE92403F9EA3400FA120EACFFEF0D
:1018F00064FF600590010BE4F090010BE0FF227B98
:10190000007A4079807D9B7C0012232A904082746B
:1019100018F09043007402F09040007408F0904278
:10192000007403F07B0C7A0179081223469046A1DB
:10193000EFF07B007A4279227D107C0012232A7B13
:10194000007A4279207D517C1212232A9000E1E432
:10195000F07F197E007D007C009000DD1210E29087
:1019600000DD1210CAD3EF9400EE9400404E9000B8
:10197000E1E0FFEF64036044904225E0FFEF540193
:10198000FF7E009000E1E0FEEE25E0FEEE4FFFEF6F
:101990005403FF9000E1EFF07FE07E017D007C00CA
:1019A0001221009000DD1210CA7BFF7AFF79FF78C8
:1019B000FF120F6D9000DD1210E280A39000DD1287
:1019C00010CAEF4E70057F031222F97B007A40792E
:1019D000047D007C0112232A9040047407F090409B
:1019E00006E4F09040087448F0904004E4F0904021
:1019F000017402F09043A2E0FFEF4401FF9043A284
:101A0000EFF02275930078007583467582E8E04414
:101A100001F0009046ECE0F99046FAE0FAB90322B2
:101A20005420B40012B8001AEA900FFFF07401902D
:101A30000FFEF09046F6F0900FFEE06005900FFF6D
:101A4000E0FA90480074C0F075810C9000007800B6
:101A50007910E4F0A3D8FCD9FAEA900117F002005B
:101A600011750B0F750CFD12157C021AA80216D306
:101A7000E493A3F8E493A34003F68001F208DFF4B3
:101A80008029E493A3F85407240CC8C333C4540F2B
:101A90004420C8834004F456800146F6DFE4800BFE
:101AA0000102040810204080901EDAE47E01936059
:101AB000BCA3FF543F30E509541FFEE493A360012B
:101AC0000ECF54C025E060A840B8E493A3FAE49395
:101AD000A3F8E493A3C8C582C8CAC583CAF0A3C843
:101AE000C582C8CAC583CADFE9DEE780BE900103AC
:101AF000EFF0900103E0FFEFB4102F900030E0FF13
:101B0000EF54FBFF900030EFF0900030E0FFEF5417
:101B100040FF7E00EF4E7003021BD2900032E0FFC8
:101B2000EF4404FF900032EFF022900103E0FFEF5A
:101B300064207043900030E0FFEF4440FF9000309D
:101B4000EFF0900037E0FFEF5404FF7E00EF4E60AF
:101B50000B90002F740AF0900037E4F0900037E00B
:101B6000FFEF5408FF7E00EF4E606790002E740D6B
:101B7000F0900037E4F022900103E0FFEF64017081
:101B800051900030E0FFEF54F7FF900030EFF090FD
:101B900044C87402F0906579E0FFEF4404FFEFF071
:101BA0001222D0900104EFF090649CE0FFEF44011A
:101BB000FFEFF090649CE0FFEF54FEFFEFF0900128
:101BC00004E0FF12224D9044D87402F090004A7451
:101BD00001F0227D077F00121E7B7C1F7D307F007D
:101BE000121CAB9044D87401F09044D87401F07D7D
:101BF000077F01121E7B7C1F7D817F01121CAB12AF
:101C000022BB90642A74B0F0906589E0FFEF440D28
:101C1000FFEFF01222D09000F2EFF0906599E0FF14
:101C2000EF4410FFEFF09000F2E0FF12224D9065BC
:101C300029E4F09065397478F012235E900027EE65
:101C4000F0A3EFF0906579E0FFEF4401FFEFF09033
:101C500000F3E4F09000F3E0FFEFC394035024900E
:101C600000F3E0FFEF90237893FF9000F3E0FE7421
:101C7000332EF582E43400F583EFF09000F3E004B6
:101C8000F080D1902377E493FF90002DEFF0900047
:101C900031E0FEA3E0FF7E007F00900031EEF0A374
:101CA000EFF09044C07401F07F00229000F4EFF058
:101CB0009000F5ECF0A3EDF09000F4E0FFEFD3948A
:101CC0001F5003D38001C340057F001222A690005D
:101CD000F4E0FFEF541FFF7E00EF25E0FFEE33FE40
:101CE000EF2400FFEE3444FEAA06A9077B0112236D
:101CF0001D9000F7EEF0A3EFF09000F4E0FF7E02FD
:101D0000EF8EF0A4FFAEF0EF2400FFEE3444FEAA05
:101D100006A9077B019000F5E0FEA3E0FFAD07AC4C
:101D20000612232C9000F7E0FEA3E0FF229000F0C3
:101D3000EFF09000F1EDF09000F21210F71222D0C7
:101D40009000F6EFF09000F5E4F09000F1E0FF90E5
:101D500000F5E0FEEEC39F50419000F21210EE90AD
:101D600000F5E0FFE92FF9E43AFA120EACFF90001B
:101D7000F5E0FEEEFD7C009000F0E0FEEEFB7A0068
:101D8000EB2DFDEA3CFC743A2DF58274003CF583A2
:101D9000EFF09000F5E004F080B09000F6E0FF1264
:101DA000224D229000F0EFF09000F1EDF09000F263
:101DB0001210F71222D09000F6EFF09000F5E4F048
:101DC0009000F1E0FF9000F5E0FEEEC39F503D90E3
:101DD00000F5E0FF7E009000F0E0FD7C00ED2FFFBD
:101DE000EC3EFE74422FF58274003EF583E0FF90D6
:101DF00000F21210EE9000F5E0FEE92EF9E43AFA56
:101E0000EF120EC59000F5E004F080B49000F6E00B
:101E1000FF12224D229000F0EFF09000F0E0FF90D2
:101E200000F0EFF01222D09000F1EFF0900050E4BB
:101E3000F090004FE4F090002BE4F0A3E4F0900069
:101E400053E4F0A3E4F0900029E4F0A3E4F0900060
:101E500051E4F0A3E4F090002F7407F090002E748A
:101E60000BF0902377E493FF90002DEFF090003774
:101E7000E4F09000F1E0FF12224D229000F4EFF028
:101E80009000F5EDF09000F5E0FFEFD394075003DC
:101E9000D38001C340057F001222A69000F4E0FF2A
:101EA000EFD3941F5003D38001C340057F0012225B
:101EB000A69000F5E0FFEF5407FF7E00EF75F020DD
:101EC000A4FFAEF09000F4E0FEEE541FFE74802EEE
:101ED000F582E43444F583EFF022410039FE4800F6
:101EE0003A01010203040506074800420000000011
:101EF0000000000045000000000000004300140046
:101F0000000044011302DC6C0044010E0000BB80A1
:101F1000410112304401185DC00000410125004319
:101F2000012100000043011C0000004101260000C7
:101F3000C0E0C0F0C083C082C085C084C086758602
:101F400000C093759300C0D075D000C000C001C020
:101F500002C003C004C005C006C0071213FAD007B0
:101F6000D006D005D004D003D002D001D000D0D00C
:101F7000D093D086D084D085D082D083D0F0D0E0EA
:101F800032C0E0C0F0C083C082C085C084C0867506
:101F90008600C093759300C0D075D000C000C0010A
:101FA000C002C003C004C005C006C00712001AD09A
:101FB00007D006D005D004D003D002D001D000D085
:101FC000D0D093D086D084D085D082D083D0F0D0AA
:101FD000E032900103EFF090010574FFF0900104EE
:101FE000E4F0900104E0FFEFC39403502E9001044D
:101FF000E0FF74332FF582E43400F583E0FF9001B5
:1020000003E0FEEEB5070C900104E0FF900105EF40
:10201000F08008900104E004F080C7900105E0FF23
:1020200022900103EFF0900103E0FFEF12110C206A
:102030003C00204B01205A0200002068900097E0ED
:10204000FFEF4410FF900097EFF022900097E0FF21
:10205000EF4424FF900097EFF022900097E0FFEF0D
:102060004448FF900097EFF0221222D09000F4EF46
:10207000F090649CE0FFEF4420FFEFF090649DE05F
:10208000FFEF4410FFEFF0906498E0FFEF4420FF73
:10209000EFF090649AE0FFEF4410FFEFF09000F44F
:1020A000E0FF12224D22900108EFF0900109EDF0BF
:1020B00090010A1210F790010DE4F0900108E0FF82
:1020C000900108EFF0900109E0FF900109EFF09016
:1020D000010A1210EE90010A1210F790010DE0FFB4
:1020E00022EC4D6011ED60010C8B938A838982E4B0
:0D20F000F0A3DDFCDCFA759300227F0022D6
:10210000EC4D4E700D78FCEF24E950032840FD2281
:1021100000007BF178DA0000EF28FF78FFEE38FE50
:10212000ED38FDEC38FC50E7EF2BFFEE38FEED38D4
:10213000FDEC38FC40F222050203047B0C7A0179A5
:10214000CF1223469000DDEFF09000DDE0FFEF546A
:1021500007FF90586EEFF09000DDE0FFEFC4540FE2
:10216000FFEF540FFF90586FEFF09058767444F0E3
:1021700022758600EF4E6027EF60010E7593009088
:1021800000E2E0F595A3E0F585A3E0F5848B938A62
:10219000838982E0A30586F0A31586DFF6DEF4E4EA
:1021A000F593F59522ACEAADA08B938A838982E002
:1021B000F96017A3E0F5EAA3E0F5A0A3E060F4FA64
:1021C000A3E0F8A3E0F2DAF8D9E98DA08CEAE4F50F
:1021D00093229000F0EFF09000F0E0FFEF12110C6E
:1021E00021E700000021F1121BD39000F1EFF080F5
:1021F000069000F17401F09000F1E0FF229000F0F1
:10220000E4F0900097E0FFEF5408FF7E00EF4E608F
:10221000069000F07401F09000F0E0FF2290648CD2
:102220007472F090648D7420F09064887447F0901C
:10223000648AE4F022900103EFF0900125E0FFEFC3
:10224000600A900103E0FF906448EFF022EF540130
:102250006004D2AF8002C2AFEF5402FF9044F4E0BA
:1022600054FD4FF022900103EFF0900103E0FF8056
:1022700000900104E4F0900104E0FF229000F0EFF0
:10228000F09000F0E0FF9000F0EFF090002FE0FF02
:10229000229000F0EFF09000F0E0FF9000F0EFF0FF
:1022A00090002EE0FF2290FFFF121132EFF09046D7
:1022B000EA7401F090000112113222900125E0FF32
:1022C000EF700912221D9001257401F0122069227D
:1022D0009044F4E0F84402F0E85402FF10AF012209
:1022E00074014FFF2290646DE0FFEF547FFF900177
:1022F00003EFF0900103E0FF229000E2EFF0900086
:10230000E2E0FF9000E2EFF080FE2290644CE0FFFC
:10231000900103EFF0900103E0FF228B938A838901
:1023200082E0FFA3E0FE759300228B938A8389826B
:10233000EDF0A3ECF075930022900103EFF0900113
:1023400003E0FF8000228B938A838982E0759300EB
:10235000FF228B938A838982EDF0759300227B02A2
:102360007A40798012231D22904082E0FFEF5407CB
:10237000FF227FFEFFFE0001C1804280C14203C4F4
:102380008506470849CA8B4C0D8ECF501192D31445
:1023900055D697D8991A5B9CDD5E1F2061E2A36435
:1023A00025A6E7A8E96A2BECAD2E6FF0B13273B425
:1023B000F576377839BAFB3C7DFEBF11010039183C
:1023C00001003A0801004200510000500051600035
:1023D000100051F00010010000100001140008006E
:1023E0000140000A00014C000200015000002000E2
:0F23F000000000000000000000000000000000DE
:00000001FF
