:100000000218C7008F828E83E0540100000070F850
:100010002278FFE4F6D8FD021925EC4D6011E8497D
:100020007017ED33EC3304600DE4FCFFFEFD22E9B4
:1000300033E8330470F80202E31202AE5804600998
:10004000E4CC248150062850090202ED2840030226
:1000500002EAC0E0EB4A7044B98006D0E0FB02023D
:10006000D9EF4E701CBD8008EBFFEAFEE9FD80EB86
:10007000E98DF0A4FEE5F0020103E9CDF9EAFEEB1B
:10008000FFEF89F0A4FCE5F0CE89F0A42EFFE43563
:10009000F0CD89F0A42DFEE435F08067EF4E7005B9
:1000A000BD80D780C3EF8BF0A4ACF0EE8BF0A42C16
:1000B000FCE435F0F8EF8AF0A42CE5F038FCE433EA
:1000C000CB8DF0A42CFCE5F03BF8EE8AF0A42CFCE0
:1000D000E5F038F8E433CF89F0A42CFCE5F038CF14
:1000E0003400CE89F0A42FFFE5F03EFEE433C98D45
:1000F000F0A42EFEE5F039CD8AF0A42FFFE5F03E06
:10010000FEE43DFD33D0E0FB50070BBB000F0202C5
:10011000EDEC2CFCEF33FFEE33FEED33FD0202C5B8
:100120000202EDEC5D046005E8590470030202E38D
:100130001202AE580460F6EC4860F2EC7004FDFE6A
:10014000FF22C860DB2481C85009C39860025006B2
:100150000202EA9850CAF582E9294B4A7005AB823F
:100160000202D975F0007C1A7880C3EF9BEE9AEDFD
:1001700099400DC3EF9BFFEE9AFEED99FDE842F02A
:10018000DC23ACF0D0E0FFD0E0FED0E0FDAB82207D
:10019000E7101BEB60BAEC2CFCEF33FFEE33FEED07
:1001A00033FD0202C5E803F830E705C0F075F00042
:1001B000EF2FFFEE33FEED33FD40B830E7C280AAEB
:1001C00074F8CC6480CCC86480C8F58204604FC3E6
:1001D000EB9FF5F0EA9E42F0E99D42F0E89C45F085
:1001E000603C501DE5825FFFE582D313CB5BCBF40F
:1001F0002B5582FB50280ABA002409B90020088038
:100200001DE5825BFBE582D313CF5FCFF4C3132FD1
:100210005582FF50090EBE00050DBD00010CC3EB59
:100220009FF5F0EA9E42F0E99D42F0E89C45F060BF
:1002300007CC4820E701B3EC2275F020800E75F062
:1002400010800575F0087D007E007F003392D53068
:10025000D5031204FEEC334010EF33FFEE33FEED16
:1002600033FDEC33FCD5F0ED22E5F0247EA2D5136E
:10027000CC92E7CDCEFF22EDD2E7CD33EC3392D551
:1002800024814006E4FFFEFDFC22FCE4CFCECDCC71
:1002900024E0501174FF80EDC3CC13CCCD13CDCE30
:1002A00013CECF13CF0470F030D5DE0204FEE9D2B6
:1002B000E7C933E833F892D5EDD2E7CD33EC33FC20
:1002C0005002B2D522EC30E7100FBF000C0EBE007A
:1002D000080DBD00040BEB6014A2D5EB13FCED92EE
:1002E000E7FD2274FFFCFDFEFF22E480F8A2D57436
:1002F000FF13FC7D80E480EFBB010689828A83E0E6
:10030000225002E722BBFE02E32289828A83E49321
:1003100022BB010689828A83F0225002F722BBFEAB
:1003200001F322BC000BBE0029EF8DF084FFADF07D
:1003300022E4CCF875F008EF2FFFEE33FEEC33FC2F
:10034000EE9DEC984005FCEE9DFE0FD5F0E9E4CE65
:10035000FD22EDF8F5F0EE8420D21CFEADF075F034
:1003600008EF2FFFED33FD4007985006D5F0F2223D
:10037000C398FD0FD5F0EA22C5F0F8A3E028F0C538
:10038000F0F8E582158270021583E038F022BB0197
:100390000A89828A83E0F5F0A3E022500687F009FB
:1003A000E71922BBFE07E3F5F009E3192289828AE7
:1003B00083E493F5F074019322EF2BFFEE3AFEED08
:1003C00039FDEC38FC22C3EF9BFFEE9AFEED99FD60
:1003D000EC98FC22E88FF0A4CC8BF0A42CFCE98EE6
:1003E000F0A42CFC8AF0EDA42CFCEA8EF0A4CDA89D
:1003F000F08BF0A42DCC3825F0FDE98FF0A42CCDA6
:1004000035F0FCEB8EF0A4FEA9F0EB8FF0A4CFC585
:10041000F02ECD39FEE43CFCEAA42DCE35F0FDE40F
:100420003CFC2275F008758200EF2FFFEE33FECD05
:1004300033CDCC33CCC58233C5829BED9AEC99E5A4
:100440008298400CF582EE9BFEED9AFDEC99FC0F34
:10045000D5F0D6E4CEFBE4CDFAE4CCF9A88222B8FC
:1004600000C1B90059BA002DEC8BF084CFCECDFC81
:10047000E5F0CBF97818EF2FFFEE33FEED33FDEC0E
:1004800033FCEB33FB10D703994004EB99FB0FD8F7
:10049000E5E4F9FA227818EF2FFFEE33FEED33FD95
:1004A000EC33FCC933C910D7059BE99A4007EC9B94
:1004B000FCE99AF90FD8E0E4C9FAE4CCFB2275F024
:1004C00010EF2FFFEE33FEED33FDCC33CCC833C835
:1004D00010D7079BEC9AE899400AED9BFDEC9AFC3B
:1004E000E899F80FD5F0DAE4CDFBE4CCFAE4C8F9EA
:1004F00022EF4BFFEE4AFEED49FDEC48FC22C3E43F
:100500009FFFE49EFEE49DFDE49CFC22E8600FEC6E
:10051000C313FCED13FDEE13FEEF13FFD8F122E839
:10052000600FEFC333FFEE33FEED33FDEC33FCD849
:10053000F122E0FCA3E0FDA3E0FEA3E0FF22E0F84F
:10054000A3E0F9A3E0FAA3E0FB22ECF0A3EDF0A313
:10055000EEF0A3EFF022E0FBA3E0FAA3E0F922EB38
:10056000F0A3EAF0A3E9F022E493FB740193FA7498
:100570000293F922D083D082F8E49370127401932D
:10058000700DA3A393F8740193F5828883E47374C8
:1005900002936860EFA3A3A380DFE5162582F582AE
:1005A000E5153583F583B515048582162210AF064F
:1005B000858216F51522858216F515D2AF22EC8EAE
:1005C000F0A4CCC5F0CCCDF8EFA4CEC5F02DFDE461
:1005D0003CFCE8A42EC8C5F03DFDE43CFCEFA4FFC4
:1005E000E5F028FEE43DFDE43CFC22E709F608DFE7
:1005F000FA8046E709F208DFFA803E88828C83E7BA
:1006000009F0A3DFFA8032E309F608DFFA806EE32F
:1006100009F208DFFA806688828C83E309F0A3DFA1
:10062000FA805A89828A83E0A3F608DFFA804E892D
:10063000828A83E0A3F208DFFA804280D280FA80C7
:10064000C680D4805580F28029801080A680EA8000
:100650009A80A880DA80E280CA802988848C858983
:10066000828A83E493A30586F0A30586DFF5DEF393
:10067000800B89828A83E493A3F608DFF9ECFAA958
:10068000F0EDFB2288848C8589828A83E0A305862D
:10069000F0A30586DFF6DEF480E389828A83E493A3
:1006A000A3F208DFF980D688F0EF60010E4E60CD2E
:1006B00088F0ED2402B4040050C3F582EB2402B4A8
:1006C000040050B9232345822390063B7390005CBD
:1006D000E0FFEF5408FF7E00EF4E70057F01121C13
:1006E000F41224ECEF30E33190005CE0FFEF448043
:1006F000FF90005CEFF01228F69000B1EFF0900050
:1007000064E0FFEF4410FF900064EFF09000B1E070
:10071000FF1228727F10121CF4900075E0FFEF1298
:10072000057407320108F6020A1E030AA804000035
:100730000C9612296290004AEFF090004CE4F09081
:10074000004AE0FFEF543FFFEF902A7693FF9000BE
:100750004AE0FEEF6E603290005EE0FFEF4401FF82
:1007600090005EEFF01228F69000B1EFF090006478
:10077000E0FFEF4410FF900064EFF09000B1E0FF65
:100780001228727F10121CF42290004AE0FFEF64DE
:100790003C600A90004AE0FFEF647D703290005E9A
:1007A000E0FFEF4401FF90005EEFF01228F69000AA
:1007B000B1EFF0900064E0FFEF4410FF900064EFB1
:1007C000F09000B1E0FF1228727F01121CF4229019
:1007D000004AE0FF1222AC90004EEFF090004EE095
:1007E000FFEF64FF70030208C490004AE0FF7E0040
:1007F000900048EEF0A3EFF090004EE0FFEF25E010
:1008000025E024B6F582E4342AF583E493FFEF541F
:100810000FFF90004BEFF090004EE0FFEF25E0253A
:10082000E024B6F582E4342AF583E493FFEF541014
:10083000FF7E00EF4E607A90004EE0FFEF25E0254E
:10084000E024B6F582E4342AF583E493FFEF5420E4
:10085000FF7E00EF4E601090004EE0FF12288AEFFE
:1008600070057F01121CF490004EE0FFEF25E0259B
:10087000E024B7F582E4342AF58312056890005726
:1008800012055F9000571205561202F8FF90004DB6
:10089000EFF0900058E475F00112037890004DE0FD
:1008A000FF12285A90004C7401F09000757402F009
:1008B000227B017A00794F90005712055F900075F6
:1008C0007403F02290005EE0FFEF4401FF90005EB1
:1008D000EFF01228F69000B1EFF0900064E0FFEF27
:1008E0004410FF900064EFF09000B1E0FF12287216
:1008F0007F01121CF42290007BE0FFEF4410FF9078
:10090000007BEFF012296290004DE0FEEF6E700365
:100910000209A390004EE0FFEF25E025E024B6F5A4
:1009200082E4342AF583E493FFEF5420FF7E00EF46
:100930004E700E90005EE0FFEF4401FF90005EEF0E
:10094000F01228F69000B1EFF0900064E0FFEF4461
:1009500010FF900064EFF09000B1E0FF1228729059
:10096000005CE0FFEF5480FF7E00EF4E702F9000A0
:100970005DE0FFEF5400FF90005DEFF090005DE060
:10098000FCA3E0FD90004AE0FF7E00EF7F00FEEC5C
:100990004EFEED4FFF90005DEEF0A3EFF07F1012E2
:1009A0001CF42290004DE0FF7E00900048EE8FF096
:1009B000120378900048E0FEA3E0FFC3EE940140EC
:1009C0000B90004874FF75F00112037890004CE022
:1009D000FF90004BE0FEEED39F4028900057120599
:1009E000561202F8FF90004DEFF0900058E475F0B9
:1009F0000112037890004DE0FF12285A90004CE05D
:100A000004F022900048E0FEA3E0FFEF64FFFF1235
:100A1000285A90004CE4F09000757404F0221229DA
:100A20006290004DEFF090004DE0FF9000571205EE
:100A300056EF120311900058E475F00112037890FC
:100A4000004CE004F090007BE0FFEF4410FF9000CA
:100A50007BEFF090005CE0FFEF4404FF90005CEF60
:100A6000F090004DE0FF7E00900048EE8FF0120302
:100A700078900048E0FEA3E0FFC3EE9401400B90A5
:100A8000004874FF75F00112037890004CE0FF906D
:100A9000004BE0FEEED39F4003020C9B90004CE421
:100AA000F09000757404F0221229627E00900048D4
:100AB000E0FCA3E0FD7C00ED64FFFDED6F7002EC57
:100AC0006E607290005EE0FFEF4401FF90005EEF09
:100AD000F01228F69000B1EFF0900064E0FFEF44D0
:100AE00010FF900064EFF09000B1E0FF12287290C8
:100AF000005CE0FFEF5480FF7E00EF4E702F90000F
:100B00005DE0FFEF5400FF90005DEFF090005DE0CE
:100B1000FCA3E0FD90004AE0FF7E00EF7F00FEECCA
:100B20004EFEED4FFF90005DEEF0A3EFF07F101250
:100B30001CF4020C8D90005CE0FFEF547BFF9000F2
:100B40005CEFF090005EE0FFEF4402FF90005EEF8C
:100B5000F090005DE0FFEF5400FF90005DEFF0903B
:100B6000005DE0FCA3E0FD90004AE0FF7E00EF7F27
:100B700000FEEC4EFEED4FFF90005DEEF0A3EFF0B7
:100B800090005CE0FFEF5440FF7E00EF4E600E905F
:100B9000005EE0FFEF4404FF90005EEFF090005C29
:100BA000E0FFEF4440FF90005CEFF090004EE0FF6C
:100BB000EF701E1228F69000B1EFF0900064E0FF95
:100BC000EF54EFFF900064EFF09000B1E0FF1228C7
:100BD0007290004EE0FFEF25E025E024B6F582E4B8
:100BE000342AF583E493FFEF5420FF7E00EF4E603C
:100BF0000D90004EE0FF1229A07F01121CF490001E
:100C00004EE0FF1222FB90004EE0FFEF25E025E0D2
:100C100024B6F582E4342AF583E493FFEF5410FF01
:100C20007E00EF4E70621228F69000B1EFF0900057
:100C3000B0E4F090004BE0FF9000B0E0FEEEC39F08
:100C4000503E9000B0E0FF744F2FF582E43400F581
:100C500083E0FF90004EE0FEEE25E025E024B7F5AE
:100C600082E4342AF5831205689000B0E0FEE92E94
:100C7000F9E43AFAEF1203119000B0E004F080B307
:100C80009000B1E0FF1228727F01121CF49000481E
:100C9000E4F0A3E4F0227F01121CF4227B007A46E8
:100CA00079E81229DFEF4405FD7B007A4679E812E6
:100CB00029EB751400E514C3940A503AAF14EF758C
:100CC000F005A424C2F582E4342AF583AF82AE8312
:100CD0008E088F09AE08AF098F828E83120568AE29
:100CE00008AF098F828E83740393FC740493FD1202
:100CF0002829051480BF751400E514C394025078A8
:100D0000AF14EF75F008A424F4F582E4342AF583D7
:100D1000AF82AE838E0A8F0BAE0AAF0B8F828E83AB
:100D20001205688B0C8A0D890EAE0AAF0B8F828E6E
:100D300083A3A3A31205688B0F8A108911AE0AAF93
:100D40000B8F828E83740693F512740793F513ABA1
:100D50000FAA10A911C003C002C001AB0CAA0DA9B3
:100D60000E90008C12055FD001D002D003AF13AEFD
:100D700012122486051480817B087A0079001225DE
:100D80009D905883740AF07B017A5079031229DF11
:100D9000EF4402FD7B017A5079031229EB7B017A43
:100DA0005079131229DFEF4402FD7B017A50791349
:100DB0001229EB9043A0E0FFEF4440FF9043A0EFE7
:100DC000F09043C2E0FFEF4410FF9043C2EFF07B8E
:100DD000087A097960C003C002C0017B007A5179AA
:100DE0000090008C12055FD001D002D0037F0A7EF4
:100DF000001224867B087A09796CC003C002C00106
:100E00007B007A5179C090008C12055FD001D0022E
:100E1000D0037F0A7E001224867B087A097978C085
:100E200003C002C0017B007A51791290008C120538
:100E30005FD001D002D0037F087E001224867B0899
:100E40007A097980C003C002C0017B007A517942DF
:100E500090008C12055FD001D002D0037F087E0085
:100E60001224867B087A097988C003C002C0017BFE
:100E7000007A51795290008C12055FD001D002D0D7
:100E8000037F087E001224869044F47401F090439E
:100E900022E0FFEF4408FF904322EFF09046ECE0A1
:100EA000FFEFC394055006904689743AF0904800CD
:100EB00074F1F01210EF1223437B007A4379A0C043
:100EC00003C002C0017B007A4379B090008C120508
:100ED0005FD001D002D0037F0E7E001224869043A3
:100EE000B0E0FFEF54FDFFEFF022900096EFF0909E
:100EF0000097ECF0A3EDF0900099EAF0A3EBF090EE
:100F0000009CE0FFEFD3940050030210E990009C96
:100F1000E0FFEFD3940140030210E9900096E0FF58
:100F2000EF1205740F37010F37040F64070F8F0896
:100F30000FBA0A00000FE590009BE0FFEFD3940F7B
:100F400040117B0C7A0179181229DF90009DEFF097
:100F5000020FEA7B0C7A01791C1229DF90009DEFC9
:100F6000F0020FEA90009BE0FFEFD3940F40107B5C
:100F70000C7A0179191229DF90009DEFF0806B7BCC
:100F80000C7A01791D1229DF90009DEFF0805B90B3
:100F9000009BE0FFEFD3940F40107B0C7A01791A8D
:100FA0001229DF90009DEFF080407B0C7A01791EC2
:100FB0001229DF90009DEFF0803090009BE0FFEF62
:100FC000D3940F40107B0C7A01791B1229DF90001B
:100FD0009DEFF080157B0C7A01791F1229DF9000BC
:100FE0009DEFF0800590009DE4F090009DE0FFEF04
:100FF0003395E0FEFDFC7B207A0079007800120337
:10100000D4A804A905AA06AB07900097E0FEA3E0C8
:10101000FFE4FCFD1203B990009E12054A90009E69
:10102000120532AB07AA06A905A804A804A905AAB7
:1010300006AB07900099E0FEA3E0FFE4FCFD12037D
:10104000D49000A412054A7B007A80790078009041
:1010500000A412053212045F9000A2EEF0A3EFF09C
:1010600090009BE0FFEFC3940E50479000A2E0FE7B
:10107000A3E0FF90009BE0FDC3740E9DFDEFA8056B
:10108000088005CEC313CE13D8F9FF9000A2EEF06E
:10109000A3EFF090009BE0FFEF04FF90009CE0FEC8
:1010A000EE75F003A424B4F582E43400F583EFF088
:1010B000801690009CE0FFEF75F003A424B4F58245
:1010C000E43400F583740FF09000A2E0FEA3E0FF8B
:1010D00090009CE0FDED75F003A424B2F582E434A9
:1010E00000F583EEF0A3EFF0227F001228B7227BF9
:1010F000007A4079807D007C0012299190408274B2
:1011000050F07B007A4079847D007C001229919018
:1011100040867458F07B007A4079887D007C00120C
:10112000299190408A7458F07B007A40798C7D9B9D
:101130007C0012299190408E7418F07B007A4079DF
:10114000907D977C3A1229919040927419F07B0817
:101150007A097990C003C002C0017B007A4179000E
:1011600090008C12055FD001D002D0037F047E0076
:101170001224869043007402F09040007408F090AE
:1011800042007403F07B0C7A0179081229DF904643
:10119000A1EFF07B007A4279227D107C0012299128
:1011A0007B007A4279207D517C1212299190008631
:1011B000E4F07F197E007D007C0090008212054AD9
:1011C000900082120532D3EF9400EE9400404E90CE
:1011D0000086E0FFEF64036044904225E0FFEF5497
:1011E00001FF7E00900086E0FEEE25E0FEEE4FFF60
:1011F000EF5403FF900086EFF07FE07E017D007CDE
:10120000001225009000821205327BFF7AFF79FFE1
:1012100078FF1203B990008212054A80A3900082E1
:10122000120532EF4E70057F031229207B007A40B1
:1012300079047D007C011229919040047407F0909C
:101240004006E4F09040087448F0904004E4F090C8
:1012500040017402F090400B7404F09043A2E0FF50
:10126000EF441FFF9043A2EFF09043A1E0FFEF4453
:1012700001FF9043A1EFF09043A0E0FFEF4480FF17
:101280009043A0EFF0229000A9EEF0A3EFF09000C1
:10129000ABEDF0122A179000ADEFF0122A0D90007E
:1012A000AEEEF0A3EFF09000AEE0FEA3E0FF900002
:1012B000A9E0FCA3E0FDED6F7002EC6E7003021478
:1012C0001A9043A2E0FFEF5408FF9000ACEFF090BB
:1012D00000ADE0FFEF705E9000AEE0FEA3E0FFEF38
:1012E0004E600C9000A9E0FEA3E0FFEF4E70469028
:1012F00000AEE0FEA3E0FFEF4E701D7B027A407966
:101300008C9000A9E0FCA3E0FD12299390408EE0B0
:10131000FFEF54BFFFEFF02290408EE0FFEF44401C
:10132000FFEFF07B027A40798C9000A9E0FCA3E00B
:10133000FD122993229000ACE0FFEF606C90400119
:10134000E4F09040107408F0904014E4F0904008ED
:10135000E0FFEF547FFFEFF090408EE0FFEF540886
:10136000FF7E00EF4E600C9000A9E0FEA3E0FFEFCF
:101370004E70367B027A4079029000AEE0FCA3E02A
:10138000FD1229939040017407F0904001E0FFEFB7
:101390005401FF7E00EF4E70F19043A2E0FFEF5446
:1013A000F7FFEFF0904001E4F09043A2E0FFEF542C
:1013B00008FF7E00EF4E603A7B027A40790290008F
:1013C000A9E0FCA3E0FD1229939000ABE0FFEF60E1
:1013D000047F0280027F00EF4401FF904001EFF0A4
:1013E000904001E0FFEF5401FF7E00EF4E602B8044
:1013F000EF227B027A40798C9000A9E0FCA3E0FD0B
:101400001229939043A2C083C082E0FF9000ACE019
:10141000FEEF4EFFD082D083EFF022900097EEF0E7
:10142000A3EFF0900099EDF0122A2B90009BEFF0C3
:10143000122A2190009CEEF0A3EFF090009CE0FEB9
:10144000A3E0FF900097E0FCA3E0FDED6F7002ECDD
:101450006E70030215AF9043A2E0FFEF5401FF90BE
:10146000009AEFF090009BE0FFEF705E90009CE030
:10147000FEA3E0FFEF4E600C900097E0FEA3E0FFBC
:10148000EF4E704690009CE0FEA3E0FFEF4E701D13
:101490007B027A407980900097E0FCA3E0FD12295E
:1014A00093904082E0FFEF54BFFFEFF02290408224
:1014B000E0FFEF4440FFEFF07B027A40798090003C
:1014C00097E0FCA3E0FD1229932290009AE0FFEF41
:1014D000606C904001E4F09040107401F090401472
:1014E000E4F0904008E0FFEF547FFFEFF09040827F
:1014F000E0FFEF5408FF7E00EF4E600C900097E095
:10150000FEA3E0FFEF4E70367B027A407902900036
:101510009CE0FCA3E0FD1229939040017407F09039
:101520004001E0FFEF5401FF7E00EF4E70F1904369
:10153000A2E0FFEF54FEFFEFF0904001E4F0904393
:10154000A2E0FFEF5401FF7E00EF4E603A7B027A8B
:10155000407902900097E0FCA3E0FD1229939000EF
:1015600099E0FFEF60047F0280027F00EF4401FFFB
:10157000904001EFF0904001E0FFEF5401FF7E004A
:10158000EF4E602B80EF227B027A407980900097AB
:10159000E0FCA3E0FD1229939043A2C083C082E047
:1015A000FF90009AE0FEEF4EFFD082D083EFF02252
:1015B000900097EEF0A3EFF0900099EDF0122A3F23
:1015C00090009BEFF0122A3590009CEEF0A3EFF014
:1015D00090009CE0FEA3E0FF900097E0FCA3E0FDFC
:1015E000ED6F7002EC6E70030217449043A1E0FFB0
:1015F000EF5401FF90009AEFF090009BE0FFEF7036
:101600005E90009CE0FEA3E0FFEF4E600C90009720
:10161000E0FEA3E0FFEF4E704690009CE0FEA3E0EA
:10162000FFEF4E701D7B027A417900900097E0FC3D
:10163000A3E0FD122993904102E0FFEF54BFFFEFBA
:10164000F022904102E0FFEF4440FFEFF07B027A8E
:10165000417900900097E0FCA3E0FD1229932290CD
:10166000009AE0FFEF606C904001E4F09040147449
:1016700001F0904010E4F0904008E0FFEF547FFF4D
:10168000EFF0904102E0FFEF5408FF7E00EF4E6064
:101690000C900097E0FEA3E0FFEF4E70367B027ADD
:1016A00040790290009CE0FCA3E0FD122993904059
:1016B000017407F0904001E0FFEF5401FF7E00EF5E
:1016C0004E70F19043A1E0FFEF54FEFFEFF0904029
:1016D00001E4F09043A1E0FFEF5401FF7E00EF4EE4
:1016E000603A7B027A407902900097E0FCA3E0FD2B
:1016F000122993900099E0FFEF60047F0280027F3F
:1017000000EF4401FF904001EFF0904001E0FFEF57
:101710005401FF7E00EF4E602B80EF227B027A4166
:101720007900900097E0FCA3E0FD1229939043A17B
:10173000C083C082E0FF90009AE0FEEF4EFFD082AF
:10174000D083EFF022900063E0FF90646FE0FEEF43
:101750004EFF900063EFF0900063E0FFEF5402FF54
:101760007E00EF4E601390005EE0FFEF4410FF90AC
:10177000005EEFF0900076E4F0900063E0FFEF543D
:1017800004FF7E00EF4E601F900076E0FFEFB4464E
:1017900010900078E0FFEF4401FF900078EFF080B8
:1017A00006900076E004F0900063E0FFEF5401FF44
:1017B0007E00EF4E606F90005CE0FFEF5484FF7E90
:1017C00000EF4E603A90005EE0FFEF4401FF9000B2
:1017D0005EEFF090005CE0FFEF547FFF90005CEF65
:1017E000F01228F69000A8EFF0900064E0FFEF44BC
:1017F00010FF900064EFF09000A8E0FF12287290B4
:10180000005CE0FFEF4401FF90005CEFF090657931
:10181000E0FFEF54FBFFEFF090005AE0FEA3E0FF83
:101820007D00121286900063E0FFEF5408FF7E00F7
:10183000EF4E70030218C190644FE0FF900062EF1A
:10184000F090644FE0FF900062EFF090644FE0FF93
:10185000900062EFF090645FE0FF90644FE0FEEE76
:101860002FFF900062EFF0900062E0FFEF64806075
:101870002290005AE0FEA3E0FF900062E0FD7C00B1
:101880001205BE7B807A007900780012045F7D002B
:1018900012128690005CE0FFEF54FBFF90005CEFBB
:1018A000F09000757401F090005CE0FFEF4408FFD9
:1018B00090005CEFF09044D87402F09044C0740241
:1018C000F0900063E4F0227593007800758346750C
:1018D00082E8E04401F0009046ECE0F99046FAE03E
:1018E000FAB903225420B40012B8001AEA900FFF8C
:1018F000F07401900FFEF09046F6F0900FFEE0605D
:1019000005900FFFE0FA90480074C0F075811690C2
:10191000000078007910E4F0A3D8FCD9FAEA90002E
:10192000CEF002001175150F7516FD120C9C0219F0
:101930006C021DA5E493A3F8E493A34003F6800191
:10194000F208DFF48029E493A3F85407240CC8C3F9
:1019500033C4540F4420C8834004F456800146F633
:10196000DFE4800B0102040810204080901F45E452
:101970007E019360BCA3FF543F30E509541FFEE491
:1019800093A360010ECF54C025E060A840B8E49353
:10199000A3FAE493A3F8E493A3C8C582C8CAC58395
:1019A000CAF0A3C8C582C8CAC583CADFE9DEE7801A
:1019B000BE900096EFF09000C3E4F0900096E0FF38
:1019C000EF64016003021A8E904E007438F0904E5E
:1019D000027406F0904E037409F0904E04E4F09007
:1019E0004E05E4F0904E06741FF0904E08E4F0901F
:1019F0004E09E4F0904E0AE4F0904E147401F09019
:101A000058847414F09058857404F09058867409C2
:101A1000F0905887E4F090588A7422F090588B74B4
:101A200024F090588C7401F090588EE4F090588F08
:101A3000E4F0905890740AF09058917443F07F4409
:101A40001221B79058947458F0905895E4F090583B
:101A50009A7405F090589B7401F090589CE4F090B3
:101A6000589D740AF07FE87E037D007C009000B9E9
:101A700012054A7D017F257E0012141B7D017F9592
:101A80007E001215B07C2A7D6F7F1D121E4322122C
:101A900028F6900097EFF09000BDE0FF900096EFE1
:101AA000F09043AAE0FFEF4401FFEFF09043AAE07B
:101AB000FFEF4410FFEFF09043BAE0FFEF4401FF67
:101AC000EFF09043BAE0FFEF4410FFEFF09046F8DC
:101AD000E0FFEF4402FFEFF09046F9E0FFEF440231
:101AE000FFEFF0905891E0FFEF4403FFEFF07F032A
:101AF0007E001225709046F8E0FFEF54FDFFEFF0F6
:101B00009046F9E0FFEF54FDFFEFF0905877E0FFCB
:101B1000EF4406FFEFF0905882747AF09043A1E012
:101B2000FFEF4401FFEFF09043B1E0FFEF4401FF0E
:101B3000EFF09043A2E0FFEF4401FFEFF09043B2DB
:101B4000E0FFEF4401FFEFF09044DB7420F090449D
:101B5000C37420F0900097E0FF122872227D067F68
:101B6000001221037C227D0A7F00121E439044D87C
:101B70007401F09044D87401F07D067F01122103B6
:101B80007C227D5B7F01121E431228E190642F743A
:101B9000B0F090648FE0FFEF440DFFEFF01228F6F5
:101BA000900098EFF090649FE0FFEF4410FFEFF09B
:101BB000900098E0FF122872906529E4F090653952
:101BC0007478F0122A0D90005AEEF0A3EFF09065B1
:101BD00079E0FFEF4401FFEFF0900099E4F090000E
:101BE00099E0FFEFC394035024900099E0FFEF9039
:101BF0002A7393FF900099E0FE745F2EF582E4341F
:101C000000F583EFF0900099E004F080D190005D42
:101C1000E0FEA3E0FF7E007F0090005DEEF0A3EF0A
:101C2000F09044C07401F07F00229000BD7401F078
:101C30009000B8E4F07F101226667F101226877D90
:101C4000077F1D1221039058967407F0905897E46F
:101C5000F090589EE4F0905B07E0FFEF4418FFEF30
:101C6000F0905893E4F0905B88E4F0905B89E4F0A6
:101C7000905880740AF0905881E4F0905883E4F012
:101C80009058887412F09058897413F090588DE42D
:101C9000F0904E017414F090009B740CF090009C36
:101CA0007401F07B007A807D5C7C8F7F05120EEAE8
:101CB0009000BDE0FFEF75F003A424B4F582E43496
:101CC00000F583E0FF904E0EEFF09000BDE0FFEFD7
:101CD00075F003A424B2F582E43400F583E0FCA39C
:101CE000E0FD7B027A4E790C1229939000BDE0FF53
:101CF0001219B1229000B2EFF09000B2E0FFEFB401
:101D0000102F90005CE0FFEF54FBFF90005CEFF0C1
:101D100090005CE0FFEF5440FF7E00EF4E70030246
:101D20001DA490005EE0FFEF4404FF90005EEFF022
:101D3000229000B2E0FFEFB4200F90005CE0FFEFD4
:101D40004440FF90005CEFF0229000B2E0FFEF64AF
:101D500001705190005CE0FFEF54F7FF90005CEFE2
:101D6000F09044C87402F0906579E0FFEF4404FFFE
:101D7000EFF01228F69000B3EFF0906497E0FFEFD9
:101D80004401FFEFF0906497E0FFEF54FEFFEFF0A7
:101D90009000B3E0FF1228729044D87402F09000D3
:101DA000757401F0227BFF7A2B7904C003C002C056
:101DB000017B017A007982A801AC02AD03D001D089
:101DC00002D0037E007F081206A77BFF7A2B790CD6
:101DD000C003C002C0017B017A00798AA801AC026D
:101DE000AD03D001D002D0037E007F081206A79079
:101DF0000094E4F0D2AF9044F474FDF07E207F991B
:101E00001226C81226E71228CC1227241229C7123C
:101E100027F77F001225CA1228107F407E1F122646
:101E2000207F011223CFEF6003121EC51226A8EFF8
:101E3000B401EE122A617E009000DBEEF0A3EFF019
:101E400080DF2290009AEFF090009BECF0A3EDF081
:101E500090009AE0FFEFD3941F5003D38001C3405A
:101E6000057F001228B790009AE0FFEF541FFF7E15
:101E700000EF25E0FFEE33FEEF2400FFEE3444FEDA
:101E8000AA06A9077B0112298490009DEEF0A3EF1A
:101E9000F090009AE0FF7E02EF8EF0A4FFAEF0EF2C
:101EA0002400FFEE3444FEAA06A9077B0190009BA4
:101EB000E0FEA3E0FFAD07AC0612299390009DE081
:101EC000FEA3E0FF22904E14E0FFEF5403FF9000CA
:101ED00098EFF0900098E0FFEFD394015032904ECD
:101EE00011E0FF7E00900096EEF0A3EFF0900096D8
:101EF000E0FEA3E0FFEF7F00FE904E10E0FD7C00CF
:101F0000EE4CFEEF4DFF900096EEF0A3EFF0801F39
:101F10007B027A4E7910122984900096EEF0A3EF9E
:101F2000F0900098E0FFEFB40305904E12E0FF90B0
:101F300000C3E0FFEF60059000B8E4F0900096E089
:101F4000FEA3E0FF22410064EE4800650000FFFFB1
:101F5000FFFFFFFF48006D00FFFFFFFFFFFFFF4592
:101F6000004300000000004300570000004400CA86
:101F700002DC6C004400C50000BB804100C9304455
:101F800000CF5DC000004100B8004100C300410027
:101F9000BE004100C4004100BD014100DF0041001E
:101FA000E0004100DE004300D80000004100E100F5
:101FB0004300D30000004100E20000906576E0FF9E
:101FC000EF54C0FF900096EFF0900096E0FFEF44D2
:101FD00009FF906576EFF0906596E0FFEF4401FF12
:101FE000EFF0906597E0FFEF4401FFEFF07F107E88
:101FF000271227417F107E2712275B7FE87E03127E
:1020000027757F887E1312278F7F001229321228AE
:10201000F6900097EFF0906596E0FFEF4410FFEF29
:10202000F0900097E0FF1228721229AD2290647B95
:10203000E0FFEF54F8FF900096EFF0900096E0FF7D
:1020400090647BEFF090647BE0FFEF54FCFF900026
:1020500096EFF0900096E0FF90647BEFF01229BAC3
:102060007F007E801227C37F007E801227A97F0019
:10207000122972122A677F007E801227DD1228F64D
:10208000900097EFF090649DE0FFEF4410FFEFF0B9
:10209000900097E0FF12287222C0E0C0F0C083C019
:1020A00082C085C084C086758600C093759300C0C9
:1020B000D075D000C000C001C002C003C004C0057C
:1020C000C006C0077F011225CA7F007E0012216270
:1020D0009000DBE0FEA3E0FF12244B7F001225CA34
:1020E000D007D006D005D004D003D002D001D00054
:1020F000D0D0D093D086D084D085D082D083D0F079
:10210000D0E03290009AEFF090009BEDF090009BB1
:10211000E0FFEFD394075003D38001C340057F0055
:102120001228B790009AE0FFEFD3941F5003D3809A
:1021300001C340057F001228B790009BE0FFEF54D9
:1021400007FF7E00EF75F020A4FFAEF090009AE04C
:10215000FEEE541FFE74802EF582E43444F583EFC6
:10216000F02290007CEEF0A3EFF090007CE0FEA364
:10217000E0FFC3EE64809480401A90007CE0FEA3F0
:10218000E0FFEF2400FFEE3480FE90007EEEF0A32F
:10219000EFF0801790007CE0FEA3E0FFC3E49FFF18
:1021A000E49EFE90007EEEF0A3EFF090007EE0FE55
:1021B000A3E0FF1227A922900097EFF01228F690D3
:1021C0000098EFF09046F8E0FFEF4403FFEFF09047
:1021D00046F9E0FFEF4403FFEFF0900097E0FF9037
:1021E0005892EFF07F037E001225709046F8E0FFD2
:1021F000EF54FCFFEFF09046F9E0FFEF54FCFFEFE7
:10220000F0900098E0FF12287222C0E0C0F0C08376
:10221000C082C085C084C086758600C09375930057
:10222000C0D075D000C000C001C002C003C004C04F
:1022300005C006C007121745D007D006D005D00448
:10224000D003D002D001D000D0D0D093D086D0849B
:10225000D085D082D083D0F0D0E032C0E0C0F0C0D2
:1022600083C082C085C084C086758600C093759384
:1022700000C0D075D000C000C001C002C003C004BF
:10228000C005C006C0071206CDD007D006D005D0C5
:1022900004D003D002D001D000D0D0D093D086D0CB
:1022A00084D085D082D083D0F0D0E0329000B2EFDD
:1022B000F09000B474FFF09000B3E4F09000B3E04D
:1022C000FFEFC39403502E9000B3E0FF745F2FF52F
:1022D00082E43400F583E0FF9000B2E0FEEEB50743
:1022E0000C9000B3E0FF9000B4EFF080089000B3D2
:1022F000E004F080C79000B4E0FF229000B2EFF05D
:102300009000B2E0FFEF120574231600232501238D
:10231000340200002342900079E0FFEF4409FF906F
:102320000079EFF022900079E0FFEF4412FF900077
:1023300079EFF022900079E0FFEF4424FF900079DC
:10234000EFF0227B0C7A0179CF1229DF900082EF27
:10235000F0900082E0FFEF5407FF90586EEFF0908E
:102360000082E0FFEFC4540FFFEF540FFF90586F4F
:10237000EFF090510D7428F0905B007480F0905B4A
:10238000047420F09058767444F022C2D5E830E707
:102390000FB2D5E4C39BFBE49AFAE499F9E498F808
:1023A000EC30E717B2D51223C112045FE4C39BFBE4
:1023B000E49AFAE499F9E498F8800312045F30D5BE
:1023C0000DE4C39FFFE49EFEE49DFDE49CFC22908F
:1023D0000096EFF09000C3E0FFEF600C9000B8E0D3
:1023E000FF900097EFF0800E904E01E0FFEF540158
:1023F000FF900097EFF0900097E0FFEF6401600816
:10240000900096E0FFEF60CC900097E0FF2212284A
:10241000F690009AEFF0906497E0FFEF4420FFEF12
:10242000F0906597E0FFEF4410FFEFF0906498E0C4
:10243000FFEF4420FFEFF0906598E0FFEF4410FFBE
:10244000EFF090009AE0FF1228722290007CEEF0EC
:10245000A3EFF01228F690007EEFF090007CE0FEF3
:10246000A3E0FFEF54FFFF900065EFF090007CE0E9
:10247000FEA3E0FFEEFF7E00900066EFF090007E8E
:10248000E0FF12287222758600EF4E6027EF600190
:102490000E75930090008CE0F595A3E0F585A3E020
:1024A000F5848B938A838982E0A30586F0A3158641
:1024B000DFF6DEF4E4F593F59522900098EFF090C6
:1024C0005140E0FFEF547FFF900099EFF0900098AB
:1024D000E0FFEFC43333335480FFEF5480FF9000AC
:1024E00099E0FEEF4EFF905140EFF022906567E0DB
:1024F000FFEF547FFF9000B2EFF09000B2E0FF22B8
:10250000EC4D4E700D78FCEF24E950032840FD227D
:1025100000007BF178DA0000EF28FF78FFEE38FE4C
:10252000ED38FDEC38FC50E7EF2BFFEE38FEED38D0
:10253000FDEC38FC40F22205020304900098EFF015
:10254000905100E0FFEF547FFF900099EFF0900072
:1025500098E0FFEFC43333335480FFEF5480FF9093
:102560000099E0FEEF4EFF905100EFF0227F002235
:10257000EEFA9000C9E0F88FF0A4FFAEF0E88AF020
:10258000A42EFEE5F03400FDEF24C9FF78FFEE38FD
:10259000FEED38FDE438FC500302250022ACEAAD24
:1025A000A08B938A838982E0F96017A3E0F5EAA300
:1025B000E0F5A0A3E060F4FAA3E0F8A3E0F2DAF813
:1025C000D9E98DA08CEAE4F59322900096EFF09083
:1025D0000096E0FFEF600F900064E0FFEF4401FF22
:1025E000900064EFF022900064E0FFEF54FEFF9053
:1025F0000064EFF022900096EFF0900096E0FFEF7D
:10260000120574260A0000002614121B5D90009724
:10261000EFF080069000977401F0900097E0FF22A1
:10262000900096EEF0A3EFF0900096E0FEA3E0FF9E
:102630001227757F007E0012278F7F0012253B7FB7
:10264000011224BA227F0F1229521228F690009606
:10265000EFF090649BE0FFEF4410FFEFF0900096E6
:10266000E0FF12287222900096EFF0904082C08323
:10267000C082E0FF900096E0FEEE54F8FEEF4EFFC1
:10268000D082D083EFF022900096EFF0904102C00C
:1026900083C082E0FF900096E0FEEE54F8FEEF4E1D
:1026A000FFD082D083EFF022900096E4F090007982
:1026B000E0FFEF5404FF7E00EF4E6006900096743A
:1026C00001F0900096E0FF22900096EEF0A3EFF06C
:1026D000122A5A900096E0FEA3E0FF1227067F0719
:1026E0001228A1122A532212290B7F007E80122762
:1026F000A99000E0E0FFEF7009122A6E9000E074EC
:1027000001F012264522900098EEF0A3EFF07B0234
:102710007A447904900098E0FEA3E0FFAD07AC0690
:10272000122993229000BEE0FFEF70119000C4E0E8
:10273000FFEF7003121C2A9000BE7401F0121A8F72
:1027400022900098EEF0A3EFF07B027A6579069074
:102750000098E0FCA3E0FD12299322900098EEF08F
:10276000A3EFF07B027A657946900098E0FCA3E045
:10277000FD12299322900098EEF0A3EFF07B027AED
:10278000657926900098E0FCA3E0FD122993229041
:102790000098EEF0A3EFF07B027A6579369000980E
:1027A000E0FCA3E0FD12299322900098EEF0A3EF45
:1027B000F07B027A64790A900098E0FCA3E0FD12B5
:1027C000299322900098EEF0A3EFF07B027A6479CF
:1027D0002A900098E0FCA3E0FD1229932290009833
:1027E000EEF0A3EFF07B027A64793A900098E0FC77
:1027F000A3E0FD1229932212256DEF60057F0012E0
:1028000028B77F001225F5EF60057F001228B72258
:102810007F107E271227757F107E2712278F7F005B
:1028200012253B7F001224BA22EC4D6011ED6001AD
:102830000C8B938A838982E4F0A3DDFCDCFA759328
:1028400000229064877472F09065877420F0906421
:10285000887447F0906588E4F0229000B2EFF09021
:1028600000DEE0FFEF600A9000B2E0FF906448EF06
:10287000F022EF54016004D2AF8002C2AFEF5402E5
:10288000FF9044F4E054FD4FF0229000B2EFF0903E
:1028900000B2E0FF80009000B3E4F09000B3E0FFEE
:1028A00022900098EFF0900098E0FFEFC43354E0DE
:1028B000FF904482EFF02290FFFF12059AEFF09014
:1028C00046EA7401F090000112059A229000DFE0C0
:1028D000FFEF7009121FBB9000DF7401F01229D3C3
:1028E000229000DEE0FFEF70091228429000DE74B3
:1028F00001F012240E229044F4E0F84402F0E8546F
:1029000002FF10AF012274014FFF229000E1E0FFAF
:10291000EF700912202D9000E17401F01229F722C6
:10292000900087EFF0900087E0FF900087EFF08045
:10293000FE22900098EFF0900098E0FF906586EFFF
:10294000F022906566E0FF900098EFF0900098E02C
:10295000FF22900097EFF0900097E0FF90648BEFDC
:10296000F022906447E0FF9000B2EFF09000B2E0F8
:10297000FF22900098EFF0900098E0FF90648DEFB8
:10298000F0228B938A838982E0FFA3E0FE75930097
:10299000228B938A838982EDF0A3ECF07593002259
:1029A0009000B2EFF09000B2E0FF800022122942C6
:1029B000EF30E405122A0380F422122A67EF30E692
:1029C00005122A4980F422904E00E0FFEF4401FFF7
:1029D000EFF022906576E0FFEF4480FFEFF0228B6E
:1029E000938A838982E0759300FF228B938A83897F
:1029F00082EDF07593002290647BE0FFEF4480FF4E
:102A0000EFF0227B027A657956122984227B027AC2
:102A100040798C1229842290408EE0FFEF5407FF0A
:102A2000227B027A40798012298422904082E0FF42
:102A3000EF5407FF227B027A417900122984229009
:102A40004102E0FFEF5407FF227B027A64794A12C9
:102A50002984229044C07404F0229044C87404F085
:102A60002290006DE0FF2290646DE0FF223222325E
:102A7000323232C1804280C14203C48506470849D0
:102A8000CA8B4C0D8ECF501192D31455D697D8992E
:102A90001A5B9CDD5E1F2061E2A36425A6E7A8E91E
:102AA0006A2BECAD2E6FF0B13273B4F5763778390E
:102AB000BAFB3C7DFEBF11010064180100650801EE
:102AC000006D005120002000516000100051F00006
:102AD0001001000006800107000780010F000100BF
:102AE00001140008000140000A00014C000200012E
:102AF000500000200106800808600080010E800858
:102B000008E000800000000000000000000000005D
:042B100000000000C1
:00000001FF
