S01400005457495F4D53545F544553542E737265632A
S11300000C943A000C9457000C9457000C9457002D
S11300100C9457000C9457000C9457000C94570000
S11300200C9457000C9457000C9457000C945700F0
S11300300C9457000C9457000C9457000C945700E0
S11300400C9457000C9457000C9410030C94570014
S11300500C9457000C9457000C9457000C945700C0
S11300600C9457000C9457006364696E6F70737539
S113007078585B0011241FBECFEFD4E0DEBFCDBFA4
S113008011E0A0E0B1E0E4EFFFE102C005900D92C1
S1130090AE34B107D9F712E0AEE4B1E001C01D926D
S11300A0AF35B107E1F70E9496060C94F80F0C9453
S11300B000001F93CF93DF93EC01162F872FFE01CF
S11300C00995812FFE010995DF91CF911F91089524
S11300D0FF920F931F93CF93DF93EC01F42E152F10
S11300E0062F872FFE010995802FFE010995812F88
S11300F0FE0109958F2DFE010995DF91CF911F9186
S11301000F91FF9008958F929F92BF92CF92DF92AA
S1130110EF92FF920F931F93CF93DF934C01C02F65
S1130120D22FF32EE42ED52EC62EB72E202F312F0C
S11301304D2F5F2D6E2D7D2D8C2D9B2D08E30E9460
S11301403B07822FF40109952C2F312F4D2F5F2D62
S11301506E2D7D2D8C2D9B2D00E30E943B07822F5D
S1130160F40109952C2F312F4D2F5F2D6E2D7D2DF0
S11301708C2D9B2D08E20E943B07822FF4010995E8
S11301802C2F312F4D2F5F2D6E2D7D2D8C2D9B2DE2
S113019000E20E943B07822FF40109952C2F312F96
S11301A04D2F5F2D6E2D7D2D8C2D9B2D08E10E94F2
S11301B03B07822FF40109952C2F312F4D2F5F2DF2
S11301C06E2D7D2D8C2D9B2D00E10E943B07822FEF
S11301D0F40109952C2F312F4D2F5F2D6E2D7D2D80
S11301E08C2D9B2D08E00E943B07822FF40109957A
S11301F08C2FF4010995DF91CF911F910F91FF90FE
S1130200EF90DF90CF90BF909F908F9008951F93B1
S1130210CF93DF93EC01FC010995182FFE0109959A
S1130220312F20E090E0282B392B822F932FDF9160
S1130230CF911F9108958F929F92AF92BF92FF9298
S11302400F931F93CF93DF93EC01FC010995082FC3
S1130250FE010995182FFE010995F82EFE01099556
S1130260802E9924AA24BB24B82CAA249924882457
S1130270412F50E060E070E0BA0155274427950112
S11302808401042B152B262B372B90E0A0E0B0E043
S1130290082B192B2A2B3B2B4F2D50E060E070E0EC
S11302A0762F652F542F4427042B152B262B372B01
S11302B0602F712F822F932FDF91CF911F910F9178
S11302C0FF90BF90AF909F908F9008954F925F9250
S11302D06F927F928F929F92AF92BF92CF92DF9252
S11302E0EF92FF920F931F93CF93DF93EC01FC01E6
S11302F00995182FFE010995D82EFE010995882E1F
S1130300FE010995782EFE010995682EFE010995D6
S1130310582EFE010995482EFE010995982E212F8D
S113032030E040E050E060E070E080E090E008E31E
S11303300E94B507F22E132FD42FC52FE62EC72EF9
S1130340B82EA92E2D2D30E040E050E060E070E0A2
S113035080E090E000E30E94B507F22A132BD42B2F
S1130360C52BE62ADC2CD72ACB2CC82ABA2CB92ACE
S1130370F928282D30E040E050E060E070E080E0B3
S113038090E008E20E94B507F22A132BD42BC52B68
S1130390E62AD72AC82AB92A272D30E040E050E0BF
S11303A060E070E080E090E000E20E94B507F22A8D
S11303B0132BD42BC52BE62AD72AC82AB92A262DD3
S11303C030E040E050E060E070E080E090E008E180
S11303D00E94B507F22A132BD42BC52BE62AD72A61
S11303E0C82AB92A252D30E040E050E060E070E0F2
S11303F080E090E000E10E94B507F22A132BD42B91
S1130400C52BE62AD72AC82AB92A242D30E040E091
S113041050E060E070E080E090E008E00E94B50702
S11304202F29312B4D2B5C2B6E297D298C299B295F
S1130430DF91CF911F910F91FF90EF90DF90CF90BC
S1130440BF90AF909F908F907F906F905F904F90F0
S11304500895ECEBF0E0808180688083A9EBB0E044
S11304600DC08C91887F51F4ECEBF0E080818F7D9E
S1130470808380818069808380E0089580818823DF
S113048084F781E008959091CF019F3760F4209123
S1130490CF01E0EDF1E0E20FF11D808390E02F5FEA
S11304A02093CF0108958FEF9FEF089590914E010F
S11304B080914F01981770F480914E01E0E5F1E0CE
S11304C0E80FF11D808190914E019F5F90934E0142
S11304D090E008958FEF9FEF08959091CF01E0EDA4
S11304E0F1E0E90FF11D80839F5F9093CF010895A0
S11304F090914E01E0E5F1E0E90FF11D80819F5FED
S113050090934E01089584EA8093BC00ECEBF0E0F4
S1130510A9EBB0E008C08C91887F29F484E980932A
S1130520BC0080E0089580818823ACF781E00895C1
S1130530CF93C62FE9EBF0E008C09081987F29F4AF
S113054084E98093BC0080E032C09081987F983029
S1130550A1F7C73521F4880F8093BB0006C0C235CC
S113056009F5880F81608093BB00ECEBF0E080819B
S11305708F7C80830E9429028823B1F0C73541F41F
S11305809091B900987F81E0983189F080E00FC0A4
S1130590C23561F49091B900987F81E0903439F0CC
S11305A080E005C080E003C080E001C080E0CF911E
S11305B008958093BB000E942902882341F0909102
S11305C0B900987F81E0983219F080E0089580E0C6
S11305D00895ECEBF0E0808180698083A9EBB0E0C2
S11305E008C08C91887F29F482E48A95F1F700C0D1
S11305F00895808184FDF5CF08C08081887F39F417
S113060082E48A95F1F700C00895E9EBF0E0808177
S1130610887F883F91F782E48A95F1F700C00895B6
S11306201F920F920FB60F9211242F933F934F9363
S11306305F936F937F938F939F93AF93BF93EF9346
S1130640FF938091C600E0914F02F091500209950A
S1130650FF91EF91BF91AF919F918F917F916F9196
S11306605F914F913F912F910F900FBE0F901F906C
S113067018951F93CF93DF9300D000D00F92CDB77E
S1130680DEB789834A835B836C837D8389818A8116
S11306909B81AC81BD81282F392F4A2F5B2F60EDC0
S11306A072E183E190E00E944E0821503040309383
S11306B0C5002093C40088E08093C10086E0809345
S11306C0C20019818EE893E060E070E00E94700837
S11306D0E12FF0E0EE0FFF1FEF5AFD4F918380836F
S11306E00F900F900F900F900F90DF91CF911F916B
S11306F00895CF93DF9300D0CDB7DEB789836A83A3
S113070089819A81E0ECF0E0808185FFFDCF9093B0
S1130710C6000F900F90DF91CF910895982F2091EC
S11307205102309152022617370721F480E0692FD5
S11307300E94790380E090E00895CF93DF9300D086
S11307400F92CDB7DEB789837B836A838981E1EC1D
S1130750F0E08081806980837894E981F0E08A8187
S11307609B81EE0FFF1FE15BFD4F918380830F9010
S11307700F900F90DF91CF910895CF93DF930F9255
S1130780CDB7DEB78983E981F0E0EE0FFF1FEF5AA2
S1130790FD4F8081918190935802809357020F906E
S11307A0DF91CF910895CF93DF9300D00F92CDB70F
S11307B0DEB789837B836A838A819B81E981F0E048
S11307C0EE0FFF1FEF5AFD4F608171810E94BA083E
S11307D00F900F900F90DF91CF910895CF93DF93F7
S11307E00F92CDB7DEB78983E981F0E0EE0FFF1FEA
S11307F0EF5AFD4F808191810E941F090F90DF9174
S1130800CF910895CF93DF93CDB7DEB7AE01485FA4
S11308105F4FED81F0E0EE0FFF1FEF5AFD4F808137
S113082091816E817F810E941F09DF91CF9108958C
S1130830CF93DF930F92CDB7DEB78983CB01E981E4
S1130840F0E0EE0FFF1FEF5AFD4F608171810E94AF
S1130850E6080F90DF91CF910895CF93DF93CDB742
S1130860DEB7FE01359661917191809153029091AA
S113087054024E2F5F2F0E941F09DF91CF910895DC
S1130880CF93DF93CDB7DEB7FE01359661917191B9
S113089080915302909154024E2F5F2F0E94720C4C
S11308A0DF91CF9108950E946D020895BC018DE6F9
S11308B092E00E9459000895BC018DE692E00E94E6
S11308C059000895AB01BC018DE692E00E946800D6
S11308D00895AB01BC018DE692E00E946800089582
S11308E00F931F93022F132F242F352F462F572F8B
S11308F0682F792F8DE692E00E9483001F910F915B
S113090008950F931F93022F132F242F352F462F53
S1130910572F682F792F8DE692E00E9483001F9154
S11309200F910895BC018DE692E00E94590008954C
S1130930AB01BC018DE692E00E94680008950F931C
S11309401F93022F132F242F352F462F572F682F35
S1130950792F8DE692E00E9483001F910F910895F4
S11309600E947802089588E792E00E9407010895A2
S113097088E792E00E940701089588E792E00E94C8
S11309801B01089588E792E00E941B01089588E7FF
S113099092E00E946601089588E792E00E94660151
S11309A0089588E792E00E940701089588E792E09D
S11309B00E941B01089588E792E00E946601089551
S11309C04F925F926F927F928F929F92AF92BF925B
S11309D0CF92DF92EF92FF920F931F93CF93DF9307
S11309E0CDB7DEB728970FB6F894DEBF0FBECDBFE4
S11309F06B017C01DE011196E0E0F1E088E00190FA
S1130A000D928150E1F7C701B60120EF3FEF4FEFA0
S1130A105FEF0E942F08DC01CB010F2EF0E04F2E78
S1130A20FDE25F2EF1E36F2EF1E07F2EF02D480EF4
S1130A30591E6A1E7B1E89819A81AA2797FDA0955B
S1130A40BA2FBC01CD01660F771F881F991FA7011C
S1130A5096010E942F089B01AC01C301B2010E94C0
S1130A604E0889019A010F3F110521053105C1F195
S1130A70B8F146015701880C991CAA1CBB1CEE2432
S1130A80FF24E394DE2CF701EE0FFF1F81E090E0DA
S1130A908C0F9D1FE80FF91F60817181882777FDF6
S1130AA08095982FA50194010E942F089B01AC0109
S1130AB0C301B2010E944E0889019A010F3F11053A
S1130AC02105310549F040F0D3940894E11CF11C50
S1130AD094E0E916F104B1F682E08D1510F41FC01C
S1130AE0DD24E9EBF0E080818C7FD82AD08200936A
S1130AF0B800ECEBF0E080818460808383E492E0D2
S1130B0066E572E00E947008909354028093530249
S1130B101092CF0110924F0110924E0102C080E05A
S1130B2090E028960FB6F894DEBF0FBECDBFDF91DC
S1130B30CF911F910F91FF90EF90DF90CF90BF90D6
S1130B40AF909F908F907F906F905F904F9008959B
S1130B50EF92FF920F931F93CF93DF93C82F80914F
S1130B60CF01882381F1E090CF010E948302882382
S1130B7031F18C2F67E50E9498028823E1F08E2DD5
S1130B800E94D902EE2099F0EA94FF240894E11C13
S1130B90F11CC0E0D0E000ED11E0F801EC0FFD1F06
S1130BA080810E94D9022196CE15DF05B1F70E94FB
S1130BB0E90281E005C00E94E90280E001C080E012
S1130BC01092CF0101C080E0DF91CF911F910F916E
S1130BD0FF90EF9008958F929F92AF92BF92CF9221
S1130BE0DF92EF92FF920F931F93CF93DF930E94B4
S1130BF08302882309F482C081E062E50E9498029E
S1130C00882309F47DC08091B900887F803439F548
S1130C10ECEBF0E080818F7C808380818064808332
S1130C200E9429028823D9F08091B900887F8035F9
S1130C30B1F48091BB0080934F01ECEBF0E0808134
S1130C408F7C80838081806480830E942902882332
S1130C5031F08091B900887F803509F461C00E9429
S1130C60E90280E050C00E94E90280E04CC0803874
S1130C7008F08FE78823C1F18150E82EFF240894FF
S1130C80E11CF11CC0E0D0E009EB10E00F2EFBEBFF
S1130C908F2E9924F02D0F2EF0E5AF2EF1E0BF2E0C
S1130CA0F02D0F2EFCEBCF2EDD24F02DF8018081EA
S1130CB0887F803589F4F4018081F501EC0FFD1FF4
S1130CC08083F60180818F7C80838081806480832F
S1130CD00E942902882321F40E94E90280E013C0C3
S1130CE02196CE15DF0511F70E94E90280914F018C
S1130CF0882341F010924E0181E005C080E003C0DA
S1130D0080E001C080E0DF91CF911F910F91FF90AF
S1130D10EF90DF90CF90BF90AF909F908F90089509
S1130D2080914F01882309F0A2CF9DCF80E040E05D
S1130D3056E960E070E00E94390380E00E94BD0340
S1130D408FE79AE1A6E081509040A040E1F700C00F
S1130D50000060E87AE186E090E00E94E0048FE71A
S1130D609AE1A6E081509040A040E1F700C0000065
S1130D7000D00F92ADB7BEB711961C92119788E0C0
S1130D8091E013969C938E9312970E9402042091F3
S1130D90B80000D0EDB7FEB73196ADB7BEB7119627
S1130DA01C9288E191E092838183238314820E94C0
S1130DB002048091B900EDB7FEB73196ADB7BEB766
S1130DC011961C9223E231E03283218390E08370F8
S1130DD09070948383830E9402040F900F900F906D
S1130DE00F900F90C0E0D0E00EE211E00F2EFBE375
S1130DF0EF2EF1E0FF2EF02DCE010E94920400D0E0
S1130E0000D00F92EDB7FEB73196ADB7BEB71196CD
S1130E101C9212830183D483C3830E9402040F9023
S1130E200F900F900F900F9081E00E94A8058823E7
S1130E30D9F3E7E8F3E13197F1F700C0000081E06E
S1130E400E94EB058823A9F00E94D104EC0100D094
S1130E5000D0ADB7BEB71296FC92EE9211971496DD
S1130E609C938E9313970E940A090F900F900F90F2
S1130E700F902196C1CFCF92DF92EF92FF920F9302
S1130E80CF93DF93CDB7DEB760970FB6F894DEBF8C
S1130E900FBECDBF002309F45AC029873A874B8778
S1130EA05C876D877E878F87988B80E2801B4D855A
S1130EB05E856F8578891816B4F01D821E821F82A4
S1130EC01886992787FD9095909581959F4F04C02A
S1130ED076956795579547958A95D2F749835A83AE
S1130EE06B837C832CC06A017B01002E04C0F694C2
S1130EF0E794D794C7940A94D2F7CD82DE82EF8226
S1130F00F8866A017B0104C0CC0CDD1CEE1CFF1CBE
S1130F108A95D2F7D701C60149855A856B857C85A8
S1130F2004C076956795579547950A95D2F7842B13
S1130F30952BA62BB72B89839A83AB83BC832981FA
S1130F403A814B815C816D817E818F819885609629
S1130F500FB6F894DEBF0FBECDBFDF91CF910F91D6
S1130F60FF90EF90DF90CF900895CF92DF92EF92B1
S1130F70FF920F93CF93DF93CDB7DEB760970FB691
S1130F80F894DEBF0FBECDBF002309F45AC02987F1
S1130F903A874B875C876D877E878F87988B80E243
S1130FA0801B49855A856B857C851816B4F0198297
S1130FB01A821B821C82992787FD909590958195B2
S1130FC09F4F04C0440F551F661F771F8A95D2F7A1
S1130FD04D835E836F8378872CC06A017B01002E6A
S1130FE004C0CC0CDD1CEE1CFF1C0A94D2F7C98291
S1130FF0DA82EB82FC826A017B0104C0F694E794F6
S1131000D794C7948A95D2F7D701C6014D855E85DA
S11310106F85788904C0440F551F661F771F0A9592
S1131020D2F7842B952BA62BB72B8D839E83AF836E
S1131030B88729813A814B815C816D817E818F8162
S1131040988560960FB6F894DEBF0FBECDBFDF91D2
S1131050CF910F91FF90EF90DF90CF900895629F12
S1131060D001739FF001829FE00DF11D649FE00D9C
S1131070F11D929FF00D839FF00D749FF00D659FFD
S1131080F00D9927729FB00DE11DF91F639FB00DFC
S1131090E11DF91FBD01CF0111240895A1E21A2E0B
S11310A0AA1BBB1BFD010DC0AA1FBB1FEE1FFF1F08
S11310B0A217B307E407F50720F0A21BB30BE40B58
S11310C0F50B661F771F881F991F1A9469F760959F
S11310D07095809590959B01AC01BD01CF01089559
S11310E00F931F93CF93DF938C01EB01009711F4BF
S11310F02097C1F181E090E06EE070E00E94860DDF
S1131100FC01009789F180E88383209771F0D387ED
S1131110C28781E88383809155029091560200979B
S113112021F4F0935602E093550201151105E1F004
S11311301187008783818260838380915702909115
S11311405802009789F4F0935802E0935702809173
S1131150590290915A02009739F4F0935A02E0939D
S1131160590202C0E0E0F0E0CF01DF91CF911F917E
S11311700F9108950F931F93CF93DF938C01EB018D
S11311808B8181FF1BC082FF0DC02E813F818C812A
S11311909D812817390764F4E881F9810193F98363
S11311A0E88306C0E885F985802F0995009731F416
S11311B08E819F8101969F838E8302C00FEF1FEF64
S11311C0C801DF91CF911F910F910895EF92FF9283
S11311D00F931F93CF93DF937C01EB018B8181FFEE
S11311E011C000E010E008C0E885F985BE0109954A
S11311F0009711F00FEF1FEFF70181917F01882312
S113120099F702C00FEF1FEFC801CDB7DEB7E6E0D4
S11312100C94E90FA0E0B0E0E0E1F9E00C94D10F08
S1131220FE01359661917191809157029091580217
S1131230AF010E941F092096E2E00C94ED0FADE08F
S1131240B0E0E5E2F9E00C94C10F3C017D876C87C6
S11312505A01FC0117821682838181FFC8C12E01C5
S11312600894411C511CF3019381EC85FD8593FD89
S1131270859193FF8191FD87EC87882309F4B3C19D
S1131280853241F493FD859193FF8191FD87EC872D
S1131290853229F490E0B3010E94BA08E4CFFF2418
S11312A0EE2410E01032B0F48B3269F08C3228F462
S11312B0803251F0833271F40BC08D3239F08033B7
S11312C049F411602CC01260146029C0186027C052
S11312D0106125C017FD2EC0282F20532A3098F402
S11312E016FF08C08F2D880FF82EFF0CFF0CF80E88
S11312F0F20E15C08E2D880FE82EEE0CEE0CE80EC3
S1131300E20E10620CC08E3221F416FD6CC1106422
S113131006C08C3611F4106802C0883659F4EC8586
S1131320FD8593FD859193FF8191FD87EC8788234B
S113133009F0B8CF982F9554933018F09052933009
S113134038F424E030E0A20EB31E3FE339830FC02B
S1131350833631F0833781F0833509F05AC022C0D7
S1131360F5018081898322E030E0A20EB31E21E0E2
S1131370C22ED12C420114C092E0292E312C2A0C09
S11313803B1CF5018080918016FF03C06F2D70E037
S113139002C06FEF7FEFC4010E94F80E6C0151018F
S11313A01F7715C082E0282E312C2A0C3B1CF50136
S11313B08080918016FF03C06F2D70E002C06FEF34
S11313C07FEFC4010E94E60E6C011068510113FD09
S11313D01CC006C080E290E0B3010E94BA08EA94FF
S11313E08E2D90E0C816D906A8F30FC0F40117FD9E
S11313F0859117FF81914F0190E0B3010E94BA08D3
S1131400E110EA940894C108D108C114D10471F719
S1131410E7C0843611F0893651F5F50117FF07C08E
S113142080819181A281B38124E030E008C0808171
S11314309181AA2797FDA095BA2F22E030E0A20E51
S1131440B31E012F0F76B7FF08C0B095A0959095F5
S113145081959F4FAF4FBF4F0068BC01CD01A201E2
S11314602AE030E00E94600FD82ED4183FC08537A0
S113147021F41F7E2AE030E020C0197F8F36A9F0C6
S1131480803720F4883509F0AEC00BC0803721F0D6
S1131490883709F0A8C001C0106114FF09C01460A6
S11314A007C014FF08C0166006C028E030E005C07D
S11314B020E130E002C020E132E0F50117FF07C06F
S11314C0608171818281938144E050E006C0608133
S11314D0718180E090E042E050E0A40EB51EA201CC
S11314E00E94600FD82ED418012F0F7706FF09C071
S11314F00E7FDF1430F404FF06C002FD04C00F7E2B
S113150002C01D2D01C01F2D802F90E004FF0CC0D0
S1131510FE01ED0DF11D2081203311F4097E09C077
S113152002FF06C01E5F05C086789070009709F020
S11315301F5F802E992403FD12C000FF0DC0FD2CF7
S11315401E1550F4FE0CF11A1E2D06C080E290E028
S1131550B3010E94BA081F5F1E15C0F304C01E1514
S113156010F4E11A01C0EE2484FE0FC080E390E081
S1131570B3010E94BA0882FE1FC081FE03C088E541
S113158090E010C088E790E00DC0C40186789070A8
S1131590009791F081FC02C080E201C08BE207FD5C
S11315A08DE290E0B3010E94BA0806C080E390E0A7
S11315B0B3010E94BA08FA94DF14C0F3DA94F2017A
S11315C0ED0DF11D808190E0B3010E94BA08DD2089
S11315D0A9F706C080E290E0B3010E94BA08EA9439
S11315E0EE20C1F740CEF3018681978102C08FEFD0
S11315F09FEF2D96E2E10C94DD0F20FD09C0FC0164
S113160023FD05C022FF02C073836283518340839C
S11316100895CF92DF92EF92FF926B017C0144FD1B
S113162010C046FD10C0D601F701AA0FBB1FEE1F64
S1131630FF1F1094D1F7CA0EDB1EEE1EFF1E81E0C1
S113164003C083E001C084E0CC0CDD1CEE1CFF1C55
S11316508150D1F7C20ED11CE11CF11CB601C701A7
S1131660FF90EF90DF90CF9008950F931F93CF9347
S1131670DF938C01C8010E94030FEC0197FD08C0A1
S11316800E94D30E0097B1F7CE01B8010E94430F18
S1131690CE01DF91CF911F910F910895A0E0B0E0AA
S11316A0E4E5FBE00C94C90F8C01D62F5A01C22F3C
S11316B00E94030F8B3219F08D3249F4C068D15067
S11316C009F461C0C8010E94030F97FD5CC0CD7F7F
S11316D02C2F2073D1F48033C1F4D15009F43EC0CF
S11316E0C8010E94030F97FD39C0C260883711F00A
S11316F0883549F4C064D15089F1C8010E94030FB0
S113170097FF03C02BC0C6FFC061CC24DD24760143
S1131710282F2053283080F0C4FD09C02A3060F0FF
S1131720C6FF05C02F7D322F3151363020F0B8016D
S11317300E94430F10C02750C701B6014C2F0E94CE
S1131740090B6B017C01C260D15059F0C8010E94A1
S1131750030F97FFDDCFC1FD04C015C0CC24DD24E9
S11317607601C7FF08C0F094E094D094C094C11CE3
S1131770D11CE11CF11CC501B701A6012C2F0E944C
S1131780FD0A81E001C080E0CDB7DEB7EAE00C9449
S1131790E50FA0E2B0E0EFECFBE00C94C30F5C01BA
S11317A0062F7A016901FE01319680E2DF011D9264
S11317B08A95E9F7D50113961C91139760E070E0C0
S11317C020E040E030E04F0181E0682E712CF6010A
S11317D013FD559113FF51916F01552309F47BC0FB
S11317E05E3519F46115710549F1832F90E0861770
S11317F097073CF45D3551F15D3219F4442301F14E
S113180003C0442309F4252F852F86958695869554
S1131810F401E80FF11D852F8770230102C0440CE9
S1131820551C8A95E2F7808184298083521751F0F0
S1131830521710F45F5FE8CF5150E6CF31E003C098
S113184041E001C040E06F5F7F4FC1CF442319F0F6
S11318508E8180628E83332351F0FE013196CE0156
S11318608196208120952193E817F907D1F711E09B
S113187001C010E0C5010E94030F9C0197FD23C025
S1131880869586958695E1E0F0E0EC0FFD1FE80F64
S1131890F11D408150E0C9018770907002C05595D8
S11318A047958A95E2F740FD05C0C901B5010E943C
S11318B0430F09C0E114F10419F0D7012D937D0100
S11318C00150B9F602C0112331F4E114F10429F0F6
S11318D0F701108202C0CC24DD24C601A096E0E109
S11318E00C94DF0FA1E0B0E0E8E7FCE00C94C40F37
S11318F07C015B013A01FC01178216829924EFC036
S1131900812F90E00E94D30E009721F0C7010E941E
S1131910350BE5C0153241F4F50103FD359103FFA4
S113192031915F01353261F4C7010E94030F97FDC5
S1131930E2C0181709F4D3C0B7010E94430FDDC0F9
S11319403A3241F403FD359103FF31915F0155248F
S1131950539401C05524882410C0F2E05F2A682DF6
S113196070E080E090E040E20E94090B862EF501D1
S113197003FD359103FF31915F01232F20532A305A
S113198060F351FE03C0882019F4B7C088248A94F8
S1131990383619F03C3699F40AC0F50103FD359147
S11319A003FF31915F01383651F4F8E05F2A44E0D7
S11319B0542AF50103FD359103FF31915F0133236F
S11319C009F49BC088E690E0632F70E039830E949D
S11319D0DB0E3981009709F490C0852D50FC08C0B6
S11319E0F3010081118142E050E0640E751E02C0D3
S11319F000E010E03E3651F4F7014681578160E083
S1131A0070E0C801252D0E94FD0A69C0333691F4A7
S1131A1081FD02C088248394C7010E94030F97FDAF
S1131A206AC00115110519F0F80181938F018A9498
S1131A3099F753C0C7013B3551F4682DA8019501AE
S1131A400E94C90B5C01009709F047C041C039836B
S1131A500E94350B398197FD4EC03F3661F1303716
S1131A6028F4343629F1393649F52AC0333719F0C8
S1131A70353721F51DC0C7010E94030F6C0197FD86
S1131A8011C00E94D30E009729F0C601B7010E942D
S1131A90430F08C00115110519F0F801C1928F0117
S1131AA08A9449F701151105C1F0F801108215C097
S1131AB0F0E25F2A05C040E1542A02C050E4552AEE
S1131AC0C701682DA801252D0E944E0B882329F4F7
S1131AD0F7018381807379F410C050FE9394F70169
S1131AE00381F50103FD159103FF11915F0111239A
S1131AF009F006CF02C0992019F0892D90E002C0A8
S1131B008FEF9FEF2196EFE00C94E00F0F931F935C
S1131B10CF93DF93689F8001699F100D789F100D0C
S1131B201124C8010E94A40DC82FD92F209731F089
S1131B308C2F60E070E0A8010E94F10ECE01DF91CD
S1131B40CF911F910F910895CF93DF93AC01823011
S1131B50910510F442E050E0E0915D02F0915E02E4
S1131B6020E030E0A0E0B0E024C0808191818417BF
S1131B709507D0F08417950771F4828193811097AB
S1131B8029F013969C938E9312972CC090935E0227
S1131B9080935D0227C02115310519F08217930740
S1131BA018F49C01BD01EF0192818381DF01E92FCB
S1131BB0F82F3097D1F621153105F9F0C901841BAE
S1131BC0950B8430910580F48A819B8161157105A0
S1131BD021F0FB019383828304C090935E0280937F
S1131BE05D02FE01329642C0FE01E80FF91F4193E7
S1131BF0519302979983888339C080915B029091B5
S1131C005C02009741F480914A0190914B019093BA
S1131C105C0280935B0220914801309149012115B7
S1131C20310541F42DB73EB780914C0190914D019F
S1131C30281B390BE0915B02F0915C02E217F30779
S1131C4098F42E1B3F0B2417350770F0CA01029637
S1131C502817390748F08E0F9F1F90935C028093DA
S1131C605B024193519302C0E0E0F0E0CF01DF91C9
S1131C70CF9108950F931F93CF93DF939C01009707
S1131C8009F48CC0DC01129713961C921E921297D1
S1131C9060915D0270915E026115710589F48D9108
S1131CA09C911197820F931F20915B0230915C02EB
S1131CB02817390769F5B0935C02A0935B026EC0E4
S1131CC0FB0140E050E001C0FC01EA17FB0730F4DF
S1131CD082819381AF010097B9F71FC0E901229770
S1131CE0FB83EA8308811981C901800F911F8E1734
S1131CF09F0759F480819181800F911F02969983E7
S1131D008883828193819B838A834115510529F4B9
S1131D10B0935E02A0935D0241C0FA01B383A28333
S1131D20C191D191EC0FFD1FAE17BF0781F4F901EA
S1131D30929182918C0F9D1F0296DA0111969C93C9
S1131D408E938281938113969C938E931297E0E0F5
S1131D50F0E002C0FB01BC01DB0112968D919C9165
S1131D6013970097B9F7CB0102962D913C911197E7
S1131D70820F931F20915B0230915C022817390770
S1131D8069F4309729F410925E0210925D0202C049
S1131D901382128270935C0260935B02DF91CF9195
S1131DA01F910F9108959111E9C0803219F0895063
S1131DB08550D0F70895FC010590061621F0002007
S1131DC0D9F7C00108953197CF010895FC0105901A
S1131DD0615070400110D8F7809590958E0F9F1F29
S1131DE00895DC0101C06D9341505040E0F708951F
S1131DF0FC016150704001900110D8F780959095D6
S1131E008E0F9F1F0895CF93DF93EC012B8120FF4A
S1131E1035C026FF09C02F7B2B838E819F810196BD
S1131E209F838E838A8128C022FF0FC0E881F981B5
S1131E308081992787FD9095009719F420622B8360
S1131E401DC03196F983E88311C0EA85FB85CE0174
S1131E50099597FF0BC02B813FEF8F3F930711F438
S1131E6080E101C080E2822B8B8308C02E813F81F8
S1131E702F5F3F4F3F832E8390E002C08FEF9FEF91
S1131E80DF91CF910895FB01238120FF13C026FD2C
S1131E9011C03FEF8F3F930781F08283922F9064AC
S1131EA09F7D938326813781215030403783268359
S1131EB090E008958FEF9FEF08958FEF9FEF0895BF
S1131EC0FA01AA27283051F1203181F1E8946F9367
S1131ED06E7F6E5F7F4F8F4F9F4FAF4FB1E03ED00D
S1131EE0B4E03CD0670F781F891F9A1FA11D680FAB
S1131EF0791F8A1F911DA11D6A0F711D811D911DDE
S1131F00A11D20D009F468943F912AE0269F112452
S1131F103019305D3193DEF6CF010895462F4770B6
S1131F20405D4193B3E00FD0C9F7F6CF462F4F7011
S1131F30405D4A3318F0495D31FD4052419302D06F
S1131F40A9F7EACFB4E0A695979587957795679515
S1131F50BA95C9F700976105710508959B01AC0115
S1131F600A2E06945795479537952795BA95C9F73C
S1131F70620F731F841F951FA01D0895992788273A
S1131F8008952F923F924F925F926F927F928F9219
S1131F909F92AF92BF92CF92DF92EF92FF920F93F4
S1131FA01F93CF93DF93CDB7DEB7CA1BDB0B0FB6FE
S1131FB0F894DEBF0FBECDBF09942A8839884888BB
S1131FC05F846E847D848C849B84AA84B984C88451
S1131FD0DF80EE80FD800C811B81AA81B981CE0F48
S1131FE0D11D0FB6F894DEBF0FBECDBFED0108952D
S1071FF0F894FFCF8F
S1131FF401000400100040000A70726F6772616D82
S11320042073746172740A0054574252203D20258F
S1132014640A0054575352203D2025640A004D3A63
S1132024204D2D3E533A2025640A004D3A20532D69
S11120343E4D3A2025640A0000005F022000A1
S9030000FC
