:10000000021AEB008F828E83E0540100000070F82A
:100010002278FFE4F6D8FD021B49EC4D6011E84957
:100020007017ED33EC3304600DE4FCFFFEFD22E9B4
:1000300033E8330470F80202E31202AE5804600998
:10004000E4CC248150062850090202ED2840030226
:1000500002EAC0E0EB4A7044B98006D0E0FB02023D
:10006000D9EF4E701CBD8008EBFFEAFEE9FD80EB86
:10007000E98DF0A4FEE5F0020103E9CDF9EAFEEB1B
:10008000FFEF89F0A4FCE5F0CE89F0A42EFFE43563
:10009000F0CD89F0A42DFEE435F08067EF4E7005B9
:1000A000BD80D780C3EF8BF0A4ACF0EE8BF0A42C16
:1000B000FCE435F0F8EF8AF0A42CE5F038FCE433EA
:1000C000CB8DF0A42CFCE5F03BF8EE8AF0A42CFCE0
:1000D000E5F038F8E433CF89F0A42CFCE5F038CF14
:1000E0003400CE89F0A42FFFE5F03EFEE433C98D45
:1000F000F0A42EFEE5F039CD8AF0A42FFFE5F03E06
:10010000FEE43DFD33D0E0FB50070BBB000F0202C5
:10011000EDEC2CFCEF33FFEE33FEED33FD0202C5B8
:100120000202EDEC5D046005E8590470030202E38D
:100130001202AE580460F6EC4860F2EC7004FDFE6A
:10014000FF22C860DB2481C85009C39860025006B2
:100150000202EA9850CAF582E9294B4A7005AB823F
:100160000202D975F0007C1A7880C3EF9BEE9AEDFD
:1001700099400DC3EF9BFFEE9AFEED99FDE842F02A
:10018000DC23ACF0D0E0FFD0E0FED0E0FDAB82207D
:10019000E7101BEB60BAEC2CFCEF33FFEE33FEED07
:1001A00033FD0202C5E803F830E705C0F075F00042
:1001B000EF2FFFEE33FEED33FD40B830E7C280AAEB
:1001C00074F8CC6480CCC86480C8F58204604FC3E6
:1001D000EB9FF5F0EA9E42F0E99D42F0E89C45F085
:1001E000603C501DE5825FFFE582D313CB5BCBF40F
:1001F0002B5582FB50280ABA002409B90020088038
:100200001DE5825BFBE582D313CF5FCFF4C3132FD1
:100210005582FF50090EBE00050DBD00010CC3EB59
:100220009FF5F0EA9E42F0E99D42F0E89C45F060BF
:1002300007CC4820E701B3EC2275F020800E75F062
:1002400010800575F0087D007E007F003392D53068
:10025000D503120755EC334010EF33FFEE33FEEDBC
:1002600033FDEC33FCD5F0ED22E5F0247EA2D5136E
:10027000CC92E7CDCEFF22EDD2E7CD33EC3392D551
:1002800024814006E4FFFEFDFC22FCE4CFCECDCC71
:1002900024E0501174FF80EDC3CC13CCCD13CDCE30
:1002A00013CECF13CF0470F030D5DE020755E9D25C
:1002B000E7C933E833F892D5EDD2E7CD33EC33FC20
:1002C0005002B2D522EC30E7100FBF000C0EBE007A
:1002D000080DBD00040BEB6014A2D5EB13FCED92EE
:1002E000E7FD2274FFFCFDFEFF22E480F8A2D57436
:1002F000FF13FC7D80E480EFF920E73624F95003FA
:100300007907E4F42402FBE582158270021583DB91
:10031000F6E024FB501BE96014E4F0E582158270DE
:10032000021583E004F0B40A08E4F0D9EE7401F099
:100330000A22C2D522ED33EC3392D5FA602AB4FFFB
:1003400033EDC2E77BFF60067A03795AE4227A0331
:10035000796320D5047A03795E224E614E002B49E1
:100360004E46002D494E4600E47A08F0A3DAFC7BA5
:1003700000740722C083C082ECC0E0EDC0E0EEC094
:10038000E0EFC0E0EA75F010A4CAABF075F04DA440
:100390002BFBE435F0FCEA2410FAEB34C5FBEC341B
:1003A000D9FCEDC2E7FF75F056A4F42411C5F0F4B2
:1003B00034C58FF0A42AE5F03BE43CF020E71412AA
:1003C0000562D0E0FFD0E0FED0E0FDD0E0FC1201FD
:1003D000238014F404120562D0E0FFD0E0FED0E0E8
:1003E000FDD0E0FC12001AD082D083E0FAEDD2E713
:1003F000CD33EC332482FBE4C3CF33CFCE33CECD29
:1004000033CD33DBF37B0775F00A846004F0A31B64
:100410000AE5F0F0A38FF0740AA4FFACF08EF0743C
:100420000AA42CFEACF050010C8DF0740AA42CFD33
:10043000E435F0F0A3DBDE7407220202E3E8648017
:10044000F8E933E83360110460F0ED33EC33700900
:10045000E8FCE9FDEAFEEBFF220460DED3EB9FEA55
:100460009EE99DE8C2E78CF0C2F795F0400CE8CC1D
:10047000F8E9CDF9EACEFAEBCFFB1202AE85D0F067
:100480005804700320D5B3E80470075002B2D502B7
:1004900002ED92D5EC0460F7E4CCC0E0C398F860BC
:1004A0003B94186008400DD0E0FB0202C5E4FBFA63
:1004B000C9FC8028E830E406E4C9FBE4CAFCE83063
:1004C000E305E4C9CACBFCE854076010F8C3E9139C
:1004D000F9EA13FAEB13FBEC13FCD8F130F52FC358
:1004E000E49CFCEF9BFFEE9AFEED99FDD0E0FBEF64
:1004F0004E4D4C701222DB030202EAEC2CFCEF336F
:10050000FFEE33FEED33FDED30E7EB0202C5EF2BDE
:10051000FFEE3AFEED39FDD0E0FB50130BBB0003BC
:100520000202EDED13FDEE13FEEF13FFEC13FC02E0
:1005300002C53F8000004120000042C80000447A0C
:100540000000461C400047C35000497424004B186B
:1005500096804CBEBC205A0E1BCA6753C21C749DA9
:10056000C5AEFB60065407601C2323120590EB54B4
:1005700038600912057C12058B12001AECF8EDF9AF
:10058000EEFAEFCB22EB12058B80F1543803241CDA
:10059000900532FE93FC0EEE93FD0EEE930ECE937D
:1005A000FF22BB010689828A83E0225002E722BB38
:1005B000FE02E32289828A83E49322BB010CE58256
:1005C00029F582E5833AF583E0225006E92582F891
:1005D000E622BBFE06E92582F8E222E58229F582C1
:1005E000E5833AF583E49322BB010689828A83F08E
:1005F000225002F722BBFE01F322C5F0F8A3E02847
:10060000F0C5F0F8E582158270021583E038F0221B
:10061000EF2BFFEE3AFEED39FDEC38FC22C3EF9BE9
:10062000FFEE9AFEED99FDEC98FC22E88FF0A4CC49
:100630008BF0A42CFCE98EF0A42CFC8AF0EDA42C09
:10064000FCEA8EF0A4CDA8F08BF0A42DCC3825F0D8
:10065000FDE98FF0A42CCD35F0FCEB8EF0A4FEA9C3
:10066000F0EB8FF0A4CFC5F02ECD39FEE43CFCEAD0
:10067000A42DCE35F0FDE43CFC2275F00875820017
:10068000EF2FFFEE33FECD33CDCC33CCC58233C557
:10069000829BED9AEC99E58298400CF582EE9BFEE8
:1006A000ED9AFDEC99FC0FD5F0D6E4CEFBE4CDFA43
:1006B000E4CCF9A88222B800C1B90059BA002DECE7
:1006C0008BF084CFCECDFCE5F0CBF97818EF2FFF7F
:1006D000EE33FEED33FDEC33FCEB33FB10D7039927
:1006E0004004EB99FB0FD8E5E4F9FA227818EF2FD4
:1006F000FFEE33FEED33FDEC33FCC933C910D705F3
:100700009BE99A4007EC9BFCE99AF90FD8E0E4C911
:10071000FAE4CCFB2275F010EF2FFFEE33FEED3341
:10072000FDCC33CCC833C810D7079BEC9AE899406E
:100730000AED9BFDEC9AFCE899F80FD5F0DAE4CDD0
:10074000FBE4CCFAE4C8F922EF4BFFEE4AFEED4998
:10075000FDEC48FC22C3E49FFFE49EFEE49DFDE423
:100760009CFC22E8600FECC313FCED13FDEE13FEBE
:10077000EF13FFD8F122E8600FEFC333FFEE33FE33
:10078000ED33FDEC33FCD8F122E0FCA3E0FDA3E067
:10079000FEA3E0FF22E0F8A3E0F9A3E0FAA3E0FB68
:1007A00022ECF0A3EDF0A3EEF0A3EFF022E0FBA328
:1007B000E0FAA3E0F922F8E0FBA3A3E0F925F0F0CA
:1007C000E582158270021583E0FA38F022EBF0A37F
:1007D000EAF0A3E9F022E493FB740193FA74029324
:1007E000F922D083D082F8E4937012740193700DD3
:1007F000A3A393F8740193F5828883E4737402933E
:100800006860EFA3A3A380DFE5162582F582E515D6
:100810003583F583B515048582162210AF068582CF
:1008200016F51522858216F515D2AF22EC8EF0A4AE
:10083000CCC5F0CCCDF8EFA4CEC5F02DFDE43CFC4A
:10084000E8A42EC8C5F03DFDE43CFCEFA4FFE5F0B4
:1008500028FEE43DFDE43CFC22E709F608DFFA80CF
:1008600046E709F208DFFA803E88828C83E709F0C8
:10087000A3DFFA8032E309F608DFFA806EE309F2BB
:1008800008DFFA806688828C83E309F0A3DFFA80B0
:100890005A89828A83E0A3F608DFFA804E89828A29
:1008A00083E0A3F208DFFA804280D280FA80C6801B
:1008B000D4805580F28029801080A680EA809A80BA
:1008C000A880DA80E280CA802988848C8589828A1F
:1008D00083E493A30586F0A30586DFF5DEF3800BA2
:1008E00089828A83E493A3F608DFF9ECFAA9F0ED94
:1008F000FB2288848C8589828A83E0A30586F0A305
:100900000586DFF6DEF480E389828A83E493A3F22E
:1009100008DFF980D688F0EF60010E4E60CD88F0D8
:10092000ED2402B4040050C3F582EB2402B40400A9
:1009300050B923234582239008A973E5082469F55B
:1009400082E43402F583E005082290026630070352
:10095000900269E475F0011207B60205A22000E9D1
:100960007F2ED2008018EF540F2490D43440D4FF4F
:1009700030040BEF24BFB41A0050032461FFE509D3
:1009800060021509050CE50C7002050B30070E908E
:100990000266E475F0011207B6EF0205E80228BD11
:1009A0007403D2078003E4C207F5089002661207B9
:1009B000CDE4F509F50BF50CE50960077F20120978
:1009C0007E80F5750AFFC201C200C202C203C205E1
:1009D000C206C20812094AFF700D3007057F0012D7
:1009E000098FAF0CAE0B22B4255FC2D5C204120929
:1009F0004AFF24D0B40A00501A75F00A780930D59D
:100A00000508B6FF0106C6A426F620D5047002D25A
:100A10000380D924CFB41A00EF5004C2E5D20402F7
:100A20000C81D20180C6D20080C0D20280BCD2D557
:100A300080BAD20580B47F2012097E20020774019B
:100A4000B5090040F112093BFF12097E0209B8D234
:100A500008D206809512093BFB12093BFA12093BAA
:100A6000F94A4B7006797F7A0D7BFF20022EE5094B
:100A7000602A7E008E827583001205BB60060EEE32
:100A8000650A70F0C2D5EBC0E0EAC0E0E9C0E0EE74
:100A9000120CE2D0E0F9D0E0FAD0E0FB1205A2FFA0
:100AA00060AAEBC0E0EAC0E0E9C0E012097ED0E055
:100AB0002401F9D0E03400FAD0E0FBE50A0460DC60
:100AC000D50AD98087D20280A2120CC460F7E50A49
:100AD0007001041202F8A90A600DE50A600914F514
:100AE0000A120D6CEF60F3EA30E702F404C3995088
:100AF00079EAF4250A0430E701E404F50A800D12CE
:100B00000CC460C1EA050A250A1202F8EA900295AF
:100B1000F030E701E4250A04D50A04200501141287
:100B20000CE2E4C0E0120D6C900295E0601320E747
:100B30000714F0120966802204F0D0E014C0E07FB0
:100B400000120966E50A600712095D150A800B307C
:100B5000050312095DD0E00209B8D0E00480C41298
:100B60000CC4609EE50A041202F8900295EAF0E5D2
:100B70000A2005026001042404120CE274FF04C080
:100B8000E0120D6C120966E50A20050260031209E5
:100B90005DD0E0B50AE87F45120970900295E07FCC
:100BA0002B30E7047F2DF404C0E012097ED0E075FD
:100BB000F00A84C0F0120967D0E01209670209B890
:100BC000791080027908C206C2088008D2D5790A55
:100BD0008004790AC2D5E50A047002F50AE4FAFD38
:100BE000FEFF12093BFC7B0820011312093BFD7B31
:100BF0001030000A12093BFE12093BFF7B20EC3348
:100C000082D592D55013C3E43000069FFFE49EFEC8
:100C1000E42001039DFDE49CFCE4CBF8C201EC70F0
:100C20000CCFCECDCCE824F8F870F38017C3EF33A7
:100C3000FFEE33FEED33FDEC33FCEB33FB9940026A
:100C4000FB0FD8E9EB300105F8D0E0C448B201C091
:100C5000E00AEC4D4E4F78207B0070C2EAB50A00E6
:100C600040BCC0E0120CE4D0F0D0E0200104C4C0CD
:100C7000E0C4B201C0F0120967D0F0D5F0EB020970
:100C8000B81207E20A55530BC0580A264C0A2242F2
:100C90000BC44F0BCC440BCC490A3B430BD2550A37
:100CA000FF460B5F450AC9470D9F500A2A2D0A2EA1
:100CB0002E0A512B0A32230A4F200D882A09EA48AE
:100CC00000000A49E50AB4FF03750A0612093BFC55
:100CD00012093BFD12093BFE12093BFF90028E02F6
:100CE0000335790AA2D5200314300509B91002048E
:100CF00004B9080104A2D5200602500104200268AC
:100D00009202B509005034C0E07F203003197F30D3
:100D1000A20272067205500F120D3BC202C206C239
:100D200005C2087F30800F300503E9C0E012097E5C
:100D3000300503D0E0F9D0E0B509CC3005177F309D
:100D4000B9100C12097E7F583004077F788003B9F0
:100D5000080312097E3002057F2D02097E7F2020C4
:100D600008F87F2B2006F322920280CF7F00B40781
:100D700000500B248EF582E43402F583E0FF222834
:100D80006E756C6C2900D20112093B3001F8C2016A
:100D9000780930D50108F60209EA2D504349581266
:100DA000093B2403B405004001E4900D9A93120915
:100DB0006F743A12096FD203750904020BC09002D6
:100DC00006E4F0A3E4F07BFF7A2279ACC003C00212
:100DD000C0017B017A027908A801AC02AD03D00101
:100DE000D002D0037E007F28120915900258E4F04B
:100DF000900259E4F090025AE4F090025DE4F09021
:100E0000025E7403F0A374E8F0900260740BF0A328
:100E100074B8F0900262E4F0900263E4F09002642F
:100E2000E4F0900265E4F0D2AF9044F474FDF01267
:100E3000298D1229B71229CC122B87122B7912294E
:100E400026122B2D7F00122A3D7F00122A4D7F0192
:100E5000122745EF601112217B90025BEEF0A3EFA9
:100E6000F09002597401F0122B9AEF20E103020F67
:100E7000A0900259E0FFEF64016003020FA090020E
:100E80005DE0FFEF7003020F5490025EE0FEA3E00E
:100E9000FFEF2458FFEE3402FE90025BE0FCA3E07B
:100EA000FDC3ED9FEE6480F8EC64809850417B01B7
:100EB0007A027930C003C002C0017BFF7A22796ACE
:100EC0009002691207CD90025BE0FCA3E0FDEC12FA
:100ED000023E7B687AE8799F783A12001A90026C99
:100EE0001207A1D001D002D0031209A0020F9290E4
:100EF0000260E0FEA3E0FFEF24A8FFEE34FDFE90C9
:100F0000025BE0FCA3E0FDD3ED9FEE6480F8EC64AF
:100F10008098407E7B017A027930C003C002C00114
:100F20007BFF7A2279829002691207CD90025BE002
:100F3000FCA3E0FDEC12023E7B687AE8799F783AE8
:100F400012001A90026C1207A1D001D002D0031235
:100F500009A0803E7B017A027930C003C002C00143
:100F60007BFF7A22799A9002691207CD90025BE0AA
:100F7000FCA3E0FDEC12023E7B687AE8799F783AA8
:100F800012001A90026C1207A1D001D002D00312F5
:100F900009A07B017A0279301224C1900259E4F051
:100FA000900262E0FFEFB4020C7F00122A3D7FC87E
:100FB000122A4D801F900262E0FFEFB4010C7FC83F
:100FC000122A3D7F00122A4D800A7F00122A3D7F9F
:100FD00000122A4D1221FB90025AEFF090025AE0C3
:100FE000FFEF7003020E4E900258E4F090025AE0B8
:100FF000FF900258E0FEEEC39F40030211FD12294C
:10100000E1EF54FFFF900258E0FE74082EF582E4F1
:101010003402F583EFF0900258E0FF74082FF58258
:10102000E43402F583E0FFEF64766015900258E047
:10103000FF74082FF582E43402F583E0FFEFB45625
:101040000890025DE4F00211F4900258E0FF740889
:101050002FF582E43402F583E0FFEF6473601590AE
:101060000258E0FF74082FF582E43402F583E0FFB4
:10107000EFB4530990025D7401F00211F49002582C
:10108000E0FF74082FF582E43402F583E0FFEF649B
:10109000626015900258E0FF74082FF582E4340274
:1010A000F583E0FFEFB4421390025BE0FEA3E0FFA4
:1010B00090025EEEF0A3EFF00211F4900258E0FF10
:1010C00074082FF582E43402F583E0FFEF64776063
:1010D00015900258E0FF74082FF582E43402F5837E
:1010E000E0FFEFB4571390025BE0FEA3E0FF900235
:1010F00060EEF0A3EFF00211F4900258E0FF7408E4
:101100002FF582E43402F583E0FFEF646C60169003
:101110000258E0FF74082FF582E43402F583E0FF03
:10112000EF644C703C900262E0FFEF700990026245
:101130007402F00211F4900262E0FFEF64016003B8
:101140000211F47F00122A3D7F00122A4D7FFA7EA1
:10115000007D007C0012233E9002627402F00211B6
:10116000F4900258E0FF74082FF582E43402F5830E
:10117000E0FFEF64726016900258E0FF74082FF5EC
:1011800082E43402F583E0FFEF645270379002622C
:10119000E0FFEF70089002627401F08057900262E5
:1011A000E0FFEF6402704D7F00122A3D7F00122A9B
:1011B0004D7FFA7E007D007C0012233E9002627417
:1011C00001F08030900258E0FF74082FF582E4347B
:1011D00002F583E0FFEF64666015900258E0FF744B
:1011E000082FF582E43402F583E0FFEFB446059062
:1011F0000262E4F0900258E004F0020FEC90025812
:10120000E0FF74082FF582E43402F583E4F012263F
:10121000C59002597401F0020E4E227B007A467985
:10122000E8122B39EF4405FD7B007A4679E8122B52
:1012300045751400E514C3940B503AAF14EF75F0E4
:1012400005A424A9F582E4342BF583AF82AE838E06
:10125000088F09AE08AF098F828E831207D6AE08B9
:10126000AF098F828E83740393FC740493FD12275D
:10127000E7051480BF751400E514C394015078AFDE
:1012800014EF75F008A424E0F582E4342BF583AF65
:1012900082AE838E0A8F0BAE0AAF0B8F828E8312C3
:1012A00007D68B0C8A0D890EAE0AAF0B8F828E8308
:1012B000A3A3A31207D68B0F8A108911AE0AAF0B16
:1012C0008F828E83740693F512740793F513AB0F18
:1012D000AA10A911C003C002C001AB0CAA0DA90E2F
:1012E0009002101207CDD001D002D003AF13AE127E
:1012F000122784051480817B087A007900122869FE
:10130000905883740AF07B017A507903122B39EFDD
:101310004402FD7B017A507903122B457B017A5000
:101320007913122B39EF4402FD7B017A50791312A5
:101330002B459043A0E0FFEF4440FF9043A0EFF027
:101340009043C2E0FFEF4410FF9043C2EFF07B08F0
:101350007A0579A0C003C002C0017B007A517920D0
:101360009002101207CDD001D002D0037F0A7E0078
:101370001227847B087A0579ACC003C002C0017BC8
:10138000007A5179429002101207CDD001D002D0DC
:10139000037F087E001227847B087A0579B4C00396
:1013A000C002C0017B007A5179629002101207CD11
:1013B000D001D002D0037F087E001227849044F42D
:1013C0007401F0904322E0FFEF4408FF904322EFC6
:1013D000F09046ECE0FFEFC3940550069046897408
:1013E0003AF090480074F1F012162A90480074B157
:1013F000F01226427B007A4379A0C003C002C001EC
:101400007B007A4379B09002101207CDD001D00250
:10141000D0037F0E7E001227849043B0E0FFEF548C
:10142000FDFFEFF022900266EFF0900267ECF0A370
:10143000EDF0900269EAF0A3EBF090026CE0FFEFB0
:10144000D39400500302162490026CE0FFEFD39473
:10145000014003021624900266E0FFEF1207E21437
:101460007201147204149F0714CA0814F50A0000CC
:10147000152090026BE0FFEFD3940F40117B0C7AA4
:10148000017918122B3990026DEFF00215257B0CB3
:101490007A01791C122B3990026DEFF0021525901C
:1014A000026BE0FFEFD3940F40107B0C7A017919A7
:1014B000122B3990026DEFF0806B7B0C7A01791D55
:1014C000122B3990026DEFF0805B90026BE0FFEF22
:1014D000D3940F40107B0C7A01791A122B399002A9
:1014E0006DEFF080407B0C7A01791E122B3990024F
:1014F0006DEFF0803090026BE0FFEFD3940F40105F
:101500007B0C7A01791B122B3990026DEFF080155C
:101510007B0C7A01791F122B3990026DEFF0800558
:1015200090026DE4F090026DE0FFEF3395E0FEFD78
:10153000FC7B207A007900780012062BA804A9050C
:10154000AA06AB07900267E0FEA3E0FFE4FCFD12F1
:10155000061090026E1207A190026E120789AB0767
:10156000AA06A905A804A804A905AA06AB07900223
:1015700069E0FEA3E0FFE4FCFD12062B900274126A
:1015800007A17B007A8079007800900274120789A5
:101590001206B6900272EEF0A3EFF090026BE0FF3D
:1015A000EFC3940E5047900272E0FEA3E0FF90025A
:1015B0006BE0FDC3740E9DFDEFA805088005CEC34A
:1015C00013CE13D8F9FF900272EEF0A3EFF0900261
:1015D0006BE0FFEF04FF90026CE0FEEE75F003A4F9
:1015E00024DCF582E43402F583EFF0801690026C7F
:1015F000E0FFEF75F003A424DCF582E43402F58308
:10160000740FF0900272E0FEA3E0FF90026CE0FD28
:10161000ED75F003A424DAF582E43402F583EEF0EC
:10162000A3EFF0227F001229A2227B007A4079806A
:101630007D007C00122AEC9040827450F07B007A8E
:101640004079847D177C00122AEC9040867418F053
:101650007B007A4079887D177C00122AEC90408AC2
:101660007418F07B007A40798C7D197C00122AEC8A
:1016700090408E7418F07B007A4079907D2F7C75B5
:10168000122AEC9040927419F07B087A0579BCC05C
:1016900003C002C0017B007A41790090021012075A
:1016A000CDD001D002D0037F047E00122784904366
:1016B000007402F09040007408F09042007403F04F
:1016C0007B0C7A017908122B399046A1EFF07B0050
:1016D0007A4279227D087C00122AEC7B007A4279DA
:1016E000207D517C12122AEC90020AE4F07F197ED0
:1016F000007D007C009002061207A19002061207EE
:1017000089D3EF9400EE9400404E90020AE0FFEF80
:1017100064036044904225E0FFEF5401FF7E009097
:10172000020AE0FEEE25E0FEEE4FFFEF5403FF90CD
:10173000020AEFF07FE07E017D007C00122800901D
:1017400002061207897BFF7AFF79FF78FF120610E5
:101750009002061207A180A3900206120789EF4E9D
:1017600070057F03122A0B7B007A4079047D007C90
:1017700001122AEC9040047407F0904006E4F090C7
:1017800040087448F0904004E4F09040017402F086
:1017900090400B7404F09043A2E0FFEF441FFF90D1
:1017A00043A2EFF09043A1E0FFEF4401FF9043A17B
:1017B000EFF09043A0E0FFEF4480FF9043A0EFF0F4
:1017C00022900267EEF0A3EFF0900269EDF0122B89
:1017D0005B90026BEFF0122B5190026CEEF0A3EFD6
:1017E000F090026CE0FEA3E0FF900267E0FCA3E053
:1017F000FDED6F7002EC6E70030219559043A2E08C
:10180000FFEF5401FF90026AEFF090026BE0FFEFF0
:10181000705E90026CE0FEA3E0FFEF4E600C900261
:1018200067E0FEA3E0FFEF4E704690026CE0FEA37F
:10183000E0FFEF4E701D7B027A407980900267E0F6
:10184000FCA3E0FD122AEE904082E0FFEF54BFFFC0
:10185000EFF022904082E0FFEF4440FFEFF07B0288
:101860007A407980900267E0FCA3E0FD122AEE2224
:1018700090026AE0FFEF606C904001E4F09040104D
:101880007401F0904014E4F0904008E0FFEF547FC2
:10189000FFEFF0904082E0FFEF5408FF7E00EF4E34
:1018A000600C900267E0FEA3E0FFEF4E70367B0213
:1018B0007A40790290026CE0FCA3E0FD122AEE90DF
:1018C00040017407F0904001E0FFEF5401FF7E00FB
:1018D000EF4E70F19043A2E0FFEF54FEFFEFF09067
:1018E0004001E4F09043A2E0FFEF5401FF7E00EFDF
:1018F0004E603A7B027A407902900267E0FCA3E0F6
:10190000FD122AEE900269E0FFEF60047F02800280
:101910007F00EF4401FF904001EFF0904001E0FFB5
:10192000EF5401FF7E00EF4E602B80EF227B027AA6
:10193000407980900267E0FCA3E0FD122AEE90431C
:10194000A2C083C082E0FF90026AE0FEEF4EFFD0AB
:1019500082D083EFF022900267EEF0A3EFF09002C6
:1019600069EDF0122B6F90026BEFF0122B65900275
:101970006CEEF0A3EFF090026CE0FEA3E0FF9002AB
:1019800067E0FCA3E0FDED6F7002EC6E7003021ADD
:10199000EA9043A1E0FFEF5401FF90026AEFF0905C
:1019A000026BE0FFEF705E90026CE0FEA3E0FFEFE1
:1019B0004E600C900267E0FEA3E0FFEF4E70469091
:1019C000026CE0FEA3E0FFEF4E701D7B027A4179CE
:1019D00000900267E0FCA3E0FD122AEE904102E0D5
:1019E000FFEF54BFFFEFF022904102E0FFEF4440D1
:1019F000FFEFF07B027A417900900267E0FCA3E000
:101A0000FD122AEE2290026AE0FFEF606C90400126
:101A1000E4F09040147401F0904010E4F09040081D
:101A2000E0FFEF547FFFEFF0904102E0FFEF54083A
:101A3000FF7E00EF4E600C900267E0FEA3E0FFEF38
:101A40004E70367B027A40790290026CE0FCA3E093
:101A5000FD122AEE9040017407F0904001E0FFEF84
:101A60005401FF7E00EF4E70F19043A1E0FFEF5470
:101A7000FEFFEFF0904001E4F09043A1E0FFEF544F
:101A800001FF7E00EF4E603A7B027A4079029002BD
:101A900067E0FCA3E0FD122AEE900269E0FFEF6030
:101AA000047F0280027F00EF4401FF904001EFF0CD
:101AB000904001E0FFEF5401FF7E00EF4E602B806D
:101AC000EF227B027A417900900267E0FCA3E0FDFF
:101AD000122AEE9043A1C083C082E0FF90026AE028
:101AE000FEEF4EFFD082D083EFF022759300780096
:101AF0007583467582E8E04401F0009046ECE0F919
:101B00009046FAE0FAB903225420B40012B8001A41
:101B1000EA900FFFF07401900FFEF09046F6F090FF
:101B20000FFEE06005900FFFE0FA90480074C0F0EF
:101B300075812190000078007910E4F0A3D8FCD9D9
:101B4000FAEA9002F6F002001175150F7516FD12F3
:101B5000121B021B90020DBEE493A3F8E493A34072
:101B600003F68001F208DFF48029E493A3F8540718
:101B7000240CC8C333C4540F4420C8834004F45613
:101B8000800146F6DFE4800B01020408102040804B
:101B90009022D4E47E019360BCA3FF543F30E5095A
:101BA000541FFEE493A360010ECF54C025E060A84B
:101BB00040B8E493A3FAE493A3F8E493A3C8C582DE
:101BC000C8CAC583CAF0A3C8C582C8CAC583CADF4C
:101BD000E9DEE780BE900266EFF09002EBE4F09061
:101BE0000266E0FFEF64016003021CB8904E0074CF
:101BF00038F0904E027406F0904E037408F0904E48
:101C000004E4F0904E05E4F0904E06741FF0904E00
:101C100008E4F0904E09E4F0904E0AE4F0904E147F
:101C20007401F09058847414F09058857405F09005
:101C300058867416F0905887E4F090588A7444F0EF
:101C400090588B7448F090588C7401F090588E74B2
:101C500002F090588F7422F09058907428F09058A9
:101C60009174EBF07F5212251A9058947458F090AA
:101C70005895E4F090589A7405F090589B7402F0CF
:101C800090589CE4F090589DE4F07F001229437F27
:101C9000337E037D007C009002E11207A17D017F6D
:101CA000037E001217C17D017F0F7E001219567C42
:101CB000287D3B7F1D1220F9221229F6900267EF42
:101CC000F09002E5E0FF900266EFF09043AAE0FF9B
:101CD000EF4401FFEFF09043AAE0FFEF4410FFEF65
:101CE000F09043BAE0FFEF4401FFEFF09043BAE019
:101CF000FFEF4410FFEFF09046F8E0FFEF4402FFE3
:101D0000EFF09046F9E0FFEF4402FFEFF0905891BA
:101D1000E0FFEF4403FFEFF07F037E0012283C90CA
:101D200046F8E0FFEF54FDFFEFF09046F9E0FFEFDB
:101D300054FDFFEFF0905877E0FFEF4406FFEFF01F
:101D4000905882747AF09043A1E0FFEF4401FFEFD6
:101D5000F09043B1E0FFEF4401FFEFF09043A2E0C9
:101D6000FFEF4401FFEFF09043B2E0FFEF4401FFCB
:101D7000EFF09044DB7420F09044C37420F09002A4
:101D800067E0FF12295E22C0E0C083C082C085C028
:101D900084C086758600C093759300C0D075D0004E
:101DA000C006C007900297E4F0A2AFE433FF9002B0
:101DB00098EFF0D2AF9044F474FDF090646EE0FFC1
:101DC000900296EFF0900296E0FFEF30E5689064A5
:101DD0004EE0FF900001E0FE74072EF582E434002F
:101DE000F583EFF09002977401F0900297E0FFEF17
:101DF0006038900005E0FFEF60069000047401F089
:101E0000900001E004F0900001E0FFEFC394FF4078
:101E100005900001E4F0900006E0FF900001E0FE74
:101E2000EEB507069000057401F090646EE0FF9037
:101E30000296EFF0808F900298E0FFEF24FF92AFC0
:101E4000D007D006D0D0D093D086D084D085D08291
:101E5000D083D0E0329002E57401F09002E0E4F02B
:101E60007F101228E47F101229057D077F1D1224A0
:101E7000039058967407F0905897E4F090589EE4B9
:101E8000F0905B07E0FFEF4418FFEFF0905893E409
:101E9000F0905B88E4F0905B89E4F0905880740ADD
:101EA000F0905881E4F0905883E4F09058887412D0
:101EB000F09058897413F090588DE4F0904E0174AE
:101EC00014F090026B740CF090026C7401F07B00C3
:101ED0007A807D6B7C8D7F021214259002E5E0FFF5
:101EE000EF75F003A424DCF582E43402F583E0FF0F
:101EF000904E0EEFF09002E5E0FFEF75F003A424A2
:101F0000DAF582E43402F583E0FCA3E0FD7B027A9B
:101F10004E790C122AEE9002E5E0FF121BD52290BA
:101F2000026BEFF0900002E0FF90026CEFF0900186
:101F300006E0FF90026DEFF090026DE0FF90026C02
:101F4000E0FEEEC39F502690026DE0FF7E00EF247E
:101F5000FFFFEE34FFFE90026CE0FD7C00EFB50564
:101F600008EEB504047F0180027F00801890026DA6
:101F7000E0FF90026CE0FEC3EE9FFFEFB4FE047F33
:101F80000180027F00EF709C90026CE0FF90026D78
:101F9000E0FEEEB50714906460E0FFEF20E20B90E6
:101FA000026BE0FF906443EFF02290026CE0FFEFE1
:101FB000C394FF400590026CE4F090026BE0FF9048
:101FC000026CE0FE74072EF582E43401F583EFF035
:101FD00090026CE004F090026CE0FF900002EFF0E1
:101FE00022C0E0C083C082C085C084C086758600E0
:101FF000C093759300C0D075D000C006C007A2AFD3
:10200000E433FF900299EFF0D2AF9044F474FDF006
:10201000900002E0FF900106E0FEEE6F60379064F2
:1020200060E0FFEF20E22E900106E0FFEFC394FF97
:102030004005900106E4F0900106E0FF74072FF5DB
:1020400082E43401F583E0FF906443EFF0900106F1
:10205000E004F080BB900299E0FFEF24FF92AFD044
:1020600007D006D0D0D093D086D084D085D082D06F
:1020700083D0E032122B80900006E0FF900267EFE1
:10208000F0900001E0FF900268EFF0900005E0FFA3
:10209000EF700E900268E0FF900267E0FEEE6F6066
:1020A00045900267E0FF74072FF582E43400F58362
:1020B000E0FF900266EFF0900267E004F0900267A4
:1020C000E0FFEFC394FF4005900267E4F0900267E1
:1020D000E0FF900006EFF0900005E0FFEF60119048
:1020E0000005E4F0800A90644EE0FF900266EFF095
:1020F000122B79900266E0FF22900267EFF09002C7
:1021000068ECF0A3EDF0900267E0FFEFD3941F506E
:1021100003D38001C340057F001229A2900267E02B
:10212000FFEF541FFF7E00EF25E0FFEE33FEEF24AC
:1021300000FFEE3444FEAA06A9077B01122ADF90B5
:10214000026AEEF0A3EFF0900267E0FF7E02EF8EEE
:10215000F0A4FFAEF0EF2400FFEE3444FEAA06A97F
:10216000077B01900268E0FEA3E0FFAD07AC06121A
:102170002AEE90026AE0FEA3E0FF22904E14E0FFF8
:10218000EF5403FF900268EFF0900268E0FFEFD396
:1021900094015032904E11E0FF7E00900266EEF006
:1021A000A3EFF0900266E0FEA3E0FFEF7F00FE9059
:1021B0004E10E0FD7C00EE4CFEEF4DFF900266EE0F
:1021C000F0A3EFF0801F7B027A4E7910122ADF9085
:1021D0000266EEF0A3EFF0900268E0FFEFB40305B3
:1021E000904E12E0FF9002EBE0FFEF60059002E0FE
:1021F000E4F0900266E0FEA3E0FF22122B80900044
:1022000001E0FF900006E0FEEEB5071A900005E041
:10221000FFEFD39400400890026674FFF080429074
:102220000266E4F0803B900001E0FF900006E0FED3
:10223000EEC39F5015900006E0FF900001E0FEC342
:10224000EE9FFF900266EFF08017900006E0FFC35C
:1022500074FF9FFF900001E0FEEF2EFF900266EFFB
:10226000F0122B79900266E0FF2270686F746F2085
:102270003D20426C61636B2025362E34665B565DD3
:102280000A0070686F746F203D205768697465207C
:1022900025362E34665B565D0A0070686F746F20B9
:1022A0003D2025362E34665B565D0A007965730A3B
:1022B000000000000000000000000000000000001E
:1022C000000000000000000000000000000000000E
:1022D000000000004203000000420302000041032E
:1022E00004004402F2016E36004402ED00005DC0BD
:1022F0004102F1184402F72EE000004103050041BD
:1023000000030041010600410002004100060041B7
:1023100000010041000500410004004102E00041CD
:1023200002EB004102E6004102EC004102E50141FE
:102330000306FF4302FB000000410307000090FF7B
:10234000FC1208081207A1851583851682120789D9
:10235000D3EF9400EE9480402F9002F71207891279
:102360002800851583851682C083C082120789EFF5
:102370002400FFEE3480FEED34FFFDEC34FFFCD092
:1023800082D0831207A180BF9002ED1207898515C4
:102390008385168212079512062B122800900004DE
:1023A00012080822906471E0FFEF54C0FF900266AB
:1023B000EFF0900266E0FFEF4409FF906471EFF0E8
:1023C000906491E0FFEF4401FFEFF07FFF122A1DC0
:1023D0007FFF122A2D7F00122A3D7F00122A4D7F97
:1023E00000122A5D1229F6900267EFF0906491E0E6
:1023F000FFEF4410FFEFF0900267E0FF12295E123A
:102400002AFB22900266EFF0900267EDF0900267DF
:10241000E0FFEFD394075003D38001C340057F0052
:102420001229A2900266E0FFEFD3941F5003D380DD
:1024300001C340057F001229A2900267E0FFEF541C
:1024400007FF7E00EF75F020A4FFAEF0900266E07B
:10245000FEEE541FFE74802EF582E43444F583EFC3
:10246000F022906472E0FFEF54C0FF900266EFF03C
:10247000900266E0FFEF4409FF906472EFF0906411
:1024800095E0FFEF4401FFEFF07FFF122A7D7FFF11
:10249000122A8D7F00122A9D7F00122AAD7F001222
:1024A0002ABD1229F6900267EFF0906495E0FFEFE5
:1024B0004410FFEFF0900267E0FF12295E122B0834
:1024C000229002661207CD900269E4F0A3E4F09036
:1024D0000003E0FFEF60429002661207AD900269D0
:1024E000E0FEA3E0FFE92FF9EA3EFA1205A2FFEFB2
:1024F00060279002661207AD900269E0FEA3E0FF3C
:10250000E92FF9EA3EFA1205A2FF121F1F90026995
:10251000E475F0011205FA80BE22900267EFF01216
:1025200029F6900268EFF09046F8E0FFEF4403FFD1
:10253000EFF09046F9E0FFEF4403FFEFF090026701
:10254000E0FF905892EFF07F037E0012283C904607
:10255000F8E0FFEF54FCFFEFF09046F9E0FFEF5496
:10256000FCFFEFF0900268E0FF12295E2290026902
:10257000EFF0900269E0FFEFC394025039900269D6
:10258000E0FFEF25E024A3F582E4342BF583E49308
:10259000FE740193FF8F828E83C083C082E0FF9020
:1025A0000269E0FEEE902BA793FEEEF4FEEF5EFFD5
:1025B000D082D083EFF022900268EFF0900268E0C2
:1025C000FFEFC394025036900268E0FFEF25E0244D
:1025D000A3F582E4342BF583E493FE740193FF8F1B
:1025E000828E83C083C082E0FF900268E0FEEE909E
:1025F0002BA793FEEF4EFFD082D083EFF022C2D5FF
:10260000E830E70FB2D5E4C39BFBE49AFAE499F90A
:10261000E498F8EC30E717B2D51226341206B6E487
:10262000C39BFBE49AFAE499F9E498F88003120654
:10263000B630D50DE4C39FFFE49EFEE49DFDE49C0F
:10264000FC227B0C7A0179CF122B39900206EFF035
:10265000900206E0FFEF5407FF90586EEFF09002F3
:1026600006E0FFEFC4540FFFEF540FFF90586FEFD9
:10267000F090516D7440F0905B007404F0905876C7
:102680007444F0221229F6900266EFF090649CE008
:10269000FFEF4420FFEFF090649EE0FFEF4410FF57
:1026A000EFF09044C07401F0906490E0FFEF4410AC
:1026B000FFEFF09044C07402F0122976900266E0B9
:1026C000FF12295E221229F6900266EFF090649EB6
:1026D000E0FFEF4401FFEFF090649EE0FFEF54FE57
:1026E000FFEFF0900266E0FF12295E122B8090004F
:1026F00006E4F0900001E4F0900005E4F09000049E
:10270000E4F0122B79227C1D7D877F001220F97D59
:10271000077F0012240390648C7472F090648E74AE
:1027200020F07C1F7DE17F011220F97D077F0112DF
:1027300024039064247407F09064347448F0906427
:10274000807402F022900266EFF09002EBE0FFEF5F
:10275000600C9002E0E0FF900267EFF0800E904E78
:1027600001E0FFEF5401FF900267EFF0900267E095
:10277000FFEF64016008900266E0FFEF60CC90021A
:1027800067E0FF22758600EF4E6027EF60010E754F
:102790009300900210E0F595A3E0F585A3E0F584A1
:1027A0008B938A838982E0A30586F0A31586DFF6E2
:1027B000DEF4E4F593F5952290646EE0FFEF547F2C
:1027C000FF900266EFF0900004E0FFEF60139002CC
:1027D00066E0FFEF4480FF900266EFF0900004E4B3
:1027E000F0900266E0FF22EC4D6011ED60010C8B71
:1027F000938A838982E4F0A3DDFCDCFA75930022DE
:10280000EC4D4E700D78FCEF24E950032840FD227A
:1028100000007BF178DA0000EF28FF78FFEE38FE49
:10282000ED38FDEC38FC50E7EF2BFFEE38FEED38CD
:10283000FDEC38FC40F2220502030432EEFA90026D
:10284000F1E0F88FF0A4FFAEF0E88AF0A42EFEE5E8
:10285000F03400FDEF24C9FF78FFEE38FEED38FDBF
:10286000E438FC500302280022ACEAADA08B938A26
:10287000838982E0F96017A3E0F5EAA3E0F5A0A35D
:10288000E060F4FAA3E0F8A3E0F2DAF8D9E98DA069
:102890008CEAE4F59322900268E4F0900268E0FF8D
:1028A000EFC394025010900268E0FF12256D900271
:1028B00068E004F080E590030674FFF022EFB40AAC
:1028C00007740D1228C8740A309811A899B8130C0F
:1028D000C2983098FDA899C298B811F63099FDC2F7
:1028E00099F59922900266EFF0904082C083C082F1
:1028F000E0FF900266E0FEEE54F8FEEF4EFFD0825D
:10290000D083EFF022900266EFF0904102C083C0C6
:1029100082E0FF900266E0FEEE54F8FEEF4EFFD03C
:1029200082D083EFF0229002E6E0FFEF7011900278
:10293000ECE0FFEF7003121E559002E67401F012F6
:102940001CB922900267EFF0122896900267E0FF10
:102950001225B7900267E0FF900306EFF022EF54D4
:10296000016004D2AF8002C2AFEF5402FF9044F482
:10297000E054FD4FF0229043A2E0FFEF4408FFEF48
:10298000F09043B2E0FFEF4408FFEFF02290030421
:10299000E0FFEF70091223A49003047401F0122BDE
:1029A000152290FFFF120808EFF09046EA7401F03C
:1029B00090000112080822900305E0FFEF70091251
:1029C00024629003057401F0122B2122900003E091
:1029D000FFEF70091227069000037401F01226849D
:1029E000221227B87E00EF7D00FC1220747E00ECDE
:1029F0004EFEED4FFF229044F4E0F84402F0E8541C
:102A000002FF10AF012274014FFF2290020BEFF082
:102A100090020BE0FF90020BEFF080FE2290026824
:102A2000EFF0900268E0FF906401EFF022900268FE
:102A3000EFF0900268E0FF906441EFF022900268AE
:102A4000EFF0900268E0FF906421EFF022900268BE
:102A5000EFF0900268E0FF906431EFF0229002689E
:102A6000EFF0900268E0FF906481EFF022906461E3
:102A7000E0FF900268EFF0900268E0FF22900268A9
:102A8000EFF0900268E0FF906405EFF0229002689A
:102A9000EFF0900268E0FF906445EFF0229002684A
:102AA000EFF0900268E0FF906425EFF0229002685A
:102AB000EFF0900268E0FF906435EFF0229002683A
:102AC000EFF0900268E0FF906485EFF0229064657B
:102AD000E0FF900268EFF0900268E0FF228B938A9B
:102AE000838982E0FFA3E0FE759300228B938A83A3
:102AF0008982EDF0A3ECF075930022122A6DEF307D
:102B0000E405122B8E80F422122ACDEF30E4051258
:102B10002B9480F422906471E0FFEF4480FFEFF08B
:102B200022906472E0FFEF4480FFEFF022904E00AD
:102B3000E0FFEF4401FFEFF0228B938A838982E06C
:102B4000759300FF228B938A838982EDF075930041
:102B5000227B027A407980122ADF22904082E0FFB5
:102B6000EF5407FF227B027A417900122ADF22907C
:102B70004102E0FFEF5407FF229044C07401F022AD
:102B80009044C87401F0229044C07402F022906412
:102B900051E0FF22906455E0FF22906460E0FF2244
:102BA0003232325B034324400000510000200051C8
:102BB00030001000515000100051C000100051F0C2
:102BC00000100100000E00010E80018001140008B9
:102BD000000140000A00014C0002000150000020EA
:082BE000010E00080520008031
:00000001FF
