:10000000021AC6008F828E83E0540100000070F84F
:100010002278FFE4F6D8FD021B24EC4D6011E8497C
:100020007017ED33EC3304600DE4FCFFFEFD22E9B4
:1000300033E8330470F80202E31202AE5804600998
:10004000E4CC248150062850090202ED2840030226
:1000500002EAC0E0EB4A7044B98006D0E0FB02023D
:10006000D9EF4E701CBD8008EBFFEAFEE9FD80EB86
:10007000E98DF0A4FEE5F0020103E9CDF9EAFEEB1B
:10008000FFEF89F0A4FCE5F0CE89F0A42EFFE43563
:10009000F0CD89F0A42DFEE435F08067EF4E7005B9
:1000A000BD80D780C3EF8BF0A4ACF0EE8BF0A42C16
:1000B000FCE435F0F8EF8AF0A42CE5F038FCE433EA
:1000C000CB8DF0A42CFCE5F03BF8EE8AF0A42CFCE0
:1000D000E5F038F8E433CF89F0A42CFCE5F038CF14
:1000E0003400CE89F0A42FFFE5F03EFEE433C98D45
:1000F000F0A42EFEE5F039CD8AF0A42FFFE5F03E06
:10010000FEE43DFD33D0E0FB50070BBB000F0202C5
:10011000EDEC2CFCEF33FFEE33FEED33FD0202C5B8
:100120000202EDEC5D046005E8590470030202E38D
:100130001202AE580460F6EC4860F2EC7004FDFE6A
:10014000FF22C860DB2481C85009C39860025006B2
:100150000202EA9850CAF582E9294B4A7005AB823F
:100160000202D975F0007C1A7880C3EF9BEE9AEDFD
:1001700099400DC3EF9BFFEE9AFEED99FDE842F02A
:10018000DC23ACF0D0E0FFD0E0FED0E0FDAB82207D
:10019000E7101BEB60BAEC2CFCEF33FFEE33FEED07
:1001A00033FD0202C5E803F830E705C0F075F00042
:1001B000EF2FFFEE33FEED33FD40B830E7C280AAEB
:1001C00074F8CC6480CCC86480C8F58204604FC3E6
:1001D000EB9FF5F0EA9E42F0E99D42F0E89C45F085
:1001E000603C501DE5825FFFE582D313CB5BCBF40F
:1001F0002B5582FB50280ABA002409B90020088038
:100200001DE5825BFBE582D313CF5FCFF4C3132FD1
:100210005582FF50090EBE00050DBD00010CC3EB59
:100220009FF5F0EA9E42F0E99D42F0E89C45F060BF
:1002300007CC4820E701B3EC2275F020800E75F062
:1002400010800575F0087D007E007F003392D53068
:10025000D503120755EC334010EF33FFEE33FEEDBC
:1002600033FDEC33FCD5F0ED22E5F0247EA2D5136E
:10027000CC92E7CDCEFF22EDD2E7CD33EC3392D551
:1002800024814006E4FFFEFDFC22FCE4CFCECDCC71
:1002900024E0501174FF80EDC3CC13CCCD13CDCE30
:1002A00013CECF13CF0470F030D5DE020755E9D25C
:1002B000E7C933E833F892D5EDD2E7CD33EC33FC20
:1002C0005002B2D522EC30E7100FBF000C0EBE007A
:1002D000080DBD00040BEB6014A2D5EB13FCED92EE
:1002E000E7FD2274FFFCFDFEFF22E480F8A2D57436
:1002F000FF13FC7D80E480EFF920E73624F95003FA
:100300007907E4F42402FBE582158270021583DB91
:10031000F6E024FB501BE96014E4F0E582158270DE
:10032000021583E004F0B40A08E4F0D9EE7401F099
:100330000A22C2D522ED33EC3392D5FA602AB4FFFB
:1003400033EDC2E77BFF60067A03795AE4227A0331
:10035000796320D5047A03795E224E614E002B49E1
:100360004E46002D494E4600E47A08F0A3DAFC7BA5
:1003700000740722C083C082ECC0E0EDC0E0EEC094
:10038000E0EFC0E0EA75F010A4CAABF075F04DA440
:100390002BFBE435F0FCEA2410FAEB34C5FBEC341B
:1003A000D9FCEDC2E7FF75F056A4F42411C5F0F4B2
:1003B00034C58FF0A42AE5F03BE43CF020E71412AA
:1003C0000562D0E0FFD0E0FED0E0FDD0E0FC1201FD
:1003D000238014F404120562D0E0FFD0E0FED0E0E8
:1003E000FDD0E0FC12001AD082D083E0FAEDD2E713
:1003F000CD33EC332482FBE4C3CF33CFCE33CECD29
:1004000033CD33DBF37B0775F00A846004F0A31B64
:100410000AE5F0F0A38FF0740AA4FFACF08EF0743C
:100420000AA42CFEACF050010C8DF0740AA42CFD33
:10043000E435F0F0A3DBDE7407220202E3E8648017
:10044000F8E933E83360110460F0ED33EC33700900
:10045000E8FCE9FDEAFEEBFF220460DED3EB9FEA55
:100460009EE99DE8C2E78CF0C2F795F0400CE8CC1D
:10047000F8E9CDF9EACEFAEBCFFB1202AE85D0F067
:100480005804700320D5B3E80470075002B2D502B7
:1004900002ED92D5EC0460F7E4CCC0E0C398F860BC
:1004A0003B94186008400DD0E0FB0202C5E4FBFA63
:1004B000C9FC8028E830E406E4C9FBE4CAFCE83063
:1004C000E305E4C9CACBFCE854076010F8C3E9139C
:1004D000F9EA13FAEB13FBEC13FCD8F130F52FC358
:1004E000E49CFCEF9BFFEE9AFEED99FDD0E0FBEF64
:1004F0004E4D4C701222DB030202EAEC2CFCEF336F
:10050000FFEE33FEED33FDED30E7EB0202C5EF2BDE
:10051000FFEE3AFEED39FDD0E0FB50130BBB0003BC
:100520000202EDED13FDEE13FEEF13FFEC13FC02E0
:1005300002C53F8000004120000042C80000447A0C
:100540000000461C400047C35000497424004B186B
:1005500096804CBEBC205A0E1BCA6753C21C749DA9
:10056000C5AEFB60065407601C2323120590EB54B4
:1005700038600912057C12058B12001AECF8EDF9AF
:10058000EEFAEFCB22EB12058B80F1543803241CDA
:10059000900532FE93FC0EEE93FD0EEE930ECE937D
:1005A000FF22BB010689828A83E0225002E722BB38
:1005B000FE02E32289828A83E49322BB010CE58256
:1005C00029F582E5833AF583E0225006E92582F891
:1005D000E622BBFE06E92582F8E222E58229F582C1
:1005E000E5833AF583E49322BB010689828A83F08E
:1005F000225002F722BBFE01F322C5F0F8A3E02847
:10060000F0C5F0F8E582158270021583E038F0221B
:10061000EF2BFFEE3AFEED39FDEC38FC22C3EF9BE9
:10062000FFEE9AFEED99FDEC98FC22E88FF0A4CC49
:100630008BF0A42CFCE98EF0A42CFC8AF0EDA42C09
:10064000FCEA8EF0A4CDA8F08BF0A42DCC3825F0D8
:10065000FDE98FF0A42CCD35F0FCEB8EF0A4FEA9C3
:10066000F0EB8FF0A4CFC5F02ECD39FEE43CFCEAD0
:10067000A42DCE35F0FDE43CFC2275F00875820017
:10068000EF2FFFEE33FECD33CDCC33CCC58233C557
:10069000829BED9AEC99E58298400CF582EE9BFEE8
:1006A000ED9AFDEC99FC0FD5F0D6E4CEFBE4CDFA43
:1006B000E4CCF9A88222B800C1B90059BA002DECE7
:1006C0008BF084CFCECDFCE5F0CBF97818EF2FFF7F
:1006D000EE33FEED33FDEC33FCEB33FB10D7039927
:1006E0004004EB99FB0FD8E5E4F9FA227818EF2FD4
:1006F000FFEE33FEED33FDEC33FCC933C910D705F3
:100700009BE99A4007EC9BFCE99AF90FD8E0E4C911
:10071000FAE4CCFB2275F010EF2FFFEE33FEED3341
:10072000FDCC33CCC833C810D7079BEC9AE899406E
:100730000AED9BFDEC9AFCE899F80FD5F0DAE4CDD0
:10074000FBE4CCFAE4C8F922EF4BFFEE4AFEED4998
:10075000FDEC48FC22C3E49FFFE49EFEE49DFDE423
:100760009CFC22E8600FECC313FCED13FDEE13FEBE
:10077000EF13FFD8F122E8600FEFC333FFEE33FE33
:10078000ED33FDEC33FCD8F122E0FCA3E0FDA3E067
:10079000FEA3E0FF22E0F8A3E0F9A3E0FAA3E0FB68
:1007A00022ECF0A3EDF0A3EEF0A3EFF022E0FBA328
:1007B000E0FAA3E0F922F8E0FBA3A3E0F925F0F0CA
:1007C000E582158270021583E0FA38F022EBF0A37F
:1007D000EAF0A3E9F022E493FB740193FA74029324
:1007E000F922D083D082F8E4937012740193700DD3
:1007F000A3A393F8740193F5828883E4737402933E
:100800006860EFA3A3A380DFE5162582F582E515D6
:100810003583F583B515048582162210AF068582CF
:1008200016F51522858216F515D2AF22EC8EF0A4AE
:10083000CCC5F0CCCDF8EFA4CEC5F02DFDE43CFC4A
:10084000E8A42EC8C5F03DFDE43CFCEFA4FFE5F0B4
:1008500028FEE43DFDE43CFC22E709F608DFFA80CF
:1008600046E709F208DFFA803E88828C83E709F0C8
:10087000A3DFFA8032E309F608DFFA806EE309F2BB
:1008800008DFFA806688828C83E309F0A3DFFA80B0
:100890005A89828A83E0A3F608DFFA804E89828A29
:1008A00083E0A3F208DFFA804280D280FA80C6801B
:1008B000D4805580F28029801080A680EA809A80BA
:1008C000A880DA80E280CA802988848C8589828A1F
:1008D00083E493A30586F0A30586DFF5DEF3800BA2
:1008E00089828A83E493A3F608DFF9ECFAA9F0ED94
:1008F000FB2288848C8589828A83E0A30586F0A305
:100900000586DFF6DEF480E389828A83E493A3F22E
:1009100008DFF980D688F0EF60010E4E60CD88F0D8
:10092000ED2402B4040050C3F582EB2402B40400A9
:1009300050B923234582239008A973E5082469F55B
:1009400082E43402F583E005082290026630070352
:10095000900269E475F0011207B60205A22000E9D1
:100960007F2ED2008018EF540F2490D43440D4FF4F
:1009700030040BEF24BFB41A0050032461FFE509D3
:1009800060021509050CE50C7002050B30070E908E
:100990000266E475F0011207B6EF0205E802288F3F
:1009A0007403D2078003E4C207F5089002661207B9
:1009B000CDE4F509F50BF50CE50960077F20120978
:1009C0007E80F5750AFFC201C200C202C203C205E1
:1009D000C206C20812094AFF700D3007057F0012D7
:1009E000098FAF0CAE0B22B4255FC2D5C204120929
:1009F0004AFF24D0B40A00501A75F00A780930D59D
:100A00000508B6FF0106C6A426F620D5047002D25A
:100A10000380D924CFB41A00EF5004C2E5D20402F7
:100A20000C81D20180C6D20080C0D20280BCD2D557
:100A300080BAD20580B47F2012097E20020774019B
:100A4000B5090040F112093BFF12097E0209B8D234
:100A500008D206809512093BFB12093BFA12093BAA
:100A6000F94A4B7006797F7A0D7BFF20022EE5094B
:100A7000602A7E008E827583001205BB60060EEE32
:100A8000650A70F0C2D5EBC0E0EAC0E0E9C0E0EE74
:100A9000120CE2D0E0F9D0E0FAD0E0FB1205A2FFA0
:100AA00060AAEBC0E0EAC0E0E9C0E012097ED0E055
:100AB0002401F9D0E03400FAD0E0FBE50A0460DC60
:100AC000D50AD98087D20280A2120CC460F7E50A49
:100AD0007001041202F8A90A600DE50A600914F514
:100AE0000A120D6CEF60F3EA30E702F404C3995088
:100AF00079EAF4250A0430E701E404F50A800D12CE
:100B00000CC460C1EA050A250A1202F8EA900295AF
:100B1000F030E701E4250A04D50A04200501141287
:100B20000CE2E4C0E0120D6C900295E0601320E747
:100B30000714F0120966802204F0D0E014C0E07FB0
:100B400000120966E50A600712095D150A800B307C
:100B5000050312095DD0E00209B8D0E00480C41298
:100B60000CC4609EE50A041202F8900295EAF0E5D2
:100B70000A2005026001042404120CE274FF04C080
:100B8000E0120D6C120966E50A20050260031209E5
:100B90005DD0E0B50AE87F45120970900295E07FCC
:100BA0002B30E7047F2DF404C0E012097ED0E075FD
:100BB000F00A84C0F0120967D0E01209670209B890
:100BC000791080027908C206C2088008D2D5790A55
:100BD0008004790AC2D5E50A047002F50AE4FAFD38
:100BE000FEFF12093BFC7B0820011312093BFD7B31
:100BF0001030000A12093BFE12093BFF7B20EC3348
:100C000082D592D55013C3E43000069FFFE49EFEC8
:100C1000E42001039DFDE49CFCE4CBF8C201EC70F0
:100C20000CCFCECDCCE824F8F870F38017C3EF33A7
:100C3000FFEE33FEED33FDEC33FCEB33FB9940026A
:100C4000FB0FD8E9EB300105F8D0E0C448B201C091
:100C5000E00AEC4D4E4F78207B0070C2EAB50A00E6
:100C600040BCC0E0120CE4D0F0D0E0200104C4C0CD
:100C7000E0C4B201C0F0120967D0F0D5F0EB020970
:100C8000B81207E20A55530BC0580A264C0A2242F2
:100C90000BC44F0BCC440BCC490A3B430BD2550A37
:100CA000FF460B5F450AC9470D9F500A2A2D0A2EA1
:100CB0002E0A512B0A32230A4F200D882A09EA48AE
:100CC00000000A49E50AB4FF03750A0612093BFC55
:100CD00012093BFD12093BFE12093BFF90028E02F6
:100CE0000335790AA2D5200314300509B91002048E
:100CF00004B9080104A2D5200602500104200268AC
:100D00009202B509005034C0E07F203003197F30D3
:100D1000A20272067205500F120D3BC202C206C239
:100D200005C2087F30800F300503E9C0E012097E5C
:100D3000300503D0E0F9D0E0B509CC3005177F309D
:100D4000B9100C12097E7F583004077F788003B9F0
:100D5000080312097E3002057F2D02097E7F2020C4
:100D600008F87F2B2006F322920280CF7F00B40781
:100D700000500B248EF582E43402F583E0FF222834
:100D80006E756C6C2900D20112093B3001F8C2016A
:100D9000780930D50108F60209EA2D504349581266
:100DA000093B2403B405004001E4900D9A93120915
:100DB0006F743A12096FD203750904020BC09002D6
:100DC00006E4F0A3E4F07BFF7A227987C003C00237
:100DD000C0017B017A027908A801AC02AD03D00101
:100DE000D002D0037E007F28120915900258E4F04B
:100DF000900259E4F090025AE4F090025DE4F09021
:100E0000025E7403F0A374E8F0900260740BF0A328
:100E100074B8F0900262E4F0900263E4F09002642F
:100E2000E4F0900265E4F0D2AF9044F474FDF01267
:100E300029781229A21229B7122B63122B551228D6
:100E4000F8122B097F00122A287F00122A387F010E
:100E5000122720EF601112215690025BEEF0A3EFF3
:100E6000F09002597401F0122B76EF20E103020F8B
:100E7000A0900259E0FFEF64016003020FA090020E
:100E80005DE0FFEF7003020F5490025EE0FEA3E00E
:100E9000FFEF2458FFEE3402FE90025BE0FCA3E07B
:100EA000FDC3ED9FEE6480F8EC64809850417B01B7
:100EB0007A027930C003C002C0017BFF7A227945F3
:100EC0009002691207CD90025BE0FCA3E0FDEC12FA
:100ED000023E7B687AE8799F783A12001A90026C99
:100EE0001207A1D001D002D0031209A0020F9290E4
:100EF0000260E0FEA3E0FFEF24A8FFEE34FDFE90C9
:100F0000025BE0FCA3E0FDD3ED9FEE6480F8EC64AF
:100F10008098407E7B017A027930C003C002C00114
:100F20007BFF7A22795D9002691207CD90025BE027
:100F3000FCA3E0FDEC12023E7B687AE8799F783AE8
:100F400012001A90026C1207A1D001D002D0031235
:100F500009A0803E7B017A027930C003C002C00143
:100F60007BFF7A2279759002691207CD90025BE0CF
:100F7000FCA3E0FDEC12023E7B687AE8799F783AA8
:100F800012001A90026C1207A1D001D002D00312F5
:100F900009A07B017A02793012249C900259E4F076
:100FA000900262E0FFEFB4020C7F00122A287FC893
:100FB000122A38801F900262E0FFEFB4010C7FC854
:100FC000122A287F00122A38800A7F00122A287FDE
:100FD00000122A381221D690025AEFF090025AE0FD
:100FE000FFEF7003020E4E900258E4F090025AE0B8
:100FF000FF900258E0FEEEC39F40030211FD12294C
:10100000CCEF54FFFF900258E0FE74082EF582E406
:101010003402F583EFF0900258E0FF74082FF58258
:10102000E43402F583E0FFEF64766015900258E047
:10103000FF74082FF582E43402F583E0FFEFB45625
:101040000890025DE4F00211F4900258E0FF740889
:101050002FF582E43402F583E0FFEF6473601590AE
:101060000258E0FF74082FF582E43402F583E0FFB4
:10107000EFB4530990025D7401F00211F49002582C
:10108000E0FF74082FF582E43402F583E0FFEF649B
:10109000626015900258E0FF74082FF582E4340274
:1010A000F583E0FFEFB4421390025BE0FEA3E0FFA4
:1010B00090025EEEF0A3EFF00211F4900258E0FF10
:1010C00074082FF582E43402F583E0FFEF64776063
:1010D00015900258E0FF74082FF582E43402F5837E
:1010E000E0FFEFB4571390025BE0FEA3E0FF900235
:1010F00060EEF0A3EFF00211F4900258E0FF7408E4
:101100002FF582E43402F583E0FFEF646C60169003
:101110000258E0FF74082FF582E43402F583E0FF03
:10112000EF644C703C900262E0FFEF700990026245
:101130007402F00211F4900262E0FFEF64016003B8
:101140000211F47F00122A287F00122A387FFA7ECB
:10115000007D007C001223199002627402F00211DB
:10116000F4900258E0FF74082FF582E43402F5830E
:10117000E0FFEF64726016900258E0FF74082FF5EC
:1011800082E43402F583E0FFEF645270379002622C
:10119000E0FFEF70089002627401F08057900262E5
:1011A000E0FFEF6402704D7F00122A287F00122AB0
:1011B000387FFA7E007D007C001223199002627451
:1011C00001F08030900258E0FF74082FF582E4347B
:1011D00002F583E0FFEF64666015900258E0FF744B
:1011E000082FF582E43402F583E0FFEFB446059062
:1011F0000262E4F0900258E004F0020FEC90025812
:10120000E0FF74082FF582E43402F583E4F012263F
:10121000A09002597401F0020E4E22900266EFF087
:10122000900267ECF0A3EDF0900269EAF0A3EBF016
:1012300090026CE0FFEFD39400500302141A900266
:101240006CE0FFEFD39401400302141A900266E0B1
:10125000FFEF1207E212680112680412950712C02C
:101260000812EB0A0000131690026BE0FFEFD39414
:101270000F40117B0C7A017918122B1590026DEF3B
:10128000F002131B7B0C7A01791C122B1590026D56
:10129000EFF002131B90026BE0FFEFD3940F4010AE
:1012A0007B0C7A017919122B1590026DEFF0806B8F
:1012B0007B0C7A01791D122B1590026DEFF0805B8B
:1012C00090026BE0FFEFD3940F40107B0C7A017912
:1012D0001A122B1590026DEFF080407B0C7A017989
:1012E0001E122B1590026DEFF0803090026BE0FF24
:1012F000EFD3940F40107B0C7A01791B122B1590C1
:10130000026DEFF080157B0C7A01791F122B15907E
:10131000026DEFF0800590026DE4F090026DE0FF49
:10132000EF3395E0FEFDFC7B207A00790078001217
:10133000062BA804A905AA06AB07900267E0FEA346
:10134000E0FFE4FCFD12061090026E1207A190026D
:101350006E120789AB07AA06A905A804A804A90567
:10136000AA06AB07900269E0FEA3E0FFE4FCFD12D1
:10137000062B9002741207A17B007A807900780016
:101380009002741207891206B6900272EEF0A3EF73
:10139000F090026BE0FFEFC3940E5047900272E0B2
:1013A000FEA3E0FF90026BE0FDC3740E9DFDEFA86D
:1013B00005088005CEC313CE13D8F9FF900272EE54
:1013C000F0A3EFF090026BE0FFEF04FF90026CE0FF
:1013D000FEEE75F003A424DCF582E43402F583EF1D
:1013E000F0801690026CE0FFEF75F003A424DCF5AA
:1013F00082E43402F583740FF0900272E0FEA3E001
:10140000FF90026CE0FDED75F003A424DAF582E4B0
:101410003402F583EEF0A3EFF0227F0012298D2233
:101420007B007A4679E8122B15EF4405FD7B007AA4
:101430004679E8122B21751400E514C3940A503A3A
:10144000AF14EF75F005A42484F582E4342BF58302
:10145000AF82AE838E088F09AE08AF098F828E836C
:101460001207D6AE08AF098F828E83740393FC7483
:101470000493FD122930051480BF751400E514C3D0
:1014800094015078AF14EF75F008A424B6F582E407
:10149000342BF583AF82AE838E0A8F0BAE0AAF0B6F
:1014A0008F828E831207D68B0C8A0D890EAE0AAFFF
:1014B0000B8F828E83A3A3A31207D68B0F8A10896A
:1014C00011AE0AAF0B8F828E83740693F5127407E8
:1014D00093F513AB0FAA10A911C003C002C001AB52
:1014E0000CAA0DA90E9002101207CDD001D002D087
:1014F00003AF13AE1212275F051480817B087A00B8
:10150000790012283B905883740AF07B017A507955
:1015100003122B15EF4402FD7B017A507903122B45
:10152000217B017A507913122B15EF4402FD7B01C8
:101530007A507913122B219043A0E0FFEF4440FF33
:101540009043A0EFF09043C2E0FFEF4410FF9043C0
:10155000C2EFF07B087A05797CC003C002C0017B32
:10156000007A5179409002101207CDD001D002D0FC
:10157000037F0A7E0012275F7B087A057988C00303
:10158000C002C0017B007A5179629002101207CD2F
:10159000D001D002D0037F087E0012275F9044F470
:1015A0007401F0904322E0FFEF4408FF904322EFE4
:1015B000F09046ECE0FFEFC3940550069046897426
:1015C0003AF090480074F1F012160590480074B19A
:1015D000F012261D7B007A4379A0C003C002C0012F
:1015E0007B007A4379B09002101207CDD001D0026F
:1015F000D0037F0E7E0012275F9043B0E0FFEF54D0
:10160000FDFFEFF0227B007A4079807D007C0012A4
:101610002AC89040827450F07B007A4079847D170C
:101620007C00122AC89040867418F07B007A4079BA
:10163000887D177C00122AC890408A7418F07B00BD
:101640007A40798C7D197C00122AC890408E7418DB
:10165000F07B007A4079907D2F7C75122AC89040EB
:10166000927419F07B087A057990C003C002C0011A
:101670007B007A4179009002101207CDD001D00290
:10168000D0037F047E0012275F9043007402F09025
:1016900040007408F09042007403F07B0C7A0179EA
:1016A00008122B159046A1EFF07B007A4279227D3B
:1016B000087C00122AC87B007A4279207D517C1276
:1016C000122AC890020AE4F07F197E007D007C0097
:1016D0009002061207A1900206120789D3EF940028
:1016E000EE9400404E90020AE0FFEF6403604490E5
:1016F0004225E0FFEF5401FF7E0090020AE0FEEE7B
:1017000025E0FEEE4FFFEF5403FF90020AEFF07F5B
:10171000E07E017D007C00122800900206120789FD
:101720007BFF7AFF79FF78FF1206109002061207FE
:10173000A180A3900206120789EF4E70057F031265
:1017400029F67B007A4079047D007C01122AC8903A
:1017500040047407F0904006E4F09040087448F0AC
:10176000904004E4F09040017402F090400B740447
:10177000F09043A2E0FFEF441FFF9043A2EFF090F0
:1017800043A1E0FFEF4401FF9043A1EFF09043A09D
:10179000E0FFEF4480FF9043A0EFF022900267EE5D
:1017A000F0A3EFF0900269EDF0122B3790026BEF8F
:1017B000F0122B2D90026CEEF0A3EFF090026CE093
:1017C000FEA3E0FF900267E0FCA3E0FDED6F700276
:1017D000EC6E70030219309043A2E0FFEF5401FF5A
:1017E00090026AEFF090026BE0FFEF705E90026C87
:1017F000E0FEA3E0FFEF4E600C900267E0FEA3E086
:10180000FFEF4E704690026CE0FEA3E0FFEF4E70DB
:101810001D7B027A407980900267E0FCA3E0FD1214
:101820002ACA904082E0FFEF54BFFFEFF0229040C1
:1018300082E0FFEF4440FFEFF07B027A4079809036
:101840000267E0FCA3E0FD122ACA2290026AE0FFD0
:10185000EF606C904001E4F09040107401F0904013
:1018600014E4F0904008E0FFEF547FFFEFF0904069
:1018700082E0FFEF5408FF7E00EF4E600C9002679D
:10188000E0FEA3E0FFEF4E70367B027A40790290D3
:10189000026CE0FCA3E0FD122ACA9040017407F03C
:1018A000904001E0FFEF5401FF7E00EF4E70F19099
:1018B00043A2E0FFEF54FEFFEFF0904001E4F09010
:1018C00043A2E0FFEF5401FF7E00EF4E603A7B023F
:1018D0007A407902900267E0FCA3E0FD122ACA90E8
:1018E0000269E0FFEF60047F0280027F00EF4401A5
:1018F000FF904001EFF0904001E0FFEF5401FF7EC8
:1019000000EF4E602B80EF227B027A4079809002BC
:1019100067E0FCA3E0FD122ACA9043A2C083C08204
:10192000E0FF90026AE0FEEF4EFFD082D083EFF03E
:1019300022900267EEF0A3EFF0900269EDF0122B17
:101940004B90026BEFF0122B4190026CEEF0A3EF84
:10195000F090026CE0FEA3E0FF900267E0FCA3E0E1
:10196000FDED6F7002EC6E7003021AC59043A1E0AA
:10197000FFEF5401FF90026AEFF090026BE0FFEF7F
:10198000705E90026CE0FEA3E0FFEF4E600C9002F0
:1019900067E0FEA3E0FFEF4E704690026CE0FEA30E
:1019A000E0FFEF4E701D7B027A417900900267E004
:1019B000FCA3E0FD122ACA904102E0FFEF54BFFFF2
:1019C000EFF022904102E0FFEF4440FFEFF07B0296
:1019D0007A417900900267E0FCA3E0FD122ACA2256
:1019E00090026AE0FFEF606C904001E4F0904014D8
:1019F0007401F0904010E4F0904008E0FFEF547F55
:101A0000FFEFF0904102E0FFEF5408FF7E00EF4E41
:101A1000600C900267E0FEA3E0FFEF4E70367B02A1
:101A20007A40790290026CE0FCA3E0FD122ACA9091
:101A300040017407F0904001E0FFEF5401FF7E0089
:101A4000EF4E70F19043A1E0FFEF54FEFFEFF090F6
:101A50004001E4F09043A1E0FFEF5401FF7E00EF6E
:101A60004E603A7B027A407902900267E0FCA3E084
:101A7000FD122ACA900269E0FFEF60047F02800233
:101A80007F00EF4401FF904001EFF0904001E0FF44
:101A9000EF5401FF7E00EF4E602B80EF227B027A35
:101AA000417900900267E0FCA3E0FD122ACA90434E
:101AB000A1C083C082E0FF90026AE0FEEF4EFFD03B
:101AC00082D083EFF022759300780075834675828B
:101AD000E8E04401F0009046ECE0F99046FAE0FAC4
:101AE000B903225420B40012B8001AEA900FFFF094
:101AF0007401900FFEF09046F6F0900FFEE0600546
:101B0000900FFFE0FA90480074C0F07581219000BA
:101B10000078007910E4F0A3D8FCD9FAEA9002F634
:101B2000F002001175150F7516FD121420021B6BC3
:101B3000020DBEE493A3F8E493A34003F68001F200
:101B400008DFF48029E493A3F85407240CC8C333B6
:101B5000C4540F4420C8834004F456800146F6DF85
:101B6000E4800B01020408102040809022AFE47E44
:101B7000019360BCA3FF543F30E509541FFEE4937A
:101B8000A360010ECF54C025E060A840B8E493A341
:101B9000FAE493A3F8E493A3C8C582C8CAC583CA6C
:101BA000F0A3C8C582C8CAC583CADFE9DEE780BE24
:101BB000900266EFF09002EBE4F0900266E0FFEF37
:101BC00064016003021C93904E007438F0904E0242
:101BD0007406F0904E037408F0904E04E4F0904EBA
:101BE00005E4F0904E06741FF0904E08E4F0904E1D
:101BF00009E4F0904E0AE4F0904E147401F090580D
:101C0000847414F09058857405F09058867416F01A
:101C1000905887E4F090588A7444F090588B744838
:101C2000F090588C7401F090588E7402F090588F98
:101C30007422F09058907428F090589174EBF07FD3
:101C4000521224F59058947458F0905895E4F090FE
:101C5000589A7405F090589B7402F090589CE4F0E8
:101C600090589DE4F07F001229157F337E037D009C
:101C70007C009002E11207A17D017F037E00121714
:101C80009C7D017F0F7E001219317C277DC27F1D54
:101C90001220D4221229E1900267EFF09002E5E0D1
:101CA000FF900266EFF09043AAE0FFEF4401FFEFE0
:101CB000F09043AAE0FFEF4410FFEFF09043BAE04A
:101CC000FFEF4401FFEFF09043BAE0FFEF4410FF55
:101CD000EFF09046F8E0FFEF4402FFEFF09046F996
:101CE000E0FFEF4402FFEFF0905891E0FFEF440374
:101CF000FFEFF07F037E001227C49046F8E0FFEF6D
:101D000054FDFFEFF09046F9E0FFEF54FDFFEFF0D8
:101D1000905877E0FFEF4406FFEFF0905882747A16
:101D2000F09043A1E0FFEF4401FFEFF09043B1E0FA
:101D3000FFEF4401FFEFF09043A2E0FFEF4401FF0B
:101D4000EFF09043B2E0FFEF4401FFEFF09044DB8F
:101D50007420F09044C37420F0900267E0FF1229D1
:101D60004922C0E0C083C082C085C084C086758619
:101D700000C093759300C0D075D000C006C0079016
:101D80000297E4F0A2AFE433FF900298EFF0D2AFF5
:101D90009044F474FDF0906465E0FF900296EFF0DB
:101DA000900296E0FFEF30E568906443E0FF90001A
:101DB00001E0FE74072EF582E43400F583EFF09025
:101DC00002977401F0900297E0FFEF6038900005F1
:101DD000E0FFEF60069000047401F0900001E00461
:101DE000F0900001E0FFEFC394FF4005900001E494
:101DF000F0900006E0FF900001E0FEEEB5070690CF
:101E000000057401F0906465E0FF900296EFF080A9
:101E10008F900298E0FFEF24FF92AFD007D006D05A
:101E2000D0D093D086D084D085D082D083D0E032F9
:101E30009002E57401F09002E0E4F07F101228B601
:101E40007F101228D77D077F1D1223DE90589674CD
:101E500007F0905897E4F090589EE4F0905B07E00C
:101E6000FFEF4418FFEFF0905893E4F0905B88E4A4
:101E7000F0905B89E4F0905880740AF0905881E407
:101E8000F0905883E4F09058887412F09058897458
:101E900013F090588DE4F0904E017414F090026BA2
:101EA000740CF090026C7401F07B007A807D6B7C86
:101EB0008D7F0212121B9002E5E0FFEF75F003A484
:101EC00024DCF582E43402F583E0FF904E0EEFF05F
:101ED0009002E5E0FFEF75F003A424DAF582E43424
:101EE00002F583E0FCA3E0FD7B027A4E790C122A16
:101EF000CA9002E5E0FF121BB02290026BEFF09057
:101F00000002E0FF90026CEFF0900106E0FF90020B
:101F10006DEFF090026DE0FF90026CE0FEEEC39F6B
:101F2000502690026DE0FF7E00EF24FFFFEE34FFAD
:101F3000FE90026CE0FD7C00EFB50508EEB50404F0
:101F40007F0180027F00801890026DE0FF90026C9C
:101F5000E0FEC3EE9FFFEFB4FE047F0180027F002E
:101F6000EF709C90026CE0FF90026DE0FEEEB50712
:101F700014906466E0FFEF20E20B90026BE0FF90AC
:101F80006445EFF02290026CE0FFEFC394FF400540
:101F900090026CE4F090026BE0FF90026CE0FE7443
:101FA000072EF582E43401F583EFF090026CE00433
:101FB000F090026CE0FF900002EFF022C0E0C083DE
:101FC000C082C085C084C086758600C093759300AA
:101FD000C0D075D000C006C007A2AFE433FF9002A6
:101FE00099EFF0D2AF9044F474FDF0900002E0FF5E
:101FF000900106E0FEEE6F6037906466E0FFEF2030
:10200000E22E900106E0FFEFC394FF400590010629
:10201000E4F0900106E0FF74072FF582E43401F547
:1020200083E0FF906445EFF0900106E004F080BB90
:10203000900299E0FFEF24FF92AFD007D006D0D0F6
:10204000D093D086D084D085D082D083D0E0321295
:102050002B5C900006E0FF900267EFF0900001E03B
:10206000FF900268EFF0900005E0FFEF700E900225
:1020700068E0FF900267E0FEEE6F6045900267E067
:10208000FF74072FF582E43400F583E0FF900266C9
:10209000EFF0900267E004F0900267E0FFEFC39476
:1020A000FF4005900267E4F0900267E0FF900006B1
:1020B000EFF0900005E0FFEF6011900005E4F08084
:1020C0000A906443E0FF900266EFF0122B559002F5
:1020D00066E0FF22900267EFF0900268ECF0A3ED5B
:1020E000F0900267E0FFEFD3941F5003D38001C349
:1020F00040057F0012298D900267E0FFEF541FFF1B
:102100007E00EF25E0FFEE33FEEF2400FFEE3444C7
:10211000FEAA06A9077B011227F390026AEEF0A33C
:10212000EFF0900267E0FF7E02EF8EF0A4FFAEF0CA
:10213000EF2400FFEE3444FEAA06A9077B019002BB
:1021400068E0FEA3E0FFAD07AC06122ACA90026A5F
:10215000E0FEA3E0FF22904E14E0FFEF5403FF9057
:102160000268EFF0900268E0FFEFD39401503290E4
:102170004E11E0FF7E00900266EEF0A3EFF09002B9
:1021800066E0FEA3E0FFEF7F00FE904E10E0FD7CD6
:1021900000EE4CFEEF4DFF900266EEF0A3EFF080F4
:1021A0001F7B027A4E79101227F3900266EEF0A39D
:1021B000EFF0900268E0FFEFB40305904E12E0FFED
:1021C0009002EBE0FFEF60059002E0E4F090026621
:1021D000E0FEA3E0FF22122B5C900001E0FF9000E4
:1021E00006E0FEEEB5071A900005E0FFEFD394007D
:1021F000400890026674FFF08042900266E4F0802E
:102200003B900001E0FF900006E0FEEEC39F5015FA
:10221000900006E0FF900001E0FEC3EE9FFF9002F9
:1022200066EFF08017900006E0FFC374FF9FFF90F9
:102230000001E0FEEF2EFF900266EFF0122B5590AA
:102240000266E0FF2270686F746F203D20426C616F
:10225000636B2025362E34665B565D0A0070686F0E
:10226000746F203D2057686974652025362E3466CA
:102270005B565D0A0070686F746F203D2025362E16
:1022800034665B565D0A007965730A000000000041
:10229000000000000000000000000000000000003E
:1022A00000000000000000000000000000000042EC
:1022B000030000004203020000410304004402F254
:1022C000016E36004402ED00005DC04102F1184489
:1022D00002F72EE000004103050041000300410128
:1022E00006004100020041000600410001004100DB
:1022F0000500410004004102E0004102EB00410200
:10230000E6004102EC004102E501410306FF430201
:10231000FB000000410307000090FFFC12080812B8
:1023200007A1851583851682120789D3EF9400EEE5
:102330009480402F9002F712078912280085158398
:10234000851682C083C082120789EF2400FFEE3415
:1023500080FEED34FFFDEC34FFFCD082D083120709
:10236000A180BF9002ED1207898515838516821220
:10237000079512062B1228009000041208082290DC
:102380006472E0FFEF54C0FF900266EFF0900266C7
:10239000E0FFEF4409FF906472EFF0906491E0FF7A
:1023A000EF4401FFEFF07FFF122A087FFF122A1887
:1023B0007F00122A287F00122A387F00122A481232
:1023C00029E1900267EFF0906491E0FFEF4410FF85
:1023D000EFF0900267E0FF122949122AD7229002FB
:1023E00066EFF0900267EDF0900267E0FFEFD394A4
:1023F000075003D38001C340057F0012298D90024E
:1024000066E0FFEFD3941F5003D38001C340057FE4
:102410000012298D900267E0FFEF5407FF7E00EF66
:1024200075F020A4FFAEF0900266E0FEEE541FFEB1
:1024300074802EF582E43444F583EFF022906474C6
:10244000E0FFEF54C0FF900266EFF0900266E0FFFD
:10245000EF4409FF906474EFF0906497E0FFEF445D
:1024600001FFEFF07FFF122A687FFF122A787F00BA
:10247000122A887F00122A987F00122AA81229E1C6
:10248000900267EFF0906497E0FFEF4410FFEFF0E9
:10249000900267E0FF122949122AE4229002661294
:1024A00007CD900269E4F0A3E4F0900003E0FFEFB1
:1024B00060429002661207AD900269E0FEA3E0FF61
:1024C000E92FF9EA3EFA1205A2FFEF6027900266B3
:1024D0001207AD900269E0FEA3E0FFE92FF9EA3EA2
:1024E000FA1205A2FF121EFA900269E475F00112B9
:1024F00005FA80BE22900267EFF01229E19002688F
:10250000EFF09046F8E0FFEF4403FFEFF09046F95C
:10251000E0FFEF4403FFEFF0900267E0FF90589276
:10252000EFF07F037E001227C49046F8E0FFEF54DF
:10253000FCFFEFF09046F9E0FFEF54FCFFEFF09066
:102540000268E0FF12294922900269EFF0900269C7
:10255000E0FFEFC394025039900269E0FFEF25E0FD
:10256000247EF582E4342BF583E493FE740193FF1B
:102570008F828E83C083C082E0FF900269E0FEEE0E
:10258000902B8293FEEEF4FEEF5EFFD082D083EFBD
:10259000F022900268EFF0900268E0FFEFC394022F
:1025A0005036900268E0FFEF25E0247EF582E434A7
:1025B0002BF583E493FE740193FF8F828E83C08397
:1025C000C082E0FF900268E0FEEE902B8293FEEF67
:1025D0004EFFD082D083EFF022C2D5E830E70FB2B1
:1025E000D5E4C39BFBE49AFAE499F9E498F8EC305B
:1025F000E717B2D512260F1206B6E4C39BFBE49A86
:10260000FAE499F9E498F880031206B630D50DE49F
:10261000C39FFFE49EFEE49DFDE49CFC227B0C7ABC
:102620000179CF122B15900206EFF0900206E0FF21
:10263000EF5407FF90586EEFF0900206E0FFEFC4F2
:10264000540FFFEF540FFF90586FEFF090516D74DF
:1026500040F0905B007404F09058767444F02212BD
:1026600029E1900266EFF0906493E0FFEF4420FFD1
:10267000EFF0906495E0FFEF4410FFEFF09044C05E
:102680007401F0906496E0FFEF4410FFEFF0904487
:10269000C07402F0122961900266E0FF12294922FB
:1026A0001229E1900266EFF0906493E0FFEF44019D
:1026B000FFEFF0906493E0FFEF54FEFFEFF0900225
:1026C00066E0FF122949122B5C900006E4F09000AE
:1026D00001E4F0900005E4F0900004E4F0122B55C2
:1026E000227C1D7D627F001220D47D077F00122393
:1026F000DE9064837472F09064857420F07C1F7D9A
:10270000BC7F011220D47D077F011223DE90642656
:102710007407F09064367448F09064867402F02276
:10272000900266EFF09002EBE0FFEF600C9002E0A9
:10273000E0FF900267EFF0800E904E01E0FFEF5453
:1027400001FF900267EFF0900267E0FFEF64016025
:1027500008900266E0FFEF60CC900267E0FF227510
:102760008600EF4E6027EF60010E75930090021017
:10277000E0F595A3E0F585A3E0F5848B938A838942
:1027800082E0A30586F0A31586DFF6DEF4E4F59378
:10279000F59522906465E0FFEF547FFF900266EFAD
:1027A000F0900004E0FFEF6013900266E0FFEF445A
:1027B00080FF900266EFF0900004E4F0900266E083
:1027C000FF223232EEFA9002F1E0F88FF0A4FFAE71
:1027D000F0E88AF0A42EFEE5F03400FDEF24C9FFF6
:1027E00078FFEE38FEED38FDE438FC500302280097
:1027F000228B938A838982E0FFA3E0FE75930022F7
:10280000EC4D4E700D78FCEF24E950032840FD227A
:1028100000007BF178DA0000EF28FF78FFEE38FE49
:10282000ED38FDEC38FC50E7EF2BFFEE38FEED38CD
:10283000FDEC38FC40F22205020304ACEAADA08BAB
:10284000938A838982E0F96017A3E0F5EAA3E0F5B3
:10285000A0A3E060F4FAA3E0F8A3E0F2DAF8D9E983
:102860008DA08CEAE4F59322900268E4F09002686F
:10287000E0FFEFC394025010900268E0FF12254879
:10288000900268E004F080E590030674FFF022EF08
:10289000B40A07740D12289A740A309811A899B8CE
:1028A000130CC2983098FDA899C298B811F63099C7
:1028B000FDC299F59922900266EFF0904082C083A4
:1028C000C082E0FF900266E0FEEE54F8FEEF4EFF9D
:1028D000D082D083EFF022900266EFF0904102C0E8
:1028E00083C082E0FF900266E0FEEE54F8FEEF4EF9
:1028F000FFD082D083EFF0229002E6E0FFEF70116C
:102900009002ECE0FFEF7003121E309002E67401BB
:10291000F0121C9422900267EFF012286890026770
:10292000E0FF122592900267E0FF900306EFF0228D
:10293000EC4D6011ED60010C8B938A838982E4F089
:10294000A3DDFCDCFA75930022EF54016004D2AFE2
:102950008002C2AFEF5402FF9044F4E054FD4FF008
:10296000229043A2E0FFEF4408FFEFF09043B2E073
:10297000FFEF4408FFEFF022900304E0FFEF70093F
:1029800012237F9003047401F0122AF12290FFFFBA
:10299000120808EFF09046EA7401F0900001120866
:1029A0000822900305E0FFEF700912243D90030513
:1029B0007401F0122AFD22900003E0FFEF7009126B
:1029C00026E19000037401F012265F221227937E05
:1029D00000EF7D00FC12204F7E00EC4EFEED4FFF1D
:1029E000229044F4E0F84402F0E85402FF10AF01F2
:1029F0002274014FFF2290020BEFF090020BE0FFD8
:102A000090020BEFF080FE22900268EFF0900268D7
:102A1000E0FF906401EFF022900268EFF09002680E
:102A2000E0FF906441EFF022900268EFF0900268BE
:102A3000E0FF906421EFF022900268EFF0900268CE
:102A4000E0FF906431EFF022900268EFF0900268AE
:102A5000E0FF906481EFF022906461E0FF900268F3
:102A6000EFF0900268E0FF22900268EFF0900268B9
:102A7000E0FF906407EFF022900268EFF0900268A8
:102A8000E0FF906447EFF022900268EFF090026858
:102A9000E0FF906427EFF022900268EFF090026868
:102AA000E0FF906437EFF022900268EFF090026848
:102AB000E0FF906487EFF022906467E0FF90026887
:102AC000EFF0900268E0FF228B938A838982EDF019
:102AD000A3ECF075930022122A58EF30E405122B74
:102AE0006A80F422122AB8EF30E405122B7080F4C9
:102AF00022906472E0FFEF4480FFEFF02290647454
:102B0000E0FFEF4480FFEFF022904E00E0FFEF4443
:102B100001FFEFF0228B938A838982E0759300FF97
:102B2000228B938A838982EDF0759300227B027A4F
:102B30004079801227F322904082E0FFEF5407FF94
:102B4000227B027A4179001227F322904102E0FFB2
:102B5000EF5407FF229044C07401F0229044C874DF
:102B600001F0229044C07402F022906451E0FF22F0
:102B7000906457E0FF22906466E0FF2232325B03EC
:102B8000432440000051000040005150001000510B
:102B9000C000100051F0001001000002800103008D
:102BA0000D0001140008000140000A00014C000261
:0E2BB0000001500000200102800804FC00809B
:00000001FF
