:100000000C943A000C9457000C9457000C94570031
:100010000C9457000C9457000C9457000C94570004
:100020000C9457000C9457000C9457000C945700F4
:100030000C9457000C9457000C9457000C945700E4
:100040000C9457000C9457000C9459000C945700D2
:100050000C9457000C9457000C9457000C945700C4
:100060000C946E010C9457006364696E6F70737525
:1000700078585B0011241FBECFEFD4E0DEBFCDBFA8
:1000800011E0A0E0B1E0ECE6F9E102C005900D92CC
:10009000A437B107D9F712E0A4E7B1E001C01D927F
:1000A000AB38B107E1F70E944D030C94B40C0C94EB
:1000B00000001F920F920FB60F9211242F933F93BF
:1000C0004F935F936F937F938F939F93AF93BF9360
:1000D000EF93FF938091C600E0917601F091770154
:1000E0000995FF91EF91BF91AF919F918F917F9172
:1000F0006F915F914F913F912F910F900FBE0F9095
:100100001F901895DF93CF9300D0CDB7DEB78983CA
:100110006A8389819A818091C00085FFFCCF90938A
:10012000C6000F900F90CF91DF910895DF93CF938A
:1001300000D00F92CDB7DEB789837B836A83898134
:10014000E1ECF0E08081806980837894E981F0E0DF
:100150008A819B81EE0FFF1FEA58FE4F91838083B7
:100160000F900F900F90CF91DF910895DF93CF9371
:100170000F92CDB7DEB78983E981F0E0EE0FFF1F64
:10018000EC58FE4F8081918190938402809383028A
:100190000F90CF91DF910895282F80917401909155
:1001A00075018617970731F48091C00085FFFCCF59
:1001B0002093C60080E090E00895E091FB01F0E01C
:1001C000E558FE4F80818823A1F09091FB0180913A
:1001D000FC01981770F4E091FB01F0E0E558FE4F48
:1001E00090818091FB018F5F8093FB01292F30E08C
:1001F00002C02EEF3FEFC9010895982F80917E0233
:100200008F3718F02EEF3FEF0DC0E0917E02F0E047
:10021000E150FE4F908380917E028F5F80937E023B
:10022000292F30E0C9010895E091FB01F0E0E55885
:10023000FE4F80818823A1F09091FB018091FC0109
:10024000981770F4E091FB01F0E0E558FE4F9081C3
:100250008091FB018F5F8093FB01292F30E002C06A
:100260002EEF3FEFC901089590917E02EFEFF1E08C
:10027000E90FF11D80839F5F90937E020895909116
:10028000FB01EBE7F1E0E90FF11D80819F5F9093A7
:10029000FB0108951092800280917E0280937F027C
:1002A00010927E021092780108C080917801882314
:1002B00021F01092780180E00895809180028823D7
:1002C000A1F310927F0210927E02E0917901F091E9
:1002D0007A0183818F7C838381E008951F920F923E
:1002E0000FB60F9211242F933F934F935F936F9309
:1002F0007F938F939F93AF93BF93EF93FF938091DF
:10030000B90090E0887F90708039910509F44BC066
:1003100081399105B4F48037910561F181379105F8
:1003200044F4009709F49CC08036910509F0CAC0D6
:1003300021C080389105B9F18838910509F0C2C013
:1003400056C0883B910509F456C0893B91054CF491
:10035000803A910509F496C0883A910509F0B2C037
:1003600037C0803C910509F440C0883C910509F0F4
:10037000A9C066C08091FD01882351F08091B90029
:1003800090E0887F803709F491E09093FE0117C0D8
:100390008091BC008F7A8093BC008091BC00806803
:1003A0008093BC00A5C08091FB01E82FF0E0909104
:1003B000BB00E558FE4F90838F5F8093FB018091D7
:1003C000BC008F7E8093BC008091BC00806CE8CF25
:1003D00080918002882389F580917F02882369F1CA
:1003E00080917F028093BB00EACF1092BB00809186
:1003F000BC008F7CE7CF809180028823F1F480914C
:100400007F028823D1F090917E0280917F0289172C
:10041000A0F0E0917E02F0E0E150FE4F80818093F9
:10042000BB0080917E028F5F80937E0290917E025E
:1004300080917F02981718F2ABCF1092BB00A8CF23
:100440008091BC008F7C8093BC008091BC00806C4C
:100450008093BC0080918002882309F049C02EC09F
:1004600080E091E00E94C8058091BC008F7D809360
:10047000BC008091BC0080698093BC0081E08093C7
:10048000780136C08091BC008F7C8093BC00809145
:10049000BC00806C8093BC008091FD01882331F00A
:1004A0008091FB01882311F01092FD018091800260
:1004B0008823F1F480917E028823D1F081E080933B
:1004C000800216C08091B90000D000D02DE031E04C
:1004D000EDB7FEB73283218390E0887F90709483DC
:1004E00083830E94B3050F900F900F900F90FFCF62
:1004F000FF91EF91BF91AF919F918F917F916F91FC
:100500005F914F913F912F910F900FBE0F901F90D1
:100510001895DF93CF9300D00F92CDB7DEB78983C4
:100520007B836A838A819B81E981F0E0EE0FFF1F64
:10053000EC58FE4F608171810E942D050F900F9045
:100540000F90CF91DF9108951092FB011092FC0162
:100550001092FE0191E09093FD0110927E021092A4
:100560007F0290938002880F8093BA00662329F05F
:100570008091BA0081608093BA008091BC008F7C2A
:100580008093BC008091BC00846C8093BC008DEF94
:1005900090E06DED70E00E94B40480937901909337
:1005A0007A012091BC0021602093BC0078940895CA
:1005B000EF92FF920F931F93DF93CF9300D000D061
:1005C0000F92CDB7DEB789834A835B836C837D83CB
:1005D0008981EA80FB800C811D8160ED72E183E1FD
:1005E00090E09701A8010E948D0421503040309383
:1005F000C5002093C40088E08093C10086E080930A
:10060000C200E9808CEC90E060E070E00E94B404ED
:10061000EE2DF0E0EE0FFF1FEC58FE4F918380832C
:100620000F900F900F900F900F90CF91DF911F912F
:100630000F91FF90EF900895CF93DF93EC0181E04D
:100640008093FD011092FC011092FB011092780141
:100650000AC080917801882331F0109278011092BD
:10066000FD0180E017C08091FD01882391F7809102
:10067000FB018093FC0181E08093FB018091790173
:1006800090917A010E94AF04209719F08091FE01A9
:10069000888381E0DF91CF910895AF92BF92CF928E
:1006A000DF92EF92FF921F93DF93CF930F92CDB71C
:1006B000DEB780E040E056E960E070E00E94D802DA
:1006C00080917401909175019093840280938302CC
:1006D00088EE93E024EF31E0F9013197F1F70197CB
:1006E000D9F780E291E00E94C80581E061E00E94B4
:1006F000A4028DE291E00E94C8055E010894A11C4D
:10070000B11C77E3C72E71E0D72E68E6E62E61E0D4
:10071000F62EC5010E941C038823D9F38091FC01A9
:1007200000D000D000D0EDB7FEB73196ADB7BEB760
:100730001296DC92CE9211979981928313828483D0
:1007400015820E94B30510E08DB79EB706960FB6CE
:10075000F8949EBF0FBE8DBF19C0E12FF0E0E558A1
:10076000FE4F808100D000D0EDB7FEB73196ADB717
:10077000BEB71296FC92EE921197828313820E946A
:10078000B3051F5F0F900F900F900F908091FC01A9
:10079000181718F360918302709184028AE090E048
:1007A0000E942D05B6CF80E090E00E941C030895C2
:1007B000DF93CF930F92CDB7DEB78983E981F0E065
:1007C000EE0FFF1FEC58FE4F808191810E94FD05C6
:1007D0000F90CF91DF910895DF93CF93CDB7DEB720
:1007E000FE013596619171918091790190917A0124
:1007F000AF010E94FD05CF91DF910895DF93CF9364
:10080000CDB7DEB79E01285F3F4FED81F0E0EE0FE0
:10081000FF1FEC58FE4F808191816E817F81A9017D
:100820000E94FD05CF91DF910895209179013091CB
:100830007A010E94820508954091790150917A01D0
:1008400070E00E9400050895DF93CF93CDB7DEB727
:10085000FE013596619171918091790190917A01B3
:10086000AF010E945E09CF91DF910895DF93CF938E
:100870000F92CDB7DEB78983CB01E981F0E0EE0FAF
:10088000FF1FEC58FE4F608171810E9459050F9047
:10089000CF91DF91089520917E02AFEFB1E0FD018D
:1008A000E20FF11D90832F5F20937E0290917E02D4
:1008B000A90FB11D8C939F5F90937E0208952091A4
:1008C0007E02AFEFB1E0FD01E20FF11D90832F5FDB
:1008D00020937E0290917E02A90FB11D8C939F5FA1
:1008E00090937E0208958091FB01ABE7B1E0FD019A
:1008F000E80FF11D40818F5F8093FB018091FB0128
:10090000A80FB11D2C918F5F8093FB01942F80E085
:1009100030E0282B392BC9010895A1E21A2EAA1B19
:10092000BB1BFD010DC0AA1FBB1FEE1FFF1FA2179F
:10093000B307E407F50720F0A21BB30BE40BF50B9C
:10094000661F771F881F991F1A9469F76095709525
:10095000809590959B01AC01BD01CF010895FC01EC
:1009600083818F7C838308950F931F93CF93DF93AD
:100970008C01EB01009731F46115710519F420E049
:1009800030E038C081E090E06EE070E00E946F0AD5
:10099000FC019C01009771F180E88383209771F03E
:1009A000D387C28781E883838091810290918202FC
:1009B000892B21F4F0938202E09381020115110545
:1009C000C9F01187008783818260838380918302CD
:1009D00090918402892B71F4F0938402E093830256
:1009E0008091850290918602892B21F4F0938602F2
:1009F000E0938502C901DF91CF911F910F91089576
:100A0000A0E0B0E0E6E0F5E00C94870C7C016A0120
:100A1000FA01838180FF19C016161706B4F4EB01A2
:100A2000219787010DC0C6010E94C00BFFEF8F3FC9
:100A30009F0759F0F80181938F010A9719F02197C8
:100A4000209789F7F801108202C0EE24FF24C70125
:100A5000CDB7DEB7E8E00C94A30C0F931F93CF93B0
:100A6000DF938C01EB018B8181FF1BC082FF0DC0E6
:100A70002E813F818C819D812817390764F4E8819C
:100A8000F9810193F983E88306C0E885F985802F11
:100A90000995892B31F48E819F8101969F838E83E6
:100AA00002C00FEF1FEFC801DF91CF911F910F918F
:100AB0000895EF92FF920F931F93CF93DF937C01E2
:100AC0008B01DB0113968C9181FD03C0CFEFDFEF2B
:100AD00013C0C0E0D0E00BC0D8011896ED91FC9196
:100AE0001997B8010995892B11F0CFEFDFEFF701C6
:100AF00081917F01882381F7CE01CDB7DEB7E6E093
:100B00000C94A50CA0E0B0E0E8E8F5E00C94830CB0
:100B1000FC014B015A016901D90113968C9180FFA8
:100B20001AC07F01C0E0D0E010C0C6010E94C00B17
:100B3000BFEF8F3F9B0789F0F70181937F010F5F24
:100B40001F4F0815190588F32196CA15DB0528F4EF
:100B500000E010E0F6CFC0E0D0E0CE01CDB7DEB7C8
:100B6000ECE00C949F0CA0E0B0E0E9EBF5E00C9415
:100B70008D0CFE0135966191719180918302909167
:100B80008402AF010E94FD052096E2E00C94A90CBE
:100B90000F931F93CF93DF938C01E0918302F09129
:100BA0008402838181FF21C0C0E0D0E00DC0E091CC
:100BB0008302F091840220853185BF01F9010995F6
:100BC000892B11F0CFEFDFEFF80181918F0188239E
:100BD00071F7E0918302F0918402208531858AE0EB
:100BE000BF01F9010995892B11F0CFEFDFEFCE019D
:100BF000DF91CF911F910F910895ABE0B0E0E3E05A
:100C0000F6E00C947D0C3C012B015A01FC0117828B
:100C10001682838181FD03C06FEF7FEFC6C19AE02A
:100C2000892E1E010894211C311CF3012381F2013D
:100C300023FD859123FF81912F01882309F4B2C1FF
:100C4000853239F423FD859123FF81912F0185326F
:100C500029F490E0B3010E942D05E7CF982FFF24DF
:100C6000EE249924FFE1FF15D0F09B3269F09C320D
:100C700028F4903259F0933291F40EC09D3249F02D
:100C8000903369F441E024C052E0F52A84E0F82A68
:100C900028C098E0F92A25C0E0E1FE2A22C0F7FC2E
:100CA00029C0892F80538A3070F4F6FE05C0989CC5
:100CB000902C1124980E15C0E89CE02C1124E80E0D
:100CC000F0E2FF2A0EC09E3229F4F6FC6BC140E42C
:100CD000F42A07C09C3619F450E8F52A02C0983669
:100CE00049F4F20123FD959123FF91912F0199235E
:100CF00009F0B8CF892F8554833018F080528330A3
:100D000038F444E050E0A40EB51E5FE359830FC0F1
:100D1000933631F0933779F0933509F056C020C0FF
:100D2000F5018081898342E050E0A40EB51E610187
:100D300001E010E012C0F501C080D180F6FC03C0D4
:100D40006FEF7FEF02C0692D70E042E050E0A40E2B
:100D5000B51EC6010E94B50B8C015FE7F52214C0D9
:100D6000F501C080D180F6FC03C06FEF7FEF02C0B9
:100D7000692D70E042E050E0A40EB51EC6010E944D
:100D8000A30B8C0150E8F52AF3FE07C01AC080E2DD
:100D900090E0B3010E942D05EA948E2D90E0081793
:100DA0001907A8F30EC0F601F7FC8591F7FE8191B3
:100DB0006F0190E0B3010E942D05E110EA9401500B
:100DC00010400115110579F7EAC0943611F09936F3
:100DD00069F5F7FE08C0F501208131814281538118
:100DE00084E090E00AC0F501808191819C01442754
:100DF00037FD4095542F82E090E0A80EB91E9FE683
:100E0000F92257FF09C050954095309521953F4FE5
:100E10004F4F5F4FE0E8FE2ACA01B901A1012AE065
:100E200030E00E941C0CD82ED21840C0953729F40F
:100E30001F2D1F7E2AE030E01DC01F2D197F9F3619
:100E400061F0903720F4983509F0ACC00FC09037AE
:100E500039F0983709F0A6C004C028E030E00AC095
:100E6000106114FD146020E130E004C014FD166030
:100E700020E132E017FF08C0F501608171818281B5
:100E8000938144E050E008C0F50180819181BC016C
:100E900080E090E042E050E0A40EB51EA1010E9467
:100EA0001C0CD82ED2188FE7F82EF122F6FE0BC0BC
:100EB0005EEFF522D91438F4F4FE07C0F2FC05C049
:100EC0008FEEF82202C01D2D01C0192DF4FE0DC0B9
:100ED000FE01ED0DF11D8081803319F499EEF922A8
:100EE00008C01F5FF2FE05C003C08F2D867809F091
:100EF0001F5F0F2DF3FC14C0F0FE0FC01E1510F085
:100F00009D2C0BC09D2C9E0C911A1E2D06C080E2BC
:100F100090E0B3010E942D051F5F1E15C0F304C0B1
:100F20001E1510F4E11A01C0EE2404FF0FC080E387
:100F300090E0B3010E942D0502FF1DC001FD03C01A
:100F400088E790E00EC088E590E00BC0802F86789F
:100F500091F001FF02C08BE201C080E2F7FC8DE25C
:100F600090E0B3010E942D0506C080E390E0B3013C
:100F70000E942D059A94D914C0F3DA94F101ED0D75
:100F8000F11D808190E0B3010E942D05DD20A9F7BD
:100F900006C080E290E0B3010E942D05EA94EE20A5
:100FA000C1F743CEF30166817781CB012B96E2E155
:100FB0000C94990CFC0120FD08C023FD05C022FF04
:100FC00002C073836283518340830895EF92FF923E
:100FD0000F931F9344FF02C033E011C046FF02C0CD
:100FE00034E00DC0DB01FC01AA0FBB1FEE1FFF1F89
:100FF0001094D1F76A0F7B1F8E1F9F1F31E0660F81
:10100000771F881F991F3150D1F77B018C01E20EA9
:10101000F11C011D111DA8019701B701CA011F9103
:101020000F91FF90EF9008950F931F93CF93DF934D
:101030008C01C8010E94C00BEC0197FD08C00E9402
:10104000900B892BB1F7CE01B8010E94020CCE01A2
:10105000DF91CF911F910F910895A0E0B0E0E3E3FD
:10106000F8E00C94850CEC01C62E5A01122F0E9458
:10107000C00BAC018B3219F08D3251F41068CA9458
:1010800009F46DC0CE010E94C00BAC0197FD67C092
:101090006DEFD62ED1228D2D807301F54033F1F402
:1010A000CA9409F447C0CE010E94C00BAC0197FD61
:1010B00041C082E0D82A483711F0483559F480E41D
:1010C000D82ACA94B9F1CE010E94C00BAC01992371
:1010D0002CF430C0D6FC02C080E1D82AEE24FF24D4
:1010E0008701242F2053283088F0D4FC09C02A30EF
:1010F00068F0D6FE05C02F7D822F8151863028F002
:10110000CA01BE010E94020C12C02750C801B701DB
:101110004D2D0E94E6077B018C0182E0D82ACA94FB
:1011200061F0CE010E94C00BAC0197FFDACFD1FC79
:1011300004C015C0EE24FF248701D7FE08C0109517
:101140000095F094E094E11CF11C011D111DC501F6
:10115000B801A7012D2D0E94DA0781E001C080E0CF
:10116000CDB7DEB7EAE00C94A10CA0E2B0E0EBEB67
:10117000F8E00C94810C6C01A62E8A017901FE0125
:10118000319680E2DF011D928A95E9F770E030E048
:1011900060E040E050E04F01A1E0B0E0F601838163
:1011A000F70183FD259183FF21917F01222309F41B
:1011B0007EC02E3519F44115510569F1872F90E055
:1011C0008417950744F42D3551F12D3221F4332342
:1011D00029F431E021C0332309F4622F322F832F09
:1011E000869586958695F401E80FF11D832F87700B
:1011F0003D0102C0660C771C8A95E2F72081262902
:101200002083361711F430E007C0361710F43F5F23
:10121000E6CF3150E4CF71E04F5F5F4FBFCF332354
:1012200019F08E8180628E83772359F0FE0131960A
:101230009E012F5D3F4F808180958193E217F307D8
:10124000D1F7BB24B3944E010894811C911CC601B4
:101250000E94C00BAC0197FD22C0869586958695AD
:10126000F401E80FF11D808190E09A012770307041
:1012700002C0959587952A95E2F780FD05C0CA01C1
:10128000B6010E94020C0BC00115110519F0D8011E
:101290004D938D01AA94BB24AA20C9F602C0BB209D
:1012A00031F40115110529F0F801108202C0EE2475
:1012B000FF24C701A096EEE00C949D0CA0E0B0E0E6
:1012C000E4E6F9E00C94810C5C016B013A01FC014D
:1012D000178216828824EAC0812F90E00E94900B2A
:1012E000892B21F0C5010E941408E0C0153249F491
:1012F000F601F3FC6591F3FE61916F01653269F4CB
:1013000015E2C5010E94C00B97FDDCC0181709F457
:10131000CDC0B5010E94020CDAC06A3219F0162F56
:1013200000E006C0F3FC1591F3FE11916F0101E09E
:1013300099240FC00260692D70E080E090E040E2E7
:101340000E94E607962EF601F3FC1591F3FE11912B
:101350006F01212F20532A3068F301FD03C0992427
:101360009A9403C0992009F4B2C0183621F01C36B3
:1013700099F4F6010BC0F601F3FC6591F3FE61915F
:10138000683619F06F01162F07C008600460F3FC7F
:101390001591F3FE11916F01112309F498C088E6AD
:1013A00090E0612F70E00E94980B892B09F48FC0A8
:1013B000802F00FF03C0EE24FF2407C0F301E0806C
:1013C000F18022E030E0620E731E1E3651F4F5010A
:1013D0004681578160E070E0C701202F0E94DA0744
:1013E00065C0133691F481FD02C099249394C50120
:1013F0000E94C00B97FD66C0E114F10419F0F701DB
:1014000081937F019A9499F74FC01B3559F4C50118
:10141000692DA70196010E94B5086C01009709F09B
:1014200043C03DC0C5010E94140897FD4BC01F3644
:1014300059F1103728F4143629F1193639F527C037
:10144000133719F0153711F51DC0C5010E94C00BE7
:10145000EC0197FD11C00E94900B892B29F0CE0161
:10146000B5010E94020C08C0E114F10419F0F70163
:10147000C1937F019A9449F7E114F104A9F0F701AF
:10148000108212C0006203C0006101C00064C50187
:10149000692DA701202F0E942D08882329F4F5012A
:1014A0008381807379F413C000FF8394F501F38086
:1014B000F601F3FC1591F3FE11916F01112309F070
:1014C0000BCF05C0882019F42FEF3FEF02C0282D65
:1014D00030E0C901CDB7DEB7EEE00C949D0C0F9360
:1014E0001F93CF93DF93689F8001699F100D789FB2
:1014F000100D1124C8010E948B0AEC01009729F0FD
:1015000060E070E0A8010E94AE0BCE01DF91CF91A8
:101510001F910F910895CF93DF93BC018230910505
:1015200010F462E070E0A0918902B0918A02ED01AE
:10153000E0E0F0E040E050E021C08881998186172A
:10154000970769F48A819B81309719F0938382838E
:1015500004C090938A0280938902FE0134C0681708
:10156000790738F44115510519F08417950708F4E7
:10157000AC01FE018A819B819C01E9012097E9F67B
:1015800041155105A9F1CA01861B970B049708F470
:10159000BA01E0E0F0E02AC08D919C911197841788
:1015A0009507F9F46417750781F412968D919C9153
:1015B0001397309719F09383828304C090938A0223
:1015C00080938902FD0132964FC0CA01861B970B9A
:1015D000FD01E80FF91F6193719302978D939C931E
:1015E00043C0FD01828193819C01D9011097A1F62E
:1015F0008091870290918802892B41F4809170013B
:1016000090917101909388028093870240917201BA
:10161000509173014115510541F44DB75EB780916A
:101620006E0190916F01481B590B209187023091F8
:10163000880224173507B0F4CA01821B930B861762
:10164000970780F0AB014E5F5F4F8417950750F00E
:10165000420F531F5093880240938702F901619310
:10166000719302C0E0E0F0E0CF01DF91CF910895E7
:10167000CF93DF93009709F450C0EC0122971B82AF
:101680001A82A0918902B0918A02109709F140E074
:1016900050E0AC17BD0708F1BB83AA83FE0121917E
:1016A0003191E20FF31FAE17BF0779F48D919C9132
:1016B0001197280F391F2E5F3F4F398328831296C9
:1016C0008D919C9113979B838A834115510571F4E9
:1016D000D0938A02C093890220C012968D919C916A
:1016E0001397AD01009711F0DC01D3CFFA01D3833A
:1016F000C28321913191E20FF31FCE17DF0769F406
:1017000088819981280F391F2E5F3F4FFA0131835D
:1017100020838A819B8193838283DF91CF91089577
:101720009111E8C0803219F089508550D0F70895A2
:10173000FC010590061621F00020D9F7C00108959C
:101740003197CF010895FC01059061507040011060
:10175000D8F7809590958E0F9F1F0895DC0101C0EA
:101760006D9341505040E0F70895FC016150704086
:1017700001900110D8F7809590958E0F9F1F0895C6
:10178000CF93DF93EC014B8140FF1AC046FF0AC0A4
:101790004F7B4B838E819F8101969F838E838A81AD
:1017A000282F2BC042FF13C0E881F9818081282FA8
:1017B000332727FD30952115310529F440624B83ED
:1017C0002FEF3FEF1BC03196F983E88311C0EA8504
:1017D000FB85CE0109959C0197FF0AC09B812F5F75
:1017E0003F4F11F080E201C080E1892B8B83E8CF6D
:1017F0008E819F8101969F838E8330E0C901DF91A6
:10180000CF9108959C01FB01838180FF11C086FD6B
:101810000FC09FEF2F3F390759F0228380648F7DDF
:1018200083838681978101979783868330E002C006
:101830002FEF3FEFC9010895FA01AA27283051F18F
:10184000203181F1E8946F936E7F6E5F7F4F8F4FF1
:101850009F4FAF4FB1E03ED0B4E03CD0670F781F50
:10186000891F9A1FA11D680F791F8A1F911DA11D35
:101870006A0F711D811D911DA11D20D009F468946E
:101880003F912AE0269F11243019305D3193DEF616
:10189000CF010895462F4770405D4193B3E00FD0CC
:1018A000C9F7F6CF462F4F70405D4A3318F0495DB7
:1018B00031FD4052419302D0A9F7EACFB4E0A6959A
:1018C0009795879577956795BA95C9F700976105BC
:1018D000710508959B01AC010A2E06945795479512
:1018E00037952795BA95C9F7620F731F841F951F07
:1018F000A01D08959927882708952F923F924F920F
:101900005F926F927F928F929F92AF92BF92CF928F
:10191000DF92EF92FF920F931F93CF93DF93CDB798
:10192000DEB7CA1BDB0B0FB6F894DEBF0FBECDBF10
:1019300009942A88398848885F846E847D848C84E1
:101940009B84AA84B984C884DF80EE80FD800C81EA
:101950001B81AA81B981CE0FD11D0FB6F894DEBFCD
:0C1960000FBECDBFED010895F894FFCF3D
:10196C0054575F4255535F4552524F5200554E4BA0
:10197C004F574E205354415455533A2025780A0062
:10198C000A757361727420737461727400693263C6
:10199C00207374617274003E2062726F61646361C3
:1019AC007374203D2025642C206C656E6774682050
:1019BC003D2025642C20726177206461746120289D
:1019CC0068657829203D2000253032582000200001
:0419DC008B0200007A
:00000001FF
