:100000000C943E000C9448000C9448000C9448005A
:100010000C9448000C9448000C9448000C94480040
:100020000C9448000C9448000C9448000C94480030
:100030000C9448000C9448000C9448000C94480020
:100040000C9448000C9448000C9448000C94480010
:100050000C9448000C9448000C9448000C94480000
:100060000C9448000C9448000C9448000C944800F0
:100070000C9448000C9448000C94480011241FBEB6
:10008000CFEFD0E1DEBFCDBF0E9400010C94110183
:100090000C94000098B1937F98B998B18C70892B1B
:1000A00088B908954698459A82B9479A0000000099
:1000B0000000000000000000000000000000000040
:1000C000479880E197E20197F1F7089598B19F79F9
:1000D00098B982B9479A00000000000000000000B3
:1000E00000000000000000000000479888E99AE343
:1000F0000197F1F7089582B112B881B111B845980E
:10010000469A00000000000000000000000000000F
:10011000000000000000479A0000000000000000FE
:1001200000000000000000000000000090B14798AF
:1001300097FDE7CF8FEF81B94698000000000000DF
:100140000000000000000000000000000000892FF7
:10015000089598B19F7998B982B9479A0000000034
:10016000000000000000000000000000000000008F
:1001700047980E947B0008954698459A82B9479A0D
:10018000000000000000000000000000000000006F
:100190000000000047980E947B00089581B18FEF16
:1001A00081B987B18C6F87B982B112B888B1837079
:1001B00088B984EF91E024EF31E0F9013197F1F74C
:1001C0000197D9F7449A80E593EC0197F1F788B14C
:1001D000837F88B9429A80EC0E9466008FE30E9478
:1001E000660088B1837F88B9439A80EC0E946600DC
:1001F0008FE30E94660088B1837F88B9429A089590
:100200001F930E94CE0089EB0E94A90088E40E94FF
:10021000A90010E080EF0E94BC001F5F1A30D1F7E8
:06022000FFCFF894FFCFB0
:00000001FF
