:4000000080673030303030307e3030307e3030307e3030307e3030307e3030307e3030307d04587e7d04157e7d03d27e7d038f7e7d034c7e7d03097e7e3030307e30303030
:4000400030303030303030303030303030303030303030303030303030303030303030307d049b7e7e303030711062e38770ef62e33841fefb50104e62e33855f80055f9af
:4000800000711062e00270ef62e338627105627505627905627d057c02ab50005500083c0010a0053f008ff8500157e65500003c0000a00b08283f00187509008ff27110c9
:4000c00070ef62e000711062e00070ef62e2007c05ca8fff50107f303030303030303030303030303030303030303030303030303030303030303030303030303030303091
:4001000030303030303030303030303030303030303030303030303030303030303030303030303030303030303030303030303030303030303030303030303030303030bf
:4001400030303030303030303030303030303030230021ff220f270025ff261e2b0029ff2a002f002dff2e00330031ff3200370035ff36006028660063056500e600e700b8
:40018000d600b00ab100b200b333b433b511b611b855b900ba10bb33bc33bd22be00ff202121112244242125112645282129112a462c212d112e47302131113244342135a4
:4001c00011364561006900600062006733683363006600d100d300d000d200e1f0e200df66de01dd00ff70ef620000711062003f6201c070ef6203c062020f71106202000e
:4002000062030070ef6201006204a071106204ff6205a070ef6207a0620600711062060062070070ef620500620800711062083c6209c370ef620bc3620a307110620a00e5
:40024000620b0070ef620900620c007110620c00620d0070ef620f00620e007110620e00620f0070ef620d00621000711062100062110070ef6213006212007110621200f6
:4002800062130070ef621100621400711062140062150070ef621700621600711062160062170070ef62150070ef7f7c02b27c01e67f1070ef500067500157507c02cd50d2
:4002c00001675001579f7c02cd70ef207f380210084f56fc00d00456fc01182070ef62e30010082839ffa01f4f48fc01a003711054fd18207509001008284f59fd610018bc
:40030000207509008fd738fc7f7e43e1207f41e1df7f4337017f4137fe7f60357f60367f5d367f4f5d36084137fe71105d350862350070ef5d345d360852006036711052c3
:4003400001603570ef4337011838fe7f7e43e1107f41e1ef7f4333017f4133fe7f60317f60327f5d327f4f5d32084133fe71105d310862310070ef5d305d32085200603200
:4003800071105201603170ef4333011838fe7f7e43e1087f41e1f77f432f017f412ffe7f602d7f602e7f5d2e7f4f5d2e08412ffe71105d2d08622d0070ef5d2c5d2e0852b3
:4003c00000602e71105201602d70ef432f011838fe7f7e43e1047f41e1fb7f432b017f412bfe7f60297f602a7f5d2a7f4f5d2a08412bfe71105d290862290070ef5d285d9d
:400400002a085200602a71105201602970ef432b011838fe7f7e43e1027f41e1fd7f4327017f4127fe7f60257f60267f5d267f4f5d26084127fe71105d250862250070efea
:400440005d245d26085200602671105201602570ef4327011838fe7f7e43e1017f41e1fe7f4323017f4123fe7f60217f60227f5d227f4f5d22084123fe71105d210862215f
:400480000070ef5d205d22085200602271105201602170ef4323011838fe7f08102e018049d708a0092601f02e0100800849d720a00380a85101210ee001801180678079d9
:4004c0008047809880968094809280995dd821fe3900a00662d700808c49d801b00f5507022601f02e010262d71080795507012601f02e01065f0302510402035c52006012
:40050000d8760362d714805d5105783a03c00f510402035c520060d876032e012060d862d70480415dd83a05d02da02b530353022601f02e0104801a5106a01b783a03c0d6
:4005400016510402035c5dd854002e01107603800162d710800f62d700800a2601f02e010055070020187e711041045f4305a070ef4307a05501005507009026902b404001
:400580004040405000530271104304a04305a070ef4307a07f510121b026014f7f50007f800462ddfe43de017f43d6317f41defe41d6fe7f41defe7f41d6fe7f4f52fd53da
:4005c0000552fc530652fb53047f10500008500808500808087c05bc38fc7c05677c05a27c04617c041e7c03db7c03987c03557c03122080951050117c046c50007c0429a0
:4006000020800d10501f7c046c50007c04292050003a0dd0271050007c031d2062040510510d7c03602080231050007c03602062040510510d7c031d20801062040010501a
:40064000007c036050007c031d203c0f01b02c3c0e00b0141050007c03a3206208051050ff7c03e62080231050007c03e6206208051050ff7c03a320801062080010500072
:400680007c03e650007c03a3208f6b8fff3030303030303030303030303030303030303030303030303030303030303030303030303030303030303030303030303030302b
:4006c00030303030303030303030303030303030303030303030303030303030303030303030303030303030303030303030303030303030303030303030303030303030fa
:4007000030303030303030303030303030303030303030303030303030303030303030303030303030303030303030303030303030303030303030303030303030303030b9
:400740003030303030303030303030303030303030303030303030303030303030303030303030303030303030303030303030303030303030303030303030303030303079
:400780003030303030303030303030303030303030303030303030303030303030303030303030303030303030303030303030303030303030303030303030303030303039
:020000040010ea
:020000040020da
:02000000c21824
:00000001ff
