:10000000022374008F828E83E0540100000070F898
:100010002278FFE4F6D8FD0223D2020362E864806E
:10002000F8E933E83360110460F0ED33EC33700924
:10003000E8FCE9FDEAFEEBFF220460DED3EB9FEA79
:100040009EE99DE8C2E78CF0C2F795F0400CE8CC41
:10005000F8E9CDF9EACEFAEBCFFB12032D85D0F00B
:100060005804700320D5B3E80470075002B2D502DB
:10007000036C92D5EC0460F7E4CCC0E0C398F86060
:100080003B94186008400DD0E0FB020344E4FBFA07
:10009000C9FC8028E830E406E4C9FBE4CAFCE83087
:1000A000E305E4C9CACBFCE854076010F8C3E913C0
:1000B000F9EA13FAEB13FBEC13FCD8F130F52FC37C
:1000C000E49CFCEF9BFFEE9AFEED99FDD0E0FBEF88
:1000D0004E4D4C701222DB03020369EC2CFCEF3313
:1000E000FFEE33FEED33FDED30E7EB020344EF2B83
:1000F000FFEE3AFEED39FDD0E0FB50130BBB0003E1
:1001000002036CED13FDEE13FEEF13FFEC13FC0284
:100110000344EC4D6011E8497017ED33EC33046093
:100120000DE4FCFFFEFD22E933E8330470F802031E
:100130006212032D58046009E4CC24815006285033
:100140000902036C284003020369C0E0EB4A7044D3
:10015000B98006D0E0FB020358EF4E701CBD80084A
:10016000EBFFEAFEE9FD80EBE98DF0A4FEE5F0028D
:1001700001FBE9CDF9EAFEEBFFEF89F0A4FCE5F025
:10018000CE89F0A42EFFE435F0CD89F0A42DFEE455
:1001900035F08067EF4E7005BD80D780C3EF8BF0E0
:1001A000A4ACF0EE8BF0A42CFCE435F0F8EF8AF070
:1001B000A42CE5F038FCE433CB8DF0A42CFCE5F066
:1001C0003BF8EE8AF0A42CFCE5F038F8E433CF8954
:1001D000F0A42CFCE5F038CF3400CE89F0A42FFF3A
:1001E000E5F03EFEE433C98DF0A42EFEE5F039CDF6
:1001F0008AF0A42FFFE5F03EFEE43DFD33D0E0FBA6
:1002000050070BBB000F02036CEC2CFCEF33FFEE2E
:1002100033FEED33FD02034402036CEC5D04600524
:10022000E85904700302036212032D580460F6ECCF
:100230004860F2EC7004FDFEFF22C860DB2481C838
:100240005009C398600250060203699850CAF582AB
:10025000E9294B4A7005AB8202035875F0007C1AFD
:100260007880C3EF9BEE9AED99400DC3EF9BFFEEB4
:100270009AFEED99FDE842F0DC23ACF0D0E0FFD02F
:10028000E0FED0E0FDAB8220E7101BEB60BAEC2C67
:10029000FCEF33FFEE33FEED33FD020344E803F8D9
:1002A00030E705C0F075F000EF2FFFEE33FEED33C1
:1002B000FD40B830E7C280AA75F020800E75F010BE
:1002C000800575F0087D007E007F003392D530D523
:1002D00003120809EC334010EF33FFEE33FEED3329
:1002E000FDEC33FCD5F0ED22E5F0247EA2D513CC55
:1002F00092E7CDCEFF22EDD2E7CD33EC3392D52479
:10030000814006E4FFFEFDFC22FCE4CFCECDCC24F0
:10031000E0501174FF80EDC3CC13CCCD13CDCE13C0
:10032000CECF13CF0470F030D5DE020809E9D2E752
:10033000C933E833F892D5EDD2E7CD33EC33FC5036
:1003400002B2D522EC30E7100FBF000C0EBE000841
:100350000DBD00040BEB6014A2D5EB13FCED92E78E
:10036000FD2274FFFCFDFEFF22E480F8A2D574FF9D
:1003700013FC7D80E480EFED33EC33601004700FEC
:10038000ED547F7005740292E0227404220422E48A
:100390002274F8CC6480CCC86480C8F58204604FB5
:1003A000C3EB9FF5F0EA9E42F0E99D42F0E89C45E0
:1003B000F0603C501DE5825FFFE582D313CB5BCB41
:1003C000F42B5582FB50280ABA002409B9002008F2
:1003D000801DE5825BFBE582D313CF5FCFF4C313AF
:1003E0002F5582FF50090EBE00050DBD00010CC344
:1003F000EB9FF5F0EA9E42F0E99D42F0E89C45F063
:100400006007CC4820E701B3EC22ED33EC33600AFF
:10041000047003BD8004ECB2E7FC22F920E7362427
:10042000F950037907E4F42402FBE5821582700297
:100430001583DBF6E024FB501BE96014E4F0E58251
:10044000158270021583E004F0B40A08E4F0D9EED6
:100450007401F00A22C2D522ED33EC3392D5FA6052
:100460002AB4FF33EDC2E77BFF60067A04797DE4AE
:10047000227A04798620D5047A047981224E614E4D
:10048000002B494E46002D494E4600E47A08F0A361
:10049000DAFC7B00740722C083C082ECC0E0EDC0B0
:1004A000E0EEC0E0EFC0E0EA75F010A4CAABF07572
:1004B000F04DA42BFBE435F0FCEA2410FAEB34C534
:1004C000FBEC34D9FCEDC2E7FF75F056A4F424111F
:1004D000C5F0F434C58FF0A42AE5F03BE43CF020ED
:1004E000E71412058DD0E0FFD0E0FED0E0FDD0E0B3
:1004F000FC12021B8014F40412058DD0E0FFD0E042
:10050000FED0E0FDD0E0FC120112D082D083E0FAF0
:10051000EDD2E7CD33EC332482FBE4C3CF33CFCE2F
:1005200033CECD33CD33DBF37B0775F00A84600423
:10053000F0A31B0AE5F0F0A38FF0740AA4FFACF05F
:100540008EF0740AA42CFEACF050010C8DF0740AED
:10055000A42CFDE435F0F0A3DBDE7407223F80001D
:10056000004120000042C80000447A0000461C40C0
:100570000047C35000497424004B1896804CBEBC01
:10058000205A0E1BCA6753C21C749DC5AEFB600681
:100590005407601C23231205BBEB54386009120575
:1005A000A71205B6120112ECF8EDF9EEFAEFCB2224
:1005B000EB1205B680F1543803241C90055DFE93C0
:1005C000FC0EEE93FD0EEE930ECE93FF22C0E0EFF5
:1005D000FBEEFAEDF9ECF8120112D0E0F5F0EFFBCA
:1005E000EEFAEDF9ECF812085AA3A3A3A3E8C0E0D1
:1005F000E9C0E0EAC0E0EBC0E0C0F012011212086E
:1006000076A3A3A3A3120021D0F0D0E0FBD0E0FAA0
:10061000D0E0F9D0E0F8D5F0D422BB010689828A77
:1006200083E0225002E722BBFE02E32289828A8312
:10063000E49322BB010CE58229F582E5833AF58338
:10064000E0225006E92582F8E622BBFE06E9258273
:10065000F8E222E58229F582E5833AF583E49322E4
:10066000BB010689828A83F0225002F722BBFE0179
:10067000F322C5F0F8A3E028F0C5F0F8E582158272
:1006800070021583E038F022BB010A89828A83E078
:10069000F5F0A3E022500687F009E71922BBFE0718
:1006A000E3F5F009E3192289828A83E493F5F07473
:1006B000019322BB010A89828A83F0E5F0A3F0222C
:1006C0005006F709A7F01922BBFE06F3E5F009F37F
:1006D0001922EF2BFFEE3AFEED39FDEC38FC22E853
:1006E0008FF0A4CC8BF0A42CFCE98EF0A42CFC8A17
:1006F000F0EDA42CFCEA8EF0A4CDA8F08BF0A42D94
:10070000CC3825F0FDE98FF0A42CCD35F0FCEB8E34
:10071000F0A4FEA9F0EB8FF0A4CFC5F02ECD39FEEA
:10072000E43CFCEAA42DCE35F0FDE43CFC2275F05F
:1007300008758200EF2FFFEE33FECD33CDCC33CCE6
:10074000C58233C5829BED9AEC99E58298400CF501
:1007500082EE9BFEED9AFDEC99FC0FD5F0D6E4CE2F
:10076000FBE4CDFAE4CCF9A88222B800C1B9005963
:10077000BA002DEC8BF084CFCECDFCE5F0CBF97830
:1007800018EF2FFFEE33FEED33FDEC33FCEB33FBC4
:1007900010D703994004EB99FB0FD8E5E4F9FA224E
:1007A0007818EF2FFFEE33FEED33FDEC33FCC93349
:1007B000C910D7059BE99A4007EC9BFCE99AF90F11
:1007C000D8E0E4C9FAE4CCFB2275F010EF2FFFEE7D
:1007D00033FEED33FDCC33CCC833C810D7079BECC8
:1007E0009AE899400AED9BFDEC9AFCE899F80FD540
:1007F000F0DAE4CDFBE4CCFAE4C8F922EF4BFFEEEB
:100800004AFEED49FDEC48FC22C3E49FFFE49EFE56
:10081000E49DFDE49CFC22EB9FF5F0EA9E42F0E9AA
:100820009D42F0E89C45F022E8600FECC313FCED1C
:1008300013FDEE13FEEF13FFD8F122E8600FEFC3B4
:1008400033FFEE33FEED33FDEC33FCD8F122E0FC58
:10085000A3E0FDA3E0FEA3E0FF22E493FC74019378
:10086000FD740293FE740393FF22E0F8A3E0F9A362
:10087000E0FAA3E0FB22E493F8740193F974029385
:10088000FA740393FB22ECF0A3EDF0A3EEF0A3EFD8
:10089000F022A8828583F0D083D0821208A91208A2
:1008A000A91208A91208A9E473E493A3C583C5F0AB
:1008B000C583C8C582C8F0A3C583C5F0C583C8C5B4
:1008C00082C822E0FBA3E0FAA3E0F922F8E0FBA350
:1008D000A3E0F925F0F0E582158270021583E0FAB5
:1008E00038F022EBF0A3EAF0A3E9F022E493FB74E2
:1008F0000193FA740293F922D083D082F8E49370C2
:1009000012740193700DA3A393F8740193F5828878
:1009100083E4737402936860EFA3A3A380DFE516FA
:100920002582F582E5153583F583B5150485821694
:100930002210AF06858216F51522858216F515D28E
:10094000AF22EC8EF0A4CCC5F0CCCDF8EFA4CEC590
:10095000F02DFDE43CFCE8A42EC8C5F03DFDE43CD0
:10096000FCEFA4FFE5F028FEE43DFDE43CFC22E7BB
:1009700009F608DFFA8046E709F208DFFA803E88C8
:10098000828C83E709F0A3DFFA8032E309F608DFFF
:10099000FA806EE309F208DFFA806688828C83E3CE
:1009A00009F0A3DFFA805A89828A83E0A3F608DF80
:1009B000FA804E89828A83E0A3F208DFFA804280BF
:1009C000D280FA80C680D4805580F2802980108041
:1009D000A680EA809A80A880DA80E280CA8029888E
:1009E000848C8589828A83E493A30586F0A3058697
:1009F000DFF5DEF3800B89828A83E493A3F608DFB8
:100A0000F9ECFAA9F0EDFB2288848C8589828A832F
:100A1000E0A30586F0A30586DFF6DEF480E3898295
:100A20008A83E493A3F208DFF980D688F0EF6001AF
:100A30000E4E60CD88F0ED2402B4040050C3F58260
:100A4000EB2402B4040050B923234582239009BF4C
:100A5000737BFF7A307958C003C002C0017B017AF2
:100A6000017907A801AC02AD03D001D002D0037E0A
:100A7000007F0A120A2B7BFF7A307962C003C00222
:100A8000C0017B017A017911A801AC02AD03D0014C
:100A9000D002D0037E007F03120A2B7BFF7A3079CD
:100AA00065C003C002C0017B017A017914A801ACC2
:100AB00002AD03D001D002D0037E007F06120A2BC4
:100AC00090011AE4F090011BE4F090013AE4F0A3E5
:100AD000E4F090013CE4F0A3E4F090013EE4F0A3E4
:100AE000E4F0900140E4F0A3E4F0900142E4F090DF
:100AF0000145E4F0900148E4F07BFF7A30796BC067
:100B000003C002C0017B017A017949A801AC02ADA2
:100B100003D001D002D0037E007F03120A2B900184
:100B20004C7401F0900160740BF0A374B8F0D2AF74
:100B30009044F474FDF012331E123309123348123C
:100B40002E8F7E2C7F7512317D7E197F8F12319C06
:100B50007E287FB31231BB1233D61233F912340719
:100B600090014C7401F0900152E0FFEF70047F019E
:100B700080027F00900151E0FEEE70047E01800251
:100B80007E00EE5FFF90014FE0FEEE70047E01807C
:100B9000027E00EE5FFF900150E0FEEE70047E01E9
:100BA00080027E00EE5FFFEF600B7B017A01794DE2
:100BB000121B2C80B190014DE0FFEF30E303D38096
:100BC00001C3400B7B017A01794D121B2C80E67B1F
:100BD000017A01794D121B2C900151E0FFEFD39463
:100BE000A74014900151E0FFEF2480FFEFF404FFD1
:100BF000900157EFF08021900151E0FFEFC394572F
:100C00005011900151E0FFC3747F9FFF900157EF97
:100C1000F08005900157E4F0900152E0FFEFD3948B
:100C2000A74010900152E0FFEF2480FF900158EFA1
:100C3000F08025900152E0FFEFC3945750159001CA
:100C400052E0FFC3747F9FFFEFF404FF900158EF61
:100C5000F08005900158E4F090014FE0FFEFD3944D
:100C6000A7401490014FE0FFEF2480FFEFF404FF52
:100C7000900159EFF0802190014FE0FFEFC39457AE
:100C8000501190014FE0FFC3747F9FFF900159EF17
:100C9000F08005900159E4F090014DE0FFEF30E362
:100CA0001D900148E0FFEF701A90014CE0FFEF4407
:100CB00008FF90014CEFF0900148E4F080059001AE
:100CC00048E4F090014EE0FFEF30E440900144E052
:100CD000FFEF20E045900142E0FFEF30E41090018B
:100CE00042E0FFEF54EFFF900142EFF0800E9001E1
:100CF00042E0FFEF4410FF900142EFF0900144E02A
:100D0000FFEF4401FF900144EFF0800E900144E0BA
:100D1000FFEF54FEFF900144EFF090014EE0FFEF33
:100D200030E640900144E0FFEF20E145900142E0D1
:100D3000FFEF30E510900142E0FFEF54DFFF90013C
:100D400042EFF0800E900142E0FFEF4420FF90015F
:100D500042EFF0900144E0FFEF4402FF900144EFC6
:100D6000F0800E900144E0FFEF54FDFF900144EF4E
:100D7000F090014EE0FFEF30E540900144E0FFEFDE
:100D800020E245900142E0FFEF30E610900142E0A2
:100D9000FFEF54BFFF900142EFF0800E900142E060
:100DA000FFEF4440FF900142EFF0900144E0FFEF7D
:100DB0004404FF900144EFF0800E900144E0FFEF07
:100DC00054FBFF900144EFF090014EE0FFEF30E75D
:100DD00040900144E0FFEF20E345900142E0FFEF47
:100DE00030E710900142E0FFEF547FFF900142EFA7
:100DF000F0800E900142E0FFEF4480FF900142EF4F
:100E0000F0900144E0FFEF4408FF900144EFF080D0
:100E10000E900144E0FFEF54F7FF900144EFF09093
:100E2000014EE0FFEF30E203D38001C3403B90016D
:100E30004EE0FFEF30E003D38001C3402C90014D22
:100E4000E0FFEF30E4099001457401F0020EE990F3
:100E5000014DE0FFEF30E6099001457402F0020E0B
:100E6000E9900145E4F0020EE990014EE0FFEF3019
:100E7000E23890014EE0FFEF30E003D38001C34041
:100E80002990014DE0FFEF30E4089001457404F033
:100E9000805790014DE0FFEF30E60890014574085F
:100EA000F08046900145E4F0803F90014EE0FFEF76
:100EB00030E203D38001C3403090014EE0FFEF30B9
:100EC000E02790014DE0FFEF30E4089001457410F9
:100ED000F0801690014DE0FFEF30E6089001457478
:100EE00020F08005900145E4F0123437EF20E10353
:100EF000020F777B017A01791CC003C002C0017B1D
:100F0000FF7A30793B9001651208E390014DE0FFD4
:100F10007E00900168EEF0A3EFF090014EE0FF7EBE
:100F20000090016AEEF0A3EFF0900151E0FF7E0027
:100F300090016CEEF0A3EFF0900152E0FF7E009084
:100F4000016EEEF0A3EFF090014FE0FF7E00900104
:100F500070EEF0A3EFF0900150E0FF7E0090017280
:100F6000EEF0A3EFF0D001D002D00312118C7B0180
:100F70007A01791C122DB4900142E0FF900143E008
:100F8000FEEE6F600E90014CE0FFEF4402FF900117
:100F90004CEFF0900142E0FF900143EFF0900145EB
:100FA000E0FF900146E0FEEE6F600E90014CE0FF26
:100FB000EF4404FF90014CEFF0900145E0FF9001F9
:100FC00046EFF090011BE0FFEFB4010D123431EF5A
:100FD0006401600590011BE4F090011BE0FFEF60ED
:100FE00003020BCF90014CE0FFEF30E32C7B017A42
:100FF0000179497D037F0412219490014CE0FFEFB9
:101000004401FF90014CEFF090014CE0FFEF54F7EA
:10101000FF90014CEFF002111D90014CE0FFEF300A
:10102000E12C7B017A0179427D017F0212219490AB
:10103000014CE0FFEF4401FF90014CEFF090014CB8
:10104000E0FFEF54FDFF90014CEFF002111D900105
:101050004CE0FFEF30E22C7B017A0179457D017F86
:101060000312219490014CE0FFEF4401FF90014CEA
:10107000EFF090014CE0FFEF54FBFF90014CEFF0DC
:1010800002111D90014CE0FFEF20E00302111D7BD7
:10109000017A0179571217A890015AE0FEA3E0FFE8
:1010A000EEFF3395E0FEEF54FFFF900115EFF09057
:1010B000015AE0FEA3E0FFEF54FFFF900114EFF0B0
:1010C00090015CE0FEA3E0FFEEFF3395E0FEEF54FD
:1010D000FFFF900117EFF090015CE0FEA3E0FFEF4F
:1010E00054FFFF900116EFF090015EE0FEA3E0FFD9
:1010F000EEFF3395E0FEEF54FFFF900119EFF09003
:10110000015EE0FEA3E0FFEF54FFFF900118EFF057
:101110007B017A0179147D067F0012219490011BD6
:101120007401F0020BCF22E5082465F582E4340156
:10113000F583E0050822900162300703900165E421
:1011400075F0011208CC02061A2000E97F2ED200A9
:101150008018EF540F2490D43440D4FF30040BEFA8
:1011600024BFB41A0050032461FFE5096002150989
:10117000050CE50C7002050B30070E900162E4755A
:10118000F0011208CCEF0206600231567403D20758
:101190008003E4C207F5089001621208E3E4F50950
:1011A000F50BF50CE50960077F2012116A80F575D3
:1011B0000AFFC201C200C202C203C205C206C208BF
:1011C000121136FF700D3007057F0012117BAF0C36
:1011D000AE0B22B4255FC2D5C204121136FF24D053
:1011E000B40A00501A75F00A780930D50508B6FF20
:1011F0000106C6A426F620D5047002D20380D924A5
:10120000CFB41A00EF5004C2E5D20402146DD2012B
:1012100080C6D20080C0D20280BCD2D580BAD205AE
:1012200080B47F2012116A2002077401B5090040C2
:10123000F1121127FF12116A0211A4D208D20680FE
:1012400095121127FB121127FA121127F94A4B7038
:1012500006796B7A157BFF20022EE509602A7E0055
:101260008E8275830012063360060EEE650A70F0FA
:10127000C2D5EBC0E0EAC0E0E9C0E0EE1214CED087
:10128000E0F9D0E0FAD0E0FB12061AFF60AAEBC04A
:10129000E0EAC0E0E9C0E012116AD0E02401F9D030
:1012A000E03400FAD0E0FBE50A0460DCD50AD9801E
:1012B00087D20280A21214B060F7E50A700104120E
:1012C000041BA90A600DE50A600914F50A121558F5
:1012D000EF60F3EA30E702F404C3995079EAF425A9
:1012E0000A0430E701E404F50A800D1214B060C16D
:1012F000EA050A250A12041BEA900191F030E70181
:10130000E4250A04D50A04200501141214CEE4C011
:10131000E0121558900191E0601320E70714F012D5
:101320001152802204F0D0E014C0E07F001211526C
:10133000E50A6007121149150A800B3005031211E6
:1013400049D0E00211A4D0E00480C41214B0609E21
:10135000E50A0412041B900191EAF0E50A20050257
:1013600060010424041214CE74FF04C0E012155866
:10137000121152E50A2005026003121149D0E0B5AE
:101380000AE87F4512115C900191E07F2B30E70461
:101390007F2DF404C0E012116AD0E075F00A84C019
:1013A000F0121153D0E01211530211A479108002EF
:1013B0007908C206C2088008D2D5790A8004790A61
:1013C000C2D5E50A047002F50AE4FAFDFEFF121127
:1013D00027FC7B08200113121127FD7B1030000A27
:1013E000121127FE121127FF7B20EC3382D592D5F4
:1013F0005013C3E43000069FFFE49EFEE420010387
:101400009DFDE49CFCE4CBF8C201EC700CCFCECD8A
:10141000CCE824F8F870F38017C3EF33FFEE33FE07
:10142000ED33FDEC33FCEB33FB994002FB0FD8E9C5
:10143000EB300105F8D0E0C448B201C0E00AEC4D41
:101440004E4F78207B0070C2EAB50A0040BCC0E075
:101450001214D0D0F0D0E0200104C4C0E0C4B20126
:10146000C0F0121153D0F0D5F0EB0211A41208F81D
:1014700012415313AC5812124C120E4213B04F13B8
:10148000B84413B84912274313BE5512EB46134B09
:101490004512B547158B5012162D121A2E123D2BE0
:1014A000121E23123B2015742A11D6480000123553
:1014B000E50AB4FF03750A06121127FC121127FD75
:1014C000121127FE121127FF90018A020458790A8F
:1014D000A2D5200314300509B910020404B908018B
:1014E00004A2D52006025001042002689202B50928
:1014F000005034C0E07F203003197F30A202720612
:101500007205500F121527C202C206C205C2087F1B
:1015100030800F300503E9C0E012116A300503D0B6
:10152000E0F9D0E0B509CC3005177F30B9100C12C6
:10153000116A7F583004077F788003B908031211BD
:101540006A3002057F2D02116A7F202008F87F2B68
:101550002006F322920280CF7F00B40700500B24B4
:101560008AF582E43401F583E0FF22286E756C6C05
:101570002900D2011211273001F8C201780930D5B3
:101580000108F60211D62D504349581211272403A1
:10159000B405004001E49015869312115B743A1271
:1015A000115BD2037509040213AC7B007A4679E81B
:1015B0001233BEEF4405FD7B007A4679E81233CA48
:1015C000751400E514C39409503AAF14EF75F00593
:1015D000A42445F582E43434F583AF82AE838E08CB
:1015E0008F09AE08AF098F828E831208ECAE08AF68
:1015F000098F828E83740393FC740493FD1232511D
:10160000051480BF751400E514C394015078AF141D
:10161000EF75F008A42472F582E43434F583AF82C8
:10162000AE838E0A8F0BAE0AAF0B8F828E831208A9
:10163000EC8B0C8A0D890EAE0AAF0B8F828E83A3C2
:10164000A3A31208EC8B0F8A108911AE0AAF0B8F7F
:10165000828E83740693F512740793F513AB0FAA69
:1016600010A911C003C002C001AB0CAA0DA90E90B5
:10167000010C1208E3D001D002D003AF13AE121256
:101680002FB7051480817B087A0079001231297BFD
:10169000017A5079031233BEEF4402FD7B017A5088
:1016A00079031233CA7B017A5079131233BEEF44A7
:1016B00002FD7B017A5079131233CA9043A0E0FFF8
:1016C000EF4440FF9043A0EFF09043C2E0FFEF44AF
:1016D00010FF9043C2EFF07B087A0979A4C003C0E1
:1016E00002C0017B007A5179C090010C1208E3D04E
:1016F00001D002D0037F0A7E00122FB77B087A093F
:1017000079B0C003C002C0017B007A51791090010A
:101710000C1208E3D001D002D0037F0A7E00122F02
:10172000B77B087A0979BCC003C002C0017B007A8C
:1017300051796090010C1208E3D001D002D0037FF0
:101740000A7E00122FB79044F47401F0904322E017
:10175000FFEF4408FF904322EFF09046ECE0FFEFEC
:10176000C394055006904689743AF090480074F18D
:10177000F0121E17122F817B007A4379A0C003C09C
:1017800002C0017B007A4379B090010C1208E3D0CB
:1017900001D002D0037F0E7E00122FB79043B0E03D
:1017A000FFEF54FDFFEFF0229001621208E37F008B
:1017B0007E007D407C40C004C005C006C0077F009D
:1017C0007E007D007C3F900185120886D007D00600
:1017D000D005D004121CB1900165120886900162F8
:1017E0001208C3E92409F9EA3400FA120688FDACAC
:1017F000F0EC1202BDC004C005C006C0077F007E29
:10180000007DC07C3F90016512086A1200217B00B8
:101810007A0079007843120112A804A905AA06AB40
:1018200007D007D006D005D00412021B9001691220
:1018300008869001621208C3E92401F9EA3400FA2B
:1018400012061AFCEC1202C290016512086A12011B
:101850001290016D1208869001621208C3E92402F9
:10186000F9EA3400FA12061AFCEC1202C27B007A82
:10187000007900783F1201129001711208869001E0
:10188000621208C312061AFCEC1202C27B007A0034
:10189000790078C012011290017112086A120021B9
:1018A0009001751208869001621208C312061AFC94
:1018B000EC1202C290016D12086A12001D900171B3
:1018C00012086A12002190017912088690016212B2
:1018D00008C312061AFCEC1202C290016D12086ACB
:1018E00012002190017112086A12002190017D12EC
:1018F000088690017512084E90016912086A12015B
:10190000127B007A007900783F12002112228412A3
:1019100002F69001621208C3E92403F9EA3400FADE
:10192000EE8FF01206B390017912084E9001691201
:10193000086A1201127B007A007900783F120021B8
:101940001222841202F69001621208C3E92405F9FA
:10195000EA3400FAEE8FF01206B390017D12084EC1
:1019600090016912086A1201127B007A00790078EE
:101970003F1200211222841202F69001621208C363
:10198000E92407F9EA3400FAEE8FF01206B322C018
:10199000E0C0F0C083C082C085C084C08675860068
:1019A000C093759300C0D075D000C000C001C002C4
:1019B000C003C004C005C006C007900218E0FFEFD6
:1019C00020E203021B0990022DE0FF90021DE0FEC1
:1019D000EEC39F5068123333EF54FFFF90022A1278
:1019E00008C390021DE0FEE92EF9E43AFAEF120670
:1019F0006090021CE0FFEF700990021C7401F0027D
:101A00001B0990021CE0FFEFB4010990021C740254
:101A1000F0021B0990022A1208C390021DE0FFE9A0
:101A20002FF9E43AFA12061AFF7E0090021AEE8F9E
:101A3000F012067290021DE004F0021B091233B28C
:101A400090021AE0FEA3E0FFEEFF7E007E00EF545E
:101A50000FFF90021AE0FCA3E0FD7C00EF2DFFEEEB
:101A60003CFEEFF4FFEEF4FE7E0090021AEEF0A3CF
:101A7000EFF01233337E0090021AE0FCA3E0FD7C0D
:101A800000ED6F7002EC6E7048900218E0FFEF54AA
:101A9000FBFF900218EFF0900218E0FFEF54F7FF01
:101AA000900218EFF0900218E0FFEF54EFFF900261
:101AB00018EFF0900218E0FFEF4402FF900218EFD9
:101AC000F0900218E0FFEF4401FF900218EFF08061
:101AD00038900218E0FFEF54FBFF900218EFF090EF
:101AE0000218E0FFEF54FDFF900218EFF09002188B
:101AF000E0FFEF4401FF900218EFF0900218E0FFC2
:101B0000EF4408FF900218EFF0D007D006D005D0C0
:101B100004D003D002D001D000D0D0D093D086D052
:101B200084D085D082D083D0F0D0E0329001621290
:101B300008E390016BE4F090016CE4F0A3E4F01290
:101B40002E8F90016BE4F090016BE0FFEFC3940CDB
:101B5000504E90016CE4F0A3E4F0122CE6EFD39425
:101B600008502990016CE0FEA3E0FFC3EF9410EE53
:101B70009427500C90016CE475F0011206728003FA
:101B80007F02227F017E001230FC80CE122AF5EF08
:101B9000540FFFEF640F600890016BE004F080A722
:101BA00090016BE4F090016BE0FFEFC3940C4003F5
:101BB000021CAE90016CE4F0A3E4F0122CE6EFD32B
:101BC0009408502990016CE0FEA3E0FFC3EF94104D
:101BD000EE9427500C90016CE475F00112067280AF
:101BE000037F03227F017E001230FC80CE122AF593
:101BF0007E00900167EEF0A3EFF0900167E0FEA396
:101C0000E0FFEF20E313900167E0FEA3E0FF900107
:101C100065EEF0A3EFF0021CA5900165E0FEA3E0E5
:101C2000FF7E00EF5407FF900167E0FCA3E0FD7C1E
:101C300000ED5407FDED6F7002EC6E706890016569
:101C4000E0FEA3E0FF7E00EF54F0FF900169EEF0AC
:101C5000A3EFF0900169E0FCA3E0FD900167E0FED6
:101C6000A3E0FFEEC4F854F0C868FEEFC4540F4878
:101C7000FFEC4EFEED4FFF900169EEF0A3EFF09008
:101C80000169E0FEA3E0FF9001621208C3900167C2
:101C9000E0FCA3E0FD7C00ED5407FDE92DF9EA3CF2
:101CA000FAEF12066090016BE004F0021BA57FFFC3
:101CB00022900181120886E4FFFE7D807C3F900126
:101CC00081E0F8A3E0F9A3E0FAA3E0FB120391702E
:101CD00006900181021E0B900181E0FCA3E0FDA3B0
:101CE000E0FEA3E0FF120377FBA3E0FCA3E0FDA36B
:101CF000E0FEA3E0FF120377FFB40108E4FFFE7DDE
:101D0000807C3F22EF64046029EB64046024EBB420
:101D10000130E4FFFEFDFC900185E0F8A3E0F9A3AB
:101D2000E0FAA3E0FB12039160084006E4FFFEFD29
:101D3000FC22900185120892FFFFFFFF90018502AF
:101D40001E0BE4900189F0A3F0FFFEFDFC900181E1
:101D5000E0F8A3E0F9A3E0FAA3E0FB120391505FDF
:101D6000900185E0FCA3E0FDA3E0FEA3E0FF1202EA
:101D7000F6900189EEF0A3EFF0FDCCEECCEC120270
:101D8000BDC8ECC8C9EDC9CAEECACBEFCB9001857E
:101D9000E0FCA3E0FDA3E0FEA3E0FF12001DE4FBD6
:101DA000FAF9F8120391708A900181E0FCA3E0FD3A
:101DB000A3E0FEA3E0FF12040A90018112088690BE
:101DC0000181E0FCA3E0FDA3E0FEA3E0FF121F956C
:101DD000900185E0F8A3E0F9A3E0FAA3E0FB12018B
:101DE0001212285190018512088690018AE030E095
:101DF00017900185E0FCA3E0FDA3E0FEA3E0FF1245
:101E0000040A900185120886900185E0FCA3E0FD9C
:101E1000A3E0FEA3E0FF227B007A4079807D9B7CDB
:101E2000001233A39040827418F07B007A407984CA
:101E30007D9B7C001233A39040867418F07B007A5F
:101E40004079887D387C011233A390408A7418F061
:101E50007B007A40798C7DA57C0E1233A390408E56
:101E60007418F07B007A4079907D5F7CEA1233A38E
:101E70009040927419F09043007406F09042007400
:101E800003F07B0C7A0179081233BE9046A1EFF083
:101E90007B007A4279227D107C001233A37B007A8A
:101EA0004279207D517C121233A390010BE4F07F24
:101EB000197E007D007C00900107120886900107C2
:101EC00012084ED3EF9400EE9400404E90010BE0C8
:101ED000FFEF64036044904225E0FFEF5401FF7E72
:101EE0000090010BE0FEEE25E0FEEE4FFFEF540305
:101EF000FF90010BEFF07FE07E017D007C0012304F
:101F00000090010712084E7BFF7AFF79FF78FF12DD
:101F100006D290010712088680A390010712084E8E
:101F2000EF4E70057F031233727B007A4079047D97
:101F3000007C011233A39040047407F0904006E443
:101F4000F09040087448F0904004E4F09040017430
:101F500002F09043A2E0FFEF441FFF9043A2EFF096
:101F6000223E9248DA3ECCCCCD3F2AAAAB400000BC
:101F7000003F8000003F9837F03FB504F33FD7445F
:101F8000FC3E3172173EB172173F0515913EDE5B84
:101F9000D9D2008002C200EDD2E7F8CD33EC330491
:101FA000700BBD800592D502036C02036240FBD327
:101FB0001460F2F5F07C3FEE7A00C39496C8948BDF
:101FC00040230AC89469C8941A401A0AC89468C879
:101FD000941F40110AC8945AC89425400805F07A05
:101FE00000CDC2E7CDC0F090018B120886EA232312
:101FF000C0E02471F582E4341FF5831208761200E4
:1020000021ECC0E0EDC0E0EEC0E0EFC0E012085A05
:1020100090018B12086A12001DD0E0FBD0E0FAD0CC
:10202000E0F9D0E0B2E7F812021B90018B120886AB
:10203000901F6174031205CD90018B12086A120182
:1020400012D0E0600F247DF582E4341FF58312087E
:102050007612002190018B120886D0E0C3947FFD98
:10206000E49400FC1202BD7B187A727931783F1239
:10207000011290018B12086A12002130000B7BD9EB
:102080007A5B79DE783E1201122290016AEFF090BD
:10209000016BE4F090016CE4F090022FE0FFEF6040
:1020A0000302218F90016AE0FFEFC313FFEF540199
:1020B000FF90016AE0FEEE5401FEEE6FFF90016AB0
:1020C000E0FEEE1313543FFEEE5401FEEF6EFF9060
:1020D000016AE0FEEEC4540FFEEE5401FEEF6EFF07
:1020E00090016BEFF090016AE0FFEF131313541FA0
:1020F000FFEF5401FF90016AE0FEEEC313FEEE54C1
:1021000001FEEE6FFF90016AE0FEEEC4540FFEEE9A
:102110005401FEEF6EFF90016AE0FEEEC413540717
:10212000FEEE5401FEEF6EFFEFF4FF90016CEFF056
:1021300090016BE0FFEFC4333354C0FFEF5440FF16
:1021400090016AE0FEEE543FFEEE4FFF90016CE01E
:10215000FEEEC43333335480FEEE5480FEEF4EFF68
:1021600090016AEFF07F0312277E122F4A122E4E43
:102170007F551226BC90016AE0FF1226BC90022F08
:102180007401F090016AE0FFEF54FFFF7E00227EB1
:10219000017F0022900162EFF0900163EDF0900169
:1021A000641208E3900218E0FFEF5401FF90021957
:1021B000E0FEEE70047E0180027E00EE5FFFEF70B5
:1021C00003022281900162E0FF12208A900168EEF2
:1021D000F0A3EFF0900168E0FEA3E0FFEFB400078A
:1021E000EEB401037F0122900167E4F0900163E007
:1021F000FF900167E0FEEEC39F504090016412081B
:10220000C3900167E0FFE92FF9E43AFA12061AFFDA
:102210007E00900168EE8FF0120672900164120841
:10222000C3900167E0FFE92FF9E43AFA12061AFFBA
:102230001226BC900167E004F080B1900168E0FED6
:10224000A3E0FFEEFF7E007E00EF5407FF900168E1
:10225000E0FCA3E0FD7C00EF2DFFEE3CFEEFF4FF81
:10226000EEF4FE7E00900168EEF0A3EFF0900168BE
:10227000E0FEA3E0FF1226BC9002197401F07F007B
:10228000227F012290018112088674FFFFFEFDFC6F
:10229000900181E0F8A3E0F9A3E0FAA3E0FBC31208
:1022A000081760387F807E967D187C4B900181E016
:1022B000F8A3E0F9A3E0FAA3E0FB12039160025057
:1022C0001B7F807E967D187CCB900181E0F8A3E097
:1022D000F9A3E0FAA3E0FB120391500F900181E013
:1022E000FCA3E0FDA3E0FEA3E0FF22900181E0FC5F
:1022F000A3E0FDA3E0FEA3E0FF1202F69001851229
:102300000886900185E0FCA3E0FDA3E0FEA3E0FFCA
:10231000EC1202B8C8ECC8C9EDC9CAEECACBEFCB03
:10232000900181E0FCA3E0FDA3E0FEA3E0FF12002A
:102330001DE4FBFAF9F81203916026402490018510
:10234000E0FCA3E0FDA3E0FEA3E0FFEF24FFFFEE2F
:1023500034FFFEED34FFFDEC34FFFC9001851208E4
:1023600086900185E0FCA3E0FDA3E0FEA3E0FFEC86
:102370001202B82275930078007583467582E8E0F2
:102380004401F0009046ECE0F99046FAE0FAB90317
:10239000225420B40012B8001AEA900FFFF0740122
:1023A000900FFEF09046F6F0900FFEE06005900F63
:1023B000FFE0FA90480074C0F07581219000007829
:1023C000007910E4F0A3D8FCD9FAEA900239F002BF
:1023D000001175150F7516FD1215AA022419020AAF
:1023E00051E493A3F8E493A34003F68001F208DFDD
:1023F000F48029E493A3F85407240CC8C333C454CD
:102400000F4420C8834004F456800146F6DFE48080
:102410000B0102040810204080902BFCE47E019305
:1024200060BCA3FF543F30E509541FFEE493A36052
:10243000010ECF54C025E060A840B8E493A3FAE4AD
:1024400093A3F8E493A3C8C582C8CAC583CAF0A3FE
:10245000C8C582C8CAC583CADFE9DEE780BEC0E05E
:10246000C083C082C085C084C086758600C0937555
:102470009300C0D075D000C006C007900194E4F06E
:10248000A2AFE433FF900195EFF0D2AF9044F47423
:10249000FDF0906567E0FF900193EFF0900193E00D
:1024A000FFEF30E568906444E0FF900214E0FE74B2
:1024B000FE2EF582E43401F583EFF090019474016F
:1024C000F0900194E0FFEF60389001FCE0FFEF60D6
:1024D000069002177401F0900214E004F0900214C8
:1024E000E0FFEFC394094005900214E4F09001FD71
:1024F000E0FF900214E0FEEEB507069001FC7401C7
:10250000F0906567E0FF900193EFF0808F90019568
:10251000E0FFEF24FF92AFD007D006D0D0D093D009
:1025200086D084D085D082D083D0E032C0E0C08312
:10253000C082C085C084C086758600C09375930034
:10254000C0D075D000C006C007900198E4F0A2AFDB
:10255000E433FF900199EFF0D2AF9044F474FDF0B2
:10256000906462E0FF900197EFF0900197E0FFEF39
:1025700030E568906442E0FF9001F7E0FE74DE2EE3
:10258000F582E43401F583EFF09001987401F09046
:102590000198E0FFEF60389001FAE0FFEF600690ED
:1025A00001F97401F09001F7E004F09001F7E0FF09
:1025B000EFC3941940059001F7E4F09001DDE0FFCE
:1025C0009001F7E0FEEEB507069001FA7401F09075
:1025D0006462E0FF900197EFF0808F900199E0FF37
:1025E000EF24FF92AFD007D006D0D0D093D086D0C2
:1025F00084D085D082D083D0E032900167EFF09014
:102600000001E0FF900168EFF0900003E0FF90010F
:1026100069EFF0900169E0FF900168E0FEEEC39F72
:102620005026900169E0FF7E00EF24FFFFEE34FFAB
:10263000FE900168E0FD7C00EFB50508EEB50404EE
:102640007F0180027F008018900169E0FF9001689F
:10265000E0FEC3EE9FFFEFB4FE047F0180027F0027
:10266000EF709C900168E0FF900169E0FEEEB50715
:1026700014906566E0FFEF20E20B900167E0FF90A9
:102680006448EFF022900168E0FFEFC394FF40053B
:10269000900168E4F0900167E0FF900168E0FE744B
:1026A000042EF582E43400F583EFF0900168E00435
:1026B000F0900168E0FF900001EFF02290016DEFD3
:1026C000F0900215E0FF90016EEFF0900207E0FF3E
:1026D00090016FEFF090016FE0FF90016EE0FEEE71
:1026E000C39F502690016FE0FF7E00EF24FFFFEEB6
:1026F00034FFFE90016EE0FD7C00EFB50508EEB5FD
:1027000004047F0180027F00801890016FE0FF9039
:10271000016EE0FEC3EE9FFFEFB40B047F01800269
:102720007F00EF709C90016EE0FF90016FE0FEEE85
:10273000B50714906460E0FFEF20E20B90016DE0BC
:10274000FF906440EFF02290016EE0FFEFC3940C25
:10275000400590016EE4F090016DE0FF90016EE0A5
:10276000FE74082EF582E43402F583EFF090016EDA
:10277000E004F090016EE0FF900215EFF02290016E
:102780006DEFF0900216E0FFEF7003022818900141
:102790006DE0FFEF600A90016DE0FFEF64037028C9
:1027A000906435E0FF9001FBEFF09064357467F0C2
:1027B000906440E4F0906460E0FF90016EEFF09070
:1027C000016EE0FFEF20E1ED90016DE0FFEF6401AD
:1027D000600990016DE0FFEFB40316906460E0FFC4
:1027E00090016EEFF090016EE0FFEFF4FFEF20E05C
:1027F000EA90016DE0FFEF6401601390016DE0FF6E
:10280000EF6402600990016DE0FFEFB4030A9001EC
:10281000FBE0FF906435EFF02233DA929E35B16031
:1028200011377FE5FE392184893AAEC3FF3C1D95FF
:102830005B3D6358473E75FDF03F3172183F8000A5
:1028400000C2D502036C020362BD80FA50F302039A
:1028500069ED33EC330460F17B3B7AAA79B8783FB9
:10286000120112ED33EC3392D5247B5011A2D570B6
:10287000DB500BED448024045004A2D580CEEFFB46
:10288000EEFAEDF9ECF81202F6EFF582F404FC1220
:1028900002C2120021C08290281974091205DCEDD1
:1028A00033CC33D0F092D525F0A2D57001C313CC30
:1028B00013FD22C0E0C0F0C083C082C085C084C0C8
:1028C00086758600C093759300C0D075D000C00097
:1028D000C001C002C003C004C005C006C00790020A
:1028E00018E0FFEF30E2407FFF1233841233B290E2
:1028F0000218E0FFEF54FBFF900218EFF09002186F
:10290000E0FFEF54FDFF900218EFF0900218E0FF97
:10291000EF4401FF900218EFF0900218E0FFEF443F
:1029200010FF900218EFF0D007D006D005D004D0E9
:1029300003D002D001D000D0D0D093D086D084D0A4
:1029400085D082D083D0F0D0E032C0E0C083C08296
:10295000C085C084C086758600C093759300C0D0C2
:1029600075D000C006C007A2AFE433FF900192EF1C
:10297000F0D2AF9044F474FDF0900001E0FF9000BD
:1029800003E0FEEE6F6037906566E0FFEF20E22E19
:10299000900003E0FFEFC394FF4005900003E4F0D4
:1029A000900003E0FF74042FF582E43400F583E027
:1029B000FF906448EFF0900003E004F080BB9001CA
:1029C00092E0FFEF24FF92AFD007D006D0D0D09393
:1029D000D086D084D085D082D083D0E032C0E0C011
:1029E00083C082C085C084C086758600C0937593FD
:1029F00000C0D075D000C006C007A2AFE433FF907E
:102A00000196EFF0D2AF9044F474FDF0900215E01F
:102A1000FF900207E0FEEE6F6037906460E0FFEF2A
:102A200020E22E900207E0FFEFC3940C40059002D5
:102A300007E4F0900207E0FF74082FF582E4340207
:102A4000F583E0FF906440EFF0900207E004F0802F
:102A5000BB900196E0FFEF24FF92AFD007D006D0E5
:102A6000D0D093D086D084D085D082D083D0E032AD
:102A70001234009001FDE0FF900104EFF090021489
:102A8000E0FF900105EFF09001FCE0FFEF700E9089
:102A90000105E0FF900104E0FEEE6F604590010447
:102AA000E0FF74FE2FF582E43401F583E0FF90012E
:102AB00003EFF0900104E004F0900104E0FFEFC3A5
:102AC00094094005900104E4F0900104E0FF9001B6
:102AD000FDEFF09001FCE0FFEF60119001FCE4F0ED
:102AE000800A906444E0FF900103EFF01233F99004
:102AF0000103E0FF2212342A9001DDE0FF90016F14
:102B0000EFF09001F7E0FF900170EFF09001FAE034
:102B1000FFEF700E900170E0FF90016FE0FEEE6F2E
:102B2000604590016FE0FF74DE2FF582E43401F51B
:102B300083E0FF90016EEFF090016FE004F09001F0
:102B40006FE0FFEFC39419400590016FE4F090012E
:102B50006FE0FF9001DDEFF09001FAE0FFEF601110
:102B60009001FAE4F0800A906442E0FF90016EEF79
:102B7000F012342390016EE0FF22900162EFF0909A
:102B80000163ECF0A3EDF0900162E0FFEFD3941F3E
:102B90005003D38001C340057F0012335D90016272
:102BA000E0FFEF541FFF7E00EF25E0FFEE33FEEF66
:102BB0002400FFEE3444FEAA06A9077B01123396D7
:102BC000900165EEF0A3EFF0900162E0FF7E02EF6E
:102BD0008EF0A4FFAEF0EF2400FFEE3444FEAA0610
:102BE000A9077B01900163E0FEA3E0FFAD07AC06FF
:102BF0001233A5900165E0FEA3E0FF224102190017
:102C0000410218014A0220000000000000000000FC
:102C10000041000200410003004100010041021692
:102C20000041020700410215004101FD004102146C
:102C3000004101FC0041021700410243004101F83C
:102C4000004101DD004101F7004101FA004101F9B5
:102C50000044023502DC6C004402300000BB8041BD
:102C600002343044023A5DC0000043023E000000DE
:102C70004102440000C0E0C0F0C083C082C085C0F3
:102C800084C086758600C093759300C0D075D0004F
:102C9000C000C001C002C003C004C005C006C00718
:102CA00012343DEF30E11C90022FE0FFEFB401053C
:102CB00090022FE4F0900219E0FFEFB401059002BA
:102CC00019E4F0D007D006D005D004D003D002D04C
:102CD00001D000D0D0D093D086D084D085D082D0FF
:102CE00083D0F0D0E03212342A9001F7E0FF900157
:102CF000DDE0FEEEB5071A9001FAE0FFEFD3940095
:102D0000400890016E7419F0804290016EE4F080EA
:102D10003B9001F7E0FF9001DDE0FEEEC39F501510
:102D20009001DDE0FF9001F7E0FEC3EE9FFF900110
:102D30006EEFF080179001DDE0FFC374199FFF90E4
:102D400001F7E0FEEF2EFF90016EEFF012342390BA
:102D5000016EE0FF22900162EFF0900163EDF090D0
:102D60000163E0FFEFD394075003D38001C3400514
:102D70007F0012335D900162E0FFEFD3941F500398
:102D8000D38001C340057F0012335D900163E0FFF3
:102D9000EF5407FF7E00EF75F020A4FFAEF0900126
:102DA00062E0FEEE541FFE74802EF582E43444F59A
:102DB00083EFF0229001621208E3900165E4F0A332
:102DC000E4F0900002E0FFEF60429001621208C35D
:102DD000900165E0FEA3E0FFE92FF9EA3EFA120652
:102DE0001AFFEF60279001621208C3900165E0FEB0
:102DF000A3E0FFE92FF9EA3EFA12061AFF1225FABC
:102E0000900165E475F00112067280BE22122FEB6C
:102E1000900162EFF0906494E0FFEF4420FFEFF048
:102E2000906597E0FFEF4410FFEFF09044C074010D
:102E3000F0906490E0FFEF4410FFEFF09044C07416
:102E400002F0123299900162E0FF12326A22122FD0
:102E5000EB90016DEFF0906494E0FFEF4401FFEF21
:102E6000F0906494E0FFEF54FEFFEFF090016DE00E
:102E7000FF12326A1234009001FDE4F0900214E473
:102E8000F09001FCE4F0900217E4F01233F9221202
:102E90002FEB90016EEFF0906492E0FFEF4401FFA2
:102EA000EFF0906492E0FFEF54FEFFEFF090016EC0
:102EB000E0FF12326A12342A9001DDE4F09001F74B
:102EC000E4F09001FAE4F09001F9E4F012342322E6
:102ED0007C247D5E7F00122B7A7D077F00122D55AA
:102EE0009064847472F09065877420F07C297DDD95
:102EF0007F01122B7A7D077F01122D559064257476
:102F000007F09064357448F09064807402F02212E7
:102F10002FEB900162EFF0906599E0FFEF4420FF06
:102F2000EFF0906499E0FFEF4410FFEFF0906596AA
:102F3000E0FFEF4410FFEFF09044C07408F012324D
:102F400082900162E0FF12326A22122FEB90016D33
:102F5000EFF0906490E0FFEF4401FFEFF090649099
:102F6000E0FFEF54FEFFEFF090016DE0FF12326AD8
:102F700012340E900207E4F0900215E4F0123407C8
:102F8000227B0C7A0179CF1233BE900107EFF090CB
:102F90000107E0FFEF5407FF90586EEFF090010734
:102FA000E0FFEFC4540FFFEF540FFF90586FEFF0A6
:102FB0009058767444F022758600EF4E6027EF60DB
:102FC000010E75930090010CE0F595A3E0F585A343
:102FD000E0F5848B938A838982E0A30586F0A315AC
:102FE00086DFF6DEF4E4F593F595229044F4E0F8FC
:102FF0004402F0E85402FF10AF012274014FFF2297
:10300000EC4D4E700D78FCEF24E950032840FD2272
:1030100000007BF178DA0000EF28FF78FFEE38FE41
:10302000ED38FDEC38FC50E7EF2BFFEE38FEED38C5
:10303000FDEC38FC40F222050203042532782025FD
:103040003278204C3A2532782C25327820523A2595
:1030500032782C2532780A0064090909090909091E
:1030600000000000000000000000001E1E00122FE3
:10307000EB900162EFF0906496E0FFEF4420FFEFE9
:10308000F0906492E0FFEF4410FFEFF09044C074C2
:1030900004F01232B0900162E0FF12326A229065B1
:1030A00067E0FFEF547FFF900103EFF0900217E01D
:1030B000FFEF6013900103E0FFEF4480FF900103F6
:1030C000EFF0900217E4F0900103E0FF2290658991
:1030D0007472F0906489E4F07C297D4A7F03122B9E
:1030E0007A7D077F03122D559064297407F0906450
:1030F000397448F09065867402F02232EEFA90023C
:1031000034E0F88FF0A4FFAEF0E88AF0A42EFEE5DC
:10311000F03400FDEF24C9FF78FFEE38FEED38FDF6
:10312000E438FC500302300022ACEAADA08B938A55
:10313000838982E0F96017A3E0F5EAA3E0F5A0A394
:10314000E060F4FAA3E0F8A3E0F2DAF8D9E98DA0A0
:103150008CEAE4F59322EFB40A07740D123161741E
:103160000A309811A899B8130CC2983098FDA89904
:10317000C298B811F63099FDC299F5992290016272
:10318000EEF0A3EFF01233E4900162E0FEA3E0FF63
:103190001231DA7F071232C71233DD22900162EE5C
:1031A000F0A3EFF01233F2900162E0FEA3E0FF1211
:1031B00031F87F071232DD1233EB22900162EEF01C
:1031C000A3EFF012341C900162E0FEA3E0FF123284
:1031D000167F071232F312341522900164EEF0A329
:1031E000EFF07B027A44790E900164E0FEA3E0FFE9
:1031F000AD07AC061233A522900164EEF0A3EFF008
:103200007B027A44790C900164E0FEA3E0FFAD07F5
:10321000AC061233A522900164EEF0A3EFF07B021E
:103220007A44790A900164E0FEA3E0FFAD07AC06A2
:103230001233A5227C257D2C7F02122B7A7D077FFD
:1032400002122D559064867472F09064827420F09E
:1032500022EC4D6011ED60010C8B938A838982E42E
:10326000F0A3DDFCDCFA75930022EF54016004D278
:10327000AF8002C2AFEF5402FF9044F4E054FD4F20
:10328000F0229043A2E0FFEF4402FFEFF09043B240
:10329000E0FFEF4402FFEFF0229043A2E0FFEF4493
:1032A00004FFEFF09043B2E0FFEF4404FFEFF022A1
:1032B0009043A2E0FFEF4401FFEFF09043B2E0FF44
:1032C000EF4401FFEFF022900164EFF0900164E021
:1032D000FFEFC43354E0FF904487EFF02290016485
:1032E000EFF0900164E0FFEFC43354E0FF904486B8
:1032F000EFF022900164EFF0900164E0FFEFC4333F
:1033000054E0FF904485EFF022900002E0FFEF7060
:10331000091230CD9000027401F0122F0F2290029A
:1033200016E0FFEF7009122ED09002167401F01211
:103330002E0D2212309E7E00EF7D00FC122A707E40
:1033400000EC4EFEED4FFF229001F8E0FFEF700918
:103350001232349001F87401F012306E2290FFFFA7
:1033600012091EEFF09046EA7401F0900001120974
:103370001E2290010CEFF090010CE0FF90010CEF89
:10338000F080FE22900106EFF0900106E0FF9064CD
:1033900001EFF0228B938A838982E0FFA3E0FE7520
:1033A0009300228B938A838982EDF0A3ECF07593CE
:1033B0000022906471E0FFEF547FFFEFF0228B93C7
:1033C0008A838982E0759300FF228B938A838982A6
:1033D000EDF0759300229044C07408F0229044C030
:1033E0007480F0229044C87480F0229044C07440ED
:1033F000F0229044C87440F0229044C07401F0223E
:103400009044C87401F0229044C07402F0229044A9
:10341000C87402F0229044C07420F0229044C87412
:1034200020F0229044C07404F0229044C87404F048
:1034300022900219E0FF22906566E0FF229064600E
:10344000E0FF223232005100001000512000400005
:1034500051F0001001000010000114000480011957
:103460000003000140000A00014C0002000150006E
:0A34700000200118800809240080E4
:00000001FF
