:100000000213ED008F828E83E0540100000070F82F
:100010002278FFE4F6D8FD02144B900195E0FFEF43
:100020005408FF7E00EF4E70057F01121719121E53
:10003000A3EF30E331900195E0FFEF4480FF9001A2
:1000400095EFF0121E8E900177EFF090019CE0FF8B
:10005000EF4404FF90019CEFF0900177E0FF121D48
:10006000DF7F1012171990019EE0FFEF1208490080
:100070007F01024302036B0303F504000005E31252
:100080001F89900183EFF0900185E4F0900183E0F7
:10009000FFEF543FFFEF90205093FF900183E0FE6D
:1000A000EF6E6032900197E0FFEF4401FF900197FF
:1000B000EFF0121E8E900177EFF090019CE0FFEFC1
:1000C0004404FF90019CEFF0900177E0FF121DDFE8
:1000D0007F1012171922900183E0FFEF643C600A41
:1000E000900183E0FFEF647D7032900197E0FFEFB5
:1000F0004401FF900197EFF0121E8E900177EFF010
:1001000090019CE0FFEF4404FF90019CEFF0900110
:1001100077E0FF121DDF7F0112171922900183E0A3
:10012000FF121B4F900187EFF0900187E0FFEF6413
:10013000FF7003020211900183E0FF7E00900181B5
:10014000EEF0A3EFF0900187E0FFEF25E025E0243B
:1001500090F582E43420F583E493FFEF540FFF9091
:100160000184EFF0900187E0FFEF25E025E0249087
:10017000F582E43420F583E493FFEF5410FF7E0012
:10018000EF4E607A900187E0FFEF25E025E02490B4
:10019000F582E43420F583E493FFEF5420FF7E00E2
:1001A000EF4E6010900187E0FF121DF7EF70057FA2
:1001B00001121719900187E0FFEF25E025E0249157
:1001C000F582E43420F58312083D90019012083442
:1001D00090019012082B1205E9FF900186EFF09034
:1001E0000191E475F001120669900186E0FF121D8D
:1001F000C79001857401F090019E7402F0227B018A
:100200007A01798890019012083490019E7403F06D
:1002100022900197E0FFEF4401FF900197EFF01269
:100220001E8E900177EFF090019CE0FFEF4404FFF9
:1002300090019CEFF0900177E0FF121DDF7F01122B
:100240001719229001A4E0FFEF4410FF9001A4EFE2
:10025000F0121F89900186E0FEEF6E70030202F03B
:10026000900187E0FFEF25E025E02490F582E4345B
:1002700020F583E493FFEF5420FF7E00EF4E700ED5
:10028000900197E0FFEF4401FF900197EFF0121EFD
:100290008E900177EFF090019CE0FFEF4404FF9017
:1002A000019CEFF0900177E0FF121DDF900195E0D7
:1002B000FFEF5480FF7E00EF4E702F900196E0FF1D
:1002C000EF5400FF900196EFF0900196E0FCA3E060
:1002D000FD900183E0FF7E00EF7F00FEEC4EFEED1F
:1002E0004FFF900196EEF0A3EFF07F101217192246
:1002F000900186E0FF7E00900181EE8FF01206698A
:10030000900181E0FEA3E0FFC3EE9401400B900159
:100310008174FF75F001120669900185E0FF90017C
:1003200084E0FEEED39F402890019012082B120526
:10033000E9FF900186EFF0900191E475F00112065B
:1003400069900186E0FF121DC7900185E004F0224C
:10035000900181E0FEA3E0FFEF64FFFF121DC79054
:100360000185E4F090019E7404F022121F8990012F
:1003700086EFF0900186E0FF90019012082BEF12BB
:100380000602900191E475F001120669900185E082
:1003900004F09001A4E0FFEF4410FF9001A4EFF0FF
:1003A000900195E0FFEF4404FF900195EFF090017C
:1003B00086E0FF7E00900181EE8FF01206699001C9
:1003C00081E0FEA3E0FFC3EE9401400B9001817435
:1003D000FF75F001120669900185E0FF900184E04D
:1003E000FEEED39F40030205E8900185E4F0900102
:1003F0009E7404F022121F897E00900181E0FCA30C
:10040000E0FD7C00ED64FFFDED6F7002EC6E60724C
:10041000900197E0FFEF4401FF900197EFF0121E6B
:100420008E900177EFF090019CE0FFEF4404FF9085
:10043000019CEFF0900177E0FF121DDF900195E045
:10044000FFEF5480FF7E00EF4E702F900196E0FF8B
:10045000EF5400FF900196EFF0900196E0FCA3E0CE
:10046000FD900183E0FF7E00EF7F00FEEC4EFEED8D
:100470004FFF900196EEF0A3EFF07F1012171902D4
:1004800005DA900195E0FFEF547BFF900195EFF0C6
:10049000900197E0FFEF4402FF900197EFF0900189
:1004A00096E0FFEF5400FF900196EFF0900196E088
:1004B000FCA3E0FD900183E0FF7E00EF7F00FEECF7
:1004C0004EFEED4FFF900196EEF0A3EFF0900195F8
:1004D000E0FFEF5440FF7E00EF4E600E900197E08A
:1004E000FFEF4404FF900197EFF0900195E0FFEFDC
:1004F0004440FF900195EFF0900187E0FFEF701E00
:10050000121E8E900177EFF090019CE0FFEF54FBFC
:10051000FF90019CEFF0900177E0FF121DDF90014A
:1005200087E0FFEF25E025E02490F582E43420F514
:1005300083E493FFEF5420FF7E00EF4E600D9001A7
:1005400087E0FF121FD17F01121719900187E0FF8A
:10055000121C3B900187E0FFEF25E025E02490F599
:1005600082E43420F583E493FFEF5410FF7E00EF24
:100570004E7062121E8E900177EFF0900176E4F0DB
:10058000900184E0FF900176E0FEEEC39F503E9024
:100590000176E0FF74882FF582E43401F583E0FFF3
:1005A000900187E0FEEE25E025E02491F582E43419
:1005B00020F58312083D900176E0FEE92EF9E43A39
:1005C000FAEF120602900176E004F080B390017712
:1005D000E0FF121DDF7F01121719900181E4F0A3E3
:1005E000E4F0227F0112171922BB010689828A8357
:1005F000E0225002E722BBFE02E32289828A83E4E2
:100600009322BB010689828A83F0225002F722BB23
:10061000FE01F322BC000BBE0029EF8DF084FFAD7C
:10062000F022E4CCF875F008EF2FFFEE33FEEC3348
:10063000FCEE9DEC984005FCEE9DFE0FD5F0E9E444
:10064000CEFD22EDF8F5F0EE8420D21CFEADF07563
:10065000F008EF2FFFED33FD4007985006D5F0F27C
:1006600022C398FD0FD5F0EA22C5F0F8A3E028F0E8
:10067000C5F0F8E582158270021583E038F022BBE0
:10068000010A89828A83E0F5F0A3E022500687F010
:1006900009E71922BBFE07E3F5F009E31922898275
:1006A0008A83E493F5F074019322EF2BFFEE3AFE78
:1006B000ED39FDEC38FC22E88FF0A4CC8BF0A42CB3
:1006C000FCE98EF0A42CFC8AF0EDA42CFCEA8EF060
:1006D000A4CDA8F08BF0A42DCC3825F0FDE98FF047
:1006E000A42CCD35F0FCEB8EF0A4FEA9F0EB8FF03E
:1006F000A4CFC5F02ECD39FEE43CFCEAA42DCE35C6
:10070000F0FDE43CFC2275F008758200EF2FFFEE4F
:1007100033FECD33CDCC33CCC58233C5829BED9A2D
:10072000EC99E58298400CF582EE9BFEED9AFDEC8B
:1007300099FC0FD5F0D6E4CEFBE4CDFAE4CCF9A8D1
:100740008222B800C1B90059BA002DEC8BF084CFD9
:10075000CECDFCE5F0CBF97818EF2FFFEE33FEEDB0
:1007600033FDEC33FCEB33FB10D703994004EB99DA
:10077000FB0FD8E5E4F9FA227818EF2FFFEE33FEED
:10078000ED33FDEC33FCC933C910D7059BE99A4022
:1007900007EC9BFCE99AF90FD8E0E4C9FAE4CCFB3A
:1007A0002275F010EF2FFFEE33FEED33FDCC33CC8E
:1007B000C833C810D7079BEC9AE899400AED9BFD17
:1007C000EC9AFCE899F80FD5F0DAE4CDFBE4CCFA2A
:1007D000E4C8F922EF4BFFEE4AFEED49FDEC48FC80
:1007E00022E8600FECC313FCED13FDEE13FEEF13D4
:1007F000FFD8F122E8600FEFC333FFEE33FEED3395
:10080000FDEC33FCD8F122E0FCA3E0FDA3E0FEA365
:10081000E0FF22E0F8A3E0F9A3E0FAA3E0FB22EC7A
:10082000F0A3EDF0A3EEF0A3EFF022E0FBA3E0FADB
:10083000A3E0F922EBF0A3EAF0A3E9F022E493FBB2
:10084000740193FA740293F922D083D082F8E4936E
:100850007012740193700DA3A393F8740193F58241
:100860008883E4737402936860EFA3A3A380DFE539
:10087000162582F582E5153583F583B51504858245
:10088000162210AF06858216F51522858216F515FB
:10089000D2AF22EC8EF0A4CCC5F0CCCDF8EFA4CE34
:1008A000C5F02DFDE43CFCE8A42EC8C5F03DFDE4F8
:1008B0003CFCEFA4FFE5F028FEE43DFDE43CFC2217
:1008C000E709F608DFFA8046E709F208DFFA803E1A
:1008D00088828C83E709F0A3DFFA8032E309F60807
:1008E000DFFA806EE309F208DFFA806688828C8383
:1008F000E309F0A3DFFA805A89828A83E0A3F6082D
:10090000DFFA804E89828A83E0A3F208DFFA804210
:1009100080D280FA80C680D4805580F280298010F1
:1009200080A680EA809A80A880DA80E280CA802946
:1009300088848C8589828A83E493A30586F0A30545
:1009400086DFF5DEF3800B89828A83E493A3F608C1
:10095000DFF9ECFAA9F0EDFB2288848C8589828A84
:1009600083E0A30586F0A30586DFF6DEF480E38945
:10097000828A83E493A3F208DFF980D688F0EF60DF
:10098000010E4E60CD88F0ED2402B4040050C3F592
:1009900082EB2402B4040050B9232345822390093A
:1009A0001073BB010CE58229F582E5833AF583E0FB
:1009B000225006E92582F8E622BBFE06E92582F8E8
:1009C000E222E58229F582E5833AF583E49322F871
:1009D000E0FBA3A3E0F925F0F0E582158270021593
:1009E00083E0FA38F022E5082449F582E43401F581
:1009F00083E0050822900146300703900149E47521
:100A0000F0011209CF0205E92000E97F2ED2008013
:100A100018EF540F2490D43440D4FF30040BEF244B
:100A2000BFB41A0050032461FFE5096002150905EF
:100A30000CE50C7002050B30070E900146E475F0D2
:100A4000011209CFEF020602021D337403D20780A0
:100A500003E4C207F508900146120834E4F509F5ED
:100A60000BF50CE50960077F20120A2980F5750A4D
:100A7000FFC201C200C202C203C205C206C20812FE
:100A800009F5FF700D3007057F00120A3AAF0CAE72
:100A90000B22B4255FC2D5C2041209F5FF24D0B4DD
:100AA0000A00501A75F00A780930D50508B6FF011A
:100AB00006C6A426F620D5047002D20380D924CF1E
:100AC000B41A00EF5004C2E5D204020C3BD20180FC
:100AD000C6D20080C0D20280BCD2D580BAD20580F6
:100AE000B47F20120A292002077401B5090040F1E1
:100AF0001209E6FF120A29020A63D208D20680957B
:100B00001209E6FB1209E6FA1209E6F94A4B7006E9
:100B1000790C7A0D7BFF20022EE509602A7E008E7B
:100B2000827583001209A260060EEE650A70F0C29B
:100B3000D5EBC0E0EAC0E0E9C0E0EE120C82D0E004
:100B4000F9D0E0FAD0E0FB1205E9FF60AAEBC0E0C3
:100B5000EAC0E0E9C0E0120A29D0E02401F9D0E0BF
:100B60003400FAD0E0FBE50A0460DCD50AD98087BE
:100B70007BFF7A0C797ED202809C79108002790802
:100B8000C206C2088008D2D5790A8004790AC2D583
:100B9000E50A047002F50AE4FAFDFEFF1209E6FC1C
:100BA0007B082001131209E6FD7B1030000A1209B0
:100BB000E6FE1209E6FF7B20EC3382D592D5501376
:100BC000C3E43000069FFFE49EFEE42001039DFD88
:100BD000E49CFCE4CBF8C201EC700CCFCECDCCE8A9
:100BE00024F8F870F38017C3EF33FFEE33FEED33D4
:100BF000FDEC33FCEB33FB994002FB0FD8E9EB3003
:100C00000105F8D0E0C448B201C0E00AEC4D4E4FF7
:100C100078207B0070C2EAB50A0040BCC0E0120C2C
:100C200084D0F0D0E0200104C4C0E0C4B201C0F020
:100C3000120A12D0F0D5F0EB020A631208490B0039
:100C4000530B7A580AD14C0ACD420B7E4F0B864487
:100C50000B86490AE6430B8C550B70460B70450B0F
:100C600070470D2C500AD52D0AD92E0AFC2B0ADD0F
:100C7000230AFA200D152A0A954800000AF43F3F7E
:100C80003F00790AA2D5200314300509B9100204E7
:100C900004B9080104A2D52006025001042002680C
:100CA0009202B509005034C0E07F203003197F3034
:100CB000A20272067205500F120CDBC202C206C2FB
:100CC00005C2087F30800F300503E9C0E0120A2911
:100CD000300503D0E0F9D0E0B509CC3005177F30FE
:100CE000B9100C120A297F583004077F788003B9A5
:100CF0000803120A293002057F2D020A297F2020CD
:100D000008F87F2B2006F322920280CF286E756CA4
:100D10006C2900D2011209E63001F8C201780930CD
:100D2000D50108F6020A952D504349581209E624C8
:100D300003B405004001E4900D2793120A1A743A97
:100D4000120A1AD203750904020B7A7B007A4679DB
:100D5000E8121FF6EF4405FD7B007A4679E8122081
:100D600002751400E514C39409503AAF14EF75F0FE
:100D700005A42498F582E43420F583AF82AE838EF7
:100D8000088F09AE08AF098F828E8312083DAE0826
:100D9000AF098F828E83740393FC740493FD121D3C
:100DA00096051480BF751400E514C394015078AF04
:100DB00014EF75F008A424C5F582E43420F583AF60
:100DC00082AE838E0A8F0BAE0AAF0B8F828E831298
:100DD000083D8B0C8A0D890EAE0AAF0B8F828E8375
:100DE000A3A3A312083D8B0F8A108911AE0AAF0B83
:100DF0008F828E83740693F512740793F513AB0FED
:100E0000AA10A911C003C002C001AB0CAA0DA90E03
:100E100090014B120834D001D002D003AF13AE12B0
:100E2000121CA7051480817B087A007900121CDB54
:100E30007B017A507903121FF6EF4402FD7B017AA1
:100E40005079031220027B017A507913121FF6EFBA
:100E50004402FD7B017A5079131220029043A0E0F6
:100E6000FFEF4440FF9043A0EFF09043C2E0FFEF5C
:100E70004410FF9043C2EFF07B087A0779D0C0039B
:100E8000C002C0017B007A51790090014B120834F6
:100E9000D001D002D0037F0A7E00121CA77B087A03
:100EA0000779DCC003C002C0017B007A5179C2908F
:100EB000014B120834D001D002D0037F087E00120B
:100EC0001CA77B087A0779E4C003C002C0017B003D
:100ED0007A51793290014B120834D001D002D003FC
:100EE0007F087E00121CA77B087A0779ECC003C03C
:100EF00002C0017B007A51794290014B120834D034
:100F000001D002D0037F087E00121CA77B087A075D
:100F100079F4C003C002C0017B007A51795290017C
:100F20004B120834D001D002D0037F087E00121C7F
:100F3000A79044F47401F0904322E0FFEF4408FFCF
:100F4000904322EFF09046ECE0FFEFC3940550068B
:100F5000904689743AF090480074F1F01212B09003
:100F6000480074B1F0121C717B007A4379A0C00371
:100F7000C002C0017B007A4379B090014B12083463
:100F8000D001D002D0037F0E7E00121CA79043B088
:100F9000E0FFEF54FDFFEFF02290016FEEF0A3EFC2
:100FA000F0900171EDF0122022900173EFF0122009
:100FB00018900174EEF0A3EFF0900174E0FEA3E04E
:100FC000FF90016FE0FCA3E0FDED6F7002EC6E702E
:100FD0000302112D9043A2E0FFEF5401FF90017234
:100FE000EFF0900173E0FFEF705E900174E0FEA3FC
:100FF000E0FFEF4E600C90016FE0FEA3E0FFEF4ECC
:101000007046900174E0FEA3E0FFEF4E701D7B027E
:101010007A40798090016FE0FCA3E0FD121FAA9056
:101020004082E0FFEF54BFFFEFF022904082E0FFEC
:10103000EF4440FFEFF07B027A40798090016FE04F
:10104000FCA3E0FD121FAA22900172E0FFEF606C8A
:10105000904001E4F09040107401F0904014E4F0EE
:10106000904008E0FFEF547FFFEFF0904082E0FFF8
:10107000EF5408FF7E00EF4E600C90016FE0FEA37E
:10108000E0FFEF4E70367B027A407902900174E007
:10109000FCA3E0FD121FAA9040017407F0904001EC
:1010A000E0FFEF5401FF7E00EF4E70F19043A2E0AD
:1010B000FFEF54FEFFEFF0904001E4F09043A2E018
:1010C000FFEF5401FF7E00EF4E603A7B027A4079D9
:1010D0000290016FE0FCA3E0FD121FAA900171E0F5
:1010E000FFEF60047F0280027F00EF4401FF904029
:1010F00001EFF0904001E0FFEF5401FF7E00EF4E62
:10110000602B80EF227B027A40798090016FE0FCB7
:10111000A3E0FD121FAA9043A2C083C082E0FF900B
:101120000172E0FEEF4EFFD082D083EFF0229001FB
:101130009BE0FF906465E0FEEF4EFF90019BEFF0B7
:1011400090019BE0FFEF5402FF7E00EF4E60139092
:101150000197E0FFEF4410FF900197EFF090019F9F
:10116000E4F090019BE0FFEF5404FF7E00EF4E603F
:101170001F90019FE0FFEFB446109001A1E0FFEF48
:101180004401FF9001A1EFF0800690019FE004F080
:1011900090019BE0FFEF5401FF7E00EF4E606F90E7
:1011A0000195E0FFEF5484FF7E00EF4E603A90011E
:1011B00097E0FFEF4401FF900197EFF0900195E079
:1011C000FFEF547FFF900195EFF0121E8E90016E9D
:1011D000EFF090019CE0FFEF4404FF90019CEFF0E2
:1011E00090016EE0FF121DDF900195E0FFEF4401DA
:1011F000FF900195EFF0906477E0FFEF54FBFFEF75
:10120000F0900193E0FEA3E0FF7D00120F999001A2
:101210009BE0FFEF5408FF7E00EF4E70030212AA1E
:10122000906447E0FF90019AEFF0906447E0FF90F0
:10123000019AEFF0906447E0FF90019AEFF090641C
:1012400057E0FF906447E0FEEE2FFF90019AEFF029
:1012500090019AE0FFEF64806022900193E0FEA38A
:10126000E0FF90019AE0FD7C001208937B807A00F9
:10127000790078001207427D00120F99900195E0E5
:10128000FFEF54FBFF900195EFF090019E7401F089
:10129000900195E0FFEF4408FF900195EFF0904436
:1012A000D87402F09044C07402F090019BE4F022E4
:1012B0007B007A4079807D4D7C00121FA89040828F
:1012C0007418F07B007A4079847D4D7C00121FA851
:1012D0009040867418F07B007A4079887D1D7C00F0
:1012E000121FA890408A7419F07B007A40798C7D97
:1012F0001D7C00121FA890408E7419F0904300745A
:1013000002F09040007408F09042007403F07B0CEF
:101310007A017908121FF69046A1EFF07B007A421D
:1013200079227D087C00121FA87B007A4279207DFB
:10133000517C12121FA890014AE4F07F197E007DB3
:10134000007C0090014612081F900146120807D346
:10135000EF9400EE9400404E90014AE0FFEF6403EA
:101360006044904225E0FFEF5401FF7E0090014A67
:10137000E0FEEE25E0FEEE4FFFEF5403FF90014A42
:10138000EFF07FE07E017D007C00121C00900146A2
:101390001208077BFF7AFF79FF78FF1206AA9001F7
:1013A0004612081F80A3900146120807EF4E7005F1
:1013B0007F03121EB77B007A4079047D007C011206
:1013C0001FA89040047407F0904006E4F090400895
:1013D0007448F0904004E4F09040017402F09043AF
:1013E000A2E0FFEF440FFF9043A2EFF022759300BD
:1013F00078007583467582E8E04401F0009046EC81
:10140000E0F99046FAE0FAB903225420B40012B889
:10141000001AEA900FFFF07401900FFEF09046F66C
:10142000F0900FFEE06005900FFFE0FA9048007426
:10143000C0F075812190000078007910E4F0A3D805
:10144000FCD9FAEA9001CFF002001175150F75165C
:10145000FD120D4B021492021666E493A3F8E49376
:10146000A34003F68001F208DFF48029E493A3F897
:101470005407240CC8C333C4540F4420C883400409
:10148000F456800146F6DFE4800B010204081020C8
:101490004080901A55E47E019360BCA3FF543F3016
:1014A000E509541FFEE493A360010ECF54C025E06C
:1014B00060A840B8E493A3FAE493A3F8E493A3C824
:1014C000C582C8CAC583CAF0A3C8C582C8CAC583B5
:1014D000CADFE9DEE780BE7D077F0012199D7C1A16
:1014E0007DAD7F0012185D9044D87401F09044D80F
:1014F0007401F07D077F0112199D7C1A7DFE7F012A
:1015000012185D121E7990642774B0F0906485E023
:10151000FFEF440DFFEFF0121E8E900148EFF090A8
:101520006495E0FFEF4410FFEFF0900148E0FF12F8
:101530001DDF906527E4F09065377478F01220186D
:10154000900193EEF0A3EFF0906477E0FFEF440199
:10155000FFEFF0900149E4F0900149E0FFEFC39400
:10156000025024900149E0FFEF90204E93FF90013C
:1015700049E0FE74982EF582E43401F583EFF09093
:101580000149E004F080D1900196E0FEA3E0FF7EE7
:10159000007F00900196EEF0A3EFF09044C074013C
:1015A000F07F002290014BEFF0900001E0FF9001EE
:1015B0004CEFF0900003E0FF90014DEFF090014DF3
:1015C000E0FF90014CE0FEEEC39F502690014DE0FD
:1015D000FF7E00EF24FFFFEE34FFFE90014CE0FDA4
:1015E0007C00EFB50508EEB504047F0180027F00A2
:1015F000801890014DE0FF90014CE0FEC3EE9FFF8C
:10160000EFB4FE047F0180027F00EF709C90014CDC
:10161000E0FF90014DE0FEEEB50714906464E0FF3A
:10162000EF20E20B90014BE0FF906443EFF022903B
:10163000014CE0FFEFC394FF400590014CE4F090B3
:10164000014BE0FF90014CE0FE74042EF582E4347F
:1016500000F583EFF090014CE004F090014CE0FFC6
:10166000900001EFF022D2AF9044F474FDF0121E0E
:1016700025121E3A121D7D121E4F12202C12200E12
:101680009001A5EFF09001A5E0FFEF30E0147FFF9F
:10169000121EE97F00121EF97FFF121F497F001200
:1016A0001F599001A5E0FFEF30E1167F00121EE9FF
:1016B0007FFF121EF97F00121F497FFF121F598002
:1016C000147F00121EE97F00121EF97F00121F49CD
:1016D0007F00121F59122045EF30E1A17B017A01F2
:1016E00079A6C003C002C0017BFF7A207933900144
:1016F000491208349001A5E0FF7E0090014CEEF005
:10170000A3EFF0D001D002D003120A4B7B017A0183
:1017100079A61219FC02167D22900178EFF0900153
:1017200078E0FFEFB4102F900195E0FFEF54FBFF3E
:10173000900195EFF0900195E0FFEF5440FF7E009F
:10174000EF4E70030217C9900197E0FFEF4404FFCA
:10175000900197EFF022900178E0FFEFB4200F9016
:101760000195E0FFEF4440FF900195EFF0229001DA
:1017700078E0FFEF64017051900195E0FFEF54F7BE
:10178000FF900195EFF09044C87402F0906477E008
:10179000FFEF4404FFEFF0121E8E900179EFF090FE
:1017A0006491E0FFEF4401FFEFF0906491E0FFEF00
:1017B00054FEFFEFF0900179E0FF121DDF9044D856
:1017C0007402F090019E7401F022C0E0C083C082D8
:1017D000C085C084C086758600C093759300C0D054
:1017E00075D000C006C007A2AFE433FF90017BEFC5
:1017F000F0D2AF9044F474FDF0900001E0FF90004F
:1018000003E0FEEE6F6037906464E0FFEF20E22EAD
:10181000900003E0FFEFC394FF4005900003E4F065
:10182000900003E0FF74042FF582E43400F583E0B8
:10183000FF906443EFF0900003E004F080BB900160
:101840007BE0FFEF24FF92AFD007D006D0D0D0933B
:10185000D086D084D085D082D083D0E03290014A27
:10186000EFF090014BECF0A3EDF090014AE0FFEFB8
:10187000D3941F5003D38001C340057F00121E6420
:1018800090014AE0FFEF541FFF7E00EF25E0FFEEDE
:1018900033FEEF2400FFEE3444FEAA06A9077B01C5
:1018A000121F9B90014DEEF0A3EFF090014AE0FF74
:1018B0007E02EF8EF0A4FFAEF0EF2400FFEE344482
:1018C000FEAA06A9077B0190014BE0FEA3E0FFAD55
:1018D00007AC06121FAA90014DE0FEA3E0FF229084
:1018E0006578E0FFEF54C0FF900146EFF0900146AD
:1018F000E0FFEF4409FF906578EFF0906598E0FF16
:10190000EF4401FFEFF07FFF121EC97FFF121ED9C7
:101910007F00121EE97F00121EF97F00121F0912BC
:101920001E8E900147EFF0906598E0FFEF4410FFA6
:10193000EFF0900147E0FF121DDF121FB722906504
:1019400079E0FFEF54C0FF900146EFF0900146E0D0
:10195000FFEF4409FF906579EFF0906599E0FFEFA4
:101960004401FFEFF07FFF121F297FFF121F397F15
:1019700000121F497F00121F597F00121F69121E9B
:101980008E900147EFF0906599E0FFEF4410FFEF74
:10199000F0900147E0FF121DDF121FC42290014AA0
:1019A000EFF090014BEDF090014BE0FFEFD3940787
:1019B0005003D38001C340057F00121E6490014A8A
:1019C000E0FFEFD3941F5003D38001C340057F0095
:1019D000121E6490014BE0FFEF5407FF7E00EF758D
:1019E000F020A4FFAEF090014AE0FEEE541FFE741A
:1019F000802EF582E43444F583EFF0229001461204
:101A00000834900149E4F0A3E4F0900002E0FFEF15
:101A1000604290014612082B900149E0FEA3E0FFCE
:101A2000E92FF9EA3EFA1205E9FFEF602790014637
:101A300012082B900149E0FEA3E0FFE92FF9EA3EEE
:101A4000FA1205E9FF1215A4900149E475F001129C
:101A5000066980BE224101DE004101DF0041019C98
:101A6000FB41019DFC45017C00000000004301900A
:101A70000000004100020041000300410001004459
:101A800001CB016E36004401C600005DC04101CAB1
:101A9000184401D02EE000004101DD004301D900CF
:101AA00000004301D40000004101E00000C0E0C09C
:101AB000F0C083C082C085C084C086758600C09394
:101AC000759300C0D075D000C000C001C002C00333
:101AD000C004C005C006C00712112ED007D006D022
:101AE00005D004D003D002D001D000D0D0D093D004
:101AF00086D084D085D082D083D0F0D0E032C0E0D0
:101B0000C0F0C083C082C085C084C086758600C016
:101B100093759300C0D075D000C000C001C002C052
:101B200003C004C005C006C00712001AD007D006C3
:101B3000D005D004D003D002D001D000D0D0D093B3
:101B4000D086D084D085D082D083D0F0D0E03290BF
:101B50000178EFF090017A74FFF0900179E4F09051
:101B60000179E0FFEFC39402502E900179E0FF74F9
:101B7000982FF582E43401F583E0FF900178E0FED0
:101B8000EEB5070C900179E0FF90017AEFF0800844
:101B9000900179E004F080C790017AE0FF22121EE4
:101BA0008E90014AEFF0906491E0FFEF4420FFEF48
:101BB000F0906596E0FFEF4410FFEFF0906496E040
:101BC000FFEF4420FFEFF0906492E0FFEF4410FF3E
:101BD000EFF090014AE0FF121DDF22121E8E9001ED
:101BE00046EFF0906494E0FFEF4410FFEFF0904474
:101BF000C07404F0121E0E900146E0FF121DDF2299
:101C0000EC4D4E700D78FCEF24E950032840FD2286
:101C100000007BF178DA0000EF28FF78FFEE38FE55
:101C2000ED38FDEC38FC50E7EF2BFFEE38FEED38D9
:101C3000FDEC38FC40F22205020304900178EFF03D
:101C4000900178E0FFEF1208491C53001C6201006C
:101C5000001C709001A2E0FFEF4402FF9001A2EF90
:101C6000F0229001A2E0FFEF4405FF9001A2EFF007
:101C7000227B0C7A0179CF121FF6900146EFF0908B
:101C80000146E0FFEF5407FF90586EEFF0900146D9
:101C9000E0FFEFC4540FFFEF540FFF90586FEFF0C9
:101CA0009058767444F022758600EF4E6027EF60FE
:101CB000010E75930090014BE0F595A3E0F585A327
:101CC000E0F5848B938A838982E0A30586F0A315CF
:101CD00086DFF6DEF4E4F593F59522ACEAADA08B51
:101CE000938A838982E0F96017A3E0F5EAA3E0F51F
:101CF000A0A3E060F4FAA3E0F8A3E0F2DAF8D9E9EF
:101D00008DA08CEAE4F59322900146EFF090014615
:101D1000E0FFEF1208491D1D0000001D271214D717
:101D2000900147EFF080069001477401F090014761
:101D3000E0FF22EFB40A07740D121D3E740A3098BA
:101D400011A899B8130CC2983098FDA899C298B8F8
:101D500011F63099FDC299F599227C177DCA7F0250
:101D600012185D7D077F0212199D9064247407F09C
:101D70009064347448F09064847402F02212204B12
:101D8000EF60057F00121E647F00121D08EF6005E2
:101D90007F00121E6422EC4D6011ED60010C8B93EC
:101DA0008A838982E4F0A3DDFCDCFA75930022903B
:101DB00064817472F09065867420F0906486744734
:101DC000F0906482E4F022900178EFF09001DDE081
:101DD000FFEF600A900178E0FF906445EFF022EF9A
:101DE00054016004D2AF8002C2AFEF5402FF9044AE
:101DF000F4E054FD4FF022900178EFF0900178E08C
:101E0000FF8000900179E4F0900179E0FF22904397
:101E1000A2E0FFEF4402FFEFF09043B2E0FFEF4497
:101E200002FFEFF0229001DEE0FFEF70091218DFF1
:101E30009001DE7401F0121FDE229001DFE0FFEF5F
:101E4000700912193E9001DF7401F0121FEA22900E
:101E50000002E0FFEF7009121D5A9000027401F0B9
:101E6000121BDB2290FFFF12086FEFF09046EA741E
:101E700001F090000112086F229001DDE0FFEF7089
:101E800009121DAF9001DD7401F0121B9E229044D7
:101E9000F4E0F84402F0E85402FF10AF01227401AC
:101EA0004FFF22906566E0FFEF547FFF900178EFCF
:101EB000F0900178E0FF2290014BEFF090014BE0B1
:101EC000FF90014BEFF080FE22900148EFF090016F
:101ED00048E0FF906508EFF022900148EFF0900194
:101EE00048E0FF906548EFF022900148EFF0900144
:101EF00048E0FF906528EFF022900148EFF0900154
:101F000048E0FF906538EFF022900148EFF0900133
:101F100048E0FF906588EFF022906568E0FF90014F
:101F200048EFF0900148E0FF22900148EFF0900167
:101F300048E0FF906509EFF022900148EFF0900132
:101F400048E0FF906549EFF022900148EFF09001E2
:101F500048E0FF906529EFF022900148EFF09001F2
:101F600048E0FF906539EFF022900148EFF09001D2
:101F700048E0FF906589EFF022906569E0FF9001ED
:101F800048EFF0900148E0FF22906441E0FF9001AB
:101F900078EFF0900178E0FF228B938A838982E0CA
:101FA000FFA3E0FE759300228B938A838982EDF074
:101FB000A3ECF075930022121F19EF30E4051220F4
:101FC0003980F422121F79EF30E40512203F80F4AB
:101FD00022900178EFF0900178E0FF800022906578
:101FE00078E0FFEF4480FFEFF022906579E0FFEFAB
:101FF0004480FFEFF0228B938A838982E0759300FF
:10200000FF228B938A838982EDF0759300229001E1
:102010009DE0FFEF5403FF227B027A407980121F7C
:102020009B22904082E0FFEF5407FF229044C0744F
:1020300004F022253564200A00906558E0FF2290C4
:102040006559E0FF22906464E0FF227F0022C10313
:1020500080C14203C48506470849CA8B4C0D8ECF08
:10206000501192D31455D697D8991A5B9CDD5E1FF8
:102070002061E2A36425A6E7A8E96A2BECAD2E6FE8
:10208000F0B13273B4F576377839BAFB3C7DFEBFD8
:102090001101019C0101019D0051100020005160BF
:1020A00000100051F0001001000000800101000F3D
:1020B0000001140008000140000A00014C00020069
:0D20C0000150000020010080080750008042
:00000001FF
