:100000000221E6008F828E83E0540100000070F828
:100010002278FFE4F6D8FD022244020362E86480FD
:10002000F8E933E83360110460F0ED33EC33700924
:10003000E8FCE9FDEAFEEBFF220460DED3EB9FEA79
:100040009EE99DE8C2E78CF0C2F795F0400CE8CC41
:10005000F8E9CDF9EACEFAEBCFFB12032D85D0F00B
:100060005804700320D5B3E80470075002B2D502DB
:10007000036C92D5EC0460F7E4CCC0E0C398F86060
:100080003B94186008400DD0E0FB020344E4FBFA07
:10009000C9FC8028E830E406E4C9FBE4CAFCE83087
:1000A000E305E4C9CACBFCE854076010F8C3E913C0
:1000B000F9EA13FAEB13FBEC13FCD8F130F52FC37C
:1000C000E49CFCEF9BFFEE9AFEED99FDD0E0FBEF88
:1000D0004E4D4C701222DB03020369EC2CFCEF3313
:1000E000FFEE33FEED33FDED30E7EB020344EF2B83
:1000F000FFEE3AFEED39FDD0E0FB50130BBB0003E1
:1001000002036CED13FDEE13FEEF13FFEC13FC0284
:100110000344EC4D6011E8497017ED33EC33046093
:100120000DE4FCFFFEFD22E933E8330470F802031E
:100130006212032D58046009E4CC24815006285033
:100140000902036C284003020369C0E0EB4A7044D3
:10015000B98006D0E0FB020358EF4E701CBD80084A
:10016000EBFFEAFEE9FD80EBE98DF0A4FEE5F0028D
:1001700001FBE9CDF9EAFEEBFFEF89F0A4FCE5F025
:10018000CE89F0A42EFFE435F0CD89F0A42DFEE455
:1001900035F08067EF4E7005BD80D780C3EF8BF0E0
:1001A000A4ACF0EE8BF0A42CFCE435F0F8EF8AF070
:1001B000A42CE5F038FCE433CB8DF0A42CFCE5F066
:1001C0003BF8EE8AF0A42CFCE5F038F8E433CF8954
:1001D000F0A42CFCE5F038CF3400CE89F0A42FFF3A
:1001E000E5F03EFEE433C98DF0A42EFEE5F039CDF6
:1001F0008AF0A42FFFE5F03EFEE43DFD33D0E0FBA6
:1002000050070BBB000F02036CEC2CFCEF33FFEE2E
:1002100033FEED33FD02034402036CEC5D04600524
:10022000E85904700302036212032D580460F6ECCF
:100230004860F2EC7004FDFEFF22C860DB2481C838
:100240005009C398600250060203699850CAF582AB
:10025000E9294B4A7005AB8202035875F0007C1AFD
:100260007880C3EF9BEE9AED99400DC3EF9BFFEEB4
:100270009AFEED99FDE842F0DC23ACF0D0E0FFD02F
:10028000E0FED0E0FDAB8220E7101BEB60BAEC2C67
:10029000FCEF33FFEE33FEED33FD020344E803F8D9
:1002A00030E705C0F075F000EF2FFFEE33FEED33C1
:1002B000FD40B830E7C280AA75F020800E75F010BE
:1002C000800575F0087D007E007F003392D530D523
:1002D00003120809EC334010EF33FFEE33FEED3329
:1002E000FDEC33FCD5F0ED22E5F0247EA2D513CC55
:1002F00092E7CDCEFF22EDD2E7CD33EC3392D52479
:10030000814006E4FFFEFDFC22FCE4CFCECDCC24F0
:10031000E0501174FF80EDC3CC13CCCD13CDCE13C0
:10032000CECF13CF0470F030D5DE020809E9D2E752
:10033000C933E833F892D5EDD2E7CD33EC33FC5036
:1003400002B2D522EC30E7100FBF000C0EBE000841
:100350000DBD00040BEB6014A2D5EB13FCED92E78E
:10036000FD2274FFFCFDFEFF22E480F8A2D574FF9D
:1003700013FC7D80E480EFED33EC33601004700FEC
:10038000ED547F7005740292E0227404220422E48A
:100390002274F8CC6480CCC86480C8F58204604FB5
:1003A000C3EB9FF5F0EA9E42F0E99D42F0E89C45E0
:1003B000F0603C501DE5825FFFE582D313CB5BCB41
:1003C000F42B5582FB50280ABA002409B9002008F2
:1003D000801DE5825BFBE582D313CF5FCFF4C313AF
:1003E0002F5582FF50090EBE00050DBD00010CC344
:1003F000EB9FF5F0EA9E42F0E99D42F0E89C45F063
:100400006007CC4820E701B3EC22ED33EC33600AFF
:10041000047003BD8004ECB2E7FC22F920E7362427
:10042000F950037907E4F42402FBE5821582700297
:100430001583DBF6E024FB501BE96014E4F0E58251
:10044000158270021583E004F0B40A08E4F0D9EED6
:100450007401F00A22C2D522ED33EC3392D5FA6052
:100460002AB4FF33EDC2E77BFF60067A04797DE4AE
:10047000227A04798620D5047A047981224E614E4D
:10048000002B494E46002D494E4600E47A08F0A361
:10049000DAFC7B00740722C083C082ECC0E0EDC0B0
:1004A000E0EEC0E0EFC0E0EA75F010A4CAABF07572
:1004B000F04DA42BFBE435F0FCEA2410FAEB34C534
:1004C000FBEC34D9FCEDC2E7FF75F056A4F424111F
:1004D000C5F0F434C58FF0A42AE5F03BE43CF020ED
:1004E000E71412058DD0E0FFD0E0FED0E0FDD0E0B3
:1004F000FC12021B8014F40412058DD0E0FFD0E042
:10050000FED0E0FDD0E0FC120112D082D083E0FAF0
:10051000EDD2E7CD33EC332482FBE4C3CF33CFCE2F
:1005200033CECD33CD33DBF37B0775F00A84600423
:10053000F0A31B0AE5F0F0A38FF0740AA4FFACF05F
:100540008EF0740AA42CFEACF050010C8DF0740AED
:10055000A42CFDE435F0F0A3DBDE7407223F80001D
:10056000004120000042C80000447A0000461C40C0
:100570000047C35000497424004B1896804CBEBC01
:10058000205A0E1BCA6753C21C749DC5AEFB600681
:100590005407601C23231205BBEB54386009120575
:1005A000A71205B6120112ECF8EDF9EEFAEFCB2224
:1005B000EB1205B680F1543803241C90055DFE93C0
:1005C000FC0EEE93FD0EEE930ECE93FF22C0E0EFF5
:1005D000FBEEFAEDF9ECF8120112D0E0F5F0EFFBCA
:1005E000EEFAEDF9ECF812085AA3A3A3A3E8C0E0D1
:1005F000E9C0E0EAC0E0EBC0E0C0F012011212086E
:1006000076A3A3A3A3120021D0F0D0E0FBD0E0FAA0
:10061000D0E0F9D0E0F8D5F0D422BB010689828A77
:1006200083E0225002E722BBFE02E32289828A8312
:10063000E49322BB010CE58229F582E5833AF58338
:10064000E0225006E92582F8E622BBFE06E9258273
:10065000F8E222E58229F582E5833AF583E49322E4
:10066000BB010689828A83F0225002F722BBFE0179
:10067000F322C5F0F8A3E028F0C5F0F8E582158272
:1006800070021583E038F022BB010A89828A83E078
:10069000F5F0A3E022500687F009E71922BBFE0718
:1006A000E3F5F009E3192289828A83E493F5F07473
:1006B000019322BB010A89828A83F0E5F0A3F0222C
:1006C0005006F709A7F01922BBFE06F3E5F009F37F
:1006D0001922EF2BFFEE3AFEED39FDEC38FC22E853
:1006E0008FF0A4CC8BF0A42CFCE98EF0A42CFC8A17
:1006F000F0EDA42CFCEA8EF0A4CDA8F08BF0A42D94
:10070000CC3825F0FDE98FF0A42CCD35F0FCEB8E34
:10071000F0A4FEA9F0EB8FF0A4CFC5F02ECD39FEEA
:10072000E43CFCEAA42DCE35F0FDE43CFC2275F05F
:1007300008758200EF2FFFEE33FECD33CDCC33CCE6
:10074000C58233C5829BED9AEC99E58298400CF501
:1007500082EE9BFEED9AFDEC99FC0FD5F0D6E4CE2F
:10076000FBE4CDFAE4CCF9A88222B800C1B9005963
:10077000BA002DEC8BF084CFCECDFCE5F0CBF97830
:1007800018EF2FFFEE33FEED33FDEC33FCEB33FBC4
:1007900010D703994004EB99FB0FD8E5E4F9FA224E
:1007A0007818EF2FFFEE33FEED33FDEC33FCC93349
:1007B000C910D7059BE99A4007EC9BFCE99AF90F11
:1007C000D8E0E4C9FAE4CCFB2275F010EF2FFFEE7D
:1007D00033FEED33FDCC33CCC833C810D7079BECC8
:1007E0009AE899400AED9BFDEC9AFCE899F80FD540
:1007F000F0DAE4CDFBE4CCFAE4C8F922EF4BFFEEEB
:100800004AFEED49FDEC48FC22C3E49FFFE49EFE56
:10081000E49DFDE49CFC22EB9FF5F0EA9E42F0E9AA
:100820009D42F0E89C45F022E8600FECC313FCED1C
:1008300013FDEE13FEEF13FFD8F122E8600FEFC3B4
:1008400033FFEE33FEED33FDEC33FCD8F122E0FC58
:10085000A3E0FDA3E0FEA3E0FF22E493FC74019378
:10086000FD740293FE740393FF22E0F8A3E0F9A362
:10087000E0FAA3E0FB22E493F8740193F974029385
:10088000FA740393FB22ECF0A3EDF0A3EEF0A3EFD8
:10089000F022A8828583F0D083D0821208A91208A2
:1008A000A91208A91208A9E473E493A3C583C5F0AB
:1008B000C583C8C582C8F0A3C583C5F0C583C8C5B4
:1008C00082C822E0FBA3E0FAA3E0F922F8E0FBA350
:1008D000A3E0F925F0F0E582158270021583E0FAB5
:1008E00038F022EBF0A3EAF0A3E9F022E493FB74E2
:1008F0000193FA740293F922D083D082F8E49370C2
:1009000012740193700DA3A393F8740193F5828878
:1009100083E4737402936860EFA3A3A380DFE50E02
:100920002582F582E50D3583F583B50D0485820EAC
:100930002210AF0685820EF50D2285820EF50DD2AE
:10094000AF22EC8EF0A4CCC5F0CCCDF8EFA4CEC590
:10095000F02DFDE43CFCE8A42EC8C5F03DFDE43CD0
:10096000FCEFA4FFE5F028FEE43DFDE43CFC22E7BB
:1009700009F608DFFA8046E709F208DFFA803E88C8
:10098000828C83E709F0A3DFFA8032E309F608DFFF
:10099000FA806EE309F208DFFA806688828C83E3CE
:1009A00009F0A3DFFA805A89828A83E0A3F608DF80
:1009B000FA804E89828A83E0A3F208DFFA804280BF
:1009C000D280FA80C680D4805580F2802980108041
:1009D000A680EA809A80A880DA80E280CA8029888E
:1009E000848C8589828A83E493A30586F0A3058697
:1009F000DFF5DEF3800B89828A83E493A3F608DFB8
:100A0000F9ECFAA9F0EDFB2288848C8589828A832F
:100A1000E0A30586F0A30586DFF6DEF480E3898295
:100A20008A83E493A3F208DFF980D688F0EF6001AF
:100A30000E4E60CD88F0ED2402B4040050C3F58260
:100A4000EB2402B4040050B923234582239009BF4C
:100A5000737BFF7A2F7987C003C002C0017B017AC4
:100A6000017907A801AC02AD03D001D002D0037E0A
:100A7000007F0A120A2B7BFF7A2F7991C003C002F4
:100A8000C0017B017A017911A801AC02AD03D0014C
:100A9000D002D0037E007F03120A2B7BFF7A2F79CE
:100AA00094C003C002C0017B017A017914A801AC93
:100AB00002AD03D001D002D0037E007F06120A2BC4
:100AC00090011AE4F090011BE4F090013AE4F0A3E5
:100AD000E4F090013CE4F0A3E4F090013EE4F0A3E4
:100AE000E4F0900140E4F0A3E4F0900142E4F090DF
:100AF0000145E4F09001487401F090015C740BF042
:100B0000A374B8F0D2AF9044F474FDF012317312B4
:100B1000315E12319D122D017E2A7FE7122FBD7E9C
:100B2000167F85122FDC7E277F25122FFB123224A1
:100B30001232471232559001487401F07B017A015C
:100B4000794912182290014DE0FFEFD394A7401489
:100B500090014DE0FFEF2480FFEFF404FF9001537C
:100B6000EFF0802190014DE0FFEFC39457501190BA
:100B7000014DE0FFC3747F9FFF900153EFF08005AC
:100B8000900153E4F090014EE0FFEFD394A74010A2
:100B900090014EE0FFEF2480FF900154EFF080259C
:100BA00090014EE0FFEFC39457501590014EE0FFC7
:100BB000C3747F9FFFEFF404FF900154EFF08005B2
:100BC000900154E4F090014BE0FFEFD394A7401460
:100BD00090014BE0FFEF2480FFEFF404FF900155FC
:100BE000EFF0802190014BE0FFEFC394575011903C
:100BF000014BE0FFC3747F9FFF900155EFF080052C
:100C0000900155E4F090014AE0FFEF30E44090019C
:100C100044E0FFEF20E045900142E0FFEF30E410B8
:100C2000900142E0FFEF54EFFF900142EFF0800EA1
:100C3000900142E0FFEF4410FF900142EFF090017D
:100C400044E0FFEF4401FF900144EFF0800E90017B
:100C500044E0FFEF54FEFF900144EFF090014AE0C2
:100C6000FFEF30E640900144E0FFEF20E1459001C6
:100C700042E0FFEF30E510900142E0FFEF54DFFF6C
:100C8000900142EFF0800E900142E0FFEF4420FF20
:100C9000900142EFF0900144E0FFEF4402FF900129
:100CA00044EFF0800E900144E0FFEF54FDFF90010F
:100CB00044EFF090014AE0FFEF30E540900144E05E
:100CC000FFEF20E245900142E0FFEF30E610900197
:100CD00042E0FFEF54BFFF900142EFF0800E900121
:100CE00042E0FFEF4440FF900142EFF0900144E00A
:100CF000FFEF4404FF900144EFF0800E900144E0C8
:100D0000FFEF54FBFF900144EFF090014AE0FFEF4A
:100D100030E740900144E0FFEF20E345900142E0DE
:100D2000FFEF30E710900142E0FFEF547FFF9001AA
:100D300042EFF0800E900142E0FFEF4480FF90010F
:100D400042EFF0900144E0FFEF4408FF900144EFD0
:100D5000F0800E900144E0FFEF54F7FF900144EF64
:100D6000F090014AE0FFEF30E203D38001C3403B43
:100D700090014AE0FFEF30E003D38001C3402C90A4
:100D80000149E0FFEF30E4099001457401F0020EE3
:100D90002B900149E0FFEF30E6099001457402F025
:100DA000020E2B900145E4F0020E2B90014AE0FF69
:100DB000EF30E23890014AE0FFEF30E003D38001EA
:100DC000C34029900149E0FFEF30E40890014574E9
:100DD00004F08057900149E0FFEF30E608900145AC
:100DE0007408F08046900145E4F0803F90014AE0AD
:100DF000FFEF30E203D38001C3403090014AE0FFAF
:100E0000EF30E027900149E0FFEF30E40890014522
:100E10007410F08016900149E0FFEF30E608900171
:100E2000457420F08005900145E4F0123285EF30E2
:100E3000E1741232197E0090016AEEF0A3EFF07BAC
:100E4000017A01791CC003C002C0017BFF7A2F79AF
:100E5000769001611208E3900214E0FF7E00900199
:100E600064EEF0A3EFF090011BE0FF7E00900166BE
:100E7000EEF0A3EFF090021AE0FEA3E0FF9001680D
:100E8000EEF0A3EFF0900145E0FF7E0090016CEEE4
:100E9000F0A3EFF0D001D002D0031210807B017AD2
:100EA00001791C122C26900142E0FF900143E0FEE4
:100EB000EE6F600E900148E0FFEF4402FF900148A2
:100EC000EFF0900142E0FF900143EFF0900145E028
:100ED000FF900146E0FEEE6F600E900148E0FFEFEC
:100EE0004404FF900148EFF0900145E0FF90014677
:100EF000EFF090011BE0FFEFB4010D12327FEF64C1
:100F000001600590011BE4F090011BE0FFEF60031E
:100F1000020B3C900148E0FFEF30E1297B017A01B0
:100F200079427D017F02122006900148E0FFEF44E4
:100F300001FF900148EFF0900148E0FFEF54FDFF02
:100F4000900148EFF0900148E0FFEF30E2297B018B
:100F50007A0179457D017F03122006900148E0FF68
:100F6000EF4401FF900148EFF0900148E0FFEF549B
:100F7000FBFF900148EFF0900148E0FFEF20E00315
:100F80000210117B017A01795312149E900156E0F0
:100F9000FEA3E0FFEEFF3395E0FEEF54FFFF90016C
:100FA00015EFF0900156E0FEA3E0FFEF54FFFF9035
:100FB0000114EFF0900158E0FEA3E0FFEEFF33953F
:100FC000E0FEEF54FFFF900117EFF0900158E0FEB4
:100FD000A3E0FFEF54FFFF900116EFF090015AE0FD
:100FE000FEA3E0FFEEFF3395E0FEEF54FFFF90011C
:100FF00019EFF090015AE0FEA3E0FFEF54FFFF90DD
:101000000118EFF07B017A0179147D067F00122030
:101010000690011B7401F0020B3C22E5082461F5E7
:1010200082E43401F583E005082290015E30070375
:10103000900161E475F0011208CC02061A2000E963
:101040007F2ED2008018EF540F2490D43440D4FF68
:1010500030040BEF24BFB41A0050032461FFE509EC
:1010600060021509050CE50C7002050B30070E90A7
:10107000015EE475F0011208CCEF020660022F2A2F
:101080007403D2078003E4C207F50890015E1208DA
:10109000E3E4F509F50BF50CE50960077F20121074
:1010A0005E80F5750AFFC201C200C202C203C2051A
:1010B000C206C20812102AFF700D3007057F001209
:1010C000106FAF0CAE0B22B4255FC2D5C204121054
:1010D0002AFF24D0B40A00501A75F00A780930D5D6
:1010E0000508B6FF0106C6A426F620D5047002D274
:1010F0000380D924CFB41A00EF5004C2E5D2040211
:101100001361D20180C6D20080C0D20280BCD2D589
:1011100080BAD20580B47F2012105E2002077401CD
:10112000B5090040F112101BFF12105E021098D298
:1011300008D206809512101BFB12101BFA12101B0E
:10114000F94A4B7006795F7A147BFF20022EE5097D
:10115000602A7E008E8275830012063360060EEED2
:10116000650A70F0C2D5EBC0E0EAC0E0E9C0E0EE8D
:101170001213C2D0E0F9D0E0FAD0E0FB12061AFF59
:1011800060AAEBC0E0EAC0E0E9C0E012105ED0E087
:101190002401F9D0E03400FAD0E0FBE50A0460DC79
:1011A000D50AD98087D20280A21213A460F7E50A7B
:1011B00070010412041BA90A600DE50A600914F508
:1011C0000A12144CEF60F3EA30E702F404C39950BA
:1011D00079EAF4250A0430E701E404F50A800D12E7
:1011E00013A460C1EA050A250A12041BEA90018DC6
:1011F000F030E701E4250A04D50A042005011412A1
:1012000013C2E4C0E012144C90018DE0601320E79B
:101210000714F0121046802204F0D0E014C0E07FE2
:1012200000121046E50A600712103D150A800B30C7
:10123000050312103DD0E0021098D0E00480C412E3
:1012400013A4609EE50A0412041B90018DEAF0E5E8
:101250000A20050260010424041213C274FF04C0B2
:10126000E012144C121046E50A2005026003121029
:101270003DD0E0B50AE87F4512105090018DE07F27
:101280002B30E7047F2DF404C0E012105ED0E0752F
:10129000F00A84C0F0121047D0E0121047021098F4
:1012A000791080027908C206C2088008D2D5790A6E
:1012B0008004790AC2D5E50A047002F50AE4FAFD51
:1012C000FEFF12101BFC7B0820011312101BFD7B7C
:1012D0001030000A12101BFE12101BFF7B20EC3393
:1012E00082D592D55013C3E43000069FFFE49EFEE2
:1012F000E42001039DFDE49CFCE4CBF8C201EC700A
:101300000CCFCECDCCE824F8F870F38017C3EF33C0
:10131000FFEE33FEED33FDEC33FCEB33FB99400283
:10132000FB0FD8E9EB300105F8D0E0C448B201C0AA
:10133000E00AEC4D4E4F78207B0070C2EAB50A00FF
:1013400040BCC0E01213C4D0F0D0E0200104C4C0FF
:10135000E0C4B201C0F0121047D0F0D5F0EB02109B
:10136000981208F811355312A05811064C11024278
:1013700012A44F12AC4412AC49111B4312B25511C6
:10138000DF46123F4511A947147F50110A2D110E57
:101390002E11312B111223112F2014682A10CA4844
:1013A00000001129E50AB4FF03750A0612101BFCA0
:1013B00012101BFD12101BFE12101BFF9001860263
:1013C0000458790AA2D5200314300509B910020483
:1013D00004B9080104A2D5200602500104200268C5
:1013E0009202B509005034C0E07F203003197F30ED
:1013F000A20272067205500F12141BC202C206C26C
:1014000005C2087F30800F300503E9C0E012105E8E
:10141000300503D0E0F9D0E0B509CC3005177F30B6
:10142000B9100C12105E7F583004077F788003B922
:10143000080312105E3002057F2D02105E7F20200F
:1014400008F87F2B2006F322920280CF7F00B4079A
:1014500000500B2486F582E43401F583E0FF222856
:101460006E756C6C2900D20112101B3001F8C2019C
:10147000780930D50108F60210CA2D504349581298
:10148000101B2403B405004001E490147A93121059
:101490004F743A12104FD2037509040212A0900142
:1014A0005E1208E37F007E007D407C40C004C005E2
:1014B000C006C0077F007E007D007C3F9001811246
:1014C0000886D007D006D005D004121B23900161F6
:1014D00012088690015E1208C3E92409F9EA340073
:1014E000FA120688FDACF0EC1202BDC004C005C0C3
:1014F00006C0077F007E007DC07C3F90016112081E
:101500006A1200217B007A0079007843120112A848
:1015100004A905AA06AB07D007D006D005D004124F
:10152000021B90016512088690015E1208C3E9242F
:1015300001F9EA3400FA12061AFCEC1202C2900118
:101540006112086A12011290016912088690015E08
:101550001208C3E92402F9EA3400FA12061AFCEC74
:101560001202C27B007A007900783F1201129001CA
:101570006D12088690015E1208C312061AFCEC1266
:1015800002C27B007A00790078C012011290016DCE
:1015900012086A12002190017112088690015E12F1
:1015A00008C312061AFCEC1202C290016912086A02
:1015B00012001D90016D12086A120021900175122F
:1015C000088690015E1208C312061AFCEC1202C2D1
:1015D00090016912086A12002190016D12086A12C6
:1015E000002190017912088690017112084E900135
:1015F0006512086A1201127B007A007900783F12A6
:1016000000211220F61202F690015E1208C3E924AE
:1016100003F9EA3400FAEE8FF01206B39001751266
:10162000084E90016512086A1201127B007A007957
:1016300000783F1200211220F61202F690015E128D
:1016400008C3E92405F9EA3400FAEE8FF01206B374
:1016500090017912084E90016512086A1201127BFE
:10166000007A007900783F1200211220F61202F66B
:1016700090015E1208C3E92407F9EA3400FAEE8FFC
:10168000F01206B322C0E0C0F0C083C082C085C0A3
:1016900084C086758600C093759300C0D075D00055
:1016A000C000C001C002C003C004C005C006C0071E
:1016B000900214E0FFEF20E2030217FF900229E0FE
:1016C000FF900219E0FEEEC39F5068123188EF547C
:1016D000FFFF9002261208C3900219E0FEE92EF9DE
:1016E000E43AFAEF120660900218E0FFEF700990FA
:1016F00002187401F00217FF900218E0FFEFB40126
:10170000099002187402F00217FF9002261208C313
:10171000900219E0FFE92FF9E43AFA12061AFF7E67
:1017200000900216EE8FF0120672900219E004F09B
:101730000217FF1231F5900216E0FEA3E0FFEEFF64
:101740007E007E00EF540FFF900216E0FCA3E0FD48
:101750007C00EF2DFFEE3CFEEFF4FFEEF4FE7E008A
:10176000900216EEF0A3EFF01231887E0090021680
:10177000E0FCA3E0FD7C00ED6F7002EC6E70489021
:101780000214E0FFEF54FBFF900214EFF0900214FC
:10179000E0FFEF54F7FF900214EFF0900214E0FF27
:1017A000EF54EFFF900214EFF0900214E0FFEF44CB
:1017B00002FF900214EFF0900214E0FFEF4401FFEB
:1017C000900214EFF08038900214E0FFEF54FBFF1A
:1017D000900214EFF0900214E0FFEF54FDFF90022E
:1017E00014EFF0900214E0FFEF4401FF900214EFB9
:1017F000F0900214E0FFEF4408FF900214EFF0D0E5
:1018000007D006D005D004D003D002D001D000D03C
:10181000D0D093D086D084D085D082D083D0F0D061
:10182000E03290015E1208E3900167E4F0900168F5
:10183000E4F0A3E4F0122D01900167E4F090016759
:10184000E0FFEFC3940C504E900168E4F0A3E4F085
:10185000122B58EFD394085029900168E0FEA3E0C2
:10186000FFC3EF9410EE9427500C900168E475F0DC
:101870000112067280037F02227F017E00122ED0A9
:1018800080CE122967EF540FFFEF640F60089001BC
:1018900067E004F080A7900167E4F0900167E0FF43
:1018A000EFC3940C40030219A4900168E4F0A3E490
:1018B000F0122B58EFD394085029900168E0FEA352
:1018C000E0FFC3EF9410EE9427500C900168E4758C
:1018D000F00112067280037F03227F017E00122E28
:1018E000D080CE1229677E00900163EEF0A3EFF066
:1018F000900163E0FEA3E0FFEF20E313900163E0BB
:10190000FEA3E0FF900161EEF0A3EFF002199B90BF
:101910000161E0FEA3E0FF7E00EF5407FF9001634A
:10192000E0FCA3E0FD7C00ED5407FDED6F7002ECE0
:101930006E7068900161E0FEA3E0FF7E00EF54F05E
:10194000FF900165EEF0A3EFF0900165E0FCA3E0ED
:10195000FD900163E0FEA3E0FFEEC4F854F0C86818
:10196000FEEFC4540F48FFEC4EFEED4FFF900165B3
:10197000EEF0A3EFF0900165E0FEA3E0FF90015EC2
:101980001208C3900163E0FCA3E0FD7C00ED540766
:10199000FDE92DF9EA3CFAEF120660900167E004D8
:1019A000F002189B7FFF227B007A4679E812320111
:1019B000EF4405FD7B007A4679E812320D750A0086
:1019C000E50AC39409503AAF0AEF75F005A42492D2
:1019D000F582E43432F583AF82AE838E088F09AE90
:1019E00008AF098F828E831208ECAE08AF098F8290
:1019F0008E83740393FC740493FD123091050A8066
:101A0000BF7B087A007900122EFD7B017A507903A2
:101A1000123201EF4402FD7B017A50790312320D3C
:101A20007B017A507913123201EF4402FD7B017A77
:101A300050791312320D9043A0E0FFEF4440FF9025
:101A400043A0EFF09043C2E0FFEF4410FF9043C289
:101A5000EFF07B087A077958C003C002C0017B0011
:101A60007A51790090010C1208E3D001D002D00322
:101A70007F0A7E00122E3B7B087A077964C003C080
:101A800002C0017B007A51794290010C1208E3D028
:101A900001D002D0037F087E00122E3B7B087A071C
:101AA000796CC003C002C0017B007A51796090015B
:101AB0000C1208E3D001D002D0037F0A7E00122E60
:101AC0003B9044F47401F0904322E0FFEF4408FFA0
:101AD000904322EFF09046ECE0FFEFC394055006F0
:101AE000904689743AF090480074F1F0121C891203
:101AF0002DB87B007A4379A0C003C002C0017B00EF
:101B00007A4379B090010C1208E3D001D002D003DF
:101B10007F0E7E00122E3B9043B0E0FFEF54FDFF9E
:101B2000EFF02290017D120886E4FFFE7D807C3F6D
:101B300090017DE0F8A3E0F9A3E0FAA3E0FB120333
:101B400091700690017D021C7D90017DE0FCA3E078
:101B5000FDA3E0FEA3E0FF120377FBA3E0FCA3E0FC
:101B6000FDA3E0FEA3E0FF120377FFB40108E4FF4A
:101B7000FE7D807C3F22EF64046029EB64046024D6
:101B8000EBB40130E4FFFEFDFC900181E0F8A3E03E
:101B9000F9A3E0FAA3E0FB12039160084006E4FF1A
:101BA000FEFDFC22900181120892FFFFFFFF9001D1
:101BB00081021C7DE4900185F0A3F0FFFEFDFC9006
:101BC000017DE0F8A3E0F9A3E0FAA3E0FB120391A2
:101BD000505F900181E0FCA3E0FDA3E0FEA3E0FFE5
:101BE0001202F6900185EEF0A3EFF0FDCCEECCEC06
:101BF0001202BDC8ECC8C9EDC9CAEECACBEFCB9082
:101C00000181E0FCA3E0FDA3E0FEA3E0FF12001DC4
:101C1000E4FBFAF9F8120391708A90017DE0FCA3CD
:101C2000E0FDA3E0FEA3E0FF12040A90017D12088C
:101C30008690017DE0FCA3E0FDA3E0FEA3E0FF129F
:101C40001E07900181E0F8A3E0F9A3E0FAA3E0FB0E
:101C50001201121226C3900181120886900186E0BB
:101C600030E017900181E0FCA3E0FDA3E0FEA3E0DB
:101C7000FF12040A900181120886900181E0FCA302
:101C8000E0FDA3E0FEA3E0FF227B007A4079807DA7
:101C90009B7C001231E69040827418F07B007A4001
:101CA00079847D9B7C001231E69040867418F07B2D
:101CB000007A4079887D387C011231E690408A7440
:101CC00018F07B007A40798C7DA57C0E1231E6906D
:101CD000408E7418F07B007A4079907D5F7CEA1228
:101CE00031E69040927419F09043007406F09042EF
:101CF000007403F07B0C7A0179081232019046A13E
:101D0000EFF07B007A4279227D107C001231E67B75
:101D1000007A4279207D517C121231E690010BE469
:101D2000F07F197E007D007C0090010712088690EC
:101D3000010712084ED3EF9400EE9400404E90013C
:101D40000BE0FFEF64036044904225E0FFEF540195
:101D5000FF7E0090010BE0FEEE25E0FEEE4FFFEF70
:101D60005403FF90010BEFF07FE07E017D007C00CB
:101D7000122E0090010712084E7BFF7AFF79FF7840
:101D8000FF1206D290010712088680A39001071265
:101D9000084EEF4E70057F03122DEE7B007A4079DE
:101DA000047D007C011231E69040047407F09040FD
:101DB00006E4F09040087448F0904004E4F090404D
:101DC000017402F09043A2E0FFEF441FFF9043A292
:101DD000EFF0223E9248DA3ECCCCCD3F2AAAAB406F
:101DE0000000003F8000003F9837F03FB504F33F0C
:101DF000D744FC3E3172173EB172173F0515913E34
:101E0000DE5BD9D2008002C200EDD2E7F8CD33EC20
:101E10003304700BBD800592D502036C020362404F
:101E2000FBD31460F2F5F07C3FEE7A00C39496C8C1
:101E3000948B40230AC89469C8941A401A0AC8941B
:101E400068C8941F40110AC8945AC89425400805D0
:101E5000F07A00CDC2E7CDC0F0900187120886EA83
:101E60002323C0E024E3F582E4341DF583120876D1
:101E7000120021ECC0E0EDC0E0EEC0E0EFC0E012E7
:101E8000085A90018712086A12001DD0E0FBD0E0CA
:101E9000FAD0E0F9D0E0B2E7F812021B9001871205
:101EA0000886901DD374031205CD90018712086A2D
:101EB000120112D0E0600F24EFF582E4341DF583A7
:101EC000120876120021900187120886D0E0C39490
:101ED0007FFDE49400FC1202BD7B187A72793178A0
:101EE0003F12011290018712086A12002130000B84
:101EF0007BD97A5B79DE783E12011222900166EF7F
:101F0000F0900167E4F0900168E4F090022BE0FFAC
:101F1000EF6003022001900166E0FFEFC313FFEFC3
:101F20005401FF900166E0FEEE5401FEEE6FFF905B
:101F30000166E0FEEE1313543FFEEE5401FEEF6E19
:101F4000FF900166E0FEEEC4540FFEEE5401FEEF7A
:101F50006EFF900167EFF0900166E0FFEF1313133F
:101F6000541FFFEF5401FF900166E0FEEEC313FE25
:101F7000EE5401FEEE6FFF900166E0FEEEC4540FDA
:101F8000FEEE5401FEEF6EFF900166E0FEEEC4131C
:101F90005407FEEE5401FEEF6EFFEFF4FF90016870
:101FA000EFF0900167E0FFEFC4333354C0FFEF540C
:101FB00040FF900166E0FEEE543FFEEE4FFF9001C1
:101FC00068E0FEEEC43333335480FEEE5480FEEFFF
:101FD0004EFF900166EFF07F031225F0122D811263
:101FE0002CC07F5512252E900166E0FF12252E9001
:101FF000022B7401F0900166E0FFEF54FFFF7E00BA
:10200000227E017F002290015EEFF090015FEDF0F3
:102010009001601208E3900214E0FFEF5401FF907A
:102020000215E0FEEE70047E0180027E00EE5FFF8E
:10203000EF70030220F390015EE0FF121EFC90019E
:1020400064EEF0A3EFF0900164E0FEA3E0FFEFB4D4
:102050000007EEB401037F0122900163E4F09001D8
:102060005FE0FF900163E0FEEEC39F50409001608F
:102070001208C3900163E0FFE92FF9E43AFA12066F
:102080001AFF7E00900164EE8FF0120672900160DC
:102090001208C3900163E0FFE92FF9E43AFA12064F
:1020A0001AFF12252E900163E004F080B1900164C4
:1020B000E0FEA3E0FFEEFF7E007E00EF5407FF90FE
:1020C0000164E0FCA3E0FD7C00EF2DFFEE3CFEEFA1
:1020D000F4FFEEF4FE7E00900164EEF0A3EFF090CA
:1020E0000164E0FEA3E0FF12252E9002157401F0BA
:1020F0007F00227F012290017D12088674FFFFFE7F
:10210000FDFC90017DE0F8A3E0F9A3E0FAA3E0FB79
:10211000C312081760387F807E967D187C4B900133
:102120007DE0F8A3E0F9A3E0FAA3E0FB12039160DD
:1021300002501B7F807E967D187CCB90017DE0F85D
:10214000A3E0F9A3E0FAA3E0FB120391500F900182
:102150007DE0FCA3E0FDA3E0FEA3E0FF2290017D73
:10216000E0FCA3E0FDA3E0FEA3E0FF1202F6900175
:1021700081120886900181E0FCA3E0FDA3E0FEA3AC
:10218000E0FFEC1202B8C8ECC8C9EDC9CAEECACB70
:10219000EFCB90017DE0FCA3E0FDA3E0FEA3E0FF18
:1021A00012001DE4FBFAF9F8120391602640249016
:1021B0000181E0FCA3E0FDA3E0FEA3E0FFEF24FF2C
:1021C000FFEE34FFFEED34FFFDEC34FFFC900181A7
:1021D000120886900181E0FCA3E0FDA3E0FEA3E0ED
:1021E000FFEC1202B8227593007800758346758261
:1021F000E8E04401F0009046ECE0F99046FAE0FA9D
:10220000B903225420B40012B8001AEA900FFFF06C
:102210007401900FFEF09046F6F0900FFEE060051E
:10222000900FFFE0FA90480074C0F0758121900093
:102230000078007910E4F0A3D8FCD9FAEA900235CE
:10224000F0020011750D0F750EFD1219A702228BF9
:10225000020A51E493A3F8E493A34003F68001F249
:1022600008DFF48029E493A3F85407240CC8C3338F
:10227000C4540F4420C8834004F456800146F6DF5E
:10228000E4800B0102040810204080902A6EE47E56
:10229000019360BCA3FF543F30E509541FFEE49353
:1022A000A360010ECF54C025E060A840B8E493A31A
:1022B000FAE493A3F8E493A3C8C582C8CAC583CA45
:1022C000F0A3C8C582C8CAC583CADFE9DEE780BEFD
:1022D000C0E0C083C082C085C084C086758600C04F
:1022E00093759300C0D075D000C006C007900190D0
:1022F000E4F0A2AFE433FF900191EFF0D2AF90444D
:10230000F474FDF090646EE0FF90018FEFF09001A7
:102310008FE0FFEF30E56890644AE0FF900210E044
:10232000FE74FA2EF582E43401F583EFF09001900B
:102330007401F0900190E0FFEF60389001F8E0FF49
:10234000EF60069002137401F0900210E004F09028
:102350000210E0FFEFC394094005900210E4F090F2
:1023600001F9E0FF900210E0FEEEB507069001F8DB
:102370007401F090646EE0FF90018FEFF0808F9019
:102380000191E0FFEF24FF92AFD007D006D0D0D06C
:1023900093D086D084D085D082D083D0E032C0E084
:1023A000C083C082C085C084C086758600C0937516
:1023B0009300C0D075D000C006C007900194E4F02F
:1023C000A2AFE433FF900195EFF0D2AF9044F474E4
:1023D000FDF090646AE0FF900193EFF0900193E0CC
:1023E000FFEF30E56890644EE0FF9001F3E0FE748B
:1023F000DA2EF582E43401F583EFF0900194740154
:10240000F0900194E0FFEF60389001F6E0FFEF609C
:10241000069001F57401F09001F3E004F09001F3EF
:10242000E0FFEFC3941940059001F3E4F09001D967
:10243000E0FF9001F3E0FEEEB507069001F67401AF
:10244000F090646AE0FF900193EFF0808F90019527
:10245000E0FFEF24FF92AFD007D006D0D0D093D0CA
:1024600086D084D085D082D083D0E032900163EFD3
:10247000F0900001E0FF900164EFF0900003E0FFB6
:10248000900165EFF0900165E0FF900164E0FEEEE1
:10249000C39F5026900165E0FF7E00EF24FFFFEE12
:1024A00034FFFE900164E0FD7C00EFB50508EEB559
:1024B00004047F0180027F008018900165E0FF9096
:1024C0000164E0FEC3EE9FFFEFB4FE047F018002D3
:1024D0007F00EF709C900164E0FF900165E0FEEEEC
:1024E000B5071490646CE0FFEF20E20B900163E00D
:1024F000FF90644CEFF022900164E0FFEFC394FF83
:102500004005900164E4F0900163E0FF900164E015
:10251000FE74042EF582E43400F583EFF09001643C
:10252000E004F0900164E0FF900001EFF0229001E0
:1025300069EFF0900211E0FF90016AEFF090020362
:10254000E0FF90016BEFF090016BE0FF90016AE01B
:10255000FEEEC39F502690016BE0FF7E00EF24FF4C
:10256000FFEE34FFFE90016AE0FD7C00EFB5050848
:10257000EEB504047F0180027F00801890016BE0BB
:10258000FF90016AE0FEC3EE9FFFEFB40B047F01F2
:1025900080027F00EF709C90016AE0FF90016BE089
:1025A000FEEEB50714906568E0FFEF20E20B9001A6
:1025B00069E0FF906448EFF02290016AE0FFEFC30A
:1025C000940C400590016AE4F0900169E0FF9001ED
:1025D0006AE0FE74042EF582E43402F583EFF09095
:1025E000016AE004F090016AE0FF900211EFF0222E
:1025F000900169EFF0900212E0FFEF700302268A6B
:10260000900169E0FFEF600A900169E0FFEF640369
:10261000702890643BE0FF9001F7EFF090643B740A
:1026200067F0906448E4F0906568E0FF90016AEF1D
:10263000F090016AE0FFEF20E1ED900169E0FFEF2B
:1026400064016009900169E0FFEFB40316906568CA
:10265000E0FF90016AEFF090016AE0FFEFF4FFEF16
:1026600020E0EA900169E0FFEF64016013900169E6
:10267000E0FFEF64026009900169E0FFEFB4030A34
:102680009001F7E0FF90643BEFF02233DA929E3541
:10269000B16011377FE5FE392184893AAEC3FF3C32
:1026A0001D955B3D6358473E75FDF03F3172183F05
:1026B000800000C2D502036C020362BD80FA50F3B1
:1026C000020369ED33EC330460F17B3B7AAA79B8FD
:1026D000783F120112ED33EC3392D5247B5011A2D6
:1026E000D570DB500BED448024045004A2D580CE7D
:1026F000EFFBEEFAEDF9ECF81202F6EFF582F404D6
:10270000FC1202C2120021C08290268B74091205AD
:10271000DCED33CC33D0F092D525F0A2D57001C3D7
:1027200013CC13FD22C0E0C0F0C083C082C085C0BE
:1027300084C086758600C093759300C0D075D000A4
:10274000C000C001C002C003C004C005C006C0076D
:10275000900214E0FFEF30E2407FFF1231C71231E8
:10276000F5900214E0FFEF54FBFF900214EFF0909D
:102770000214E0FFEF54FDFF900214EFF0900214FA
:10278000E0FFEF4401FF900214EFF0900214E0FF2D
:10279000EF4410FF900214EFF0D007D006D005D020
:1027A00004D003D002D001D000D0D0D093D086D0B6
:1027B00084D085D082D083D0F0D0E032C0E0C08316
:1027C000C082C085C084C086758600C093759300A2
:1027D000C0D075D000C006C007A2AFE433FF90019F
:1027E0008EEFF0D2AF9044F474FDF0900001E0FF62
:1027F000900003E0FEEE6F603790646CE0FFEF2026
:10280000E22E900003E0FFEFC394FF400590000329
:10281000E4F0900003E0FF74042FF582E43400F547
:1028200083E0FF90644CEFF0900003E004F080BB85
:1028300090018EE0FFEF24FF92AFD007D006D0D0FA
:10284000D093D086D084D085D082D083D0E032C0DF
:10285000E0C083C082C085C084C086758600C093F6
:10286000759300C0D075D000C006C007A2AFE43396
:10287000FF900192EFF0D2AF9044F474FDF090021B
:1028800011E0FF900203E0FEEE6F6037906568E0B4
:10289000FFEF20E22E900203E0FFEFC3940C40050F
:1028A000900203E4F0900203E0FF74042FF582E449
:1028B0003402F583E0FF906448EFF0900203E004F7
:1028C000F080BB900192E0FFEF24FF92AFD007D0E1
:1028D00006D0D0D093D086D084D085D082D083D07B
:1028E000E03212324E9001F9E0FF900104EFF090D7
:1028F0000210E0FF900105EFF09001F8E0FFEF70AB
:102900000E900105E0FF900104E0FEEE6F6045903F
:102910000104E0FF74FA2FF582E43401F583E0FF4F
:10292000900103EFF0900104E004F0900104E0FF57
:10293000EFC394094005900104E4F0900104E0FF26
:102940009001F9EFF09001F8E0FFEF60119001F8CD
:10295000E4F0800A90644AE0FF900103EFF0123245
:1029600047900103E0FF221232789001D9E0FF90F6
:10297000016BEFF09001F3E0FF90016CEFF090013C
:10298000F6E0FFEF700E90016CE0FF90016BE0FE4F
:10299000EE6F604590016BE0FF74DA2FF582E4344E
:1029A00001F583E0FF90016AEFF090016BE004F025
:1029B00090016BE0FFEFC39419400590016BE4F0C8
:1029C00090016BE0FF9001D9EFF09001F6E0FFEF8E
:1029D00060119001F6E4F0800A90644EE0FF9001EF
:1029E0006AEFF012327190016AE0FF2290015EEF0F
:1029F000F090015FECF0A3EDF090015EE0FFEFD30B
:102A0000941F5003D38001C340057F001231B29060
:102A1000015EE0FFEF541FFF7E00EF25E0FFEE3385
:102A2000FEEF2400FFEE3444FEAA06A9077B011244
:102A300031D9900161EEF0A3EFF090015EE0FF7EEE
:102A400002EF8EF0A4FFAEF0EF2400FFEE3444FE60
:102A5000AA06A9077B0190015FE0FEA3E0FFAD0796
:102A6000AC061231E8900161E0FEA3E0FF224102D2
:102A70001500410214014A021C0000000000000081
:102A8000000000410002004100030041000100413C
:102A900002120041020300410211004101F900410C
:102AA0000210004101F8004102130041023F0041C1
:102AB00001F4004101D9004101F3004101F6004158
:102AC00001F50044023102DC6C0044022C0000BB22
:102AD00080410230304402365DC0000043023A00BB
:102AE00000004102400000C0E0C0F0C083C082C0CE
:102AF00085C084C086758600C093759300C0D0756C
:102B0000D000C000C001C002C003C004C005C006A0
:102B1000C00712328BEF30E11C90022BE0FFEFB4C4
:102B2000010590022BE4F0900215E0FFEFB40105DF
:102B3000900215E4F0D007D006D005D004D003D021
:102B400002D001D000D0D0D093D086D084D085D010
:102B500082D083D0F0D0E0321232789001F3E0FFDF
:102B60009001D9E0FEEEB5071A9001F6E0FFEFD331
:102B70009400400890016A7419F0804290016AE460
:102B8000F0803B9001F3E0FF9001D9E0FEEEC39F9F
:102B900050159001D9E0FF9001F3E0FEC3EE9FFFD6
:102BA00090016AEFF080179001D9E0FFC374199F7C
:102BB000FF9001F3E0FEEF2EFF90016AEFF012327A
:102BC0007190016AE0FF2290015EEFF090015FEDED
:102BD000F090015FE0FFEFD394075003D38001C36F
:102BE00040057F001231B290015EE0FFEFD3941FE9
:102BF0005003D38001C340057F001231B290015FC2
:102C0000E0FFEF5407FF7E00EF75F020A4FFAEF069
:102C100090015EE0FEEE541FFE74802EF582E434D7
:102C200044F583EFF02290015E1208E3900161E425
:102C3000F0A3E4F0900002E0FFEF604290015E122A
:102C400008C3900161E0FEA3E0FFE92FF9EA3EFA34
:102C500012061AFFEF602790015E1208C39001610F
:102C6000E0FEA3E0FFE92FF9EA3EFA12061AFF128E
:102C7000246C900161E475F00112067280BE22128C
:102C8000314990015EEFF0906599E0FFEF4420FF3D
:102C9000EFF090649EE0FFEF4410FFEFF09044C02F
:102CA0007401F0906598E0FFEF4410FFEFF090445E
:102CB000C07402F01230D990015EE0FF1230AA22F7
:102CC000123149900169EFF090649AE0FFEF4401FE
:102CD000FFEFF090649AE0FFEF54FEFFEFF09001F9
:102CE00069E0FF1230AA12324E9001F9E4F090022E
:102CF00010E4F09001F8E4F0900213E4F01232478F
:102D00002212314990016AEFF090649EE0FFEF4497
:102D100001FFEFF090649EE0FFEF54FEFFEFF090B4
:102D2000016AE0FF1230AA1232789001D9E4F090E3
:102D300001F3E4F09001F6E4F09001F5E4F01232D2
:102D400071227C227DD07F001229EC7D077F00124A
:102D50002BC79065897472F090648E7420F07C2883
:102D60007D4F7F011229EC7D077F01122BC79064F4
:102D70002B7407F090643B7448F09065887402F0FF
:102D800022123149900169EFF0906498E0FFEF441E
:102D900001FFEFF0906498E0FFEF54FEFFEFF0903A
:102DA0000169E0FF1230AA12325C900203E4F09055
:102DB0000211E4F0123255227B0C7A0179CF1232E3
:102DC00001900107EFF0900107E0FFEF5407FF903B
:102DD000586EEFF0900107E0FFEFC4540FFFEF547F
:102DE0000FFF90586FEFF09058767444F0229001E6
:102DF0000CEFF090010CE0FF90010CEFF080FE2250
:102E0000EC4D4E700D78FCEF24E950032840FD2274
:102E100000007BF178DA0000EF28FF78FFEE38FE43
:102E2000ED38FDEC38FC50E7EF2BFFEE38FEED38C7
:102E3000FDEC38FC40F22205020304758600EF4EDB
:102E40006027EF60010E75930090010CE0F595A3EB
:102E5000E0F585A3E0F5848B938A838982E0A3055E
:102E600086F0A31586DFF6DEF4E4F593F5952212DD
:102E7000314990015EEFF090649DE0FFEF4420FF48
:102E8000EFF090649AE0FFEF4410FFEFF09044C041
:102E90007404F01230F090015EE0FF1230AA22902C
:102EA000646EE0FFEF547FFF900103EFF090021398
:102EB000E0FFEF6013900103E0FFEF4480FF90011B
:102EC00003EFF0900213E4F0900103E0FF223232AE
:102ED000EEFA900230E0F88FF0A4FFAEF0E88AF04E
:102EE000A42EFEE5F03400FDEF24C9FF78FFEE3894
:102EF000FEED38FDE438FC5003022E0022ACEAADB2
:102F0000A08B938A838982E0F96017A3E0F5EAA396
:102F1000E0F5A0A3E060F4FAA3E0F8A3E0F2DAF8A9
:102F2000D9E98DA08CEAE4F59322EFB40A07740D79
:102F3000122F35740A309811A899B8130CC2983022
:102F400098FDA899C298B811F63099FDC299F599E3
:102F50002212314990015EEFF090649CE0FFEF4453
:102F600010FFEFF09044C07408F01230C290015E80
:102F7000E0FF1230AA222578202564202534642021
:102F800025642025640A0064090909090909090062
:102F9000000000000000000000007C277DBC7F03D3
:102FA0001229EC7D077F03122BC79064297407F068
:102FB0009064397448F090648C7402F02290015E41
:102FC000EEF0A3EFF012323290015EE0FEA3E0FFDC
:102FD00012301A7F0712310712322B2290015EEE57
:102FE000F0A3EFF012324090015EE0FEA3E0FF128A
:102FF00030387F0712311D1232392290015EEEF017
:10300000A3EFF012326A90015EE0FEA3E0FF1230FF
:10301000567F0712313312326322900160EEF0A323
:10302000EFF07B027A44790E900160E0FEA3E0FFAE
:10303000AD07AC061231E822900160EEF0A3EFF08C
:103040007B027A44790C900160E0FEA3E0FFAD07BB
:10305000AC061231E822900160EEF0A3EFF07B02A3
:103060007A44790A900160E0FEA3E0FFAD07AC0668
:103070001231E8227C237D9E7F021229EC7D077F9E
:1030800002122BC790648D7472F090648A7420F0E1
:1030900022EC4D6011ED60010C8B938A838982E4F0
:1030A000F0A3DDFCDCFA75930022EF54016004D23A
:1030B000AF8002C2AFEF5402FF9044F4E054FD4FE2
:1030C000F0229043A2E0FFEF4402FFEFF09043B202
:1030D000E0FFEF4402FFEFF0229043A2E0FFEF4455
:1030E00004FFEFF09043B2E0FFEF4404FFEFF02263
:1030F0009043A2E0FFEF4401FFEFF09043B2E0FF06
:10310000EF4401FFEFF022900160EFF0900160E0EA
:10311000FFEFC43354E0FF904487EFF0229001604A
:10312000EFF0900160E0FFEFC43354E0FF9044867D
:10313000EFF022900160EFF0900160E0FFEFC43308
:1031400054E0FF904485EFF0229044F4E0F844020C
:10315000F0E85402FF10AF012274014FFF229000EB
:1031600002E0FFEF7009122F9A9000027401F01232
:103170002F5122900212E0FFEF7009122D429002AF
:10318000127401F0122C7F22122E9F7E00EF7D0020
:10319000FC1228E27E00EC4EFEED4FFF229001F47F
:1031A000E0FFEF70091230749001F47401F0122EF8
:1031B0006F2290FFFF12091EEFF09046EA7401F0B3
:1031C00090000112091E22900106EFF0900106E026
:1031D000FF90640FEFF0228B938A838982E0FFA334
:1031E000E0FE759300228B938A838982EDF0A3EC35
:1031F000F07593002290647FE0FFEF547FFFEFF0C3
:10320000228B938A838982E0759300FF228B938AB5
:10321000838982EDF07593002290640FE0FF906443
:103220004FE0FF229044C07408F0229044C07480A4
:10323000F0229044C87480F0229044C07440F02280
:103240009044C87440F0229044C07401F02290442D
:10325000C87401F0229044C07402F0229044C874F3
:1032600002F0229044C07420F0229044C87420F0F0
:10327000229044C07404F0229044C87404F0229058
:103280000215E0FF2290646CE0FF22906568E0FF89
:103290002232005110003000515000100051C00087
:1032A000100051F00010010000100001140008008F
:0F32B0000140000A00014C000200015000002004
:00000001FF
