S0110000505350414474696E792E73726563D7
S11300001AC01FC01EC01DC01CC01BC01AC019C00E
S113001018C017C016C015C014C013C012C011C038
S113002010C00FC00EC000080109020A030B040C23
S1130030050D060E070F11241FBECFEDCDBF53D003
S1130040DCC0DECF782F61E020E030E0862F87230C
S113005011F4959801C0959A96980000000000004C
S1130060000000000000000000000000000000008C
S11300700000469596955695969AB099406800006A
S1130080B09990680000B09950680000000000002A
S113009000000000660F2F5F3F4F2830310509F044
S11300A0D5CF892F842794238523892B089586E926
S11300B0B19904C0B19902C0B19B03C08150C1F78A
S11300C010C0882371F086E9B19B04C0B19B02C0C3
S11300D0B19903C08150C1F704C0882319F081E0AD
S11300E0089580E008958FEF88BB17BA82BB11BAD8
S11300F08D9A8C9A8E9A8CE089B912B886E083B96D
S113010088E08AB9899A00E07E010894E11CF11C18
S1130110002311F4949801C0949A80E090E00000C8
S1130120019686349105D9F781E08CDFC0DF8823FE
S113013009F45FC082E486DF182FB9DF882309F44D
S113014058C080E07FDF8A3509F053C0B0DF8823D0
S113015009F44FC080E076DF80958983A8DF882387
S113016009F447C080E06EDF80958A83133521F05F
S1130170133711F062E01AC09ADF882309F439C0FA
S113018080E060DF8B8393DF882399F180E05ADF7E
S11301908C838DDF882369F180E054DF8D8387DFD2
S11301A0882339F180E04EDF8E8366E026E230E07A
S11301B040E050E0F701E40FF51F7081F9019491DC
S11301C05D9BFECF872F807F982B9CB92F5F3F4F7D
S11301D0F9018491215030405D9BFECF7295707F70
S11301E0782B7CB94F5F5F4F641719F02E5F3F4F38
S11101F0E1CF949A0F5F03708BCFF894FFCF8A
S9030000FC
