:400000000231E2008F828E83E0540100000070F82278FFE4F6D8FD0232400203ECE86480F8E933E83360110460F0ED33EC337009E8FCE9FDEAFEEBFF220460DED3EB9FEA80
:400040009EE99DE8C2E78CF0C2F795F0400CE8CCF8E9CDF9EACEFAEBCFFB1203B785D0F05804700320D5B3E80470075002B2D50203F692D5EC0460F7E4CCC0E0C398F86093
:400080003B94186008400DD0E0FB0203CEE4FBFAC9FC8028E830E406E4C9FBE4CAFCE830E305E4C9CACBFCE854076010F8C3E913F9EA13FAEB13FBEC13FCD8F130F52FC320
:4000C000E49CFCEF9BFFEE9AFEED99FDD0E0FBEF4E4D4C701222DB030203F3EC2CFCEF33FFEE33FEED33FDED30E7EB0203CEEF2BFFEE3AFEED39FDD0E0FB50130BBB00038B
:400100000203F6ED13FDEE13FEEF13FFEC13FC0203CEEC4D6011E8497017ED33EC3304600DE4FCFFFEFD22E933E8330470F80203EC1203B758046009E4CC248150062850A3
:40014000090203F62840030203F3C0E0EB4A7044B98006D0E0FB0203E2EF4E701CBD8008EBFFEAFEE9FD80EBE98DF0A4FEE5F00201FBE9CDF9EAFEEBFFEF89F0A4FCE5F054
:40018000CE89F0A42EFFE435F0CD89F0A42DFEE435F08067EF4E7005BD80D780C3EF8BF0A4ACF0EE8BF0A42CFCE435F0F8EF8AF0A42CE5F038FCE433CB8DF0A42CFCE5F0EE
:4001C0003BF8EE8AF0A42CFCE5F038F8E433CF89F0A42CFCE5F038CF3400CE89F0A42FFFE5F03EFEE433C98DF0A42EFEE5F039CD8AF0A42FFFE5F03EFEE43DFD33D0E0FBCD
:4002000050070BBB000F0203F6EC2CFCEF33FFEE33FEED33FD0203CE0203F6EC5D046005E8590470030203EC1203B7580460F6EC4860F2EC7004FDFEFF22C860DB2481C80D
:400240005009C398600250060203F39850CAF582E9294B4A7005AB820203E275F0007C1A7880C3EF9BEE9AED99400DC3EF9BFFEE9AFEED99FDE842F0DC23ACF0D0E0FFD09D
:40028000E0FED0E0FDAB8220E7101BEB60BAEC2CFCEF33FFEE33FEED33FD0203CEE803F830E705C0F075F000EF2FFFEE33FEED33FD40B830E7C280AA74F8CC6480CCC8648F
:4002C00080C8F58204604FC3EB9FF5F0EA9E42F0E99D42F0E89C45F0603C501DE5825FFFE582D313CB5BCBF42B5582FB50280ABA002409B9002008801DE5825BFBE582D354
:4003000013CF5FCFF4C3132F5582FF50090EBE00050DBD00010CC3EB9FF5F0EA9E42F0E99D42F0E89C45F06007CC4820E701B3EC22ED33EC33600A047003BD8004ECB2E756
:40034000FC2275F020800E75F010800575F0087D007E007F003392D530D503120809EC334010EF33FFEE33FEED33FDEC33FCD5F0ED22E5F0247EA2D513CC92E7CDCEFF22E9
:40038000EDD2E7CD33EC3392D524814006E4FFFEFDFC22FCE4CFCECDCC24E0501174FF80EDC3CC13CCCD13CDCE13CECF13CF0470F030D5DE020809E9D2E7C933E833F892B7
:4003C000D5EDD2E7CD33EC33FC5002B2D522EC30E7100FBF000C0EBE00080DBD00040BEB6014A2D5EB13FCED92E7FD2274FFFCFDFEFF22E480F8A2D574FF13FC7D80E4803C
:40040000EFED33EC33601004700FED547F7005740292E0227404220422E422F920E73624F950037907E4F42402FBE582158270021583DBF6E024FB501BE96014E4F0E5829C
:40044000158270021583E004F0B40A08E4F0D9EE7401F00A22C2D522ED33EC3392D5FA602AB4FF33EDC2E77BFF60067A04797DE4227A04798620D5047A047981224E614E4F
:40048000002B494E46002D494E4600E47A08F0A3DAFC7B00740722C083C082ECC0E0EDC0E0EEC0E0EFC0E0EA75F010A4CAABF075F04DA42BFBE435F0FCEA2410FAEB34C5A3
:4004C000FBEC34D9FCEDC2E7FF75F056A4F42411C5F0F434C58FF0A42AE5F03BE43CF020E71412058DD0E0FFD0E0FED0E0FDD0E0FC12021B8014F40412058DD0E0FFD0E0AD
:40050000FED0E0FDD0E0FC120112D082D083E0FAEDD2E7CD33EC332482FBE4C3CF33CFCE33CECD33CD33DBF37B0775F00A846004F0A31B0AE5F0F0A38FF0740AA4FFACF010
:400540008EF0740AA42CFEACF050010C8DF0740AA42CFDE435F0F0A3DBDE7407223F8000004120000042C80000447A0000461C400047C35000497424004B1896804CBEBCFA
:40058000205A0E1BCA6753C21C749DC5AEFB60065407601C23231205BBEB543860091205A71205B6120112ECF8EDF9EEFAEFCB22EB1205B680F1543803241C90055DFE93C9
:4005C000FC0EEE93FD0EEE930ECE93FF22C0E0EFFBEEFAEDF9ECF8120112D0E0F5F0EFFBEEFAEDF9ECF812085AA3A3A3A3E8C0E0E9C0E0EAC0E0EBC0E0C0F01201121208AD
:4006000076A3A3A3A3120021D0F0D0E0FBD0E0FAD0E0F9D0E0F8D5F0D422BB010689828A83E0225002E722BBFE02E32289828A83E49322BB010CE58229F582E5833AF583D3
:40064000E0225006E92582F8E622BBFE06E92582F8E222E58229F582E5833AF583E49322BB010689828A83F0225002F722BBFE01F322C5F0F8A3E028F0C5F0F8E582158274
:4006800070021583E038F022BB010A89828A83E0F5F0A3E022500687F009E71922BBFE07E3F5F009E3192289828A83E493F5F074019322BB010A89828A83F0E5F0A3F02221
:4006C0005006F709A7F01922BBFE06F3E5F009F31922EF2BFFEE3AFEED39FDEC38FC22E88FF0A4CC8BF0A42CFCE98EF0A42CFC8AF0EDA42CFCEA8EF0A4CDA8F08BF0A42D2F
:40070000CC3825F0FDE98FF0A42CCD35F0FCEB8EF0A4FEA9F0EB8FF0A4CFC5F02ECD39FEE43CFCEAA42DCE35F0FDE43CFC2275F008758200EF2FFFEE33FECD33CDCC33CCD8
:40074000C58233C5829BED9AEC99E58298400CF582EE9BFEED9AFDEC99FC0FD5F0D6E4CEFBE4CDFAE4CCF9A88222B800C1B90059BA002DEC8BF084CFCECDFCE5F0CBF978F8
:4007800018EF2FFFEE33FEED33FDEC33FCEB33FB10D703994004EB99FB0FD8E5E4F9FA227818EF2FFFEE33FEED33FDEC33FCC933C910D7059BE99A4007EC9BFCE99AF90F61
:4007C000D8E0E4C9FAE4CCFB2275F010EF2FFFEE33FEED33FDCC33CCC833C810D7079BEC9AE899400AED9BFDEC9AFCE899F80FD5F0DAE4CDFBE4CCFAE4C8F922EF4BFFEE25
:400800004AFEED49FDEC48FC22C3E49FFFE49EFEE49DFDE49CFC22EB9FF5F0EA9E42F0E99D42F0E89C45F022E8600FECC313FCED13FDEE13FEEF13FFD8F122E8600FEFC348
:4008400033FFEE33FEED33FDEC33FCD8F122E0FCA3E0FDA3E0FEA3E0FF22E493FC740193FD740293FE740393FF22E0F8A3E0F9A3E0FAA3E0FB22E493F8740193F9740293EF
:40088000FA740393FB22ECF0A3EDF0A3EEF0A3EFF022A8828583F0D083D0821208A91208A91208A91208A9E473E493A3C583C5F0C583C8C582C8F0A3C583C5F0C583C8C5D1
:4008C00082C822E0FBA3E0FAA3E0F922F8E0FBA3A3E0F925F0F0E582158270021583E0FA38F022EBF0A3EAF0A3E9F022E493FB740193FA740293F922D083D082F8E4937061
:4009000012740193700DA3A393F8740193F5828883E4737402936860EFA3A3A380DFE5162582F582E5153583F583B515048582162210AF06858216F51522858216F515D20F
:40094000AF22EC8EF0A4CCC5F0CCCDF8EFA4CEC5F02DFDE43CFCE8A42EC8C5F03DFDE43CFCEFA4FFE5F028FEE43DFDE43CFC22E709F608DFFA8046E709F208DFFA803E881E
:40098000828C83E709F0A3DFFA8032E309F608DFFA806EE309F208DFFA806688828C83E309F0A3DFFA805A89828A83E0A3F608DFFA804E89828A83E0A3F208DFFA80428007
:4009C000D280FA80C680D4805580F28029801080A680EA809A80A880DA80E280CA802988848C8589828A83E493A30586F0A30586DFF5DEF3800B89828A83E493A3F608DFD9
:400A0000F9ECFAA9F0EDFB2288848C8589828A83E0A30586F0A30586DFF6DEF480E389828A83E493A3F208DFF980D688F0EF60010E4E60CD88F0ED2402B4040050C3F58251
:400A4000EB2402B4040050B923234582239009BF739001491208E312433CC003C002C0017B017A01798CA801AC02AD03D001D002D0037E007F06120A2B1243D15005124368
:400A8000D45014900190E4F0900191E4F090018EE4F090018FE4F0900190E0FFEF700B900191E0FFEF7003020B60900190E0FFEFD394A74019900190E0FFEF2480FFEFF427
:400AC00004FF9001491208C3EF120660802B900190E0FFEFC394575016900190E0FFC3747F9FFF9001491208C3EF120660800A9001491208C3E4120660900191E0FFEFD355
:400B000094A7401D900191E0FFEF2480FF9001491208C3E92401F9EA3400FAEF120660803F900191E0FFEFC394575022900191E0FFC3747F9FFFEFF404FF9001491208C38C
:400B4000E92401F9EA3400FAEF12066080129001491208C3E92401F9EA3400FAE412066090018EE0FFEF700B90018FE0FFEF7003020C3990018EE0FFEFD394A7404B900104
:400B80008EE0FFEF2480FFEFF404FF9001491208C3E92402F9EA3400FAEF1206609001491208C3E92402F9EA3400FA12061AFCEC12034C7B007A007900784312021B120353
:400BC000319001BD120886807090018EE0FFEFC39457504590018EE0FFC3747F9FFF9001491208C3E92402F9EA3400FAEF1206609001491208C3E92402F9EA3400FA120637
:400C00001AFCEC12034C7B007A007900784312021B9001BD12088680209001491208C3E92402F9EA3400FAE41206607F007E007D007C009001BD12088690018CE0FFEF3039
:400C4000E322900192E0FFEF701F90014C1208C312061AFFEF4408FFEF1206609001927401F08005900192E4F090018DE0FFEF30E46B900193E0FFEF20E07090014C12089B
:400C8000C3E92401F9EA3400FA12061AFFEF1313543FFFEF30E01C90014C1208C3E92401F9EA3400FA12061AFFEF54FBFFEF120660801A90014C1208C3E92401F9EA340038
:400CC000FA12061AFFEF4404FFEF120660900193E0FFEF4401FF900193EFF0800E900193E0FFEF54FEFF900193EFF090018DE0FFEF30E66D900193E0FFEF20E17290014C6E
:400D00001208C3E92401F9EA3400FA12061AFFEFC41313135401FFEF30E01C90014C1208C3E92401F9EA3400FA12061AFFEF547FFFEF120660801A90014C1208C3E9240197
:400D4000F9EA3400FA12061AFFEF4480FFEF120660900193E0FFEF4402FF900193EFF0800E900193E0FFEF54FDFF900193EFF090018DE0FFEF30E56C900193E0FFEF20E2AA
:400D80007190014C1208C3E92401F9EA3400FA12061AFFEFC413135403FFEF30E01C90014C1208C3E92401F9EA3400FA12061AFFEF54BFFFEF120660801A90014C1208C3A8
:400DC000E92401F9EA3400FA12061AFFEF4440FFEF120660900193E0FFEF4404FF900193EFF0800E900193E0FFEF54FBFF900193EFF090018DE0FFEF30E76A900193E0FF4D
:400E0000EF20E36F90014C1208C3E92401F9EA3400FA12061AFFEFC4540FFFEF30E01C90014C1208C3E92401F9EA3400FA12061AFFEF54EFFFEF120660801A90014C1208E4
:400E4000C3E92401F9EA3400FA12061AFFEF4410FFEF120660900193E0FFEF4408FF900193EFF0800E900193E0FFEF54F7FF900193EFF090018DE0FFEF30E36B900193E03B
:400E8000FFEF20E47090014C1208C3E92401F9EA3400FA12061AFFEFC4135407FFEF30E01C90014C1208C3E92401F9EA3400FA12061AFFEF54DFFFEF120660801A90014C82
:400EC0001208C3E92401F9EA3400FA12061AFFEF4420FFEF120660900193E0FFEF4410FF900193EFF0800E900193E0FFEF54EFFF900193EFF090018DE0FFEF30E16C900105
:400F000093E0FFEF20E57190014C1208C3E92401F9EA3400FA12061AFFEF131313541FFFEF30E01C90014C1208C3E92401F9EA3400FA12061AFFEF54F7FFEF120660801AD7
:400F400090014C1208C3E92401F9EA3400FA12061AFFEF4408FFEF120660900193E0FFEF4420FF900193EFF0800E900193E0FFEF54DFFF900193EFF090018DE0FFEF30E2BB
:400F80006D900193E0FFEF20E77290014C1208C3E92402F9EA3400FA12061AFFEFC41313135401FFEF30E01C90014C1208C3E92402F9EA3400FA12061AFFEF547FFFEF1226
:400FC0000660801A90014C1208C3E92402F9EA3400FA12061AFFEF4480FFEF120660900193E0FFEF4480FF900193EFF0800E900193E0FFEF547FFF900193EFF090018DE0C2
:40100000FFEF30E06C900193E0FFEF20E67190014C1208C3E92402F9EA3400FA12061AFFEFC413135403FFEF30E01C90014C1208C3E92402F9EA3400FA12061AFFEF54BF7B
:40104000FFEF120660801A90014C1208C3E92402F9EA3400FA12061AFFEF4440FFEF120660900193E0FFEF4440FF900193EFF0800E900193E0FFEF54BFFF900193EFF090EF
:40108000018CE0FFEF30E41F90014C1208C3E92402F9EA3400FA12061AFFEF54C0FFEF4418FFEF1206602290018CE0FFEF30E61F90014C1208C3E92402F9EA3400FA1206B0
:4010C0001AFFEF54C0FFEF4405FFEF1206602290014C1208C3E92402F9EA3400FA12061AFFEF54C0FFEF440FFFEF1206602290012EE4F090012FE4F0900147740BF0A374B9
:40110000B8F0D2AF9044F474FDF01242141241FF123CEF1242687E3A7FFE123FBE7E277FE5123FDD7E377F21123FFC7E297F8212403A12434312436612437412439E9001B9
:40114000387401F090013B741EF090013C741EF090013DE4F01243D150FB12433C12061AFFEF131313541FFFEF30E0EE12433CC003C002C0017B017A017932A801AC02AD5C
:4011800003D001D002D0037E007F06120A2B7B017A01793EC003C002C0017B017A01793890014C1208E3D001D002D003120A517B017A01793EC003C002C0017B017A0179AF
:4011C0003890014C1208E3D001D002D003121F50900132E0FFEF30E00F900133E0FFEF30E40690012E7404F0900132E0FFEF30E00F900133E0FFEF30E50690012E7402F0E1
:40120000900132E0FFEF30E00F900133E0FFEF30E60690012E7401F0900132E0FFEF30E00F900133E0FFEF30E70690012E7403F090012EE0FFEF640260030215639001390D
:40124000E0FFEF4404FF900139EFF0900139E0FFEF547FFF900139EFF0900139E0FFEF4440FF900139EFF0900139E0FFEF54DFFF900139EFF0900139E0FFEF54EFFF9001FB
:4012800039EFF090013AE0FFEF54BFFF90013AEFF090013AE0FFEF547FFF90013AEFF090013AE0FFEF54C0FFEF4418FF90013AEFF090012FE4F0900130E4F0900131E4F04D
:4012C0007B017A01793EC003C002C0017B017A01793890014C1208E3D001D002D003121F5012433CC003C002C0017B017A017932A801AC02AD03D001D002D0037E007F0688
:40130000120A2B900133E0FFEF30E520900130E0FFEF601E90012FE0FFEFC39409500690012FE004F0900130E4F080069001307401F0900133E0FFEF30E620900131E0FF10
:40134000EF601E90012FE0FFEFD39400400690012FE014F0900131E4F080069001317401F0900132E0FFEF30E30890012EE4F002156390012FE0FFEF706A900139E0FFEF25
:401380004404FF900139EFF0900139E0FFEF547FFF900139EFF0900139E0FFEF4440FF900139EFF07B017A017932C003C002C0017B017A01793E90014C1208E37F007E00F9
:4013C0007D807C3F90014F1208867F9A7E997D997C3E900153120886D001D002D003121BED02153F90012FE0FFEF6401703F900139E0FFEF4404FF900139EFF0900139E077
:40140000FFEF4480FF900139EFF0900139E0FFEF4440FF900139EFF090013AE0FFEF54C0FFEF4418FF90013AEFF002153F90012FE0FFEF6402707C900139E0FFEF54FBFFD2
:40144000900139EFF0900139E0FFEF4480FF900139EFF0900139E0FFEF4440FF900139EFF090013AE0FFEF54C0FFEF4405FF90013AEFF07B017A017932C003C002C0017B0B
:40148000017A01793E90014C1208E37F007E007D807C3F90014F1208867F9A7E997D997C3E900153120886D001D002D003121BED02153F90012FE0FFEF6403707B900139D6
:4014C000E0FFEF4404FF900139EFF0900139E0FFEF547FFF900139EFF0900139E0FFEF54BFFF900139EFF090013AE0FFEF54C0FFEF4405FF90013AEFF07B017A017932C0D9
:4015000003C002C0017B017A01793E90014C1208E37F007E007D807C3F90014F1208867F9A7E997D997C3E900153120886D001D002D003121BED800790012EE4F080247B1B
:40154000017A01793EC003C002C0017B017A01793890014C1208E3D001D002D003121F500212E190012EE0FFEF64016003021723900139E0FFEF4404FF900139EFF09001DA
:4015800039E0FFEF547FFF900139EFF0900139E0FFEF54BFFF900139EFF0900139E0FFEF54DFFF900139EFF0900139E0FFEF54EFFF900139EFF090013AE0FFEF54BFFF9025
:4015C000013AEFF090013AE0FFEF547FFF90013AEFF090013AE0FFEF54C0FFEF4418FF90013AEFF07B017A01793EC003C002C0017B017A01793890014C1208E3D001D00203
:40160000D003121F5090012FE4F0900130E4F0900131E4F07B017A01793EC003C002C0017B017A01793890014C1208E3D001D002D003121F5012433CC003C002C0017B01D7
:401640007A017932A801AC02AD03D001D002D0037E007F06120A2B7B017A01793EC003C002C0017B017A01793890014C1208E3D001D002D003120A51900133E0FFEF30E57D
:4016800020900130E0FFEF601E90012FE0FFEFC39409500690012FE004F0900130E4F080069001307401F0900133E0FFEF30E620900131E0FFEF601E90012FE0FFEFD39419
:4016C00000400690012FE014F0900131E4F080069001317401F0900132E0FFEF30E30790012EE4F0803D90012FE0FFEF601190012FE0FFEF6401600790012EE4F080247BB7
:40170000017A01793EC003C002C0017B017A01793890014C1208E3D001D002D003121F500216351243C0EF20E10302116C7B017A017910C003C002C0017BFF7A4379CC9011
:40174000014C1208E3900139E0FF7E0090014FEEF0A3EFF0D001D002D0031217CF7B017A017910123BD502116C22E508244CF582E43401F583E005082290014930070390EF
:40178000014CE475F0011208CC02061A2000E97F2ED2008018EF540F2490D43440D4FF30040BEF24BFB41A0050032461FFE50960021509050CE50C7002050B30070E9001CB
:4017C00049E475F0011208CCEF020660023F4F7403D2078003E4C207F5089001491208E3E4F509F50BF50CE50960077F201217AD80F5750AFFC201C200C202C203C205C2FE
:4018000006C208121779FF700D3007057F001217BEAF0CAE0B22B4255FC2D5C204121779FF24D0B40A00501A75F00A780930D50508B6FF0106C6A426F620D5047002D203AC
:4018400080D924CFB41A00EF5004C2E5D204021AB0D20180C6D20080C0D20280BCD2D580BAD20580B47F201217AD2002077401B5090040F112176AFF1217AD0217E7D20857
:40188000D206809512176AFB12176AFA12176AF94A4B700679AE7A1B7BFF20022EE509602A7E008E8275830012063360060EEE650A70F0C2D5EBC0E0EAC0E0E9C0E0EE1254
:4018C0001B11D0E0F9D0E0FAD0E0FB12061AFF60AAEBC0E0EAC0E0E9C0E01217ADD0E02401F9D0E03400FAD0E0FBE50A0460DCD50AD98087D20280A2121AF360F7E50A70FF
:40190000010412041BA90A600DE50A600914F50A121B9BEF60F3EA30E702F404C3995079EAF4250A0430E701E404F50A800D121AF360C1EA050A250A12041BEA900178F0A3
:4019400030E701E4250A04D50A0420050114121B11E4C0E0121B9B900178E0601320E70714F0121795802204F0D0E014C0E07F00121795E50A600712178C150A800B300544
:401980000312178CD0E00217E7D0E00480C4121AF3609EE50A0412041B900178EAF0E50A2005026001042404121B1174FF04C0E0121B9B121795E50A200502600312178CF7
:4019C000D0E0B50AE87F4512179F900178E07F2B30E7047F2DF404C0E01217ADD0E075F00A84C0F0121796D0E01217960217E7791080027908C206C2088008D2D5790A806B
:401A000004790AC2D5E50A047002F50AE4FAFDFEFF12176AFC7B0820011312176AFD7B1030000A12176AFE12176AFF7B20EC3382D592D55013C3E43000069FFFE49EFEE4D4
:401A40002001039DFDE49CFCE4CBF8C201EC700CCFCECDCCE824F8F870F38017C3EF33FFEE33FEED33FDEC33FCEB33FB994002FB0FD8E9EB300105F8D0E0C448B201C0E00C
:401A80000AEC4D4E4F78207B0070C2EAB50A0040BCC0E0121B13D0F0D0E0200104C4C0E0C4B201C0F0121796D0F0D5F0EB0217E71208F818845319EF5818554C185142194F
:401AC000F34F19FB4419FB49186A431A0155192E46198E4518F8471BCE5018592D185D2E18802B186123187E201BB72A18194800001878E50AB4FF03750A0612176AFC128B
:401B0000176AFD12176AFE12176AFF900171020458790AA2D5200314300509B910020404B9080104A2D52006025001042002689202B509005034C0E07F203003197F30A26C
:401B40000272067205500F121B6AC202C206C205C2087F30800F300503E9C0E01217AD300503D0E0F9D0E0B509CC3005177F30B9100C1217AD7F583004077F788003B9087E
:401B8000031217AD3002057F2D0217AD7F202008F87F2B2006F322920280CF7F00B40700500B2471F582E43401F583E0FF22286E756C6C2900D20112176A3001F8C2017813
:401BC0000930D50108F60218192D5043495812176A2403B405004001E4901BC99312179E743A12179ED2037509040219EF9001491208E31243D150051243D450489001491B
:401C00001208C3E92404F9EA3400FAE41206609001491208C3E92405F9EA3400FAE41206609001491208C3E92402F9EA3400FAE41206609001491208C3E92403F9EA340002
:401C4000FAE41206609001491208C3E92404F9EA3400FA12061AFFEF70189001491208C3E92405F9EA3400FA12061AFFEF7003021D909001491208C3E92404F9EA3400FA98
:401C800012061AFFEFD394A740269001491208C3E92404F9EA3400FA12061AFFEF2480FFEFF404FF90014C1208C3EF12066080459001491208C3E92404F9EA3400FA120637
:401CC0001AFFEFC3945750239001491208C3E92404F9EA3400FA12061AFFC3747F9FFF90014C1208C3EF120660800A90014C1208C3E41206609001491208C3E92405F9EAF0
:401D00003400FA12061AFFEFD394A7402A9001491208C3E92405F9EA3400FA12061AFFEF2480FF90014C1208C3E92401F9EA3400FAEF12066080599001491208C3E924055E
:401D4000F9EA3400FA12061AFFEFC39457502F9001491208C3E92405F9EA3400FA12061AFFC3747F9FFFEFF404FF90014C1208C3E92401F9EA3400FAEF120660801290015D
:401D80004C1208C3E92401F9EA3400FAE41206609001491208C3E92402F9EA3400FA12061AFFEF70189001491208C3E92403F9EA3400FA12061AFFEF7003021EB8900149E3
:401DC0001208C3E92402F9EA3400FA12061AFFEFD394A740599001491208C3E92402F9EA3400FA12061AFFEF2480FFEFF404FF90014C1208C3E92402F9EA3400FAEF1206BE
:401E00006090014C1208C3E92402F9EA3400FA12061AFCEC12034C7B007A007900784312021B1203319001BD120886021EB89001491208C3E92402F9EA3400FA12061AFF81
:401E4000EFC3945750529001491208C3E92402F9EA3400FA12061AFFC3747F9FFF90014C1208C3E92402F9EA3400FAEF12066090014C1208C3E92402F9EA3400FA12061A7A
:401E8000FCEC12034C7B007A007900784312021B9001BD120886802090014C1208C3E92402F9EA3400FAE41206607F007E007D007C009001BD1208867F007E007D807C3F24
:401EC00090015312086A1202B86002505890014C1208C312061AFCEC12034C90015312086A12011212038090014C1208C3EF12066090014C1208C3E92401F9EA3400FA1241
:401F0000061AFCEC12034C90015312086A12011212038090014C1208C3E92401F9EA3400FAEF1206607F007E007D807C3F90014F12086A1202B8600250159001BD12084E74
:401F400090014F12086A1201129001BD120886229001491208E390014C1208C3E92401F9EA3400FA12061AFF90019BE0FEEE6F601290014C1208C312061AFFEF4402FFEF00
:401F800012066090014C1208C3E92401F9EA3400FA12061AFF90019BEFF090014C1208C3E92402F9EA3400FA12061AFF90019CE0FEEE6F606490014C1208C3E92402F9EAB1
:401FC0003400FA12061AFFEFC413135403FFEF30E03590014C1208C3E92402F9EA3400FA12061AFFEFC41313135401FFEF30E01790019CE0FF90014C1208C3E92402F9EA06
:402000003400FAEF12066090014C1208C312061AFFEF4404FFEF12066090014C1208C3E92402F9EA3400FA12061AFF90019CEFF090019DE0FFEFB401111243BAEF640170D7
:402040000302222090019DE4F02290019DE0FFEF600302222090014C1208C312061AFFEF30E33C90014C1208C3E92403F9EA3400FA7D037F041230F890014C1208C312063F
:402080001AFFEF4401FFEF12066090014C1208C312061AFFEF54F7FFEF12066002221A90014C1208C312061AFFEF30E13C90014C1208C3E92401F9EA3400FA7D017F021293
:4020C00030F890014C1208C312061AFFEF4401FFEF12066090014C1208C312061AFFEF54FDFFEF12066002221A90014C1208C312061AFFEF30E23C90014C1208C3E9240273
:40210000F9EA3400FA7D017F051230F890014C1208C312061AFFEF4401FFEF12066090014C1208C312061AFFEF54FBFFEF12066002221A90014C1208C312061AFFEF20E026
:402140000302221A9001491208C31224449001491208C3E92403F9EA3400FA120688FFAEF0EEFF3395E0FEEF54FFFF900150EFF09001491208C3E92403F9EA3400FA120654
:4021800088FFAEF0EF54FFFF90014FEFF09001491208C3E92405F9EA3400FA120688FFAEF0EEFF3395E0FEEF54FFFF900152EFF09001491208C3E92405F9EA3400FA12065B
:4021C00088FFAEF0EF54FFFF900151EFF09001491208C3E92407F9EA3400FA120688FFAEF0EEFF3395E0FEEF54FFFF900154EFF09001491208C3E92407F9EA3400FA120613
:4022000088FFAEF0EF54FFFF900153EFF07B017A01794F7D067F001230F890019D7401F0227B007A4679E8124324EF4405FD7B007A4679E8124330751400E514C3940A5027
:402240003AAF14EF75F005A424DBF582E43443F583AF82AE838E088F09AE08AF098F828E831208ECAE08AF098F828E83740393FC740493FD1240EF051480BF751400E5143C
:40228000C394015078AF14EF75F008A4240DF582E43444F583AF82AE838E0A8F0BAE0AAF0B8F828E831208EC8B0C8A0D890EAE0AAF0B8F828E83A3A3A31208EC8B0F8A1015
:4022C0008911AE0AAF0B8F828E83740693F512740793F513AB0FAA10A911C003C002C001AB0CAA0DA90E9001151208E3D001D002D003AF13AE12123DE3051480817B087A09
:40230000007900123ED17B017A507903124324EF4402FD7B017A5079031243307B017A507913124324EF4402FD7B017A5079131243309043A0E0FFEF4440FF9043A0EFF065
:402340009043C2E0FFEF4410FF9043C2EFF07B087A0B79C0C003C002C0017B007A5179C09001151208E3D001D002D0037F0A7E00123DE37B087A0B79CCC003C002C0017BCD
:40238000007A5179109001151208E3D001D002D0037F0A7E00123DE37B087A0B79D8C003C002C0017B007A5179409001151208E3D001D002D0037F0A7E00123DE37B087A8A
:4023C0000B79E4C003C002C0017B007A5179609001151208E3D001D002D0037F0A7E00123DE39044F47401F0904322E0FFEF4408FF904322EFF09046ECE0FFEFC394055073
:4024000006904689743AF090480074F1F0122C71123DAD7B007A4379A0C003C002C0017B007A4379B09001151208E3D001D002D0037F0E7E00123DE39043B0E0FFEF54FDD1
:40244000FFEFF0229001571208E37F007E007D407C40C004C005C006C0077F007E007D007C3F90017A120886D007D006D005D004122B0B90015A1208867F007E007D807C6C
:402480003F9001BD12086A12002190015A12086A1200217B007A0079007843120112C004C005C006C0079001571208C3E92409F9EA3400FA120688FDACF0EC120347D00392
:4024C000D002D001D00012021B90015E1208869001571208C3E92401F9EA3400FA12061AFCEC12034C90015A12086A1201129001621208869001571208C3E92402F9EA343A
:4025000000FA12061AFCEC12034C9001BD12086A1201129001661208869001571208C312061AFCEC12034C7B007A00790078C012011290016612086A12002190016A1208CA
:40254000869001571208C312061AFCEC12034C90016212086A12001D90016612086A12002190016E1208869001571208C312061AFCEC12034C90016212086A120021900127
:402580006612086A12002190017212088690016A12084E90015E12086A1201127B007A007900783F1200211230081203809001571208C3E92403F9EA3400FAEE8FF01206BE
:4025C000B390016E12084E90015E12086A1201127B007A007900783F1200211230081203809001571208C3E92405F9EA3400FAEE8FF01206B390017212084E90015E12085E
:402600006A1201127B007A007900783F1200211230081203809001571208C3E92407F9EA3400FAEE8FF01206B322C0E0C0F0C083C082C085C084C086758600C09375930096
:40264000C0D075D000C000C001C002C003C004C005C006C0071242A790010EEFF090010EE0FFEF20E30990010EE0FFEF30E105D2090227C2C20912425390010CEEF0A3EFAF
:40268000F090010CE0FEA3E0FFEEFF7E007E00EF54DFFFEF4E60030227C290010CE0FEA3E0FF7E00EF5407FFD3EF9405EE940040030227AD90010DE0FFEF30E34590010C7D
:4026C000E0FEA3E0FFEEC4F854F0C868FEEFC4540F48FF7E00EF540FFFEF540FFF90010CE0FCA3E0FD7C00ED5407FD74592DF58274023CF583E0FEEE54F0FEEE4FFFEFF063
:40270000804890010CE0FEA3E0FFEEC4F854F0C868FEEFC4540F48FF7E00EF540FFFEF540FFFEFC454F0FF90010CE0FCA3E0FD7C00ED5407FD74592DF58274023CF583E010
:40274000FEEE540FFEEE4FFFEFF0900257E0FFEFB4012990010CE0FEA3E0FF7E00EF5407FFEF4E7017900258E0FFEFD394014004C20A8026900258E004F0801E90010CE025
:40278000FEA3E0FF7E00EF5407FFD3EF9401EE94004007D20A900258E4F090010CE0FEA3E0FF7E00EF5407FF900257EFF090010CE0FEA3E0FFEEFF7E007E00EF30E503029D
:4027C0002676D007D006D005D004D003D002D001D000D0D0D093D086D084D085D082D083D0F0D0E032C0E0C0F0C083C082C085C084C086758600C093759300C0D075D00089
:40280000C000C001C002C003C004C005C006C0079001A1E0FFEF20E20302295F9001CEE0FF9001BAE0FEEEC39F5068124229EF54FFFF9001CB1208C39001BAE0FEE92EF94E
:40284000E43AFAEF1206609001B9E0FFEF70099001B97401F002295F9001B9E0FFEFB401099001B97402F002295F9001CB1208C39001BAE0FFE92FF9E43AFA12061AFF7EC4
:40288000009001A3EE8FF01206729001BAE004F002295F1243189001A3E0FEA3E0FFEEFF7E007E00EF540FFF9001A3E0FCA3E0FD7C00EF2DFFEE3CFEEFF4FFEEF4FE7E007A
:4028C0009001A3EEF0A3EFF01242297E009001A3E0FCA3E0FD7C00ED6F7002EC6E70489001A1E0FFEF54FBFF9001A1EFF09001A1E0FFEF54F7FF9001A1EFF09001A1E0FF92
:40290000EF54EFFF9001A1EFF09001A1E0FFEF4402FF9001A1EFF09001A1E0FFEF4401FF9001A1EFF080389001A1E0FFEF54FBFF9001A1EFF09001A1E0FFEF54FDFF9001B2
:40294000A1EFF09001A1E0FFEF4401FF9001A1EFF09001A1E0FFEF4408FF9001A1EFF0D007D006D005D004D003D002D001D000D0D0D093D086D084D085D082D083D0F0D053
:40298000E032C0E0C0F0C083C082C085C084C086758600C093759300C0D075D000C000C001C002C003C004C005C006C00712427D900107EEF0A3EFF0900107E0FEA3E0FF59
:4029C0007E00EF64824E701990019EE0FFEF701190019E7401F090019FE4F0A3E4F0022AD5900107E0FEA3E0FF7E00EF64834E703B90019EE0FFEFB4013290019E7402F061
:402A000090019FE0FEA3E0FF74A52FF58274013EF583E4F090019FE0FEA3E0FF9001D1EFF090019FE4F0A3E4F0022AD5900107E0FEA3E0FF7E00EF64844E703190019EE0B0
:402A4000FFEFB4022890019FE0FEA3E0FF9001D2EFF090019EE4F090019FE0FEA3E0FF74AF2FF58274013EF583E4F0806890019EE0FFEFB4012C900107E0FEA3E0FFEF545C
:402A8000FFFF90019FE0FCA3E0FD74A52DF58274013CF583EFF090019FE475F001120672803390019EE0FFEFB4022A900107E0FEA3E0FFEF54FFFF90019FE0FCA3E0FD74FA
:402AC000AF2DF58274013CF583EFF090019FE475F001120672900107E0FEA3E0FFEEFF7E00EF30E5030229ADD007D006D005D004D003D002D001D000D0D0D093D086D084EC
:402B0000D085D082D083D0F0D0E032900176120886E4FFFE7D807C3F900176E0F8A3E0F9A3E0FAA3E0FB1202B87006900176022C65900176E0FCA3E0FDA3E0FEA3E0FF120F
:402B40000401FBA3E0FCA3E0FDA3E0FEA3E0FF120401FFB40108E4FFFE7D807C3F22EF64046029EB64046024EBB40130E4FFFEFDFC90017AE0F8A3E0F9A3E0FAA3E0FB12F8
:402B800002B860084006E4FFFEFDFC2290017A120892FFFFFFFF90017A022C65E490017EF0A3F0FFFEFDFC900176E0F8A3E0F9A3E0FAA3E0FB1202B8505F90017AE0FCA399
:402BC000E0FDA3E0FEA3E0FF12038090017EEEF0A3EFF0FDCCEECCEC120347C8ECC8C9EDC9CAEECACBEFCB90017AE0FCA3E0FDA3E0FEA3E0FF12001DE4FBFAF9F81202B8F5
:402C0000708A900176E0FCA3E0FDA3E0FEA3E0FF120331900176120886900176E0FCA3E0FDA3E0FEA3E0FF122E0290017AE0F8A3E0F9A3E0FAA3E0FB1201121236BF900188
:402C40007A12088690017FE030E01790017AE0FCA3E0FDA3E0FEA3E0FF12033190017A12088690017AE0FCA3E0FDA3E0FEA3E0FF227B007A4079807D9B7C001242FC90405A
:402C8000827418F07B007A4079847D9B7C001242FC9040867418F07B007A4079887D9B7C001242FC90408A7418F07B007A40798C7D387C011242FC90408E7418F07B007AB3
:402CC0004079907DA57C0E1242FC9040927418F07B007A4079947D5F7CEA1242FC9040967419F09043007406F09042007403F07B0C7A0179081243249046A1EFF07B007A3D
:402D00004279227D107C001242FC7B007A4279207D517C121242FC900114E4F07F197E007D007C0090011012088690011012084ED3EF9400EE9400404E900114E0FFEF64D2
:402D4000036044904225E0FFEF5401FF7E00900114E0FEEE25E0FEEE4FFFEF5403FF900114EFF07FE07E017D007C00123D0090011012084E7BFF7AFF79FF78FF1206D29011
:402D8000011012088680A390011012084EEF4E70057F031242BB7B007A4079047D007C011242FC9040047407F0904006E4F09040087448F0904004E4F09040017402F0901B
:402DC00043A2E0FFEF443FFF9043A2EFF0223E9248DA3ECCCCCD3F2AAAAB400000003F8000003F9837F03FB504F33FD744FC3E3172173EB172173F0515913EDE5BD9D2001B
:402E00008002C200EDD2E7F8CD33EC3304700BBD800592D50203F60203EC40FBD31460F2F5F07C3FEE7A00C39496C8948B40230AC89469C8941A401A0AC89468C8941F40A2
:402E4000110AC8945AC89425400805F07A00CDC2E7CDC0F0900180120886EA2323C0E024DEF582E4342DF583120876120021ECC0E0EDC0E0EEC0E0EFC0E012085A90018021
:402E800012086A12001DD0E0FBD0E0FAD0E0F9D0E0B2E7F812021B900180120886902DCE74031205CD90018012086A120112D0E0600F24EAF582E4342DF58312087612009D
:402EC00021900180120886D0E0C3947FFDE49400FC1203477B187A727931783F12011290018012086A12002130000B7BD97A5B79DE783E1201122290015FEFF0900160E484
:402F0000F0900161E4F09001D0E0FFEF600302300390015FE0FFEFC313FFEF5401FF90015FE0FEEE5401FEEE6FFF90015FE0FEEE1313543FFEEE5401FEEF6EFF90015FE0F3
:402F4000FEEEC4540FFEEE5401FEEF6EFF900160EFF090015FE0FFEF131313541FFFEF5401FF90015FE0FEEEC313FEEE5401FEEE6FFF90015FE0FEEEC4540FFEEE5401FED8
:402F8000EF6EFF90015FE0FEEEC4135407FEEE5401FEEF6EFFEFF4FF900161EFF0900160E0FFEFC4333354C0FFEF5440FF90015FE0FEEE543FFEEE4FFF900161E0FEEEC4F0
:402FC0003333335480FEEE5480FEEF4EFF900162EFF07F031235EC7F647E00123EA4123D76123C6F7F5512352A900162E0FF12352A9001D07401F0900162E0FFEF54FFFFAB
:403000007E00227E017F002290017612088674FFFFFEFDFC900176E0F8A3E0F9A3E0FAA3E0FBC312081760387F807E967D187C4B900176E0F8A3E0F9A3E0FAA3E0FB120205
:40304000B86002501B7F807E967D187CCB900176E0F8A3E0F9A3E0FAA3E0FB1202B8500F900176E0FCA3E0FDA3E0FEA3E0FF22900176E0FCA3E0FDA3E0FEA3E0FF120380D8
:4030800090017A12088690017AE0FCA3E0FDA3E0FEA3E0FFEC120342C8ECC8C9EDC9CAEECACBEFCB900176E0FCA3E0FDA3E0FEA3E0FF12001DE4FBFAF9F81202B8602640C5
:4030C0002490017AE0FCA3E0FDA3E0FEA3E0FFEF24FFFFEE34FFFEED34FFFDEC34FFFC90017A12088690017AE0FCA3E0FDA3E0FEA3E0FFEC12034222900157EFF0900158B0
:40310000EDF09001591208E39001A2E0FFEF60030231DF12437B900157E0FF122EF790015DEEF0A3EFF09001A27401F090015DE0FEA3E0FFEFB4000AEEB401061243747FB5
:40314000012290015CE4F0900158E0FF90015CE0FEEEC39F50409001591208C390015CE0FFE92FF9E43AFA12061AFF7E0090015DEE8FF01206729001591208C390015CE014
:40318000FFE92FF9E43AFA12061AFF12352A90015CE004F080B190015DE0FEA3E0FFEEFF7E007E00EF5407FF90015DE0FCA3E0FD7C00EF2DFFEE3CFEEFF4FFEEF4FE7E008A
:4031C00090015DEEF0A3EFF090015DE0FEA3E0FF12352A9001A27401F01243747F00227F012275930078007583467582E8E04401F0009046ECE0F99046FAE0FAB9032254F5
:4032000020B40012B8001AEA900FFFF07401900FFEF09046F6F0900FFEE06005900FFFE0FA90480074C0F075812190000078007910E4F0A3D8FCD9FAEA900252F0020011B3
:4032400075150F7516FD1222210232870210EEE493A3F8E493A34003F68001F208DFF48029E493A3F85407240CC8C333C4540F4420C8834004F456800146F6DFE4800B01F6
:40328000020408102040809037B8E47E019360BCA3FF543F30E509541FFEE493A360010ECF54C025E060A840B8E493A3FAE493A3F8E493A3C8C582C8CAC583CAF0A3C8C537
:4032C00082C8CAC583CADFE9DEE780BEC0E0C083C082C085C084C086758600C093759300C0D075D000C006C007900186E4F0A2AFE433FF900187EFF0D2AF9044F474FDF03E
:40330000906567E0FF900185EFF0900185E0FFEF30E568906446E0FF90022FE0FE74192EF582E43402F583EFF09001867401F0900186E0FFEF6038900217E0FFEF6006903B
:4033400002327401F090022FE004F090022FE0FFEFC39409400590022FE4F0900218E0FF90022FE0FEEEB507069002177401F0906567E0FF900185EFF0808F900187E0FF3A
:40338000EF24FF92AFD007D006D0D0D093D086D084D085D082D083D0E032C0E0C083C082C085C084C086758600C093759300C0D075D000C006C00790018AE4F0A2AFE43381
:4033C000FF90018BEFF0D2AF9044F474FDF090646AE0FF900189EFF0900189E0FFEF30E56890644DE0FF900247E0FE74372EF582E43402F583EFF090018A7401F090018A5B
:40340000E0FFEF6038900235E0FFEF60069002347401F0900247E004F0900247E0FFEFC394104005900247E4F0900236E0FF900247E0FEEEB507069002357401F090646ABB
:40344000E0FF900189EFF0808F90018BE0FFEF24FF92AFD007D006D0D0D093D086D084D085D082D083D0E03290014EEFF0900001E0FF90014FEFF0900003E0FF900150EFB2
:40348000F0900150E0FF90014FE0FEEEC39F5026900150E0FF7E00EF24FFFFEE34FFFE90014FE0FD7C00EFB50508EEB504047F0180027F008018900150E0FF90014FE0FE3E
:4034C000C3EE9FFFEFB4FE047F0180027F00EF709C90014FE0FF900150E0FEEEB50714906469E0FFEF20E20B90014EE0FF906449EFF02290014FE0FFEFC394FF4005900112
:403500004FE4F090014EE0FF90014FE0FE74042EF582E43400F583EFF090014FE004F090014FE0FF900001EFF022900163EFF0900230E0FF900164EFF0900222E0FF9001EF
:4035400065EFF0900165E0FF900164E0FEEEC39F5026900165E0FF7E00EF24FFFFEE34FFFE900164E0FD7C00EFB50508EEB504047F0180027F008018900165E0FF90016489
:40358000E0FEC3EE9FFFEFB40B047F0180027F00EF709C900164E0FF900165E0FEEEB50714906468E0FFEF20E20B900163E0FF90644FEFF022900164E0FFEFC3940C400591
:4035C000900164E4F0900163E0FF900164E0FE74232EF582E43402F583EFF0900164E004F0900164E0FF900230EFF022900163EFF0900231E0FFEF7003023686900163E0E6
:40360000FFEF600A900163E0FFEF6403702890643BE0FF900216EFF090643B746FF090644FE4F0906468E0FF900164EFF0900164E0FFEF20E1ED900163E0FFEF6401600973
:40364000900163E0FFEFB40316906468E0FF900164EFF0900164E0FFEFF4FFEF20E0EA900163E0FFEF64016013900163E0FFEF64026009900163E0FFEFB4030A900216E0E7
:40368000FF90643BEFF02233DA929E35B16011377FE5FE392184893AAEC3FF3C1D955B3D6358473E75FDF03F3172183F800000C2D50203F60203ECBD80FA50F30203F3EDDA
:4036C00033EC330460F17B3B7AAA79B8783F120112ED33EC3392D5247B5011A2D570DB500BED448024045004A2D580CEEFFBEEFAEDF9ECF8120380EFF582F404FC12034C9B
:40370000120021C08290368774091205DCED33CC33D0F092D525F0A2D57001C313CC13FD22C0E0C0F0C083C082C085C084C086758600C093759300C0D075D000C000C001F0
:40374000C002C003C004C005C006C0079001A1E0FFEF30E2407FFF1242CD1243189001A1E0FFEF54FBFF9001A1EFF09001A1E0FFEF54FDFF9001A1EFF09001A1E0FFEF444C
:4037800001FF9001A1EFF09001A1E0FFEF4410FF9001A1EFF0D007D006D005D004D003D002D001D000D0D0D093D086D084D085D082D083D0F0D0E0324101A2004101A101E7
:4037C0004A01C1000000000000000000004401BD3DCCCCCD41019200410193004101940041025800410002004100030041000100410231004102220041023000410218008F
:4038000041022F0041021700410232004102640041026500410248004102360041024700410235004102340044024E02DC6C004402490000BB8041024D304402535DC0005D
:403840000043025F0000004102660000C0E0C083C082C085C084C086758600C093759300C0D075D000C006C007A2AFE433FF900184EFF0D2AF9044F474FDF0900001E0FFDA
:40388000900003E0FEEE6F6037906469E0FFEF20E22E900003E0FFEFC394FF4005900003E4F0900003E0FF74042FF582E43400F583E0FF906449EFF0900003E004F080BB28
:4038C000900184E0FFEF24FF92AFD007D006D0D0D093D086D084D085D082D083D0E032C0E0C083C082C085C084C086758600C093759300C0D075D000C006C007A2AFE43337
:40390000FF900188EFF0D2AF9044F474FDF0900230E0FF900222E0FEEE6F6037906468E0FFEF20E22E900222E0FFEFC3940C4005900222E4F0900222E0FF74232FF582E4FF
:403940003402F583E0FF90644FEFF0900222E004F080BB900188E0FFEF24FF92AFD007D006D0D0D093D086D084D085D082D083D0E03212436D900218E0FF900104EFF09005
:40398000022FE0FF900105EFF0900217E0FFEF700E900105E0FF900104E0FEEE6F6045900104E0FF74192FF582E43402F583E0FF900103EFF0900104E004F0900104E0FF3B
:4039C000EFC394094005900104E4F0900104E0FF900218EFF0900217E0FFEF6011900217E4F0800A906446E0FF900103EFF0124366900103E0FF221243A5900236E0FF90D1
:403A0000010AEFF0900247E0FF90010BEFF0900235E0FFEF700E90010BE0FF90010AE0FEEE6F604590010AE0FF74372FF582E43402F583E0FF900109EFF090010AE004F03C
:403A400090010AE0FFEFC39410400590010AE4F090010AE0FF900236EFF0900235E0FFEF6011900235E4F0800A90644DE0FF900109EFF012439E900109E0FF22900149EF86
:403A8000F090014AECF0A3EDF0900149E0FFEFD3941F5003D38001C340057F00124292900149E0FFEF541FFF7E00EF25E0FFEE33FEEF2400FFEE3444FEAA06A9077B01128F
:403AC00042EF90014CEEF0A3EFF0900149E0FF7E02EF8EF0A4FFAEF0EF2400FFEE3444FEAA06A9077B0190014AE0FEA3E0FFAD07AC061242FE90014CE0FEA3E0FF22C0E02D
:403B0000C0F0C083C082C085C084C086758600C093759300C0D075D000C000C001C002C003C004C005C006C0071243C6EF30E1239001D0E0FFEFB401059001D0E4F090014D
:403B4000A2E0FFEFB4010C7F6D7E01123EA49001A2E4F0D007D006D005D004D003D002D001D000D0D0D093D086D084D085D082D083D0F0D0E032900149EFF090014AEDF058
:403B800090014AE0FFEFD394075003D38001C340057F00124292900149E0FFEFD3941F5003D38001C340057F0012429290014AE0FFEF5407FF7E00EF75F020A4FFAEF090D2
:403BC0000149E0FEEE541FFE74802EF582E43444F583EFF0229001491208E390014CE4F0A3E4F0900002E0FFEF60429001491208C390014CE0FEA3E0FFE92FF9EA3EFA1296
:403C0000061AFFEF60279001491208C390014CE0FEA3E0FFE92FF9EA3EFA12061AFF12346890014CE475F00112067280BE221241EA900149EFF0906495E0FFEF4420FFEF39
:403C4000F0906597E0FFEF4410FFEFF09044C07402F0906498E0FFEF4410FFEFF09044C07404F0124137900149E0FF124108221241EA900163EFF0906496E0FFEF4401FFDA
:403C8000EFF0906496E0FFEF54FEFFEFF0900163E0FF12410812436D900218E4F090022FE4F0900217E4F0900232E4F0124366227C327DCC7F01123A7C7D077F01123B76A2
:403CC000906485747AF09065877420F07C387DDF7F02123A7C7D077F02123B7690642B7407F090643B7448F09064887402F02212423E123F287E267F2A12401B1243902217
:403D0000EC4D4E700D78FCEF24E950032840FD2200007BF178DA0000EF28FF78FFEE38FEED38FDEC38FC50E7EF2BFFEE38FEED38FDEC38FC40F222050203041241EA90019E
:403D400049EFF090649DE0FFEF4420FFEFF090649AE0FFEF4410FFEFF09044C07408F0906494E0FFEF4410FFEFF0124165900149E0FF124108221241EA900163EFF0906472
:403D80009FE0FFEF4401FFEFF090649FE0FFEF54FEFFEFF0900163E0FF12410812437B900222E4F0900230E4F0124374227B0C7A0179CF124324900110EFF0900110E0FF18
:403DC000EF5407FF90586EEFF0900110E0FFEFC4540FFFEF540FFF90586FEFF09058767444F022758600EF4E6027EF60010E759300900115E0F595A3E0F585A3E0F5848B48
:403E0000938A838982E0A30586F0A31586DFF6DEF4E4F593F59522906567E0FFEF547FFF900103EFF0900232E0FFEF6013900103E0FFEF4480FF900103EFF0900232E4F038
:403E4000900103E0FF2290646AE0FFEF547FFF900109EFF0900234E0FFEF6013900109E0FFEF4480FF900109EFF0900234E4F0900109E0FF227C337D9A7F03123A7C7D07C2
:403E80007F03123B7690648D7472F090648A7420F09065297407F09065397448F0906484E4F02232EEFA90024DE0F88FF0A4FFAEF0E88AF0A42EFEE5F03400FDEF24C9FFEF
:403EC00078FFEE38FEED38FDE438FC5003023D0022ACEAADA08B938A838982E0F96017A3E0F5EAA3E0F5A0A3E060F4FAA3E0F8A3E0F2DAF8D9E98DA08CEAE4F5932212417D
:403F0000EA900149EFF0906497E0FFEF4420FFEFF090649FE0FFEF4410FFEFF012414E900149E0FF124108221241EA900149EFF0906598E0FFEF4401FFEFF0906598E0FFF9
:403F4000EF54FEFFEFF0900149E0FF12410822EFB40A07740D123F5A740A309811A899B8130CC2983098FDA899C298B811F63099FDC299F599221241EA900149EFF0906469
:403F800099E0FFEF4410FFEFF09044C07410F0124120900149E0FF124108227C387D4C7F04123A7C7D077F04123B7690642A7407F090643A7448F09064897402F02290012C
:403FC00049EEF0A3EFF0124351900149E0FEA3E0FF1240597F0712417C12434A22900149EEF0A3EFF012435F900149E0FEA3E0FF1240777F0712419212435822900149EE84
:40400000F0A3EFF0124389900149E0FEA3E0FF1240957F071241A812438222900149EEF0A3EFF0124397900149E0FEA3E0FF1240B37F071241BE12439022900149EEF0A337
:40404000EFF01243B3900149E0FEA3E0FF1240D17F071241D41243AC2290014BEEF0A3EFF07B027A44791290014BE0FEA3E0FFAD07AC061242FE2290014BEEF0A3EFF07B5D
:40408000027A44791090014BE0FEA3E0FFAD07AC061242FE2290014BEEF0A3EFF07B027A44790E90014BE0FEA3E0FFAD07AC061242FE2290014BEEF0A3EFF07B027A44799D
:4040C0000090014BE0FEA3E0FFAD07AC061242FE2290014BEEF0A3EFF07B027A44790C90014BE0FEA3E0FFAD07AC061242FE22EC4D6011ED60010C8B938A838982E4F0A3E7
:40410000DDFCDCFA75930022EF54016004D2AF8002C2AFEF5402FF9044F4E054FD4FF0229043A2E0FFEF4404FFEFF09043B2E0FFEF4404FFEFF0229043A2E0FFEF4408FF5A
:40414000EFF09043B2E0FFEF4408FFEFF0229043A2E0FFEF4402FFEFF09043B2E0FFEF4402FFEFF0229043A2E0FFEF4401FFEFF09043B2E0FFEF4401FFEFF02290014BEFF8
:40418000F090014BE0FFEFC43354E0FF904489EFF02290014BEFF090014BE0FFEFC43354E0FF904488EFF02290014BEFF090014BE0FFEFC43354E0FF904487EFF022900175
:4041C0004BEFF090014BE0FFEFC43354E0FF904480EFF02290014BEFF090014BE0FFEFC43354E0FF904486EFF0229044F4E0F84402F0E85402FF10AF012274014FFF229018
:404200000002E0FFEF7009123F9B9000027401F0123F7622900231E0FFEF7009123CB09002317401F0123C2E22123E177E00EF7D00FC1239727E00EC4EFEED4FFF229002EC
:4042400065E0FFEF700912430B9002657401F0123EFE221242A77E00EF7D00FC1242DD7E00EC4EFEED4FFF22900248E0FFEF7009123E759002487401F0123D3B22123E46DA
:404280007E00EF7D00FC1239F77E00EC4EFEED4FFF2290FFFF12091EEFF09046EA7401F090000112091E2290646FE0FFEF547FFF90010FEFF090010FE0FF22900115EFF064
:4042C000900115E0FF900115EFF080FE22900106EFF0900106E0FF90640EEFF022906548E0FF90010FEFF090010FE0FF228B938A838982E0FFA3E0FE759300228B938A83FE
:404300008982EDF0A3ECF0759300229064877472F090648F742AF02290647EE0FFEF547FFFEFF0228B938A838982E0759300FF228B938A838982EDF0759300227B017A02E1
:404340007959229044C07410F0229044C17402F0229044C97402F0229044C17401F0229044C97401F0229044C07402F0229044C87402F0229044C07404F0229044C874042B
:40438000F0229044C07480F0229044C87480F0229044C07401F0229044C87401F0229044C07408F0229044C87408F0229044C07440F0229044C87440F0229001A2E0FF2235
:4043C000906469E0FF22906468E0FF222534640A00A20A22A20922323232320051000010005120002000515000100051F0001001000006000106800980011400080001406F
:40440000000A00014C0002000150000020010600080B40008000000000000000000000000000000000000000000000000000000000000000000000000000000000000000D8
:40444000000000000000000000000000000000000000000000000000000000000000000000000000000000000000000000000000000000000000000000000000000000003C
:4044800000000000000000000000000000000000000000000000000000000000000000000000000000000000000000000000000000000000000000000000000000000000FC
:4044C00000000000000000000000000000000000000000000000000000000000000000000000000000000000000000000000000000000000000000000000000000000000BC
:40450000000000000000000000000000000000000000000000000000000000000000000000000000000000000000000000000000000000000000000000000000000000007B
:0200000480007A
:40000000240052040840094020403101006409840F857A8772880F890F8A388D728E0D8F38006501873A010105800287408E01E204E6470103068D40934098029E01A52018
:40004000B12001044B08A309010A540C190D010EA010A3124C19011AFE1C0828032A843060341F350136803A223E405401580459045B045C305F0180218110824E857D869F
:40008000FF87808827891C8AD88D028F40903E91839281937C9406950496F998DD9A229B639C109D039F20A023A2DCA410A59FA760A810A91CABE3AC10AD08B010B21FB326
:4000C00080B4E0B77FB908BA28BB80D602D712D804D904DB04DC33DD30DF0101053F0120030204040510078008800A040B800C060D100E020F8412081320140116021715DB
:4001000019601B121C201D101E401F20200422202508268027012C052F2830203620378539503D013E203F8459425A085B205E086C206D596E027404762277148B408D202D
:400140008F049340958098029E01A520C073C2FBC4F2CA70CCF4CEFCD64FE2800106148402860494069C049E03A101A806B206B301B401BB02BF04D602D713D804D904DBC8
:4001800004DC13DD10DF01010757010805140602078009040B010C100D020E22111015011608170419081B201C801D261E011F08210122042610280429322E822F283414B6
:4001C000362137803CA83D033E083F024410452147804D20564458016280630269647094731485108701888089049110924093409580960C980299109A029B049C809D02DE
:400200009E059F80A014A104A2A1A316A440A520A60CA708AA04AC52AD10B108B302C0F4C2F5C472CAF1CCF0CEF0D0F0D220D601E002E608E801EA04010854040106080848
:400240000109020A060B011602180A19021A011B01250329032C042E093101340F370239023F4054015604580459045B045C135D305F018033824C850986FE879088338996
:400280005C8AC48B028D149303948996309F10A080A1D0A30CA403A614A9CCAB11AD20B00FB11FB2E0B320B4C8B5C0B610B920BA2ABE40BF14C041C106C5ECC60BC807C984
:4002C000FFCAFFCBFFCEF0CF44D00CD401D604D804D904DA04DB04DC22DD22DF01E6C0EA40EB0201094C0004012205140A100C080E04103012801540182019A21A101B02C9
:400300001D102080211022052741280229222C042F183281361038AC3E2042014302482049215040581259815A085C405D095F10620264408440870489048A0890489145E4
:400340009285939095209820990C9C019D109F40A008A280A450A518A601A941B180B360B401B508C06EC264C48CCA6DCC29CE2ED009D204D6FFD881E020E480ECA0010AA2
:400380006207080C01130417031B031F04240227012D023001310434023503360237083B203E413F01400245014605480549FF4A074BFF4C404D204EF04F055008520454DB
:4003C000185604580459045A045B045C025D025F01604061A8624063208101845C86028702880C8A718B048E0394409610970298109A2C9B029E809F04A414A702AA80ACF2
:4004000009AE70AF02B102B260B480B504B61FB701BA08BB08BE10BF51C004C601C705C814C9FFCA07CBFFCC40CD20CEF0CF05D008D804D904DA04DC03DD03DF01E040E112
:40044000A8E240E320010B50008005540601082009200C080D400E04102015401610172018081A011B011D441E282121224024422718282029802D402E082F0230803108D8
:40048000322033013514374039063B013D213E04411044404620470848205280540856405A0260046101630166086710690489208B018E2490049101920698409A189B0182
:4004C0009C019D109E619F10A080A302A410A611C0E1C2E0C4E4CA5ACC7FCEE2D084D601D80DE010E2C0E680010C54070209390F20170419211B102319253929202B092D23
:40050000202F043306353837013B203F04560859045B045D905F01814083308405850689028A028FF995B196029740980499669A019B99A104A404A5F9A601A706A805A9AA
:40054000FFAD17AFE8B004B180B201B307B402B50EB770B808BBA8BE11C065C102C204C403C6ECC80CC9FFCAFFCBFFCC62CDA0CEF0CF41D00CD602D713D804D904DA04DB6E
:4005800004DF01E640E702E910EA30EB10ED10EE10EF12010D47001003100B2C122C18141901200122092314250826202701280829402A062F65310832203620370838290F
:4005C0003B803D883F104008410843314A0A4B805080531059015D80670268286A807014720289408B048D80910192049680970298409A189B089C019D109E61A144A20288
:40060000A302A438A611A804B340C006C206C406CAFFCC66CE7FD007D20CD611D810E410E804EC80010E5E010202011201150119011D0130013101320135023E013F104004
:400640004145EC4602480749FF4AFF4BFF4F01501852805401580459045A045B045C045D445F016040624064406540668068806A806C806E8080408501870688138A208B20
:40068000108C088E22941195229626974198119A2CA310A567A805A967AD44AF29B040B110B240B307B40FB560B630B708B880BE44BF01C063C102C5E0C6B0C70CC81AC9EF
:4006C000FFCAFFCBFFCEF0CF44D00CD418D604D804D904DA04DB04DC03DD13DF01E6C0EA40EB02010F380380044005100644084009020A0D0E24160818201A401C401D08D8
:400700001E051F0220042202254527082C282F413028324037083A013C203D08410243804508460449094D014E045380561859095A405E02640166227102801081018202C9
:40074000C0D8C268C440CAF0CC4ECE61D069D220D68BD8B0E60201150CA808AA08AB10AC04AD10AE04B204B640B701EA03EC01EE020116560120030A053809380C010D04F1
:400780001508173119041D0424012510270A29042C0130013103330435383F055608580459045B045C315D905F0180278218840485308640870C89098B308D148E04901C11
:4007C000914092229303943F9520981C9A219D209E239F10A010A408A818A90CAB31AD3CAF02B01FB13FB438B640B740BA22BF40C026C104C5E0C60BC70CC816C9FFCAFF9D
:40080000CBFFCEF0CF44D00CD41AD604D804D904DA04DB04DC01DD30DF01E6C0EA40EB0201175800080180034007010A480B2210801314154419801A481F012142260427DA
:400840008828082B022D082F08300831023240351036803708388039203A083C803D183F01404042084922504052085A015B105F4060026201630866806701804883408956
:40088000208C049008915492819374958096049701980299189B119D029E819F80A0C0A104A280A31EA60CAA40AB10AC01AE40B101B310B490B640C08DC20FC4AECA6CCCBB
:4008C0007BCEFED005D204D615D81DE605E808EA02EE2001186700780406051F087F0C070E780F80102811141349141E150A1661175118791A061D011F2620502404251FA3
:4009000028022B802E79310732073318341E3560366037803A203F50404541024206440346EC480C49FF4AFF4BFF4C624DA04EF04F41500C5608580459045A045B045C11A4
:400940005D915F016640670269106A306B106D106E106F128701891A8D0A91019302971299049D01A401A518A702A902B103B304B518B601B920BB02BE40BF10C002C501B3
:40098000C650C809C9FFCA07CBFFCC40CD20CEF0CF05D008D804D904DA04DF01E040E1A8E240E3200119530504060507400E64102111801548164017101A021E061F1820D8
:4009C000042108220225402608274428202A102D202E082F08302031083242340236083740381039043B803F84400444044604470648204D605230551057405C8064026623
:400A000040802083028A018D048E48910C92809384972098A49A089B109C019E20A518A631AC90AF01B202B308B620B710C0F0C270C4F4CA66CCDFCE5ED0E4D230D610D85D
:400A400010E010E220E820EA10EC40EE22011B0AA810AA02AC02AD08B210B312B540B621E8C0EC4001400F32043380360837103A105D02800283808D018F10CCF0CE10D699
:400A800080E220E62001410F30023280350137103B104E044F10960899019D029E10A002A608CCF0CE10014206890296089D029E109F10A688014308860496089E10A680AD
:400AC000AA08AB10E610EA2001440907100980122052028620C004C202C408D4010145098E028F109A019B10A180A602AA01E408E6020146029A01A1800147029A01A1802F
:400B0000014802A680B2100149032280A680C810014C0466019A01AD80D80101500C001F01010A0B0C0F0E1B0F01100B11011A0B1B011C031D0101510300FF01FF020F0045
:400B4000080F01F072308900FB00008420F9000262209800003F04C0000099C7400000409910620002000008623A00C500080000E200070072FF080000000A0000000010B1
:400B80004306020001000C0E14FFFFFF62A0F0410C0000000000000004040400030300010000000000004002001030100010101200000000000000000000000000000000A8
:400BC000100000100000000000000000400000404000400000000000400000404000400000000000010042010100010000000000000000000000000000000000000000008F
:400C000000000000000000000000000000000000000000000000000000000000000000000000000000000000000000000000000000000000000000000000000000000000B4
:400C40000000000000000000000000000000000000000000000000000000000000000000000000000000000000000000000000000000000000000000000000000000000074
:400C80000000000000000000000000000000000000000000000000000000000000000000000000000000000000000000000000000000000000000000000000000000000034
:400CC00000000000000000000000000000000000000000000000000000000000000000000000000000000000000000000000000000000000000000000000000000000000F4
:400D000000000000000000000000000000000000000000000000000000000000000000000000000000000000000000000000000000000000000000000000000000000000B3
:400D40000000000000000000000000000000000000000000000000000000000000000000000000000000000000000000000000000000000000000000000000000000000073
:400D80000000000000000000000000000000000000000000000000000000000000000000000000000000000000000000000000000000000000000000000000000000000033
:400DC00000000000000000000000000000000000000000000000000000000000000000000000000000000000000000000000000000000000000000000000000000000000F3
:400E000000000000000000000000000000000000000000000000000000000000000000000000000000000000000000000000000000000000000000000000000000000000B2
:400E40000000000000000000000000000000000000000000000000000000000000000000000000000000000000000000000000000000000000000000000000000000000072
:400E80000000000000000000000000000000000000000000000000000000000000000000000000000000000000000000000000000000000000000000000000000000000032
:400EC00000000000000000000000000000000000000000000000000000000000000000000000000000000000000000000000000000000000000000000000000000000000F2
:400F000000000000000000000000000000000000000000000000000000000000000000000000000000000000000000000000000000000000000000000000000000000000B1
:400F40000000000000000000000000000000000000000000000000000000000000000000000000000000000000000000000000000000000000000000000000000000000071
:400F80000000000000000000000000000000000000000000000000000000000000000000000000000000000000000000000000000000000000000000000000000000000031
:400FC00000000000000000000000000000000000000000000000000000000000000000000000000000000000000000000000000000000000000000000000000000000000F1
:0200000490006A
:0400000000004005B7
:0200000490105A
:04000000BC90ACAF55
:0200000490303A
:02000000CDF33E
:0200000490501A
:0C00000000011E09E06903011E2EAE5C29
:0200000490402A
:4000000000000000000000000000000000000000000000000000000000000000000000000000000000000000000000000000000000000000000000000000000000000000C0
:00000001FF
