:100000000C943E000C9448000C9448000C9448005A
:100010000C9448000C9448000C9448000C94480040
:100020000C9448000C9448000C9448000C94480030
:100030000C9448000C9448000C9448000C94480020
:100040000C9448000C9448000C9448000C94480010
:100050000C9448000C9448000C9448000C94480000
:100060000C9448000C9448000C9448000C944800F0
:100070000C9448000C9448000C94480011241FBEB6
:10008000CFEFD0E1DEBFCDBF0E944A000C946D00DF
:100090000C9400008FEF81B984B987B98AB921E047
:1000A00030E040E850E064EF71E002C056954795BB
:1000B00042B925B928B92BB984EC99E0FB013197F5
:1000C000F1F70197D9F7220F331F2138310570F36B
:0E00D00021E030E040E850E0EBCFF894FFCFA5
:00000001FF
